{"contracts/ERC1155Contrackt.sol":{"SupplyChain":{"abi":[{"inputs":[],"stateMutability":"nonpayable","type":"constructor"},{"anonymous":false,"inputs":[{"indexed":true,"internalType":"address","name":"account","type":"address"},{"indexed":true,"internalType":"address","name":"operator","type":"address"},{"indexed":false,"internalType":"bool","name":"approved","type":"bool"}],"name":"ApprovalForAll","type":"event"},{"anonymous":false,"inputs":[{"indexed":true,"internalType":"uint256","name":"itemId","type":"uint256"},{"indexed":true,"internalType":"address","name":"seller","type":"address"},{"indexed":false,"internalType":"uint256","name":"price","type":"uint256"},{"indexed":false,"internalType":"uint256","name":"quantity","type":"uint256"}],"name":"ItemListed","type":"event"},{"anonymous":false,"inputs":[{"indexed":true,"internalType":"uint256","name":"itemId","type":"uint256"},{"indexed":true,"internalType":"address","name":"buyer","type":"address"},{"indexed":false,"internalType":"uint256","name":"quantity","type":"uint256"}],"name":"ItemPurchased","type":"event"},{"anonymous":false,"inputs":[{"indexed":true,"internalType":"address","name":"previousOwner","type":"address"},{"indexed":true,"internalType":"address","name":"newOwner","type":"address"}],"name":"OwnershipTransferred","type":"event"},{"anonymous":false,"inputs":[{"indexed":true,"internalType":"address","name":"operator","type":"address"},{"indexed":true,"internalType":"address","name":"from","type":"address"},{"indexed":true,"internalType":"address","name":"to","type":"address"},{"indexed":false,"internalType":"uint256[]","name":"ids","type":"uint256[]"},{"indexed":false,"internalType":"uint256[]","name":"values","type":"uint256[]"}],"name":"TransferBatch","type":"event"},{"anonymous":false,"inputs":[{"indexed":true,"internalType":"address","name":"operator","type":"address"},{"indexed":true,"internalType":"address","name":"from","type":"address"},{"indexed":true,"internalType":"address","name":"to","type":"address"},{"indexed":false,"internalType":"uint256","name":"id","type":"uint256"},{"indexed":false,"internalType":"uint256","name":"value","type":"uint256"}],"name":"TransferSingle","type":"event"},{"anonymous":false,"inputs":[{"indexed":false,"internalType":"string","name":"value","type":"string"},{"indexed":true,"internalType":"uint256","name":"id","type":"uint256"}],"name":"URI","type":"event"},{"inputs":[{"internalType":"address","name":"account","type":"address"},{"internalType":"uint256","name":"id","type":"uint256"}],"name":"balanceOf","outputs":[{"internalType":"uint256","name":"","type":"uint256"}],"stateMutability":"view","type":"function"},{"inputs":[{"internalType":"address[]","name":"accounts","type":"address[]"},{"internalType":"uint256[]","name":"ids","type":"uint256[]"}],"name":"balanceOfBatch","outputs":[{"internalType":"uint256[]","name":"","type":"uint256[]"}],"stateMutability":"view","type":"function"},{"inputs":[],"name":"escrow","outputs":[{"internalType":"address","name":"","type":"address"}],"stateMutability":"view","type":"function"},{"inputs":[{"internalType":"address","name":"account","type":"address"},{"internalType":"address","name":"operator","type":"address"}],"name":"isApprovedForAll","outputs":[{"internalType":"bool","name":"","type":"bool"}],"stateMutability":"view","type":"function"},{"inputs":[],"name":"itemCount","outputs":[{"internalType":"uint256","name":"","type":"uint256"}],"stateMutability":"view","type":"function"},{"inputs":[{"internalType":"uint256","name":"","type":"uint256"}],"name":"items","outputs":[{"internalType":"string","name":"name","type":"string"},{"internalType":"string","name":"symbol","type":"string"},{"internalType":"string","name":"uri","type":"string"},{"internalType":"uint256","name":"price","type":"uint256"},{"internalType":"address","name":"owner","type":"address"},{"internalType":"uint256","name":"quantity","type":"uint256"},{"internalType":"bool","name":"forSale","type":"bool"}],"stateMutability":"view","type":"function"},{"inputs":[{"internalType":"string[]","name":"names","type":"string[]"},{"internalType":"string[]","name":"symbols","type":"string[]"},{"internalType":"string[]","name":"uris","type":"string[]"},{"internalType":"uint256[]","name":"prices","type":"uint256[]"},{"internalType":"uint256[]","name":"quantities","type":"uint256[]"}],"name":"listItems","outputs":[],"stateMutability":"nonpayable","type":"function"},{"inputs":[],"name":"owner","outputs":[{"internalType":"address","name":"","type":"address"}],"stateMutability":"view","type":"function"},{"inputs":[],"name":"renounceOwnership","outputs":[],"stateMutability":"nonpayable","type":"function"},{"inputs":[{"internalType":"address","name":"from","type":"address"},{"internalType":"address","name":"to","type":"address"},{"internalType":"uint256[]","name":"ids","type":"uint256[]"},{"internalType":"uint256[]","name":"amounts","type":"uint256[]"},{"internalType":"bytes","name":"data","type":"bytes"}],"name":"safeBatchTransferFrom","outputs":[],"stateMutability":"nonpayable","type":"function"},{"inputs":[{"internalType":"address","name":"from","type":"address"},{"internalType":"address","name":"to","type":"address"},{"internalType":"uint256","name":"id","type":"uint256"},{"internalType":"uint256","name":"amount","type":"uint256"},{"internalType":"bytes","name":"data","type":"bytes"}],"name":"safeTransferFrom","outputs":[],"stateMutability":"nonpayable","type":"function"},{"inputs":[{"internalType":"address","name":"operator","type":"address"},{"internalType":"bool","name":"approved","type":"bool"}],"name":"setApprovalForAll","outputs":[],"stateMutability":"nonpayable","type":"function"},{"inputs":[{"internalType":"address","name":"_escrow","type":"address"}],"name":"setEscrow","outputs":[],"stateMutability":"nonpayable","type":"function"},{"inputs":[{"internalType":"bytes4","name":"interfaceId","type":"bytes4"}],"name":"supportsInterface","outputs":[{"internalType":"bool","name":"","type":"bool"}],"stateMutability":"view","type":"function"},{"inputs":[{"internalType":"address","name":"newOwner","type":"address"}],"name":"transferOwnership","outputs":[],"stateMutability":"nonpayable","type":"function"},{"inputs":[{"internalType":"uint256","name":"itemId","type":"uint256"},{"internalType":"uint256","name":"quantity","type":"uint256"},{"internalType":"uint256","name":"price","type":"uint256"}],"name":"transferToEscrow","outputs":[],"stateMutability":"nonpayable","type":"function"},{"inputs":[{"internalType":"uint256","name":"tokenId","type":"uint256"}],"name":"uri","outputs":[{"internalType":"string","name":"","type":"string"}],"stateMutability":"view","type":"function"},{"inputs":[],"name":"withdraw","outputs":[],"stateMutability":"nonpayable","type":"function"}],"evm":{"bytecode":{"linkReferences":{},"object":"60806040523480156200001157600080fd5b506040518060200160405280600081525062000033816200006260201b60201c565b5062000054620000486200007e60201b60201c565b6200008660201b60201c565b600160048190555062000261565b80600290805190602001906200007a9291906200014c565b5050565b600033905090565b6000600360009054906101000a900473ffffffffffffffffffffffffffffffffffffffff16905081600360006101000a81548173ffffffffffffffffffffffffffffffffffffffff021916908373ffffffffffffffffffffffffffffffffffffffff1602179055508173ffffffffffffffffffffffffffffffffffffffff168173ffffffffffffffffffffffffffffffffffffffff167f8be0079c531659141344cd1fd0a4f28419497f9722a3daafe3b4186f6b6457e060405160405180910390a35050565b8280546200015a906200022b565b90600052602060002090601f0160209004810192826200017e5760008555620001ca565b82601f106200019957805160ff1916838001178555620001ca565b82800160010185558215620001ca579182015b82811115620001c9578251825591602001919060010190620001ac565b5b509050620001d99190620001dd565b5090565b5b80821115620001f8576000816000905550600101620001de565b5090565b7f4e487b7100000000000000000000000000000000000000000000000000000000600052602260045260246000fd5b600060028204905060018216806200024457607f821691505b602082108114156200025b576200025a620001fc565b5b50919050565b613afa80620002716000396000f3fe608060405234801561001057600080fd5b50600436106101155760003560e01c80638da5cb5b116100a2578063c10c354611610071578063c10c3546146102d0578063e2fdcc17146102ec578063e985e9c51461030a578063f242432a1461033a578063f2fde38b1461035657610115565b80638da5cb5b14610244578063a22cb46514610262578063a8346a461461027e578063bfb231d21461029a57610115565b80633ccfd60b116100e95780633ccfd60b146101c65780634d125ba6146101d05780634e1273f4146101ec5780636bfb0d011461021c578063715018a61461023a57610115565b8062fdd58e1461011a57806301ffc9a71461014a5780630e89341c1461017a5780632eb2c2d6146101aa575b600080fd5b610134600480360381019061012f919061223e565b610372565b604051610141919061228d565b60405180910390f35b610164600480360381019061015f9190612300565b61043b565b6040516101719190612348565b60405180910390f35b610194600480360381019061018f9190612363565b61051d565b6040516101a19190612429565b60405180910390f35b6101c460048036038101906101bf9190612648565b6105c5565b005b6101ce610666565b005b6101ea60048036038101906101e59190612717565b6106c7565b005b6102066004803603810190610201919061282d565b610910565b6040516102139190612963565b60405180910390f35b610224610a29565b604051610231919061228d565b60405180910390f35b610242610a2f565b005b61024c610a43565b6040516102599190612994565b60405180910390f35b61027c600480360381019061027791906129db565b610a6d565b005b61029860048036038101906102939190612b9d565b610a83565b005b6102b460048036038101906102af9190612363565b610d34565b6040516102c79796959493929190612ca4565b60405180910390f35b6102ea60048036038101906102e59190612d28565b610f3b565b005b6102f4610f97565b6040516103019190612994565b60405180910390f35b610324600480360381019061031f9190612d55565b610fbd565b6040516103319190612348565b60405180910390f35b610354600480360381019061034f9190612d95565b611051565b005b610370600480360381019061036b9190612d28565b6110f2565b005b60008073ffffffffffffffffffffffffffffffffffffffff168373ffffffffffffffffffffffffffffffffffffffff1614156103e3576040517f08c379a00000000000000000000000000000000000000000000000000000000081526004016103da90612e9e565b60405180910390fd5b60008083815260200190815260200160002060008473ffffffffffffffffffffffffffffffffffffffff1673ffffffffffffffffffffffffffffffffffffffff16815260200190815260200160002054905092915050565b60007fd9b67a26000000000000000000000000000000000000000000000000000000007bffffffffffffffffffffffffffffffffffffffffffffffffffffffff1916827bffffffffffffffffffffffffffffffffffffffffffffffffffffffff1916148061050657507f0e89341c000000000000000000000000000000000000000000000000000000007bffffffffffffffffffffffffffffffffffffffffffffffffffffffff1916827bffffffffffffffffffffffffffffffffffffffffffffffffffffffff1916145b80610516575061051582611176565b5b9050919050565b606060056000838152602001908152602001600020600201805461054090612eed565b80601f016020809104026020016040519081016040528092919081815260200182805461056c90612eed565b80156105b95780601f1061058e576101008083540402835291602001916105b9565b820191906000526020600020905b81548152906001019060200180831161059c57829003601f168201915b50505050509050919050565b6105cd6111e0565b73ffffffffffffffffffffffffffffffffffffffff168573ffffffffffffffffffffffffffffffffffffffff16148061061357506106128561060d6111e0565b610fbd565b5b610652576040517f08c379a000000000000000000000000000000000000000000000000000000000815260040161064990612f91565b60405180910390fd5b61065f85858585856111e8565b5050505050565b61066e61150a565b610676611588565b3373ffffffffffffffffffffffffffffffffffffffff166108fc479081150290604051600060405180830381858888f193505050501580156106bc573d6000803e3d6000fd5b506106c56115d8565b565b6106cf61150a565b6106d7611588565b60006005600085815260200190815260200160002090508281600501541015610735576040517f08c379a000000000000000000000000000000000000000000000000000000000815260040161072c90612ffd565b60405180910390fd5b3373ffffffffffffffffffffffffffffffffffffffff168160040160009054906101000a900473ffffffffffffffffffffffffffffffffffffffff1673ffffffffffffffffffffffffffffffffffffffff16146107c7576040517f08c379a00000000000000000000000000000000000000000000000000000000081526004016107be9061308f565b60405180910390fd5b60018160060160006101000a81548160ff02191690831515021790555081816003018190555061084f8160040160009054906101000a900473ffffffffffffffffffffffffffffffffffffffff16600760009054906101000a900473ffffffffffffffffffffffffffffffffffffffff16868660405180602001604052806000815250611051565b338160040160006101000a81548173ffffffffffffffffffffffffffffffffffffffff021916908373ffffffffffffffffffffffffffffffffffffffff1602179055506108a98382600501546115e290919063ffffffff16565b81600501819055503373ffffffffffffffffffffffffffffffffffffffff16847fb7070c3c377d2fb697e5ddc72b0283eb751116d682ff1cdb579eab77bcc4013b84866040516108fa9291906130af565b60405180910390a35061090b6115d8565b505050565b60608151835114610956576040517f08c379a000000000000000000000000000000000000000000000000000000000815260040161094d9061314a565b60405180910390fd5b6000835167ffffffffffffffff81111561097357610972612450565b5b6040519080825280602002602001820160405280156109a15781602001602082028036833780820191505090505b50905060005b8451811015610a1e576109ee8582815181106109c6576109c561316a565b5b60200260200101518583815181106109e1576109e061316a565b5b6020026020010151610372565b828281518110610a0157610a0061316a565b5b60200260200101818152505080610a17906131c8565b90506109a7565b508091505092915050565b60065481565b610a3761150a565b610a4160006115f8565b565b6000600360009054906101000a900473ffffffffffffffffffffffffffffffffffffffff16905090565b610a7f610a786111e0565b83836116be565b5050565b610a8b61150a565b610a93611588565b83518551148015610aa5575082518551145b8015610ab2575081518551145b8015610abf575080518551145b610afe576040517f08c379a0000000000000000000000000000000000000000000000000000000008152600401610af59061325d565b60405180910390fd5b60005b8551811015610d245760066000815480929190610b1d906131c8565b91905055506040518060e00160405280878381518110610b4057610b3f61316a565b5b60200260200101518152602001868381518110610b6057610b5f61316a565b5b60200260200101518152602001858381518110610b8057610b7f61316a565b5b60200260200101518152602001848381518110610ba057610b9f61316a565b5b602002602001015181526020013373ffffffffffffffffffffffffffffffffffffffff168152602001838381518110610bdc57610bdb61316a565b5b60200260200101518152602001600015158152506005600060065481526020019081526020016000206000820151816000019080519060200190610c219291906120f3565b506020820151816001019080519060200190610c3e9291906120f3565b506040820151816002019080519060200190610c5b9291906120f3565b506060820151816003015560808201518160040160006101000a81548173ffffffffffffffffffffffffffffffffffffffff021916908373ffffffffffffffffffffffffffffffffffffffff16021790555060a0820151816005015560c08201518160060160006101000a81548160ff021916908315150217905550905050610d1133600654848481518110610cf457610cf361316a565b5b60200260200101516040518060200160405280600081525061182b565b8080610d1c906131c8565b915050610b01565b50610d2d6115d8565b5050505050565b6005602052806000526040600020600091509050806000018054610d5790612eed565b80601f0160208091040260200160405190810160405280929190818152602001828054610d8390612eed565b8015610dd05780601f10610da557610100808354040283529160200191610dd0565b820191906000526020600020905b815481529060010190602001808311610db357829003601f168201915b505050505090806001018054610de590612eed565b80601f0160208091040260200160405190810160405280929190818152602001828054610e1190612eed565b8015610e5e5780601f10610e3357610100808354040283529160200191610e5e565b820191906000526020600020905b815481529060010190602001808311610e4157829003601f168201915b505050505090806002018054610e7390612eed565b80601f0160208091040260200160405190810160405280929190818152602001828054610e9f90612eed565b8015610eec5780601f10610ec157610100808354040283529160200191610eec565b820191906000526020600020905b815481529060010190602001808311610ecf57829003601f168201915b5050505050908060030154908060040160009054906101000a900473ffffffffffffffffffffffffffffffffffffffff16908060050154908060060160009054906101000a900460ff16905087565b610f4361150a565b610f4b611588565b80600760006101000a81548173ffffffffffffffffffffffffffffffffffffffff021916908373ffffffffffffffffffffffffffffffffffffffff160217905550610f946115d8565b50565b600760009054906101000a900473ffffffffffffffffffffffffffffffffffffffff1681565b6000600160008473ffffffffffffffffffffffffffffffffffffffff1673ffffffffffffffffffffffffffffffffffffffff16815260200190815260200160002060008373ffffffffffffffffffffffffffffffffffffffff1673ffffffffffffffffffffffffffffffffffffffff16815260200190815260200160002060009054906101000a900460ff16905092915050565b6110596111e0565b73ffffffffffffffffffffffffffffffffffffffff168573ffffffffffffffffffffffffffffffffffffffff16148061109f575061109e856110996111e0565b610fbd565b5b6110de576040517f08c379a00000000000000000000000000000000000000000000000000000000081526004016110d590612f91565b60405180910390fd5b6110eb85858585856119dc565b5050505050565b6110fa61150a565b600073ffffffffffffffffffffffffffffffffffffffff168173ffffffffffffffffffffffffffffffffffffffff16141561116a576040517f08c379a0000000000000000000000000000000000000000000000000000000008152600401611161906132ef565b60405180910390fd5b611173816115f8565b50565b60007f01ffc9a7000000000000000000000000000000000000000000000000000000007bffffffffffffffffffffffffffffffffffffffffffffffffffffffff1916827bffffffffffffffffffffffffffffffffffffffffffffffffffffffff1916149050919050565b600033905090565b815183511461122c576040517f08c379a000000000000000000000000000000000000000000000000000000000815260040161122390613381565b60405180910390fd5b600073ffffffffffffffffffffffffffffffffffffffff168473ffffffffffffffffffffffffffffffffffffffff16141561129c576040517f08c379a000000000000000000000000000000000000000000000000000000000815260040161129390613413565b60405180910390fd5b60006112a66111e0565b90506112b6818787878787611c78565b60005b84518110156114675760008582815181106112d7576112d661316a565b5b6020026020010151905060008583815181106112f6576112f561316a565b5b60200260200101519050600080600084815260200190815260200160002060008b73ffffffffffffffffffffffffffffffffffffffff1673ffffffffffffffffffffffffffffffffffffffff16815260200190815260200160002054905081811015611397576040517f08c379a000000000000000000000000000000000000000000000000000000000815260040161138e906134a5565b60405180910390fd5b81810360008085815260200190815260200160002060008c73ffffffffffffffffffffffffffffffffffffffff1673ffffffffffffffffffffffffffffffffffffffff168152602001908152602001600020819055508160008085815260200190815260200160002060008b73ffffffffffffffffffffffffffffffffffffffff1673ffffffffffffffffffffffffffffffffffffffff168152602001908152602001600020600082825461144c91906134c5565b9250508190555050505080611460906131c8565b90506112b9565b508473ffffffffffffffffffffffffffffffffffffffff168673ffffffffffffffffffffffffffffffffffffffff168273ffffffffffffffffffffffffffffffffffffffff167f4a39dc06d4c0dbc64b70af90fd698a233a518aa5d07e595d983b8c0526c8f7fb87876040516114de92919061351b565b60405180910390a46114f4818787878787611c80565b611502818787878787611c88565b505050505050565b6115126111e0565b73ffffffffffffffffffffffffffffffffffffffff16611530610a43565b73ffffffffffffffffffffffffffffffffffffffff1614611586576040517f08c379a000000000000000000000000000000000000000000000000000000000815260040161157d9061359e565b60405180910390fd5b565b600260045414156115ce576040517f08c379a00000000000000000000000000000000000000000000000000000000081526004016115c59061360a565b60405180910390fd5b6002600481905550565b6001600481905550565b600081836115f0919061362a565b905092915050565b6000600360009054906101000a900473ffffffffffffffffffffffffffffffffffffffff16905081600360006101000a81548173ffffffffffffffffffffffffffffffffffffffff021916908373ffffffffffffffffffffffffffffffffffffffff1602179055508173ffffffffffffffffffffffffffffffffffffffff168173ffffffffffffffffffffffffffffffffffffffff167f8be0079c531659141344cd1fd0a4f28419497f9722a3daafe3b4186f6b6457e060405160405180910390a35050565b8173ffffffffffffffffffffffffffffffffffffffff168373ffffffffffffffffffffffffffffffffffffffff16141561172d576040517f08c379a0000000000000000000000000000000000000000000000000000000008152600401611724906136d0565b60405180910390fd5b80600160008573ffffffffffffffffffffffffffffffffffffffff1673ffffffffffffffffffffffffffffffffffffffff16815260200190815260200160002060008473ffffffffffffffffffffffffffffffffffffffff1673ffffffffffffffffffffffffffffffffffffffff16815260200190815260200160002060006101000a81548160ff0219169083151502179055508173ffffffffffffffffffffffffffffffffffffffff168373ffffffffffffffffffffffffffffffffffffffff167f17307eab39ab6107e8899845ad3d59bd9653f200f220920489ca2b5937696c318360405161181e9190612348565b60405180910390a3505050565b600073ffffffffffffffffffffffffffffffffffffffff168473ffffffffffffffffffffffffffffffffffffffff16141561189b576040517f08c379a000000000000000000000000000000000000000000000000000000000815260040161189290613762565b60405180910390fd5b60006118a56111e0565b905060006118b285611e6f565b905060006118bf85611e6f565b90506118d083600089858589611c78565b8460008088815260200190815260200160002060008973ffffffffffffffffffffffffffffffffffffffff1673ffffffffffffffffffffffffffffffffffffffff168152602001908152602001600020600082825461192f91906134c5565b925050819055508673ffffffffffffffffffffffffffffffffffffffff16600073ffffffffffffffffffffffffffffffffffffffff168473ffffffffffffffffffffffffffffffffffffffff167fc3d58168c5ae7397731d063d5bbf3d657854427343f4c083240f7aacaa2d0f6289896040516119ad9291906130af565b60405180910390a46119c483600089858589611c80565b6119d383600089898989611ee9565b50505050505050565b600073ffffffffffffffffffffffffffffffffffffffff168473ffffffffffffffffffffffffffffffffffffffff161415611a4c576040517f08c379a0000000000000000000000000000000000000000000000000000000008152600401611a4390613413565b60405180910390fd5b6000611a566111e0565b90506000611a6385611e6f565b90506000611a7085611e6f565b9050611a80838989858589611c78565b600080600088815260200190815260200160002060008a73ffffffffffffffffffffffffffffffffffffffff1673ffffffffffffffffffffffffffffffffffffffff16815260200190815260200160002054905085811015611b17576040517f08c379a0000000000000000000000000000000000000000000000000000000008152600401611b0e906134a5565b60405180910390fd5b85810360008089815260200190815260200160002060008b73ffffffffffffffffffffffffffffffffffffffff1673ffffffffffffffffffffffffffffffffffffffff168152602001908152602001600020819055508560008089815260200190815260200160002060008a73ffffffffffffffffffffffffffffffffffffffff1673ffffffffffffffffffffffffffffffffffffffff1681526020019081526020016000206000828254611bcc91906134c5565b925050819055508773ffffffffffffffffffffffffffffffffffffffff168973ffffffffffffffffffffffffffffffffffffffff168573ffffffffffffffffffffffffffffffffffffffff167fc3d58168c5ae7397731d063d5bbf3d657854427343f4c083240f7aacaa2d0f628a8a604051611c499291906130af565b60405180910390a4611c5f848a8a86868a611c80565b611c6d848a8a8a8a8a611ee9565b505050505050505050565b505050505050565b505050505050565b611ca78473ffffffffffffffffffffffffffffffffffffffff166120d0565b15611e67578373ffffffffffffffffffffffffffffffffffffffff1663bc197c8187878686866040518663ffffffff1660e01b8152600401611ced9594939291906137d7565b602060405180830381600087803b158015611d0757600080fd5b505af1925050508015611d3857506040513d601f19601f82011682018060405250810190611d359190613854565b60015b611dde57611d4461388e565b806308c379a01415611da15750611d596138b0565b80611d645750611da3565b806040517f08c379a0000000000000000000000000000000000000000000000000000000008152600401611d989190612429565b60405180910390fd5b505b6040517f08c379a0000000000000000000000000000000000000000000000000000000008152600401611dd5906139b8565b60405180910390fd5b63bc197c8160e01b7bffffffffffffffffffffffffffffffffffffffffffffffffffffffff1916817bffffffffffffffffffffffffffffffffffffffffffffffffffffffff191614611e65576040517f08c379a0000000000000000000000000000000000000000000000000000000008152600401611e5c90613a4a565b60405180910390fd5b505b505050505050565b60606000600167ffffffffffffffff811115611e8e57611e8d612450565b5b604051908082528060200260200182016040528015611ebc5781602001602082028036833780820191505090505b5090508281600081518110611ed457611ed361316a565b5b60200260200101818152505080915050919050565b611f088473ffffffffffffffffffffffffffffffffffffffff166120d0565b156120c8578373ffffffffffffffffffffffffffffffffffffffff1663f23a6e6187878686866040518663ffffffff1660e01b8152600401611f4e959493929190613a6a565b602060405180830381600087803b158015611f6857600080fd5b505af1925050508015611f9957506040513d601f19601f82011682018060405250810190611f969190613854565b60015b61203f57611fa561388e565b806308c379a014156120025750611fba6138b0565b80611fc55750612004565b806040517f08c379a0000000000000000000000000000000000000000000000000000000008152600401611ff99190612429565b60405180910390fd5b505b6040517f08c379a0000000000000000000000000000000000000000000000000000000008152600401612036906139b8565b60405180910390fd5b63f23a6e6160e01b7bffffffffffffffffffffffffffffffffffffffffffffffffffffffff1916817bffffffffffffffffffffffffffffffffffffffffffffffffffffffff1916146120c6576040517f08c379a00000000000000000000000000000000000000000000000000000000081526004016120bd90613a4a565b60405180910390fd5b505b505050505050565b6000808273ffffffffffffffffffffffffffffffffffffffff163b119050919050565b8280546120ff90612eed565b90600052602060002090601f0160209004810192826121215760008555612168565b82601f1061213a57805160ff1916838001178555612168565b82800160010185558215612168579182015b8281111561216757825182559160200191906001019061214c565b5b5090506121759190612179565b5090565b5b8082111561219257600081600090555060010161217a565b5090565b6000604051905090565b600080fd5b600080fd5b600073ffffffffffffffffffffffffffffffffffffffff82169050919050565b60006121d5826121aa565b9050919050565b6121e5816121ca565b81146121f057600080fd5b50565b600081359050612202816121dc565b92915050565b6000819050919050565b61221b81612208565b811461222657600080fd5b50565b60008135905061223881612212565b92915050565b60008060408385031215612255576122546121a0565b5b6000612263858286016121f3565b925050602061227485828601612229565b9150509250929050565b61228781612208565b82525050565b60006020820190506122a2600083018461227e565b92915050565b60007fffffffff0000000000000000000000000000000000000000000000000000000082169050919050565b6122dd816122a8565b81146122e857600080fd5b50565b6000813590506122fa816122d4565b92915050565b600060208284031215612316576123156121a0565b5b6000612324848285016122eb565b91505092915050565b60008115159050919050565b6123428161232d565b82525050565b600060208201905061235d6000830184612339565b92915050565b600060208284031215612379576123786121a0565b5b600061238784828501612229565b91505092915050565b600081519050919050565b600082825260208201905092915050565b60005b838110156123ca5780820151818401526020810190506123af565b838111156123d9576000848401525b50505050565b6000601f19601f8301169050919050565b60006123fb82612390565b612405818561239b565b93506124158185602086016123ac565b61241e816123df565b840191505092915050565b6000602082019050818103600083015261244381846123f0565b905092915050565b600080fd5b7f4e487b7100000000000000000000000000000000000000000000000000000000600052604160045260246000fd5b612488826123df565b810181811067ffffffffffffffff821117156124a7576124a6612450565b5b80604052505050565b60006124ba612196565b90506124c6828261247f565b919050565b600067ffffffffffffffff8211156124e6576124e5612450565b5b602082029050602081019050919050565b600080fd5b600061250f61250a846124cb565b6124b0565b90508083825260208201905060208402830185811115612532576125316124f7565b5b835b8181101561255b57806125478882612229565b845260208401935050602081019050612534565b5050509392505050565b600082601f83011261257a5761257961244b565b5b813561258a8482602086016124fc565b91505092915050565b600080fd5b600067ffffffffffffffff8211156125b3576125b2612450565b5b6125bc826123df565b9050602081019050919050565b82818337600083830152505050565b60006125eb6125e684612598565b6124b0565b90508281526020810184848401111561260757612606612593565b5b6126128482856125c9565b509392505050565b600082601f83011261262f5761262e61244b565b5b813561263f8482602086016125d8565b91505092915050565b600080600080600060a08688031215612664576126636121a0565b5b6000612672888289016121f3565b9550506020612683888289016121f3565b945050604086013567ffffffffffffffff8111156126a4576126a36121a5565b5b6126b088828901612565565b935050606086013567ffffffffffffffff8111156126d1576126d06121a5565b5b6126dd88828901612565565b925050608086013567ffffffffffffffff8111156126fe576126fd6121a5565b5b61270a8882890161261a565b9150509295509295909350565b6000806000606084860312156127305761272f6121a0565b5b600061273e86828701612229565b935050602061274f86828701612229565b925050604061276086828701612229565b9150509250925092565b600067ffffffffffffffff82111561278557612784612450565b5b602082029050602081019050919050565b60006127a96127a48461276a565b6124b0565b905080838252602082019050602084028301858111156127cc576127cb6124f7565b5b835b818110156127f557806127e188826121f3565b8452602084019350506020810190506127ce565b5050509392505050565b600082601f8301126128145761281361244b565b5b8135612824848260208601612796565b91505092915050565b60008060408385031215612844576128436121a0565b5b600083013567ffffffffffffffff811115612862576128616121a5565b5b61286e858286016127ff565b925050602083013567ffffffffffffffff81111561288f5761288e6121a5565b5b61289b85828601612565565b9150509250929050565b600081519050919050565b600082825260208201905092915050565b6000819050602082019050919050565b6128da81612208565b82525050565b60006128ec83836128d1565b60208301905092915050565b6000602082019050919050565b6000612910826128a5565b61291a81856128b0565b9350612925836128c1565b8060005b8381101561295657815161293d88826128e0565b9750612948836128f8565b925050600181019050612929565b5085935050505092915050565b6000602082019050818103600083015261297d8184612905565b905092915050565b61298e816121ca565b82525050565b60006020820190506129a96000830184612985565b92915050565b6129b88161232d565b81146129c357600080fd5b50565b6000813590506129d5816129af565b92915050565b600080604083850312156129f2576129f16121a0565b5b6000612a00858286016121f3565b9250506020612a11858286016129c6565b9150509250929050565b600067ffffffffffffffff821115612a3657612a35612450565b5b602082029050602081019050919050565b600067ffffffffffffffff821115612a6257612a61612450565b5b612a6b826123df565b9050602081019050919050565b6000612a8b612a8684612a47565b6124b0565b905082815260208101848484011115612aa757612aa6612593565b5b612ab28482856125c9565b509392505050565b600082601f830112612acf57612ace61244b565b5b8135612adf848260208601612a78565b91505092915050565b6000612afb612af684612a1b565b6124b0565b90508083825260208201905060208402830185811115612b1e57612b1d6124f7565b5b835b81811015612b6557803567ffffffffffffffff811115612b4357612b4261244b565b5b808601612b508982612aba565b85526020850194505050602081019050612b20565b5050509392505050565b600082601f830112612b8457612b8361244b565b5b8135612b94848260208601612ae8565b91505092915050565b600080600080600060a08688031215612bb957612bb86121a0565b5b600086013567ffffffffffffffff811115612bd757612bd66121a5565b5b612be388828901612b6f565b955050602086013567ffffffffffffffff811115612c0457612c036121a5565b5b612c1088828901612b6f565b945050604086013567ffffffffffffffff811115612c3157612c306121a5565b5b612c3d88828901612b6f565b935050606086013567ffffffffffffffff811115612c5e57612c5d6121a5565b5b612c6a88828901612565565b925050608086013567ffffffffffffffff811115612c8b57612c8a6121a5565b5b612c9788828901612565565b9150509295509295909350565b600060e0820190508181036000830152612cbe818a6123f0565b90508181036020830152612cd281896123f0565b90508181036040830152612ce681886123f0565b9050612cf5606083018761227e565b612d026080830186612985565b612d0f60a083018561227e565b612d1c60c0830184612339565b98975050505050505050565b600060208284031215612d3e57612d3d6121a0565b5b6000612d4c848285016121f3565b91505092915050565b60008060408385031215612d6c57612d6b6121a0565b5b6000612d7a858286016121f3565b9250506020612d8b858286016121f3565b9150509250929050565b600080600080600060a08688031215612db157612db06121a0565b5b6000612dbf888289016121f3565b9550506020612dd0888289016121f3565b9450506040612de188828901612229565b9350506060612df288828901612229565b925050608086013567ffffffffffffffff811115612e1357612e126121a5565b5b612e1f8882890161261a565b9150509295509295909350565b7f455243313135353a2061646472657373207a65726f206973206e6f742061207660008201527f616c6964206f776e657200000000000000000000000000000000000000000000602082015250565b6000612e88602a8361239b565b9150612e9382612e2c565b604082019050919050565b60006020820190508181036000830152612eb781612e7b565b9050919050565b7f4e487b7100000000000000000000000000000000000000000000000000000000600052602260045260246000fd5b60006002820490506001821680612f0557607f821691505b60208210811415612f1957612f18612ebe565b5b50919050565b7f455243313135353a2063616c6c6572206973206e6f7420746f6b656e206f776e60008201527f6572206f7220617070726f766564000000000000000000000000000000000000602082015250565b6000612f7b602e8361239b565b9150612f8682612f1f565b604082019050919050565b60006020820190508181036000830152612faa81612f6e565b9050919050565b7f496e73756666696369656e7420737570706c792e000000000000000000000000600082015250565b6000612fe760148361239b565b9150612ff282612fb1565b602082019050919050565b6000602082019050818103600083015261301681612fda565b9050919050565b7f4f6e6c7920746865206f776e65722063616e206c69737420746865206974656d60008201527f20666f722073616c652e00000000000000000000000000000000000000000000602082015250565b6000613079602a8361239b565b91506130848261301d565b604082019050919050565b600060208201905081810360008301526130a88161306c565b9050919050565b60006040820190506130c4600083018561227e565b6130d1602083018461227e565b9392505050565b7f455243313135353a206163636f756e747320616e6420696473206c656e67746860008201527f206d69736d617463680000000000000000000000000000000000000000000000602082015250565b600061313460298361239b565b915061313f826130d8565b604082019050919050565b6000602082019050818103600083015261316381613127565b9050919050565b7f4e487b7100000000000000000000000000000000000000000000000000000000600052603260045260246000fd5b7f4e487b7100000000000000000000000000000000000000000000000000000000600052601160045260246000fd5b60006131d382612208565b91507fffffffffffffffffffffffffffffffffffffffffffffffffffffffffffffffff82141561320657613205613199565b5b600182019050919050565b7f417272617973206d757374206265207468652073616d65206c656e6774682e00600082015250565b6000613247601f8361239b565b915061325282613211565b602082019050919050565b600060208201905081810360008301526132768161323a565b9050919050565b7f4f776e61626c653a206e6577206f776e657220697320746865207a65726f206160008201527f6464726573730000000000000000000000000000000000000000000000000000602082015250565b60006132d960268361239b565b91506132e48261327d565b604082019050919050565b60006020820190508181036000830152613308816132cc565b9050919050565b7f455243313135353a2069647320616e6420616d6f756e7473206c656e6774682060008201527f6d69736d61746368000000000000000000000000000000000000000000000000602082015250565b600061336b60288361239b565b91506133768261330f565b604082019050919050565b6000602082019050818103600083015261339a8161335e565b9050919050565b7f455243313135353a207472616e7366657220746f20746865207a65726f20616460008201527f6472657373000000000000000000000000000000000000000000000000000000602082015250565b60006133fd60258361239b565b9150613408826133a1565b604082019050919050565b6000602082019050818103600083015261342c816133f0565b9050919050565b7f455243313135353a20696e73756666696369656e742062616c616e636520666f60008201527f72207472616e7366657200000000000000000000000000000000000000000000602082015250565b600061348f602a8361239b565b915061349a82613433565b604082019050919050565b600060208201905081810360008301526134be81613482565b9050919050565b60006134d082612208565b91506134db83612208565b9250827fffffffffffffffffffffffffffffffffffffffffffffffffffffffffffffffff038211156135105761350f613199565b5b828201905092915050565b600060408201905081810360008301526135358185612905565b905081810360208301526135498184612905565b90509392505050565b7f4f776e61626c653a2063616c6c6572206973206e6f7420746865206f776e6572600082015250565b600061358860208361239b565b915061359382613552565b602082019050919050565b600060208201905081810360008301526135b78161357b565b9050919050565b7f5265656e7472616e637947756172643a207265656e7472616e742063616c6c00600082015250565b60006135f4601f8361239b565b91506135ff826135be565b602082019050919050565b60006020820190508181036000830152613623816135e7565b9050919050565b600061363582612208565b915061364083612208565b92508282101561365357613652613199565b5b828203905092915050565b7f455243313135353a2073657474696e6720617070726f76616c2073746174757360008201527f20666f722073656c660000000000000000000000000000000000000000000000602082015250565b60006136ba60298361239b565b91506136c58261365e565b604082019050919050565b600060208201905081810360008301526136e9816136ad565b9050919050565b7f455243313135353a206d696e7420746f20746865207a65726f2061646472657360008201527f7300000000000000000000000000000000000000000000000000000000000000602082015250565b600061374c60218361239b565b9150613757826136f0565b604082019050919050565b6000602082019050818103600083015261377b8161373f565b9050919050565b600081519050919050565b600082825260208201905092915050565b60006137a982613782565b6137b3818561378d565b93506137c38185602086016123ac565b6137cc816123df565b840191505092915050565b600060a0820190506137ec6000830188612985565b6137f96020830187612985565b818103604083015261380b8186612905565b9050818103606083015261381f8185612905565b90508181036080830152613833818461379e565b90509695505050505050565b60008151905061384e816122d4565b92915050565b60006020828403121561386a576138696121a0565b5b60006138788482850161383f565b91505092915050565b60008160e01c9050919050565b600060033d11156138ad5760046000803e6138aa600051613881565b90505b90565b600060443d10156138c057613943565b6138c8612196565b60043d036004823e80513d602482011167ffffffffffffffff821117156138f0575050613943565b808201805167ffffffffffffffff81111561390e5750505050613943565b80602083010160043d03850181111561392b575050505050613943565b61393a8260200185018661247f565b82955050505050505b90565b7f455243313135353a207472616e7366657220746f206e6f6e2d4552433131353560008201527f526563656976657220696d706c656d656e746572000000000000000000000000602082015250565b60006139a260348361239b565b91506139ad82613946565b604082019050919050565b600060208201905081810360008301526139d181613995565b9050919050565b7f455243313135353a204552433131353552656365697665722072656a6563746560008201527f6420746f6b656e73000000000000000000000000000000000000000000000000602082015250565b6000613a3460288361239b565b9150613a3f826139d8565b604082019050919050565b60006020820190508181036000830152613a6381613a27565b9050919050565b600060a082019050613a7f6000830188612985565b613a8c6020830187612985565b613a99604083018661227e565b613aa6606083018561227e565b8181036080830152613ab8818461379e565b9050969550505050505056fea2646970667358221220622b6e442b210d3278db85053ff57a7ff052590c5b964f369e6539bb98169d8864736f6c63430008090033","opcodes":"PUSH1 0x80 PUSH1 0x40 MSTORE CALLVALUE DUP1 ISZERO PUSH3 0x11 JUMPI PUSH1 0x0 DUP1 REVERT JUMPDEST POP PUSH1 0x40 MLOAD DUP1 PUSH1 0x20 ADD PUSH1 0x40 MSTORE DUP1 PUSH1 0x0 DUP2 MSTORE POP PUSH3 0x33 DUP2 PUSH3 0x62 PUSH1 0x20 SHL PUSH1 0x20 SHR JUMP JUMPDEST POP PUSH3 0x54 PUSH3 0x48 PUSH3 0x7E PUSH1 0x20 SHL PUSH1 0x20 SHR JUMP JUMPDEST PUSH3 0x86 PUSH1 0x20 SHL PUSH1 0x20 SHR JUMP JUMPDEST PUSH1 0x1 PUSH1 0x4 DUP2 SWAP1 SSTORE POP PUSH3 0x261 JUMP JUMPDEST DUP1 PUSH1 0x2 SWAP1 DUP1 MLOAD SWAP1 PUSH1 0x20 ADD SWAP1 PUSH3 0x7A SWAP3 SWAP2 SWAP1 PUSH3 0x14C JUMP JUMPDEST POP POP JUMP JUMPDEST PUSH1 0x0 CALLER SWAP1 POP SWAP1 JUMP JUMPDEST PUSH1 0x0 PUSH1 0x3 PUSH1 0x0 SWAP1 SLOAD SWAP1 PUSH2 0x100 EXP SWAP1 DIV PUSH20 0xFFFFFFFFFFFFFFFFFFFFFFFFFFFFFFFFFFFFFFFF AND SWAP1 POP DUP2 PUSH1 0x3 PUSH1 0x0 PUSH2 0x100 EXP DUP2 SLOAD DUP2 PUSH20 0xFFFFFFFFFFFFFFFFFFFFFFFFFFFFFFFFFFFFFFFF MUL NOT AND SWAP1 DUP4 PUSH20 0xFFFFFFFFFFFFFFFFFFFFFFFFFFFFFFFFFFFFFFFF AND MUL OR SWAP1 SSTORE POP DUP2 PUSH20 0xFFFFFFFFFFFFFFFFFFFFFFFFFFFFFFFFFFFFFFFF AND DUP2 PUSH20 0xFFFFFFFFFFFFFFFFFFFFFFFFFFFFFFFFFFFFFFFF AND PUSH32 0x8BE0079C531659141344CD1FD0A4F28419497F9722A3DAAFE3B4186F6B6457E0 PUSH1 0x40 MLOAD PUSH1 0x40 MLOAD DUP1 SWAP2 SUB SWAP1 LOG3 POP POP JUMP JUMPDEST DUP3 DUP1 SLOAD PUSH3 0x15A SWAP1 PUSH3 0x22B JUMP JUMPDEST SWAP1 PUSH1 0x0 MSTORE PUSH1 0x20 PUSH1 0x0 KECCAK256 SWAP1 PUSH1 0x1F ADD PUSH1 0x20 SWAP1 DIV DUP2 ADD SWAP3 DUP3 PUSH3 0x17E JUMPI PUSH1 0x0 DUP6 SSTORE PUSH3 0x1CA JUMP JUMPDEST DUP3 PUSH1 0x1F LT PUSH3 0x199 JUMPI DUP1 MLOAD PUSH1 0xFF NOT AND DUP4 DUP1 ADD OR DUP6 SSTORE PUSH3 0x1CA JUMP JUMPDEST DUP3 DUP1 ADD PUSH1 0x1 ADD DUP6 SSTORE DUP3 ISZERO PUSH3 0x1CA JUMPI SWAP2 DUP3 ADD JUMPDEST DUP3 DUP2 GT ISZERO PUSH3 0x1C9 JUMPI DUP3 MLOAD DUP3 SSTORE SWAP2 PUSH1 0x20 ADD SWAP2 SWAP1 PUSH1 0x1 ADD SWAP1 PUSH3 0x1AC JUMP JUMPDEST JUMPDEST POP SWAP1 POP PUSH3 0x1D9 SWAP2 SWAP1 PUSH3 0x1DD JUMP JUMPDEST POP SWAP1 JUMP JUMPDEST JUMPDEST DUP1 DUP3 GT ISZERO PUSH3 0x1F8 JUMPI PUSH1 0x0 DUP2 PUSH1 0x0 SWAP1 SSTORE POP PUSH1 0x1 ADD PUSH3 0x1DE JUMP JUMPDEST POP SWAP1 JUMP JUMPDEST PUSH32 0x4E487B7100000000000000000000000000000000000000000000000000000000 PUSH1 0x0 MSTORE PUSH1 0x22 PUSH1 0x4 MSTORE PUSH1 0x24 PUSH1 0x0 REVERT JUMPDEST PUSH1 0x0 PUSH1 0x2 DUP3 DIV SWAP1 POP PUSH1 0x1 DUP3 AND DUP1 PUSH3 0x244 JUMPI PUSH1 0x7F DUP3 AND SWAP2 POP JUMPDEST PUSH1 0x20 DUP3 LT DUP2 EQ ISZERO PUSH3 0x25B JUMPI PUSH3 0x25A PUSH3 0x1FC JUMP JUMPDEST JUMPDEST POP SWAP2 SWAP1 POP JUMP JUMPDEST PUSH2 0x3AFA DUP1 PUSH3 0x271 PUSH1 0x0 CODECOPY PUSH1 0x0 RETURN INVALID PUSH1 0x80 PUSH1 0x40 MSTORE CALLVALUE DUP1 ISZERO PUSH2 0x10 JUMPI PUSH1 0x0 DUP1 REVERT JUMPDEST POP PUSH1 0x4 CALLDATASIZE LT PUSH2 0x115 JUMPI PUSH1 0x0 CALLDATALOAD PUSH1 0xE0 SHR DUP1 PUSH4 0x8DA5CB5B GT PUSH2 0xA2 JUMPI DUP1 PUSH4 0xC10C3546 GT PUSH2 0x71 JUMPI DUP1 PUSH4 0xC10C3546 EQ PUSH2 0x2D0 JUMPI DUP1 PUSH4 0xE2FDCC17 EQ PUSH2 0x2EC JUMPI DUP1 PUSH4 0xE985E9C5 EQ PUSH2 0x30A JUMPI DUP1 PUSH4 0xF242432A EQ PUSH2 0x33A JUMPI DUP1 PUSH4 0xF2FDE38B EQ PUSH2 0x356 JUMPI PUSH2 0x115 JUMP JUMPDEST DUP1 PUSH4 0x8DA5CB5B EQ PUSH2 0x244 JUMPI DUP1 PUSH4 0xA22CB465 EQ PUSH2 0x262 JUMPI DUP1 PUSH4 0xA8346A46 EQ PUSH2 0x27E JUMPI DUP1 PUSH4 0xBFB231D2 EQ PUSH2 0x29A JUMPI PUSH2 0x115 JUMP JUMPDEST DUP1 PUSH4 0x3CCFD60B GT PUSH2 0xE9 JUMPI DUP1 PUSH4 0x3CCFD60B EQ PUSH2 0x1C6 JUMPI DUP1 PUSH4 0x4D125BA6 EQ PUSH2 0x1D0 JUMPI DUP1 PUSH4 0x4E1273F4 EQ PUSH2 0x1EC JUMPI DUP1 PUSH4 0x6BFB0D01 EQ PUSH2 0x21C JUMPI DUP1 PUSH4 0x715018A6 EQ PUSH2 0x23A JUMPI PUSH2 0x115 JUMP JUMPDEST DUP1 PUSH3 0xFDD58E EQ PUSH2 0x11A JUMPI DUP1 PUSH4 0x1FFC9A7 EQ PUSH2 0x14A JUMPI DUP1 PUSH4 0xE89341C EQ PUSH2 0x17A JUMPI DUP1 PUSH4 0x2EB2C2D6 EQ PUSH2 0x1AA JUMPI JUMPDEST PUSH1 0x0 DUP1 REVERT JUMPDEST PUSH2 0x134 PUSH1 0x4 DUP1 CALLDATASIZE SUB DUP2 ADD SWAP1 PUSH2 0x12F SWAP2 SWAP1 PUSH2 0x223E JUMP JUMPDEST PUSH2 0x372 JUMP JUMPDEST PUSH1 0x40 MLOAD PUSH2 0x141 SWAP2 SWAP1 PUSH2 0x228D JUMP JUMPDEST PUSH1 0x40 MLOAD DUP1 SWAP2 SUB SWAP1 RETURN JUMPDEST PUSH2 0x164 PUSH1 0x4 DUP1 CALLDATASIZE SUB DUP2 ADD SWAP1 PUSH2 0x15F SWAP2 SWAP1 PUSH2 0x2300 JUMP JUMPDEST PUSH2 0x43B JUMP JUMPDEST PUSH1 0x40 MLOAD PUSH2 0x171 SWAP2 SWAP1 PUSH2 0x2348 JUMP JUMPDEST PUSH1 0x40 MLOAD DUP1 SWAP2 SUB SWAP1 RETURN JUMPDEST PUSH2 0x194 PUSH1 0x4 DUP1 CALLDATASIZE SUB DUP2 ADD SWAP1 PUSH2 0x18F SWAP2 SWAP1 PUSH2 0x2363 JUMP JUMPDEST PUSH2 0x51D JUMP JUMPDEST PUSH1 0x40 MLOAD PUSH2 0x1A1 SWAP2 SWAP1 PUSH2 0x2429 JUMP JUMPDEST PUSH1 0x40 MLOAD DUP1 SWAP2 SUB SWAP1 RETURN JUMPDEST PUSH2 0x1C4 PUSH1 0x4 DUP1 CALLDATASIZE SUB DUP2 ADD SWAP1 PUSH2 0x1BF SWAP2 SWAP1 PUSH2 0x2648 JUMP JUMPDEST PUSH2 0x5C5 JUMP JUMPDEST STOP JUMPDEST PUSH2 0x1CE PUSH2 0x666 JUMP JUMPDEST STOP JUMPDEST PUSH2 0x1EA PUSH1 0x4 DUP1 CALLDATASIZE SUB DUP2 ADD SWAP1 PUSH2 0x1E5 SWAP2 SWAP1 PUSH2 0x2717 JUMP JUMPDEST PUSH2 0x6C7 JUMP JUMPDEST STOP JUMPDEST PUSH2 0x206 PUSH1 0x4 DUP1 CALLDATASIZE SUB DUP2 ADD SWAP1 PUSH2 0x201 SWAP2 SWAP1 PUSH2 0x282D JUMP JUMPDEST PUSH2 0x910 JUMP JUMPDEST PUSH1 0x40 MLOAD PUSH2 0x213 SWAP2 SWAP1 PUSH2 0x2963 JUMP JUMPDEST PUSH1 0x40 MLOAD DUP1 SWAP2 SUB SWAP1 RETURN JUMPDEST PUSH2 0x224 PUSH2 0xA29 JUMP JUMPDEST PUSH1 0x40 MLOAD PUSH2 0x231 SWAP2 SWAP1 PUSH2 0x228D JUMP JUMPDEST PUSH1 0x40 MLOAD DUP1 SWAP2 SUB SWAP1 RETURN JUMPDEST PUSH2 0x242 PUSH2 0xA2F JUMP JUMPDEST STOP JUMPDEST PUSH2 0x24C PUSH2 0xA43 JUMP JUMPDEST PUSH1 0x40 MLOAD PUSH2 0x259 SWAP2 SWAP1 PUSH2 0x2994 JUMP JUMPDEST PUSH1 0x40 MLOAD DUP1 SWAP2 SUB SWAP1 RETURN JUMPDEST PUSH2 0x27C PUSH1 0x4 DUP1 CALLDATASIZE SUB DUP2 ADD SWAP1 PUSH2 0x277 SWAP2 SWAP1 PUSH2 0x29DB JUMP JUMPDEST PUSH2 0xA6D JUMP JUMPDEST STOP JUMPDEST PUSH2 0x298 PUSH1 0x4 DUP1 CALLDATASIZE SUB DUP2 ADD SWAP1 PUSH2 0x293 SWAP2 SWAP1 PUSH2 0x2B9D JUMP JUMPDEST PUSH2 0xA83 JUMP JUMPDEST STOP JUMPDEST PUSH2 0x2B4 PUSH1 0x4 DUP1 CALLDATASIZE SUB DUP2 ADD SWAP1 PUSH2 0x2AF SWAP2 SWAP1 PUSH2 0x2363 JUMP JUMPDEST PUSH2 0xD34 JUMP JUMPDEST PUSH1 0x40 MLOAD PUSH2 0x2C7 SWAP8 SWAP7 SWAP6 SWAP5 SWAP4 SWAP3 SWAP2 SWAP1 PUSH2 0x2CA4 JUMP JUMPDEST PUSH1 0x40 MLOAD DUP1 SWAP2 SUB SWAP1 RETURN JUMPDEST PUSH2 0x2EA PUSH1 0x4 DUP1 CALLDATASIZE SUB DUP2 ADD SWAP1 PUSH2 0x2E5 SWAP2 SWAP1 PUSH2 0x2D28 JUMP JUMPDEST PUSH2 0xF3B JUMP JUMPDEST STOP JUMPDEST PUSH2 0x2F4 PUSH2 0xF97 JUMP JUMPDEST PUSH1 0x40 MLOAD PUSH2 0x301 SWAP2 SWAP1 PUSH2 0x2994 JUMP JUMPDEST PUSH1 0x40 MLOAD DUP1 SWAP2 SUB SWAP1 RETURN JUMPDEST PUSH2 0x324 PUSH1 0x4 DUP1 CALLDATASIZE SUB DUP2 ADD SWAP1 PUSH2 0x31F SWAP2 SWAP1 PUSH2 0x2D55 JUMP JUMPDEST PUSH2 0xFBD JUMP JUMPDEST PUSH1 0x40 MLOAD PUSH2 0x331 SWAP2 SWAP1 PUSH2 0x2348 JUMP JUMPDEST PUSH1 0x40 MLOAD DUP1 SWAP2 SUB SWAP1 RETURN JUMPDEST PUSH2 0x354 PUSH1 0x4 DUP1 CALLDATASIZE SUB DUP2 ADD SWAP1 PUSH2 0x34F SWAP2 SWAP1 PUSH2 0x2D95 JUMP JUMPDEST PUSH2 0x1051 JUMP JUMPDEST STOP JUMPDEST PUSH2 0x370 PUSH1 0x4 DUP1 CALLDATASIZE SUB DUP2 ADD SWAP1 PUSH2 0x36B SWAP2 SWAP1 PUSH2 0x2D28 JUMP JUMPDEST PUSH2 0x10F2 JUMP JUMPDEST STOP JUMPDEST PUSH1 0x0 DUP1 PUSH20 0xFFFFFFFFFFFFFFFFFFFFFFFFFFFFFFFFFFFFFFFF AND DUP4 PUSH20 0xFFFFFFFFFFFFFFFFFFFFFFFFFFFFFFFFFFFFFFFF AND EQ ISZERO PUSH2 0x3E3 JUMPI PUSH1 0x40 MLOAD PUSH32 0x8C379A000000000000000000000000000000000000000000000000000000000 DUP2 MSTORE PUSH1 0x4 ADD PUSH2 0x3DA SWAP1 PUSH2 0x2E9E JUMP JUMPDEST PUSH1 0x40 MLOAD DUP1 SWAP2 SUB SWAP1 REVERT JUMPDEST PUSH1 0x0 DUP1 DUP4 DUP2 MSTORE PUSH1 0x20 ADD SWAP1 DUP2 MSTORE PUSH1 0x20 ADD PUSH1 0x0 KECCAK256 PUSH1 0x0 DUP5 PUSH20 0xFFFFFFFFFFFFFFFFFFFFFFFFFFFFFFFFFFFFFFFF AND PUSH20 0xFFFFFFFFFFFFFFFFFFFFFFFFFFFFFFFFFFFFFFFF AND DUP2 MSTORE PUSH1 0x20 ADD SWAP1 DUP2 MSTORE PUSH1 0x20 ADD PUSH1 0x0 KECCAK256 SLOAD SWAP1 POP SWAP3 SWAP2 POP POP JUMP JUMPDEST PUSH1 0x0 PUSH32 0xD9B67A2600000000000000000000000000000000000000000000000000000000 PUSH28 0xFFFFFFFFFFFFFFFFFFFFFFFFFFFFFFFFFFFFFFFFFFFFFFFFFFFFFFFF NOT AND DUP3 PUSH28 0xFFFFFFFFFFFFFFFFFFFFFFFFFFFFFFFFFFFFFFFFFFFFFFFFFFFFFFFF NOT AND EQ DUP1 PUSH2 0x506 JUMPI POP PUSH32 0xE89341C00000000000000000000000000000000000000000000000000000000 PUSH28 0xFFFFFFFFFFFFFFFFFFFFFFFFFFFFFFFFFFFFFFFFFFFFFFFFFFFFFFFF NOT AND DUP3 PUSH28 0xFFFFFFFFFFFFFFFFFFFFFFFFFFFFFFFFFFFFFFFFFFFFFFFFFFFFFFFF NOT AND EQ JUMPDEST DUP1 PUSH2 0x516 JUMPI POP PUSH2 0x515 DUP3 PUSH2 0x1176 JUMP JUMPDEST JUMPDEST SWAP1 POP SWAP2 SWAP1 POP JUMP JUMPDEST PUSH1 0x60 PUSH1 0x5 PUSH1 0x0 DUP4 DUP2 MSTORE PUSH1 0x20 ADD SWAP1 DUP2 MSTORE PUSH1 0x20 ADD PUSH1 0x0 KECCAK256 PUSH1 0x2 ADD DUP1 SLOAD PUSH2 0x540 SWAP1 PUSH2 0x2EED JUMP JUMPDEST DUP1 PUSH1 0x1F ADD PUSH1 0x20 DUP1 SWAP2 DIV MUL PUSH1 0x20 ADD PUSH1 0x40 MLOAD SWAP1 DUP2 ADD PUSH1 0x40 MSTORE DUP1 SWAP3 SWAP2 SWAP1 DUP2 DUP2 MSTORE PUSH1 0x20 ADD DUP3 DUP1 SLOAD PUSH2 0x56C SWAP1 PUSH2 0x2EED JUMP JUMPDEST DUP1 ISZERO PUSH2 0x5B9 JUMPI DUP1 PUSH1 0x1F LT PUSH2 0x58E JUMPI PUSH2 0x100 DUP1 DUP4 SLOAD DIV MUL DUP4 MSTORE SWAP2 PUSH1 0x20 ADD SWAP2 PUSH2 0x5B9 JUMP JUMPDEST DUP3 ADD SWAP2 SWAP1 PUSH1 0x0 MSTORE PUSH1 0x20 PUSH1 0x0 KECCAK256 SWAP1 JUMPDEST DUP2 SLOAD DUP2 MSTORE SWAP1 PUSH1 0x1 ADD SWAP1 PUSH1 0x20 ADD DUP1 DUP4 GT PUSH2 0x59C JUMPI DUP3 SWAP1 SUB PUSH1 0x1F AND DUP3 ADD SWAP2 JUMPDEST POP POP POP POP POP SWAP1 POP SWAP2 SWAP1 POP JUMP JUMPDEST PUSH2 0x5CD PUSH2 0x11E0 JUMP JUMPDEST PUSH20 0xFFFFFFFFFFFFFFFFFFFFFFFFFFFFFFFFFFFFFFFF AND DUP6 PUSH20 0xFFFFFFFFFFFFFFFFFFFFFFFFFFFFFFFFFFFFFFFF AND EQ DUP1 PUSH2 0x613 JUMPI POP PUSH2 0x612 DUP6 PUSH2 0x60D PUSH2 0x11E0 JUMP JUMPDEST PUSH2 0xFBD JUMP JUMPDEST JUMPDEST PUSH2 0x652 JUMPI PUSH1 0x40 MLOAD PUSH32 0x8C379A000000000000000000000000000000000000000000000000000000000 DUP2 MSTORE PUSH1 0x4 ADD PUSH2 0x649 SWAP1 PUSH2 0x2F91 JUMP JUMPDEST PUSH1 0x40 MLOAD DUP1 SWAP2 SUB SWAP1 REVERT JUMPDEST PUSH2 0x65F DUP6 DUP6 DUP6 DUP6 DUP6 PUSH2 0x11E8 JUMP JUMPDEST POP POP POP POP POP JUMP JUMPDEST PUSH2 0x66E PUSH2 0x150A JUMP JUMPDEST PUSH2 0x676 PUSH2 0x1588 JUMP JUMPDEST CALLER PUSH20 0xFFFFFFFFFFFFFFFFFFFFFFFFFFFFFFFFFFFFFFFF AND PUSH2 0x8FC SELFBALANCE SWAP1 DUP2 ISZERO MUL SWAP1 PUSH1 0x40 MLOAD PUSH1 0x0 PUSH1 0x40 MLOAD DUP1 DUP4 SUB DUP2 DUP6 DUP9 DUP9 CALL SWAP4 POP POP POP POP ISZERO DUP1 ISZERO PUSH2 0x6BC JUMPI RETURNDATASIZE PUSH1 0x0 DUP1 RETURNDATACOPY RETURNDATASIZE PUSH1 0x0 REVERT JUMPDEST POP PUSH2 0x6C5 PUSH2 0x15D8 JUMP JUMPDEST JUMP JUMPDEST PUSH2 0x6CF PUSH2 0x150A JUMP JUMPDEST PUSH2 0x6D7 PUSH2 0x1588 JUMP JUMPDEST PUSH1 0x0 PUSH1 0x5 PUSH1 0x0 DUP6 DUP2 MSTORE PUSH1 0x20 ADD SWAP1 DUP2 MSTORE PUSH1 0x20 ADD PUSH1 0x0 KECCAK256 SWAP1 POP DUP3 DUP2 PUSH1 0x5 ADD SLOAD LT ISZERO PUSH2 0x735 JUMPI PUSH1 0x40 MLOAD PUSH32 0x8C379A000000000000000000000000000000000000000000000000000000000 DUP2 MSTORE PUSH1 0x4 ADD PUSH2 0x72C SWAP1 PUSH2 0x2FFD JUMP JUMPDEST PUSH1 0x40 MLOAD DUP1 SWAP2 SUB SWAP1 REVERT JUMPDEST CALLER PUSH20 0xFFFFFFFFFFFFFFFFFFFFFFFFFFFFFFFFFFFFFFFF AND DUP2 PUSH1 0x4 ADD PUSH1 0x0 SWAP1 SLOAD SWAP1 PUSH2 0x100 EXP SWAP1 DIV PUSH20 0xFFFFFFFFFFFFFFFFFFFFFFFFFFFFFFFFFFFFFFFF AND PUSH20 0xFFFFFFFFFFFFFFFFFFFFFFFFFFFFFFFFFFFFFFFF AND EQ PUSH2 0x7C7 JUMPI PUSH1 0x40 MLOAD PUSH32 0x8C379A000000000000000000000000000000000000000000000000000000000 DUP2 MSTORE PUSH1 0x4 ADD PUSH2 0x7BE SWAP1 PUSH2 0x308F JUMP JUMPDEST PUSH1 0x40 MLOAD DUP1 SWAP2 SUB SWAP1 REVERT JUMPDEST PUSH1 0x1 DUP2 PUSH1 0x6 ADD PUSH1 0x0 PUSH2 0x100 EXP DUP2 SLOAD DUP2 PUSH1 0xFF MUL NOT AND SWAP1 DUP4 ISZERO ISZERO MUL OR SWAP1 SSTORE POP DUP2 DUP2 PUSH1 0x3 ADD DUP2 SWAP1 SSTORE POP PUSH2 0x84F DUP2 PUSH1 0x4 ADD PUSH1 0x0 SWAP1 SLOAD SWAP1 PUSH2 0x100 EXP SWAP1 DIV PUSH20 0xFFFFFFFFFFFFFFFFFFFFFFFFFFFFFFFFFFFFFFFF AND PUSH1 0x7 PUSH1 0x0 SWAP1 SLOAD SWAP1 PUSH2 0x100 EXP SWAP1 DIV PUSH20 0xFFFFFFFFFFFFFFFFFFFFFFFFFFFFFFFFFFFFFFFF AND DUP7 DUP7 PUSH1 0x40 MLOAD DUP1 PUSH1 0x20 ADD PUSH1 0x40 MSTORE DUP1 PUSH1 0x0 DUP2 MSTORE POP PUSH2 0x1051 JUMP JUMPDEST CALLER DUP2 PUSH1 0x4 ADD PUSH1 0x0 PUSH2 0x100 EXP DUP2 SLOAD DUP2 PUSH20 0xFFFFFFFFFFFFFFFFFFFFFFFFFFFFFFFFFFFFFFFF MUL NOT AND SWAP1 DUP4 PUSH20 0xFFFFFFFFFFFFFFFFFFFFFFFFFFFFFFFFFFFFFFFF AND MUL OR SWAP1 SSTORE POP PUSH2 0x8A9 DUP4 DUP3 PUSH1 0x5 ADD SLOAD PUSH2 0x15E2 SWAP1 SWAP2 SWAP1 PUSH4 0xFFFFFFFF AND JUMP JUMPDEST DUP2 PUSH1 0x5 ADD DUP2 SWAP1 SSTORE POP CALLER PUSH20 0xFFFFFFFFFFFFFFFFFFFFFFFFFFFFFFFFFFFFFFFF AND DUP5 PUSH32 0xB7070C3C377D2FB697E5DDC72B0283EB751116D682FF1CDB579EAB77BCC4013B DUP5 DUP7 PUSH1 0x40 MLOAD PUSH2 0x8FA SWAP3 SWAP2 SWAP1 PUSH2 0x30AF JUMP JUMPDEST PUSH1 0x40 MLOAD DUP1 SWAP2 SUB SWAP1 LOG3 POP PUSH2 0x90B PUSH2 0x15D8 JUMP JUMPDEST POP POP POP JUMP JUMPDEST PUSH1 0x60 DUP2 MLOAD DUP4 MLOAD EQ PUSH2 0x956 JUMPI PUSH1 0x40 MLOAD PUSH32 0x8C379A000000000000000000000000000000000000000000000000000000000 DUP2 MSTORE PUSH1 0x4 ADD PUSH2 0x94D SWAP1 PUSH2 0x314A JUMP JUMPDEST PUSH1 0x40 MLOAD DUP1 SWAP2 SUB SWAP1 REVERT JUMPDEST PUSH1 0x0 DUP4 MLOAD PUSH8 0xFFFFFFFFFFFFFFFF DUP2 GT ISZERO PUSH2 0x973 JUMPI PUSH2 0x972 PUSH2 0x2450 JUMP JUMPDEST JUMPDEST PUSH1 0x40 MLOAD SWAP1 DUP1 DUP3 MSTORE DUP1 PUSH1 0x20 MUL PUSH1 0x20 ADD DUP3 ADD PUSH1 0x40 MSTORE DUP1 ISZERO PUSH2 0x9A1 JUMPI DUP2 PUSH1 0x20 ADD PUSH1 0x20 DUP3 MUL DUP1 CALLDATASIZE DUP4 CALLDATACOPY DUP1 DUP3 ADD SWAP2 POP POP SWAP1 POP JUMPDEST POP SWAP1 POP PUSH1 0x0 JUMPDEST DUP5 MLOAD DUP2 LT ISZERO PUSH2 0xA1E JUMPI PUSH2 0x9EE DUP6 DUP3 DUP2 MLOAD DUP2 LT PUSH2 0x9C6 JUMPI PUSH2 0x9C5 PUSH2 0x316A JUMP JUMPDEST JUMPDEST PUSH1 0x20 MUL PUSH1 0x20 ADD ADD MLOAD DUP6 DUP4 DUP2 MLOAD DUP2 LT PUSH2 0x9E1 JUMPI PUSH2 0x9E0 PUSH2 0x316A JUMP JUMPDEST JUMPDEST PUSH1 0x20 MUL PUSH1 0x20 ADD ADD MLOAD PUSH2 0x372 JUMP JUMPDEST DUP3 DUP3 DUP2 MLOAD DUP2 LT PUSH2 0xA01 JUMPI PUSH2 0xA00 PUSH2 0x316A JUMP JUMPDEST JUMPDEST PUSH1 0x20 MUL PUSH1 0x20 ADD ADD DUP2 DUP2 MSTORE POP POP DUP1 PUSH2 0xA17 SWAP1 PUSH2 0x31C8 JUMP JUMPDEST SWAP1 POP PUSH2 0x9A7 JUMP JUMPDEST POP DUP1 SWAP2 POP POP SWAP3 SWAP2 POP POP JUMP JUMPDEST PUSH1 0x6 SLOAD DUP2 JUMP JUMPDEST PUSH2 0xA37 PUSH2 0x150A JUMP JUMPDEST PUSH2 0xA41 PUSH1 0x0 PUSH2 0x15F8 JUMP JUMPDEST JUMP JUMPDEST PUSH1 0x0 PUSH1 0x3 PUSH1 0x0 SWAP1 SLOAD SWAP1 PUSH2 0x100 EXP SWAP1 DIV PUSH20 0xFFFFFFFFFFFFFFFFFFFFFFFFFFFFFFFFFFFFFFFF AND SWAP1 POP SWAP1 JUMP JUMPDEST PUSH2 0xA7F PUSH2 0xA78 PUSH2 0x11E0 JUMP JUMPDEST DUP4 DUP4 PUSH2 0x16BE JUMP JUMPDEST POP POP JUMP JUMPDEST PUSH2 0xA8B PUSH2 0x150A JUMP JUMPDEST PUSH2 0xA93 PUSH2 0x1588 JUMP JUMPDEST DUP4 MLOAD DUP6 MLOAD EQ DUP1 ISZERO PUSH2 0xAA5 JUMPI POP DUP3 MLOAD DUP6 MLOAD EQ JUMPDEST DUP1 ISZERO PUSH2 0xAB2 JUMPI POP DUP2 MLOAD DUP6 MLOAD EQ JUMPDEST DUP1 ISZERO PUSH2 0xABF JUMPI POP DUP1 MLOAD DUP6 MLOAD EQ JUMPDEST PUSH2 0xAFE JUMPI PUSH1 0x40 MLOAD PUSH32 0x8C379A000000000000000000000000000000000000000000000000000000000 DUP2 MSTORE PUSH1 0x4 ADD PUSH2 0xAF5 SWAP1 PUSH2 0x325D JUMP JUMPDEST PUSH1 0x40 MLOAD DUP1 SWAP2 SUB SWAP1 REVERT JUMPDEST PUSH1 0x0 JUMPDEST DUP6 MLOAD DUP2 LT ISZERO PUSH2 0xD24 JUMPI PUSH1 0x6 PUSH1 0x0 DUP2 SLOAD DUP1 SWAP3 SWAP2 SWAP1 PUSH2 0xB1D SWAP1 PUSH2 0x31C8 JUMP JUMPDEST SWAP2 SWAP1 POP SSTORE POP PUSH1 0x40 MLOAD DUP1 PUSH1 0xE0 ADD PUSH1 0x40 MSTORE DUP1 DUP8 DUP4 DUP2 MLOAD DUP2 LT PUSH2 0xB40 JUMPI PUSH2 0xB3F PUSH2 0x316A JUMP JUMPDEST JUMPDEST PUSH1 0x20 MUL PUSH1 0x20 ADD ADD MLOAD DUP2 MSTORE PUSH1 0x20 ADD DUP7 DUP4 DUP2 MLOAD DUP2 LT PUSH2 0xB60 JUMPI PUSH2 0xB5F PUSH2 0x316A JUMP JUMPDEST JUMPDEST PUSH1 0x20 MUL PUSH1 0x20 ADD ADD MLOAD DUP2 MSTORE PUSH1 0x20 ADD DUP6 DUP4 DUP2 MLOAD DUP2 LT PUSH2 0xB80 JUMPI PUSH2 0xB7F PUSH2 0x316A JUMP JUMPDEST JUMPDEST PUSH1 0x20 MUL PUSH1 0x20 ADD ADD MLOAD DUP2 MSTORE PUSH1 0x20 ADD DUP5 DUP4 DUP2 MLOAD DUP2 LT PUSH2 0xBA0 JUMPI PUSH2 0xB9F PUSH2 0x316A JUMP JUMPDEST JUMPDEST PUSH1 0x20 MUL PUSH1 0x20 ADD ADD MLOAD DUP2 MSTORE PUSH1 0x20 ADD CALLER PUSH20 0xFFFFFFFFFFFFFFFFFFFFFFFFFFFFFFFFFFFFFFFF AND DUP2 MSTORE PUSH1 0x20 ADD DUP4 DUP4 DUP2 MLOAD DUP2 LT PUSH2 0xBDC JUMPI PUSH2 0xBDB PUSH2 0x316A JUMP JUMPDEST JUMPDEST PUSH1 0x20 MUL PUSH1 0x20 ADD ADD MLOAD DUP2 MSTORE PUSH1 0x20 ADD PUSH1 0x0 ISZERO ISZERO DUP2 MSTORE POP PUSH1 0x5 PUSH1 0x0 PUSH1 0x6 SLOAD DUP2 MSTORE PUSH1 0x20 ADD SWAP1 DUP2 MSTORE PUSH1 0x20 ADD PUSH1 0x0 KECCAK256 PUSH1 0x0 DUP3 ADD MLOAD DUP2 PUSH1 0x0 ADD SWAP1 DUP1 MLOAD SWAP1 PUSH1 0x20 ADD SWAP1 PUSH2 0xC21 SWAP3 SWAP2 SWAP1 PUSH2 0x20F3 JUMP JUMPDEST POP PUSH1 0x20 DUP3 ADD MLOAD DUP2 PUSH1 0x1 ADD SWAP1 DUP1 MLOAD SWAP1 PUSH1 0x20 ADD SWAP1 PUSH2 0xC3E SWAP3 SWAP2 SWAP1 PUSH2 0x20F3 JUMP JUMPDEST POP PUSH1 0x40 DUP3 ADD MLOAD DUP2 PUSH1 0x2 ADD SWAP1 DUP1 MLOAD SWAP1 PUSH1 0x20 ADD SWAP1 PUSH2 0xC5B SWAP3 SWAP2 SWAP1 PUSH2 0x20F3 JUMP JUMPDEST POP PUSH1 0x60 DUP3 ADD MLOAD DUP2 PUSH1 0x3 ADD SSTORE PUSH1 0x80 DUP3 ADD MLOAD DUP2 PUSH1 0x4 ADD PUSH1 0x0 PUSH2 0x100 EXP DUP2 SLOAD DUP2 PUSH20 0xFFFFFFFFFFFFFFFFFFFFFFFFFFFFFFFFFFFFFFFF MUL NOT AND SWAP1 DUP4 PUSH20 0xFFFFFFFFFFFFFFFFFFFFFFFFFFFFFFFFFFFFFFFF AND MUL OR SWAP1 SSTORE POP PUSH1 0xA0 DUP3 ADD MLOAD DUP2 PUSH1 0x5 ADD SSTORE PUSH1 0xC0 DUP3 ADD MLOAD DUP2 PUSH1 0x6 ADD PUSH1 0x0 PUSH2 0x100 EXP DUP2 SLOAD DUP2 PUSH1 0xFF MUL NOT AND SWAP1 DUP4 ISZERO ISZERO MUL OR SWAP1 SSTORE POP SWAP1 POP POP PUSH2 0xD11 CALLER PUSH1 0x6 SLOAD DUP5 DUP5 DUP2 MLOAD DUP2 LT PUSH2 0xCF4 JUMPI PUSH2 0xCF3 PUSH2 0x316A JUMP JUMPDEST JUMPDEST PUSH1 0x20 MUL PUSH1 0x20 ADD ADD MLOAD PUSH1 0x40 MLOAD DUP1 PUSH1 0x20 ADD PUSH1 0x40 MSTORE DUP1 PUSH1 0x0 DUP2 MSTORE POP PUSH2 0x182B JUMP JUMPDEST DUP1 DUP1 PUSH2 0xD1C SWAP1 PUSH2 0x31C8 JUMP JUMPDEST SWAP2 POP POP PUSH2 0xB01 JUMP JUMPDEST POP PUSH2 0xD2D PUSH2 0x15D8 JUMP JUMPDEST POP POP POP POP POP JUMP JUMPDEST PUSH1 0x5 PUSH1 0x20 MSTORE DUP1 PUSH1 0x0 MSTORE PUSH1 0x40 PUSH1 0x0 KECCAK256 PUSH1 0x0 SWAP2 POP SWAP1 POP DUP1 PUSH1 0x0 ADD DUP1 SLOAD PUSH2 0xD57 SWAP1 PUSH2 0x2EED JUMP JUMPDEST DUP1 PUSH1 0x1F ADD PUSH1 0x20 DUP1 SWAP2 DIV MUL PUSH1 0x20 ADD PUSH1 0x40 MLOAD SWAP1 DUP2 ADD PUSH1 0x40 MSTORE DUP1 SWAP3 SWAP2 SWAP1 DUP2 DUP2 MSTORE PUSH1 0x20 ADD DUP3 DUP1 SLOAD PUSH2 0xD83 SWAP1 PUSH2 0x2EED JUMP JUMPDEST DUP1 ISZERO PUSH2 0xDD0 JUMPI DUP1 PUSH1 0x1F LT PUSH2 0xDA5 JUMPI PUSH2 0x100 DUP1 DUP4 SLOAD DIV MUL DUP4 MSTORE SWAP2 PUSH1 0x20 ADD SWAP2 PUSH2 0xDD0 JUMP JUMPDEST DUP3 ADD SWAP2 SWAP1 PUSH1 0x0 MSTORE PUSH1 0x20 PUSH1 0x0 KECCAK256 SWAP1 JUMPDEST DUP2 SLOAD DUP2 MSTORE SWAP1 PUSH1 0x1 ADD SWAP1 PUSH1 0x20 ADD DUP1 DUP4 GT PUSH2 0xDB3 JUMPI DUP3 SWAP1 SUB PUSH1 0x1F AND DUP3 ADD SWAP2 JUMPDEST POP POP POP POP POP SWAP1 DUP1 PUSH1 0x1 ADD DUP1 SLOAD PUSH2 0xDE5 SWAP1 PUSH2 0x2EED JUMP JUMPDEST DUP1 PUSH1 0x1F ADD PUSH1 0x20 DUP1 SWAP2 DIV MUL PUSH1 0x20 ADD PUSH1 0x40 MLOAD SWAP1 DUP2 ADD PUSH1 0x40 MSTORE DUP1 SWAP3 SWAP2 SWAP1 DUP2 DUP2 MSTORE PUSH1 0x20 ADD DUP3 DUP1 SLOAD PUSH2 0xE11 SWAP1 PUSH2 0x2EED JUMP JUMPDEST DUP1 ISZERO PUSH2 0xE5E JUMPI DUP1 PUSH1 0x1F LT PUSH2 0xE33 JUMPI PUSH2 0x100 DUP1 DUP4 SLOAD DIV MUL DUP4 MSTORE SWAP2 PUSH1 0x20 ADD SWAP2 PUSH2 0xE5E JUMP JUMPDEST DUP3 ADD SWAP2 SWAP1 PUSH1 0x0 MSTORE PUSH1 0x20 PUSH1 0x0 KECCAK256 SWAP1 JUMPDEST DUP2 SLOAD DUP2 MSTORE SWAP1 PUSH1 0x1 ADD SWAP1 PUSH1 0x20 ADD DUP1 DUP4 GT PUSH2 0xE41 JUMPI DUP3 SWAP1 SUB PUSH1 0x1F AND DUP3 ADD SWAP2 JUMPDEST POP POP POP POP POP SWAP1 DUP1 PUSH1 0x2 ADD DUP1 SLOAD PUSH2 0xE73 SWAP1 PUSH2 0x2EED JUMP JUMPDEST DUP1 PUSH1 0x1F ADD PUSH1 0x20 DUP1 SWAP2 DIV MUL PUSH1 0x20 ADD PUSH1 0x40 MLOAD SWAP1 DUP2 ADD PUSH1 0x40 MSTORE DUP1 SWAP3 SWAP2 SWAP1 DUP2 DUP2 MSTORE PUSH1 0x20 ADD DUP3 DUP1 SLOAD PUSH2 0xE9F SWAP1 PUSH2 0x2EED JUMP JUMPDEST DUP1 ISZERO PUSH2 0xEEC JUMPI DUP1 PUSH1 0x1F LT PUSH2 0xEC1 JUMPI PUSH2 0x100 DUP1 DUP4 SLOAD DIV MUL DUP4 MSTORE SWAP2 PUSH1 0x20 ADD SWAP2 PUSH2 0xEEC JUMP JUMPDEST DUP3 ADD SWAP2 SWAP1 PUSH1 0x0 MSTORE PUSH1 0x20 PUSH1 0x0 KECCAK256 SWAP1 JUMPDEST DUP2 SLOAD DUP2 MSTORE SWAP1 PUSH1 0x1 ADD SWAP1 PUSH1 0x20 ADD DUP1 DUP4 GT PUSH2 0xECF JUMPI DUP3 SWAP1 SUB PUSH1 0x1F AND DUP3 ADD SWAP2 JUMPDEST POP POP POP POP POP SWAP1 DUP1 PUSH1 0x3 ADD SLOAD SWAP1 DUP1 PUSH1 0x4 ADD PUSH1 0x0 SWAP1 SLOAD SWAP1 PUSH2 0x100 EXP SWAP1 DIV PUSH20 0xFFFFFFFFFFFFFFFFFFFFFFFFFFFFFFFFFFFFFFFF AND SWAP1 DUP1 PUSH1 0x5 ADD SLOAD SWAP1 DUP1 PUSH1 0x6 ADD PUSH1 0x0 SWAP1 SLOAD SWAP1 PUSH2 0x100 EXP SWAP1 DIV PUSH1 0xFF AND SWAP1 POP DUP8 JUMP JUMPDEST PUSH2 0xF43 PUSH2 0x150A JUMP JUMPDEST PUSH2 0xF4B PUSH2 0x1588 JUMP JUMPDEST DUP1 PUSH1 0x7 PUSH1 0x0 PUSH2 0x100 EXP DUP2 SLOAD DUP2 PUSH20 0xFFFFFFFFFFFFFFFFFFFFFFFFFFFFFFFFFFFFFFFF MUL NOT AND SWAP1 DUP4 PUSH20 0xFFFFFFFFFFFFFFFFFFFFFFFFFFFFFFFFFFFFFFFF AND MUL OR SWAP1 SSTORE POP PUSH2 0xF94 PUSH2 0x15D8 JUMP JUMPDEST POP JUMP JUMPDEST PUSH1 0x7 PUSH1 0x0 SWAP1 SLOAD SWAP1 PUSH2 0x100 EXP SWAP1 DIV PUSH20 0xFFFFFFFFFFFFFFFFFFFFFFFFFFFFFFFFFFFFFFFF AND DUP2 JUMP JUMPDEST PUSH1 0x0 PUSH1 0x1 PUSH1 0x0 DUP5 PUSH20 0xFFFFFFFFFFFFFFFFFFFFFFFFFFFFFFFFFFFFFFFF AND PUSH20 0xFFFFFFFFFFFFFFFFFFFFFFFFFFFFFFFFFFFFFFFF AND DUP2 MSTORE PUSH1 0x20 ADD SWAP1 DUP2 MSTORE PUSH1 0x20 ADD PUSH1 0x0 KECCAK256 PUSH1 0x0 DUP4 PUSH20 0xFFFFFFFFFFFFFFFFFFFFFFFFFFFFFFFFFFFFFFFF AND PUSH20 0xFFFFFFFFFFFFFFFFFFFFFFFFFFFFFFFFFFFFFFFF AND DUP2 MSTORE PUSH1 0x20 ADD SWAP1 DUP2 MSTORE PUSH1 0x20 ADD PUSH1 0x0 KECCAK256 PUSH1 0x0 SWAP1 SLOAD SWAP1 PUSH2 0x100 EXP SWAP1 DIV PUSH1 0xFF AND SWAP1 POP SWAP3 SWAP2 POP POP JUMP JUMPDEST PUSH2 0x1059 PUSH2 0x11E0 JUMP JUMPDEST PUSH20 0xFFFFFFFFFFFFFFFFFFFFFFFFFFFFFFFFFFFFFFFF AND DUP6 PUSH20 0xFFFFFFFFFFFFFFFFFFFFFFFFFFFFFFFFFFFFFFFF AND EQ DUP1 PUSH2 0x109F JUMPI POP PUSH2 0x109E DUP6 PUSH2 0x1099 PUSH2 0x11E0 JUMP JUMPDEST PUSH2 0xFBD JUMP JUMPDEST JUMPDEST PUSH2 0x10DE JUMPI PUSH1 0x40 MLOAD PUSH32 0x8C379A000000000000000000000000000000000000000000000000000000000 DUP2 MSTORE PUSH1 0x4 ADD PUSH2 0x10D5 SWAP1 PUSH2 0x2F91 JUMP JUMPDEST PUSH1 0x40 MLOAD DUP1 SWAP2 SUB SWAP1 REVERT JUMPDEST PUSH2 0x10EB DUP6 DUP6 DUP6 DUP6 DUP6 PUSH2 0x19DC JUMP JUMPDEST POP POP POP POP POP JUMP JUMPDEST PUSH2 0x10FA PUSH2 0x150A JUMP JUMPDEST PUSH1 0x0 PUSH20 0xFFFFFFFFFFFFFFFFFFFFFFFFFFFFFFFFFFFFFFFF AND DUP2 PUSH20 0xFFFFFFFFFFFFFFFFFFFFFFFFFFFFFFFFFFFFFFFF AND EQ ISZERO PUSH2 0x116A JUMPI PUSH1 0x40 MLOAD PUSH32 0x8C379A000000000000000000000000000000000000000000000000000000000 DUP2 MSTORE PUSH1 0x4 ADD PUSH2 0x1161 SWAP1 PUSH2 0x32EF JUMP JUMPDEST PUSH1 0x40 MLOAD DUP1 SWAP2 SUB SWAP1 REVERT JUMPDEST PUSH2 0x1173 DUP2 PUSH2 0x15F8 JUMP JUMPDEST POP JUMP JUMPDEST PUSH1 0x0 PUSH32 0x1FFC9A700000000000000000000000000000000000000000000000000000000 PUSH28 0xFFFFFFFFFFFFFFFFFFFFFFFFFFFFFFFFFFFFFFFFFFFFFFFFFFFFFFFF NOT AND DUP3 PUSH28 0xFFFFFFFFFFFFFFFFFFFFFFFFFFFFFFFFFFFFFFFFFFFFFFFFFFFFFFFF NOT AND EQ SWAP1 POP SWAP2 SWAP1 POP JUMP JUMPDEST PUSH1 0x0 CALLER SWAP1 POP SWAP1 JUMP JUMPDEST DUP2 MLOAD DUP4 MLOAD EQ PUSH2 0x122C JUMPI PUSH1 0x40 MLOAD PUSH32 0x8C379A000000000000000000000000000000000000000000000000000000000 DUP2 MSTORE PUSH1 0x4 ADD PUSH2 0x1223 SWAP1 PUSH2 0x3381 JUMP JUMPDEST PUSH1 0x40 MLOAD DUP1 SWAP2 SUB SWAP1 REVERT JUMPDEST PUSH1 0x0 PUSH20 0xFFFFFFFFFFFFFFFFFFFFFFFFFFFFFFFFFFFFFFFF AND DUP5 PUSH20 0xFFFFFFFFFFFFFFFFFFFFFFFFFFFFFFFFFFFFFFFF AND EQ ISZERO PUSH2 0x129C JUMPI PUSH1 0x40 MLOAD PUSH32 0x8C379A000000000000000000000000000000000000000000000000000000000 DUP2 MSTORE PUSH1 0x4 ADD PUSH2 0x1293 SWAP1 PUSH2 0x3413 JUMP JUMPDEST PUSH1 0x40 MLOAD DUP1 SWAP2 SUB SWAP1 REVERT JUMPDEST PUSH1 0x0 PUSH2 0x12A6 PUSH2 0x11E0 JUMP JUMPDEST SWAP1 POP PUSH2 0x12B6 DUP2 DUP8 DUP8 DUP8 DUP8 DUP8 PUSH2 0x1C78 JUMP JUMPDEST PUSH1 0x0 JUMPDEST DUP5 MLOAD DUP2 LT ISZERO PUSH2 0x1467 JUMPI PUSH1 0x0 DUP6 DUP3 DUP2 MLOAD DUP2 LT PUSH2 0x12D7 JUMPI PUSH2 0x12D6 PUSH2 0x316A JUMP JUMPDEST JUMPDEST PUSH1 0x20 MUL PUSH1 0x20 ADD ADD MLOAD SWAP1 POP PUSH1 0x0 DUP6 DUP4 DUP2 MLOAD DUP2 LT PUSH2 0x12F6 JUMPI PUSH2 0x12F5 PUSH2 0x316A JUMP JUMPDEST JUMPDEST PUSH1 0x20 MUL PUSH1 0x20 ADD ADD MLOAD SWAP1 POP PUSH1 0x0 DUP1 PUSH1 0x0 DUP5 DUP2 MSTORE PUSH1 0x20 ADD SWAP1 DUP2 MSTORE PUSH1 0x20 ADD PUSH1 0x0 KECCAK256 PUSH1 0x0 DUP12 PUSH20 0xFFFFFFFFFFFFFFFFFFFFFFFFFFFFFFFFFFFFFFFF AND PUSH20 0xFFFFFFFFFFFFFFFFFFFFFFFFFFFFFFFFFFFFFFFF AND DUP2 MSTORE PUSH1 0x20 ADD SWAP1 DUP2 MSTORE PUSH1 0x20 ADD PUSH1 0x0 KECCAK256 SLOAD SWAP1 POP DUP2 DUP2 LT ISZERO PUSH2 0x1397 JUMPI PUSH1 0x40 MLOAD PUSH32 0x8C379A000000000000000000000000000000000000000000000000000000000 DUP2 MSTORE PUSH1 0x4 ADD PUSH2 0x138E SWAP1 PUSH2 0x34A5 JUMP JUMPDEST PUSH1 0x40 MLOAD DUP1 SWAP2 SUB SWAP1 REVERT JUMPDEST DUP2 DUP2 SUB PUSH1 0x0 DUP1 DUP6 DUP2 MSTORE PUSH1 0x20 ADD SWAP1 DUP2 MSTORE PUSH1 0x20 ADD PUSH1 0x0 KECCAK256 PUSH1 0x0 DUP13 PUSH20 0xFFFFFFFFFFFFFFFFFFFFFFFFFFFFFFFFFFFFFFFF AND PUSH20 0xFFFFFFFFFFFFFFFFFFFFFFFFFFFFFFFFFFFFFFFF AND DUP2 MSTORE PUSH1 0x20 ADD SWAP1 DUP2 MSTORE PUSH1 0x20 ADD PUSH1 0x0 KECCAK256 DUP2 SWAP1 SSTORE POP DUP2 PUSH1 0x0 DUP1 DUP6 DUP2 MSTORE PUSH1 0x20 ADD SWAP1 DUP2 MSTORE PUSH1 0x20 ADD PUSH1 0x0 KECCAK256 PUSH1 0x0 DUP12 PUSH20 0xFFFFFFFFFFFFFFFFFFFFFFFFFFFFFFFFFFFFFFFF AND PUSH20 0xFFFFFFFFFFFFFFFFFFFFFFFFFFFFFFFFFFFFFFFF AND DUP2 MSTORE PUSH1 0x20 ADD SWAP1 DUP2 MSTORE PUSH1 0x20 ADD PUSH1 0x0 KECCAK256 PUSH1 0x0 DUP3 DUP3 SLOAD PUSH2 0x144C SWAP2 SWAP1 PUSH2 0x34C5 JUMP JUMPDEST SWAP3 POP POP DUP2 SWAP1 SSTORE POP POP POP POP DUP1 PUSH2 0x1460 SWAP1 PUSH2 0x31C8 JUMP JUMPDEST SWAP1 POP PUSH2 0x12B9 JUMP JUMPDEST POP DUP5 PUSH20 0xFFFFFFFFFFFFFFFFFFFFFFFFFFFFFFFFFFFFFFFF AND DUP7 PUSH20 0xFFFFFFFFFFFFFFFFFFFFFFFFFFFFFFFFFFFFFFFF AND DUP3 PUSH20 0xFFFFFFFFFFFFFFFFFFFFFFFFFFFFFFFFFFFFFFFF AND PUSH32 0x4A39DC06D4C0DBC64B70AF90FD698A233A518AA5D07E595D983B8C0526C8F7FB DUP8 DUP8 PUSH1 0x40 MLOAD PUSH2 0x14DE SWAP3 SWAP2 SWAP1 PUSH2 0x351B JUMP JUMPDEST PUSH1 0x40 MLOAD DUP1 SWAP2 SUB SWAP1 LOG4 PUSH2 0x14F4 DUP2 DUP8 DUP8 DUP8 DUP8 DUP8 PUSH2 0x1C80 JUMP JUMPDEST PUSH2 0x1502 DUP2 DUP8 DUP8 DUP8 DUP8 DUP8 PUSH2 0x1C88 JUMP JUMPDEST POP POP POP POP POP POP JUMP JUMPDEST PUSH2 0x1512 PUSH2 0x11E0 JUMP JUMPDEST PUSH20 0xFFFFFFFFFFFFFFFFFFFFFFFFFFFFFFFFFFFFFFFF AND PUSH2 0x1530 PUSH2 0xA43 JUMP JUMPDEST PUSH20 0xFFFFFFFFFFFFFFFFFFFFFFFFFFFFFFFFFFFFFFFF AND EQ PUSH2 0x1586 JUMPI PUSH1 0x40 MLOAD PUSH32 0x8C379A000000000000000000000000000000000000000000000000000000000 DUP2 MSTORE PUSH1 0x4 ADD PUSH2 0x157D SWAP1 PUSH2 0x359E JUMP JUMPDEST PUSH1 0x40 MLOAD DUP1 SWAP2 SUB SWAP1 REVERT JUMPDEST JUMP JUMPDEST PUSH1 0x2 PUSH1 0x4 SLOAD EQ ISZERO PUSH2 0x15CE JUMPI PUSH1 0x40 MLOAD PUSH32 0x8C379A000000000000000000000000000000000000000000000000000000000 DUP2 MSTORE PUSH1 0x4 ADD PUSH2 0x15C5 SWAP1 PUSH2 0x360A JUMP JUMPDEST PUSH1 0x40 MLOAD DUP1 SWAP2 SUB SWAP1 REVERT JUMPDEST PUSH1 0x2 PUSH1 0x4 DUP2 SWAP1 SSTORE POP JUMP JUMPDEST PUSH1 0x1 PUSH1 0x4 DUP2 SWAP1 SSTORE POP JUMP JUMPDEST PUSH1 0x0 DUP2 DUP4 PUSH2 0x15F0 SWAP2 SWAP1 PUSH2 0x362A JUMP JUMPDEST SWAP1 POP SWAP3 SWAP2 POP POP JUMP JUMPDEST PUSH1 0x0 PUSH1 0x3 PUSH1 0x0 SWAP1 SLOAD SWAP1 PUSH2 0x100 EXP SWAP1 DIV PUSH20 0xFFFFFFFFFFFFFFFFFFFFFFFFFFFFFFFFFFFFFFFF AND SWAP1 POP DUP2 PUSH1 0x3 PUSH1 0x0 PUSH2 0x100 EXP DUP2 SLOAD DUP2 PUSH20 0xFFFFFFFFFFFFFFFFFFFFFFFFFFFFFFFFFFFFFFFF MUL NOT AND SWAP1 DUP4 PUSH20 0xFFFFFFFFFFFFFFFFFFFFFFFFFFFFFFFFFFFFFFFF AND MUL OR SWAP1 SSTORE POP DUP2 PUSH20 0xFFFFFFFFFFFFFFFFFFFFFFFFFFFFFFFFFFFFFFFF AND DUP2 PUSH20 0xFFFFFFFFFFFFFFFFFFFFFFFFFFFFFFFFFFFFFFFF AND PUSH32 0x8BE0079C531659141344CD1FD0A4F28419497F9722A3DAAFE3B4186F6B6457E0 PUSH1 0x40 MLOAD PUSH1 0x40 MLOAD DUP1 SWAP2 SUB SWAP1 LOG3 POP POP JUMP JUMPDEST DUP2 PUSH20 0xFFFFFFFFFFFFFFFFFFFFFFFFFFFFFFFFFFFFFFFF AND DUP4 PUSH20 0xFFFFFFFFFFFFFFFFFFFFFFFFFFFFFFFFFFFFFFFF AND EQ ISZERO PUSH2 0x172D JUMPI PUSH1 0x40 MLOAD PUSH32 0x8C379A000000000000000000000000000000000000000000000000000000000 DUP2 MSTORE PUSH1 0x4 ADD PUSH2 0x1724 SWAP1 PUSH2 0x36D0 JUMP JUMPDEST PUSH1 0x40 MLOAD DUP1 SWAP2 SUB SWAP1 REVERT JUMPDEST DUP1 PUSH1 0x1 PUSH1 0x0 DUP6 PUSH20 0xFFFFFFFFFFFFFFFFFFFFFFFFFFFFFFFFFFFFFFFF AND PUSH20 0xFFFFFFFFFFFFFFFFFFFFFFFFFFFFFFFFFFFFFFFF AND DUP2 MSTORE PUSH1 0x20 ADD SWAP1 DUP2 MSTORE PUSH1 0x20 ADD PUSH1 0x0 KECCAK256 PUSH1 0x0 DUP5 PUSH20 0xFFFFFFFFFFFFFFFFFFFFFFFFFFFFFFFFFFFFFFFF AND PUSH20 0xFFFFFFFFFFFFFFFFFFFFFFFFFFFFFFFFFFFFFFFF AND DUP2 MSTORE PUSH1 0x20 ADD SWAP1 DUP2 MSTORE PUSH1 0x20 ADD PUSH1 0x0 KECCAK256 PUSH1 0x0 PUSH2 0x100 EXP DUP2 SLOAD DUP2 PUSH1 0xFF MUL NOT AND SWAP1 DUP4 ISZERO ISZERO MUL OR SWAP1 SSTORE POP DUP2 PUSH20 0xFFFFFFFFFFFFFFFFFFFFFFFFFFFFFFFFFFFFFFFF AND DUP4 PUSH20 0xFFFFFFFFFFFFFFFFFFFFFFFFFFFFFFFFFFFFFFFF AND PUSH32 0x17307EAB39AB6107E8899845AD3D59BD9653F200F220920489CA2B5937696C31 DUP4 PUSH1 0x40 MLOAD PUSH2 0x181E SWAP2 SWAP1 PUSH2 0x2348 JUMP JUMPDEST PUSH1 0x40 MLOAD DUP1 SWAP2 SUB SWAP1 LOG3 POP POP POP JUMP JUMPDEST PUSH1 0x0 PUSH20 0xFFFFFFFFFFFFFFFFFFFFFFFFFFFFFFFFFFFFFFFF AND DUP5 PUSH20 0xFFFFFFFFFFFFFFFFFFFFFFFFFFFFFFFFFFFFFFFF AND EQ ISZERO PUSH2 0x189B JUMPI PUSH1 0x40 MLOAD PUSH32 0x8C379A000000000000000000000000000000000000000000000000000000000 DUP2 MSTORE PUSH1 0x4 ADD PUSH2 0x1892 SWAP1 PUSH2 0x3762 JUMP JUMPDEST PUSH1 0x40 MLOAD DUP1 SWAP2 SUB SWAP1 REVERT JUMPDEST PUSH1 0x0 PUSH2 0x18A5 PUSH2 0x11E0 JUMP JUMPDEST SWAP1 POP PUSH1 0x0 PUSH2 0x18B2 DUP6 PUSH2 0x1E6F JUMP JUMPDEST SWAP1 POP PUSH1 0x0 PUSH2 0x18BF DUP6 PUSH2 0x1E6F JUMP JUMPDEST SWAP1 POP PUSH2 0x18D0 DUP4 PUSH1 0x0 DUP10 DUP6 DUP6 DUP10 PUSH2 0x1C78 JUMP JUMPDEST DUP5 PUSH1 0x0 DUP1 DUP9 DUP2 MSTORE PUSH1 0x20 ADD SWAP1 DUP2 MSTORE PUSH1 0x20 ADD PUSH1 0x0 KECCAK256 PUSH1 0x0 DUP10 PUSH20 0xFFFFFFFFFFFFFFFFFFFFFFFFFFFFFFFFFFFFFFFF AND PUSH20 0xFFFFFFFFFFFFFFFFFFFFFFFFFFFFFFFFFFFFFFFF AND DUP2 MSTORE PUSH1 0x20 ADD SWAP1 DUP2 MSTORE PUSH1 0x20 ADD PUSH1 0x0 KECCAK256 PUSH1 0x0 DUP3 DUP3 SLOAD PUSH2 0x192F SWAP2 SWAP1 PUSH2 0x34C5 JUMP JUMPDEST SWAP3 POP POP DUP2 SWAP1 SSTORE POP DUP7 PUSH20 0xFFFFFFFFFFFFFFFFFFFFFFFFFFFFFFFFFFFFFFFF AND PUSH1 0x0 PUSH20 0xFFFFFFFFFFFFFFFFFFFFFFFFFFFFFFFFFFFFFFFF AND DUP5 PUSH20 0xFFFFFFFFFFFFFFFFFFFFFFFFFFFFFFFFFFFFFFFF AND PUSH32 0xC3D58168C5AE7397731D063D5BBF3D657854427343F4C083240F7AACAA2D0F62 DUP10 DUP10 PUSH1 0x40 MLOAD PUSH2 0x19AD SWAP3 SWAP2 SWAP1 PUSH2 0x30AF JUMP JUMPDEST PUSH1 0x40 MLOAD DUP1 SWAP2 SUB SWAP1 LOG4 PUSH2 0x19C4 DUP4 PUSH1 0x0 DUP10 DUP6 DUP6 DUP10 PUSH2 0x1C80 JUMP JUMPDEST PUSH2 0x19D3 DUP4 PUSH1 0x0 DUP10 DUP10 DUP10 DUP10 PUSH2 0x1EE9 JUMP JUMPDEST POP POP POP POP POP POP POP JUMP JUMPDEST PUSH1 0x0 PUSH20 0xFFFFFFFFFFFFFFFFFFFFFFFFFFFFFFFFFFFFFFFF AND DUP5 PUSH20 0xFFFFFFFFFFFFFFFFFFFFFFFFFFFFFFFFFFFFFFFF AND EQ ISZERO PUSH2 0x1A4C JUMPI PUSH1 0x40 MLOAD PUSH32 0x8C379A000000000000000000000000000000000000000000000000000000000 DUP2 MSTORE PUSH1 0x4 ADD PUSH2 0x1A43 SWAP1 PUSH2 0x3413 JUMP JUMPDEST PUSH1 0x40 MLOAD DUP1 SWAP2 SUB SWAP1 REVERT JUMPDEST PUSH1 0x0 PUSH2 0x1A56 PUSH2 0x11E0 JUMP JUMPDEST SWAP1 POP PUSH1 0x0 PUSH2 0x1A63 DUP6 PUSH2 0x1E6F JUMP JUMPDEST SWAP1 POP PUSH1 0x0 PUSH2 0x1A70 DUP6 PUSH2 0x1E6F JUMP JUMPDEST SWAP1 POP PUSH2 0x1A80 DUP4 DUP10 DUP10 DUP6 DUP6 DUP10 PUSH2 0x1C78 JUMP JUMPDEST PUSH1 0x0 DUP1 PUSH1 0x0 DUP9 DUP2 MSTORE PUSH1 0x20 ADD SWAP1 DUP2 MSTORE PUSH1 0x20 ADD PUSH1 0x0 KECCAK256 PUSH1 0x0 DUP11 PUSH20 0xFFFFFFFFFFFFFFFFFFFFFFFFFFFFFFFFFFFFFFFF AND PUSH20 0xFFFFFFFFFFFFFFFFFFFFFFFFFFFFFFFFFFFFFFFF AND DUP2 MSTORE PUSH1 0x20 ADD SWAP1 DUP2 MSTORE PUSH1 0x20 ADD PUSH1 0x0 KECCAK256 SLOAD SWAP1 POP DUP6 DUP2 LT ISZERO PUSH2 0x1B17 JUMPI PUSH1 0x40 MLOAD PUSH32 0x8C379A000000000000000000000000000000000000000000000000000000000 DUP2 MSTORE PUSH1 0x4 ADD PUSH2 0x1B0E SWAP1 PUSH2 0x34A5 JUMP JUMPDEST PUSH1 0x40 MLOAD DUP1 SWAP2 SUB SWAP1 REVERT JUMPDEST DUP6 DUP2 SUB PUSH1 0x0 DUP1 DUP10 DUP2 MSTORE PUSH1 0x20 ADD SWAP1 DUP2 MSTORE PUSH1 0x20 ADD PUSH1 0x0 KECCAK256 PUSH1 0x0 DUP12 PUSH20 0xFFFFFFFFFFFFFFFFFFFFFFFFFFFFFFFFFFFFFFFF AND PUSH20 0xFFFFFFFFFFFFFFFFFFFFFFFFFFFFFFFFFFFFFFFF AND DUP2 MSTORE PUSH1 0x20 ADD SWAP1 DUP2 MSTORE PUSH1 0x20 ADD PUSH1 0x0 KECCAK256 DUP2 SWAP1 SSTORE POP DUP6 PUSH1 0x0 DUP1 DUP10 DUP2 MSTORE PUSH1 0x20 ADD SWAP1 DUP2 MSTORE PUSH1 0x20 ADD PUSH1 0x0 KECCAK256 PUSH1 0x0 DUP11 PUSH20 0xFFFFFFFFFFFFFFFFFFFFFFFFFFFFFFFFFFFFFFFF AND PUSH20 0xFFFFFFFFFFFFFFFFFFFFFFFFFFFFFFFFFFFFFFFF AND DUP2 MSTORE PUSH1 0x20 ADD SWAP1 DUP2 MSTORE PUSH1 0x20 ADD PUSH1 0x0 KECCAK256 PUSH1 0x0 DUP3 DUP3 SLOAD PUSH2 0x1BCC SWAP2 SWAP1 PUSH2 0x34C5 JUMP JUMPDEST SWAP3 POP POP DUP2 SWAP1 SSTORE POP DUP8 PUSH20 0xFFFFFFFFFFFFFFFFFFFFFFFFFFFFFFFFFFFFFFFF AND DUP10 PUSH20 0xFFFFFFFFFFFFFFFFFFFFFFFFFFFFFFFFFFFFFFFF AND DUP6 PUSH20 0xFFFFFFFFFFFFFFFFFFFFFFFFFFFFFFFFFFFFFFFF AND PUSH32 0xC3D58168C5AE7397731D063D5BBF3D657854427343F4C083240F7AACAA2D0F62 DUP11 DUP11 PUSH1 0x40 MLOAD PUSH2 0x1C49 SWAP3 SWAP2 SWAP1 PUSH2 0x30AF JUMP JUMPDEST PUSH1 0x40 MLOAD DUP1 SWAP2 SUB SWAP1 LOG4 PUSH2 0x1C5F DUP5 DUP11 DUP11 DUP7 DUP7 DUP11 PUSH2 0x1C80 JUMP JUMPDEST PUSH2 0x1C6D DUP5 DUP11 DUP11 DUP11 DUP11 DUP11 PUSH2 0x1EE9 JUMP JUMPDEST POP POP POP POP POP POP POP POP POP JUMP JUMPDEST POP POP POP POP POP POP JUMP JUMPDEST POP POP POP POP POP POP JUMP JUMPDEST PUSH2 0x1CA7 DUP5 PUSH20 0xFFFFFFFFFFFFFFFFFFFFFFFFFFFFFFFFFFFFFFFF AND PUSH2 0x20D0 JUMP JUMPDEST ISZERO PUSH2 0x1E67 JUMPI DUP4 PUSH20 0xFFFFFFFFFFFFFFFFFFFFFFFFFFFFFFFFFFFFFFFF AND PUSH4 0xBC197C81 DUP8 DUP8 DUP7 DUP7 DUP7 PUSH1 0x40 MLOAD DUP7 PUSH4 0xFFFFFFFF AND PUSH1 0xE0 SHL DUP2 MSTORE PUSH1 0x4 ADD PUSH2 0x1CED SWAP6 SWAP5 SWAP4 SWAP3 SWAP2 SWAP1 PUSH2 0x37D7 JUMP JUMPDEST PUSH1 0x20 PUSH1 0x40 MLOAD DUP1 DUP4 SUB DUP2 PUSH1 0x0 DUP8 DUP1 EXTCODESIZE ISZERO DUP1 ISZERO PUSH2 0x1D07 JUMPI PUSH1 0x0 DUP1 REVERT JUMPDEST POP GAS CALL SWAP3 POP POP POP DUP1 ISZERO PUSH2 0x1D38 JUMPI POP PUSH1 0x40 MLOAD RETURNDATASIZE PUSH1 0x1F NOT PUSH1 0x1F DUP3 ADD AND DUP3 ADD DUP1 PUSH1 0x40 MSTORE POP DUP2 ADD SWAP1 PUSH2 0x1D35 SWAP2 SWAP1 PUSH2 0x3854 JUMP JUMPDEST PUSH1 0x1 JUMPDEST PUSH2 0x1DDE JUMPI PUSH2 0x1D44 PUSH2 0x388E JUMP JUMPDEST DUP1 PUSH4 0x8C379A0 EQ ISZERO PUSH2 0x1DA1 JUMPI POP PUSH2 0x1D59 PUSH2 0x38B0 JUMP JUMPDEST DUP1 PUSH2 0x1D64 JUMPI POP PUSH2 0x1DA3 JUMP JUMPDEST DUP1 PUSH1 0x40 MLOAD PUSH32 0x8C379A000000000000000000000000000000000000000000000000000000000 DUP2 MSTORE PUSH1 0x4 ADD PUSH2 0x1D98 SWAP2 SWAP1 PUSH2 0x2429 JUMP JUMPDEST PUSH1 0x40 MLOAD DUP1 SWAP2 SUB SWAP1 REVERT JUMPDEST POP JUMPDEST PUSH1 0x40 MLOAD PUSH32 0x8C379A000000000000000000000000000000000000000000000000000000000 DUP2 MSTORE PUSH1 0x4 ADD PUSH2 0x1DD5 SWAP1 PUSH2 0x39B8 JUMP JUMPDEST PUSH1 0x40 MLOAD DUP1 SWAP2 SUB SWAP1 REVERT JUMPDEST PUSH4 0xBC197C81 PUSH1 0xE0 SHL PUSH28 0xFFFFFFFFFFFFFFFFFFFFFFFFFFFFFFFFFFFFFFFFFFFFFFFFFFFFFFFF NOT AND DUP2 PUSH28 0xFFFFFFFFFFFFFFFFFFFFFFFFFFFFFFFFFFFFFFFFFFFFFFFFFFFFFFFF NOT AND EQ PUSH2 0x1E65 JUMPI PUSH1 0x40 MLOAD PUSH32 0x8C379A000000000000000000000000000000000000000000000000000000000 DUP2 MSTORE PUSH1 0x4 ADD PUSH2 0x1E5C SWAP1 PUSH2 0x3A4A JUMP JUMPDEST PUSH1 0x40 MLOAD DUP1 SWAP2 SUB SWAP1 REVERT JUMPDEST POP JUMPDEST POP POP POP POP POP POP JUMP JUMPDEST PUSH1 0x60 PUSH1 0x0 PUSH1 0x1 PUSH8 0xFFFFFFFFFFFFFFFF DUP2 GT ISZERO PUSH2 0x1E8E JUMPI PUSH2 0x1E8D PUSH2 0x2450 JUMP JUMPDEST JUMPDEST PUSH1 0x40 MLOAD SWAP1 DUP1 DUP3 MSTORE DUP1 PUSH1 0x20 MUL PUSH1 0x20 ADD DUP3 ADD PUSH1 0x40 MSTORE DUP1 ISZERO PUSH2 0x1EBC JUMPI DUP2 PUSH1 0x20 ADD PUSH1 0x20 DUP3 MUL DUP1 CALLDATASIZE DUP4 CALLDATACOPY DUP1 DUP3 ADD SWAP2 POP POP SWAP1 POP JUMPDEST POP SWAP1 POP DUP3 DUP2 PUSH1 0x0 DUP2 MLOAD DUP2 LT PUSH2 0x1ED4 JUMPI PUSH2 0x1ED3 PUSH2 0x316A JUMP JUMPDEST JUMPDEST PUSH1 0x20 MUL PUSH1 0x20 ADD ADD DUP2 DUP2 MSTORE POP POP DUP1 SWAP2 POP POP SWAP2 SWAP1 POP JUMP JUMPDEST PUSH2 0x1F08 DUP5 PUSH20 0xFFFFFFFFFFFFFFFFFFFFFFFFFFFFFFFFFFFFFFFF AND PUSH2 0x20D0 JUMP JUMPDEST ISZERO PUSH2 0x20C8 JUMPI DUP4 PUSH20 0xFFFFFFFFFFFFFFFFFFFFFFFFFFFFFFFFFFFFFFFF AND PUSH4 0xF23A6E61 DUP8 DUP8 DUP7 DUP7 DUP7 PUSH1 0x40 MLOAD DUP7 PUSH4 0xFFFFFFFF AND PUSH1 0xE0 SHL DUP2 MSTORE PUSH1 0x4 ADD PUSH2 0x1F4E SWAP6 SWAP5 SWAP4 SWAP3 SWAP2 SWAP1 PUSH2 0x3A6A JUMP JUMPDEST PUSH1 0x20 PUSH1 0x40 MLOAD DUP1 DUP4 SUB DUP2 PUSH1 0x0 DUP8 DUP1 EXTCODESIZE ISZERO DUP1 ISZERO PUSH2 0x1F68 JUMPI PUSH1 0x0 DUP1 REVERT JUMPDEST POP GAS CALL SWAP3 POP POP POP DUP1 ISZERO PUSH2 0x1F99 JUMPI POP PUSH1 0x40 MLOAD RETURNDATASIZE PUSH1 0x1F NOT PUSH1 0x1F DUP3 ADD AND DUP3 ADD DUP1 PUSH1 0x40 MSTORE POP DUP2 ADD SWAP1 PUSH2 0x1F96 SWAP2 SWAP1 PUSH2 0x3854 JUMP JUMPDEST PUSH1 0x1 JUMPDEST PUSH2 0x203F JUMPI PUSH2 0x1FA5 PUSH2 0x388E JUMP JUMPDEST DUP1 PUSH4 0x8C379A0 EQ ISZERO PUSH2 0x2002 JUMPI POP PUSH2 0x1FBA PUSH2 0x38B0 JUMP JUMPDEST DUP1 PUSH2 0x1FC5 JUMPI POP PUSH2 0x2004 JUMP JUMPDEST DUP1 PUSH1 0x40 MLOAD PUSH32 0x8C379A000000000000000000000000000000000000000000000000000000000 DUP2 MSTORE PUSH1 0x4 ADD PUSH2 0x1FF9 SWAP2 SWAP1 PUSH2 0x2429 JUMP JUMPDEST PUSH1 0x40 MLOAD DUP1 SWAP2 SUB SWAP1 REVERT JUMPDEST POP JUMPDEST PUSH1 0x40 MLOAD PUSH32 0x8C379A000000000000000000000000000000000000000000000000000000000 DUP2 MSTORE PUSH1 0x4 ADD PUSH2 0x2036 SWAP1 PUSH2 0x39B8 JUMP JUMPDEST PUSH1 0x40 MLOAD DUP1 SWAP2 SUB SWAP1 REVERT JUMPDEST PUSH4 0xF23A6E61 PUSH1 0xE0 SHL PUSH28 0xFFFFFFFFFFFFFFFFFFFFFFFFFFFFFFFFFFFFFFFFFFFFFFFFFFFFFFFF NOT AND DUP2 PUSH28 0xFFFFFFFFFFFFFFFFFFFFFFFFFFFFFFFFFFFFFFFFFFFFFFFFFFFFFFFF NOT AND EQ PUSH2 0x20C6 JUMPI PUSH1 0x40 MLOAD PUSH32 0x8C379A000000000000000000000000000000000000000000000000000000000 DUP2 MSTORE PUSH1 0x4 ADD PUSH2 0x20BD SWAP1 PUSH2 0x3A4A JUMP JUMPDEST PUSH1 0x40 MLOAD DUP1 SWAP2 SUB SWAP1 REVERT JUMPDEST POP JUMPDEST POP POP POP POP POP POP JUMP JUMPDEST PUSH1 0x0 DUP1 DUP3 PUSH20 0xFFFFFFFFFFFFFFFFFFFFFFFFFFFFFFFFFFFFFFFF AND EXTCODESIZE GT SWAP1 POP SWAP2 SWAP1 POP JUMP JUMPDEST DUP3 DUP1 SLOAD PUSH2 0x20FF SWAP1 PUSH2 0x2EED JUMP JUMPDEST SWAP1 PUSH1 0x0 MSTORE PUSH1 0x20 PUSH1 0x0 KECCAK256 SWAP1 PUSH1 0x1F ADD PUSH1 0x20 SWAP1 DIV DUP2 ADD SWAP3 DUP3 PUSH2 0x2121 JUMPI PUSH1 0x0 DUP6 SSTORE PUSH2 0x2168 JUMP JUMPDEST DUP3 PUSH1 0x1F LT PUSH2 0x213A JUMPI DUP1 MLOAD PUSH1 0xFF NOT AND DUP4 DUP1 ADD OR DUP6 SSTORE PUSH2 0x2168 JUMP JUMPDEST DUP3 DUP1 ADD PUSH1 0x1 ADD DUP6 SSTORE DUP3 ISZERO PUSH2 0x2168 JUMPI SWAP2 DUP3 ADD JUMPDEST DUP3 DUP2 GT ISZERO PUSH2 0x2167 JUMPI DUP3 MLOAD DUP3 SSTORE SWAP2 PUSH1 0x20 ADD SWAP2 SWAP1 PUSH1 0x1 ADD SWAP1 PUSH2 0x214C JUMP JUMPDEST JUMPDEST POP SWAP1 POP PUSH2 0x2175 SWAP2 SWAP1 PUSH2 0x2179 JUMP JUMPDEST POP SWAP1 JUMP JUMPDEST JUMPDEST DUP1 DUP3 GT ISZERO PUSH2 0x2192 JUMPI PUSH1 0x0 DUP2 PUSH1 0x0 SWAP1 SSTORE POP PUSH1 0x1 ADD PUSH2 0x217A JUMP JUMPDEST POP SWAP1 JUMP JUMPDEST PUSH1 0x0 PUSH1 0x40 MLOAD SWAP1 POP SWAP1 JUMP JUMPDEST PUSH1 0x0 DUP1 REVERT JUMPDEST PUSH1 0x0 DUP1 REVERT JUMPDEST PUSH1 0x0 PUSH20 0xFFFFFFFFFFFFFFFFFFFFFFFFFFFFFFFFFFFFFFFF DUP3 AND SWAP1 POP SWAP2 SWAP1 POP JUMP JUMPDEST PUSH1 0x0 PUSH2 0x21D5 DUP3 PUSH2 0x21AA JUMP JUMPDEST SWAP1 POP SWAP2 SWAP1 POP JUMP JUMPDEST PUSH2 0x21E5 DUP2 PUSH2 0x21CA JUMP JUMPDEST DUP2 EQ PUSH2 0x21F0 JUMPI PUSH1 0x0 DUP1 REVERT JUMPDEST POP JUMP JUMPDEST PUSH1 0x0 DUP2 CALLDATALOAD SWAP1 POP PUSH2 0x2202 DUP2 PUSH2 0x21DC JUMP JUMPDEST SWAP3 SWAP2 POP POP JUMP JUMPDEST PUSH1 0x0 DUP2 SWAP1 POP SWAP2 SWAP1 POP JUMP JUMPDEST PUSH2 0x221B DUP2 PUSH2 0x2208 JUMP JUMPDEST DUP2 EQ PUSH2 0x2226 JUMPI PUSH1 0x0 DUP1 REVERT JUMPDEST POP JUMP JUMPDEST PUSH1 0x0 DUP2 CALLDATALOAD SWAP1 POP PUSH2 0x2238 DUP2 PUSH2 0x2212 JUMP JUMPDEST SWAP3 SWAP2 POP POP JUMP JUMPDEST PUSH1 0x0 DUP1 PUSH1 0x40 DUP4 DUP6 SUB SLT ISZERO PUSH2 0x2255 JUMPI PUSH2 0x2254 PUSH2 0x21A0 JUMP JUMPDEST JUMPDEST PUSH1 0x0 PUSH2 0x2263 DUP6 DUP3 DUP7 ADD PUSH2 0x21F3 JUMP JUMPDEST SWAP3 POP POP PUSH1 0x20 PUSH2 0x2274 DUP6 DUP3 DUP7 ADD PUSH2 0x2229 JUMP JUMPDEST SWAP2 POP POP SWAP3 POP SWAP3 SWAP1 POP JUMP JUMPDEST PUSH2 0x2287 DUP2 PUSH2 0x2208 JUMP JUMPDEST DUP3 MSTORE POP POP JUMP JUMPDEST PUSH1 0x0 PUSH1 0x20 DUP3 ADD SWAP1 POP PUSH2 0x22A2 PUSH1 0x0 DUP4 ADD DUP5 PUSH2 0x227E JUMP JUMPDEST SWAP3 SWAP2 POP POP JUMP JUMPDEST PUSH1 0x0 PUSH32 0xFFFFFFFF00000000000000000000000000000000000000000000000000000000 DUP3 AND SWAP1 POP SWAP2 SWAP1 POP JUMP JUMPDEST PUSH2 0x22DD DUP2 PUSH2 0x22A8 JUMP JUMPDEST DUP2 EQ PUSH2 0x22E8 JUMPI PUSH1 0x0 DUP1 REVERT JUMPDEST POP JUMP JUMPDEST PUSH1 0x0 DUP2 CALLDATALOAD SWAP1 POP PUSH2 0x22FA DUP2 PUSH2 0x22D4 JUMP JUMPDEST SWAP3 SWAP2 POP POP JUMP JUMPDEST PUSH1 0x0 PUSH1 0x20 DUP3 DUP5 SUB SLT ISZERO PUSH2 0x2316 JUMPI PUSH2 0x2315 PUSH2 0x21A0 JUMP JUMPDEST JUMPDEST PUSH1 0x0 PUSH2 0x2324 DUP5 DUP3 DUP6 ADD PUSH2 0x22EB JUMP JUMPDEST SWAP2 POP POP SWAP3 SWAP2 POP POP JUMP JUMPDEST PUSH1 0x0 DUP2 ISZERO ISZERO SWAP1 POP SWAP2 SWAP1 POP JUMP JUMPDEST PUSH2 0x2342 DUP2 PUSH2 0x232D JUMP JUMPDEST DUP3 MSTORE POP POP JUMP JUMPDEST PUSH1 0x0 PUSH1 0x20 DUP3 ADD SWAP1 POP PUSH2 0x235D PUSH1 0x0 DUP4 ADD DUP5 PUSH2 0x2339 JUMP JUMPDEST SWAP3 SWAP2 POP POP JUMP JUMPDEST PUSH1 0x0 PUSH1 0x20 DUP3 DUP5 SUB SLT ISZERO PUSH2 0x2379 JUMPI PUSH2 0x2378 PUSH2 0x21A0 JUMP JUMPDEST JUMPDEST PUSH1 0x0 PUSH2 0x2387 DUP5 DUP3 DUP6 ADD PUSH2 0x2229 JUMP JUMPDEST SWAP2 POP POP SWAP3 SWAP2 POP POP JUMP JUMPDEST PUSH1 0x0 DUP2 MLOAD SWAP1 POP SWAP2 SWAP1 POP JUMP JUMPDEST PUSH1 0x0 DUP3 DUP3 MSTORE PUSH1 0x20 DUP3 ADD SWAP1 POP SWAP3 SWAP2 POP POP JUMP JUMPDEST PUSH1 0x0 JUMPDEST DUP4 DUP2 LT ISZERO PUSH2 0x23CA JUMPI DUP1 DUP3 ADD MLOAD DUP2 DUP5 ADD MSTORE PUSH1 0x20 DUP2 ADD SWAP1 POP PUSH2 0x23AF JUMP JUMPDEST DUP4 DUP2 GT ISZERO PUSH2 0x23D9 JUMPI PUSH1 0x0 DUP5 DUP5 ADD MSTORE JUMPDEST POP POP POP POP JUMP JUMPDEST PUSH1 0x0 PUSH1 0x1F NOT PUSH1 0x1F DUP4 ADD AND SWAP1 POP SWAP2 SWAP1 POP JUMP JUMPDEST PUSH1 0x0 PUSH2 0x23FB DUP3 PUSH2 0x2390 JUMP JUMPDEST PUSH2 0x2405 DUP2 DUP6 PUSH2 0x239B JUMP JUMPDEST SWAP4 POP PUSH2 0x2415 DUP2 DUP6 PUSH1 0x20 DUP7 ADD PUSH2 0x23AC JUMP JUMPDEST PUSH2 0x241E DUP2 PUSH2 0x23DF JUMP JUMPDEST DUP5 ADD SWAP2 POP POP SWAP3 SWAP2 POP POP JUMP JUMPDEST PUSH1 0x0 PUSH1 0x20 DUP3 ADD SWAP1 POP DUP2 DUP2 SUB PUSH1 0x0 DUP4 ADD MSTORE PUSH2 0x2443 DUP2 DUP5 PUSH2 0x23F0 JUMP JUMPDEST SWAP1 POP SWAP3 SWAP2 POP POP JUMP JUMPDEST PUSH1 0x0 DUP1 REVERT JUMPDEST PUSH32 0x4E487B7100000000000000000000000000000000000000000000000000000000 PUSH1 0x0 MSTORE PUSH1 0x41 PUSH1 0x4 MSTORE PUSH1 0x24 PUSH1 0x0 REVERT JUMPDEST PUSH2 0x2488 DUP3 PUSH2 0x23DF JUMP JUMPDEST DUP2 ADD DUP2 DUP2 LT PUSH8 0xFFFFFFFFFFFFFFFF DUP3 GT OR ISZERO PUSH2 0x24A7 JUMPI PUSH2 0x24A6 PUSH2 0x2450 JUMP JUMPDEST JUMPDEST DUP1 PUSH1 0x40 MSTORE POP POP POP JUMP JUMPDEST PUSH1 0x0 PUSH2 0x24BA PUSH2 0x2196 JUMP JUMPDEST SWAP1 POP PUSH2 0x24C6 DUP3 DUP3 PUSH2 0x247F JUMP JUMPDEST SWAP2 SWAP1 POP JUMP JUMPDEST PUSH1 0x0 PUSH8 0xFFFFFFFFFFFFFFFF DUP3 GT ISZERO PUSH2 0x24E6 JUMPI PUSH2 0x24E5 PUSH2 0x2450 JUMP JUMPDEST JUMPDEST PUSH1 0x20 DUP3 MUL SWAP1 POP PUSH1 0x20 DUP2 ADD SWAP1 POP SWAP2 SWAP1 POP JUMP JUMPDEST PUSH1 0x0 DUP1 REVERT JUMPDEST PUSH1 0x0 PUSH2 0x250F PUSH2 0x250A DUP5 PUSH2 0x24CB JUMP JUMPDEST PUSH2 0x24B0 JUMP JUMPDEST SWAP1 POP DUP1 DUP4 DUP3 MSTORE PUSH1 0x20 DUP3 ADD SWAP1 POP PUSH1 0x20 DUP5 MUL DUP4 ADD DUP6 DUP2 GT ISZERO PUSH2 0x2532 JUMPI PUSH2 0x2531 PUSH2 0x24F7 JUMP JUMPDEST JUMPDEST DUP4 JUMPDEST DUP2 DUP2 LT ISZERO PUSH2 0x255B JUMPI DUP1 PUSH2 0x2547 DUP9 DUP3 PUSH2 0x2229 JUMP JUMPDEST DUP5 MSTORE PUSH1 0x20 DUP5 ADD SWAP4 POP POP PUSH1 0x20 DUP2 ADD SWAP1 POP PUSH2 0x2534 JUMP JUMPDEST POP POP POP SWAP4 SWAP3 POP POP POP JUMP JUMPDEST PUSH1 0x0 DUP3 PUSH1 0x1F DUP4 ADD SLT PUSH2 0x257A JUMPI PUSH2 0x2579 PUSH2 0x244B JUMP JUMPDEST JUMPDEST DUP2 CALLDATALOAD PUSH2 0x258A DUP5 DUP3 PUSH1 0x20 DUP7 ADD PUSH2 0x24FC JUMP JUMPDEST SWAP2 POP POP SWAP3 SWAP2 POP POP JUMP JUMPDEST PUSH1 0x0 DUP1 REVERT JUMPDEST PUSH1 0x0 PUSH8 0xFFFFFFFFFFFFFFFF DUP3 GT ISZERO PUSH2 0x25B3 JUMPI PUSH2 0x25B2 PUSH2 0x2450 JUMP JUMPDEST JUMPDEST PUSH2 0x25BC DUP3 PUSH2 0x23DF JUMP JUMPDEST SWAP1 POP PUSH1 0x20 DUP2 ADD SWAP1 POP SWAP2 SWAP1 POP JUMP JUMPDEST DUP3 DUP2 DUP4 CALLDATACOPY PUSH1 0x0 DUP4 DUP4 ADD MSTORE POP POP POP JUMP JUMPDEST PUSH1 0x0 PUSH2 0x25EB PUSH2 0x25E6 DUP5 PUSH2 0x2598 JUMP JUMPDEST PUSH2 0x24B0 JUMP JUMPDEST SWAP1 POP DUP3 DUP2 MSTORE PUSH1 0x20 DUP2 ADD DUP5 DUP5 DUP5 ADD GT ISZERO PUSH2 0x2607 JUMPI PUSH2 0x2606 PUSH2 0x2593 JUMP JUMPDEST JUMPDEST PUSH2 0x2612 DUP5 DUP3 DUP6 PUSH2 0x25C9 JUMP JUMPDEST POP SWAP4 SWAP3 POP POP POP JUMP JUMPDEST PUSH1 0x0 DUP3 PUSH1 0x1F DUP4 ADD SLT PUSH2 0x262F JUMPI PUSH2 0x262E PUSH2 0x244B JUMP JUMPDEST JUMPDEST DUP2 CALLDATALOAD PUSH2 0x263F DUP5 DUP3 PUSH1 0x20 DUP7 ADD PUSH2 0x25D8 JUMP JUMPDEST SWAP2 POP POP SWAP3 SWAP2 POP POP JUMP JUMPDEST PUSH1 0x0 DUP1 PUSH1 0x0 DUP1 PUSH1 0x0 PUSH1 0xA0 DUP7 DUP9 SUB SLT ISZERO PUSH2 0x2664 JUMPI PUSH2 0x2663 PUSH2 0x21A0 JUMP JUMPDEST JUMPDEST PUSH1 0x0 PUSH2 0x2672 DUP9 DUP3 DUP10 ADD PUSH2 0x21F3 JUMP JUMPDEST SWAP6 POP POP PUSH1 0x20 PUSH2 0x2683 DUP9 DUP3 DUP10 ADD PUSH2 0x21F3 JUMP JUMPDEST SWAP5 POP POP PUSH1 0x40 DUP7 ADD CALLDATALOAD PUSH8 0xFFFFFFFFFFFFFFFF DUP2 GT ISZERO PUSH2 0x26A4 JUMPI PUSH2 0x26A3 PUSH2 0x21A5 JUMP JUMPDEST JUMPDEST PUSH2 0x26B0 DUP9 DUP3 DUP10 ADD PUSH2 0x2565 JUMP JUMPDEST SWAP4 POP POP PUSH1 0x60 DUP7 ADD CALLDATALOAD PUSH8 0xFFFFFFFFFFFFFFFF DUP2 GT ISZERO PUSH2 0x26D1 JUMPI PUSH2 0x26D0 PUSH2 0x21A5 JUMP JUMPDEST JUMPDEST PUSH2 0x26DD DUP9 DUP3 DUP10 ADD PUSH2 0x2565 JUMP JUMPDEST SWAP3 POP POP PUSH1 0x80 DUP7 ADD CALLDATALOAD PUSH8 0xFFFFFFFFFFFFFFFF DUP2 GT ISZERO PUSH2 0x26FE JUMPI PUSH2 0x26FD PUSH2 0x21A5 JUMP JUMPDEST JUMPDEST PUSH2 0x270A DUP9 DUP3 DUP10 ADD PUSH2 0x261A JUMP JUMPDEST SWAP2 POP POP SWAP3 SWAP6 POP SWAP3 SWAP6 SWAP1 SWAP4 POP JUMP JUMPDEST PUSH1 0x0 DUP1 PUSH1 0x0 PUSH1 0x60 DUP5 DUP7 SUB SLT ISZERO PUSH2 0x2730 JUMPI PUSH2 0x272F PUSH2 0x21A0 JUMP JUMPDEST JUMPDEST PUSH1 0x0 PUSH2 0x273E DUP7 DUP3 DUP8 ADD PUSH2 0x2229 JUMP JUMPDEST SWAP4 POP POP PUSH1 0x20 PUSH2 0x274F DUP7 DUP3 DUP8 ADD PUSH2 0x2229 JUMP JUMPDEST SWAP3 POP POP PUSH1 0x40 PUSH2 0x2760 DUP7 DUP3 DUP8 ADD PUSH2 0x2229 JUMP JUMPDEST SWAP2 POP POP SWAP3 POP SWAP3 POP SWAP3 JUMP JUMPDEST PUSH1 0x0 PUSH8 0xFFFFFFFFFFFFFFFF DUP3 GT ISZERO PUSH2 0x2785 JUMPI PUSH2 0x2784 PUSH2 0x2450 JUMP JUMPDEST JUMPDEST PUSH1 0x20 DUP3 MUL SWAP1 POP PUSH1 0x20 DUP2 ADD SWAP1 POP SWAP2 SWAP1 POP JUMP JUMPDEST PUSH1 0x0 PUSH2 0x27A9 PUSH2 0x27A4 DUP5 PUSH2 0x276A JUMP JUMPDEST PUSH2 0x24B0 JUMP JUMPDEST SWAP1 POP DUP1 DUP4 DUP3 MSTORE PUSH1 0x20 DUP3 ADD SWAP1 POP PUSH1 0x20 DUP5 MUL DUP4 ADD DUP6 DUP2 GT ISZERO PUSH2 0x27CC JUMPI PUSH2 0x27CB PUSH2 0x24F7 JUMP JUMPDEST JUMPDEST DUP4 JUMPDEST DUP2 DUP2 LT ISZERO PUSH2 0x27F5 JUMPI DUP1 PUSH2 0x27E1 DUP9 DUP3 PUSH2 0x21F3 JUMP JUMPDEST DUP5 MSTORE PUSH1 0x20 DUP5 ADD SWAP4 POP POP PUSH1 0x20 DUP2 ADD SWAP1 POP PUSH2 0x27CE JUMP JUMPDEST POP POP POP SWAP4 SWAP3 POP POP POP JUMP JUMPDEST PUSH1 0x0 DUP3 PUSH1 0x1F DUP4 ADD SLT PUSH2 0x2814 JUMPI PUSH2 0x2813 PUSH2 0x244B JUMP JUMPDEST JUMPDEST DUP2 CALLDATALOAD PUSH2 0x2824 DUP5 DUP3 PUSH1 0x20 DUP7 ADD PUSH2 0x2796 JUMP JUMPDEST SWAP2 POP POP SWAP3 SWAP2 POP POP JUMP JUMPDEST PUSH1 0x0 DUP1 PUSH1 0x40 DUP4 DUP6 SUB SLT ISZERO PUSH2 0x2844 JUMPI PUSH2 0x2843 PUSH2 0x21A0 JUMP JUMPDEST JUMPDEST PUSH1 0x0 DUP4 ADD CALLDATALOAD PUSH8 0xFFFFFFFFFFFFFFFF DUP2 GT ISZERO PUSH2 0x2862 JUMPI PUSH2 0x2861 PUSH2 0x21A5 JUMP JUMPDEST JUMPDEST PUSH2 0x286E DUP6 DUP3 DUP7 ADD PUSH2 0x27FF JUMP JUMPDEST SWAP3 POP POP PUSH1 0x20 DUP4 ADD CALLDATALOAD PUSH8 0xFFFFFFFFFFFFFFFF DUP2 GT ISZERO PUSH2 0x288F JUMPI PUSH2 0x288E PUSH2 0x21A5 JUMP JUMPDEST JUMPDEST PUSH2 0x289B DUP6 DUP3 DUP7 ADD PUSH2 0x2565 JUMP JUMPDEST SWAP2 POP POP SWAP3 POP SWAP3 SWAP1 POP JUMP JUMPDEST PUSH1 0x0 DUP2 MLOAD SWAP1 POP SWAP2 SWAP1 POP JUMP JUMPDEST PUSH1 0x0 DUP3 DUP3 MSTORE PUSH1 0x20 DUP3 ADD SWAP1 POP SWAP3 SWAP2 POP POP JUMP JUMPDEST PUSH1 0x0 DUP2 SWAP1 POP PUSH1 0x20 DUP3 ADD SWAP1 POP SWAP2 SWAP1 POP JUMP JUMPDEST PUSH2 0x28DA DUP2 PUSH2 0x2208 JUMP JUMPDEST DUP3 MSTORE POP POP JUMP JUMPDEST PUSH1 0x0 PUSH2 0x28EC DUP4 DUP4 PUSH2 0x28D1 JUMP JUMPDEST PUSH1 0x20 DUP4 ADD SWAP1 POP SWAP3 SWAP2 POP POP JUMP JUMPDEST PUSH1 0x0 PUSH1 0x20 DUP3 ADD SWAP1 POP SWAP2 SWAP1 POP JUMP JUMPDEST PUSH1 0x0 PUSH2 0x2910 DUP3 PUSH2 0x28A5 JUMP JUMPDEST PUSH2 0x291A DUP2 DUP6 PUSH2 0x28B0 JUMP JUMPDEST SWAP4 POP PUSH2 0x2925 DUP4 PUSH2 0x28C1 JUMP JUMPDEST DUP1 PUSH1 0x0 JUMPDEST DUP4 DUP2 LT ISZERO PUSH2 0x2956 JUMPI DUP2 MLOAD PUSH2 0x293D DUP9 DUP3 PUSH2 0x28E0 JUMP JUMPDEST SWAP8 POP PUSH2 0x2948 DUP4 PUSH2 0x28F8 JUMP JUMPDEST SWAP3 POP POP PUSH1 0x1 DUP2 ADD SWAP1 POP PUSH2 0x2929 JUMP JUMPDEST POP DUP6 SWAP4 POP POP POP POP SWAP3 SWAP2 POP POP JUMP JUMPDEST PUSH1 0x0 PUSH1 0x20 DUP3 ADD SWAP1 POP DUP2 DUP2 SUB PUSH1 0x0 DUP4 ADD MSTORE PUSH2 0x297D DUP2 DUP5 PUSH2 0x2905 JUMP JUMPDEST SWAP1 POP SWAP3 SWAP2 POP POP JUMP JUMPDEST PUSH2 0x298E DUP2 PUSH2 0x21CA JUMP JUMPDEST DUP3 MSTORE POP POP JUMP JUMPDEST PUSH1 0x0 PUSH1 0x20 DUP3 ADD SWAP1 POP PUSH2 0x29A9 PUSH1 0x0 DUP4 ADD DUP5 PUSH2 0x2985 JUMP JUMPDEST SWAP3 SWAP2 POP POP JUMP JUMPDEST PUSH2 0x29B8 DUP2 PUSH2 0x232D JUMP JUMPDEST DUP2 EQ PUSH2 0x29C3 JUMPI PUSH1 0x0 DUP1 REVERT JUMPDEST POP JUMP JUMPDEST PUSH1 0x0 DUP2 CALLDATALOAD SWAP1 POP PUSH2 0x29D5 DUP2 PUSH2 0x29AF JUMP JUMPDEST SWAP3 SWAP2 POP POP JUMP JUMPDEST PUSH1 0x0 DUP1 PUSH1 0x40 DUP4 DUP6 SUB SLT ISZERO PUSH2 0x29F2 JUMPI PUSH2 0x29F1 PUSH2 0x21A0 JUMP JUMPDEST JUMPDEST PUSH1 0x0 PUSH2 0x2A00 DUP6 DUP3 DUP7 ADD PUSH2 0x21F3 JUMP JUMPDEST SWAP3 POP POP PUSH1 0x20 PUSH2 0x2A11 DUP6 DUP3 DUP7 ADD PUSH2 0x29C6 JUMP JUMPDEST SWAP2 POP POP SWAP3 POP SWAP3 SWAP1 POP JUMP JUMPDEST PUSH1 0x0 PUSH8 0xFFFFFFFFFFFFFFFF DUP3 GT ISZERO PUSH2 0x2A36 JUMPI PUSH2 0x2A35 PUSH2 0x2450 JUMP JUMPDEST JUMPDEST PUSH1 0x20 DUP3 MUL SWAP1 POP PUSH1 0x20 DUP2 ADD SWAP1 POP SWAP2 SWAP1 POP JUMP JUMPDEST PUSH1 0x0 PUSH8 0xFFFFFFFFFFFFFFFF DUP3 GT ISZERO PUSH2 0x2A62 JUMPI PUSH2 0x2A61 PUSH2 0x2450 JUMP JUMPDEST JUMPDEST PUSH2 0x2A6B DUP3 PUSH2 0x23DF JUMP JUMPDEST SWAP1 POP PUSH1 0x20 DUP2 ADD SWAP1 POP SWAP2 SWAP1 POP JUMP JUMPDEST PUSH1 0x0 PUSH2 0x2A8B PUSH2 0x2A86 DUP5 PUSH2 0x2A47 JUMP JUMPDEST PUSH2 0x24B0 JUMP JUMPDEST SWAP1 POP DUP3 DUP2 MSTORE PUSH1 0x20 DUP2 ADD DUP5 DUP5 DUP5 ADD GT ISZERO PUSH2 0x2AA7 JUMPI PUSH2 0x2AA6 PUSH2 0x2593 JUMP JUMPDEST JUMPDEST PUSH2 0x2AB2 DUP5 DUP3 DUP6 PUSH2 0x25C9 JUMP JUMPDEST POP SWAP4 SWAP3 POP POP POP JUMP JUMPDEST PUSH1 0x0 DUP3 PUSH1 0x1F DUP4 ADD SLT PUSH2 0x2ACF JUMPI PUSH2 0x2ACE PUSH2 0x244B JUMP JUMPDEST JUMPDEST DUP2 CALLDATALOAD PUSH2 0x2ADF DUP5 DUP3 PUSH1 0x20 DUP7 ADD PUSH2 0x2A78 JUMP JUMPDEST SWAP2 POP POP SWAP3 SWAP2 POP POP JUMP JUMPDEST PUSH1 0x0 PUSH2 0x2AFB PUSH2 0x2AF6 DUP5 PUSH2 0x2A1B JUMP JUMPDEST PUSH2 0x24B0 JUMP JUMPDEST SWAP1 POP DUP1 DUP4 DUP3 MSTORE PUSH1 0x20 DUP3 ADD SWAP1 POP PUSH1 0x20 DUP5 MUL DUP4 ADD DUP6 DUP2 GT ISZERO PUSH2 0x2B1E JUMPI PUSH2 0x2B1D PUSH2 0x24F7 JUMP JUMPDEST JUMPDEST DUP4 JUMPDEST DUP2 DUP2 LT ISZERO PUSH2 0x2B65 JUMPI DUP1 CALLDATALOAD PUSH8 0xFFFFFFFFFFFFFFFF DUP2 GT ISZERO PUSH2 0x2B43 JUMPI PUSH2 0x2B42 PUSH2 0x244B JUMP JUMPDEST JUMPDEST DUP1 DUP7 ADD PUSH2 0x2B50 DUP10 DUP3 PUSH2 0x2ABA JUMP JUMPDEST DUP6 MSTORE PUSH1 0x20 DUP6 ADD SWAP5 POP POP POP PUSH1 0x20 DUP2 ADD SWAP1 POP PUSH2 0x2B20 JUMP JUMPDEST POP POP POP SWAP4 SWAP3 POP POP POP JUMP JUMPDEST PUSH1 0x0 DUP3 PUSH1 0x1F DUP4 ADD SLT PUSH2 0x2B84 JUMPI PUSH2 0x2B83 PUSH2 0x244B JUMP JUMPDEST JUMPDEST DUP2 CALLDATALOAD PUSH2 0x2B94 DUP5 DUP3 PUSH1 0x20 DUP7 ADD PUSH2 0x2AE8 JUMP JUMPDEST SWAP2 POP POP SWAP3 SWAP2 POP POP JUMP JUMPDEST PUSH1 0x0 DUP1 PUSH1 0x0 DUP1 PUSH1 0x0 PUSH1 0xA0 DUP7 DUP9 SUB SLT ISZERO PUSH2 0x2BB9 JUMPI PUSH2 0x2BB8 PUSH2 0x21A0 JUMP JUMPDEST JUMPDEST PUSH1 0x0 DUP7 ADD CALLDATALOAD PUSH8 0xFFFFFFFFFFFFFFFF DUP2 GT ISZERO PUSH2 0x2BD7 JUMPI PUSH2 0x2BD6 PUSH2 0x21A5 JUMP JUMPDEST JUMPDEST PUSH2 0x2BE3 DUP9 DUP3 DUP10 ADD PUSH2 0x2B6F JUMP JUMPDEST SWAP6 POP POP PUSH1 0x20 DUP7 ADD CALLDATALOAD PUSH8 0xFFFFFFFFFFFFFFFF DUP2 GT ISZERO PUSH2 0x2C04 JUMPI PUSH2 0x2C03 PUSH2 0x21A5 JUMP JUMPDEST JUMPDEST PUSH2 0x2C10 DUP9 DUP3 DUP10 ADD PUSH2 0x2B6F JUMP JUMPDEST SWAP5 POP POP PUSH1 0x40 DUP7 ADD CALLDATALOAD PUSH8 0xFFFFFFFFFFFFFFFF DUP2 GT ISZERO PUSH2 0x2C31 JUMPI PUSH2 0x2C30 PUSH2 0x21A5 JUMP JUMPDEST JUMPDEST PUSH2 0x2C3D DUP9 DUP3 DUP10 ADD PUSH2 0x2B6F JUMP JUMPDEST SWAP4 POP POP PUSH1 0x60 DUP7 ADD CALLDATALOAD PUSH8 0xFFFFFFFFFFFFFFFF DUP2 GT ISZERO PUSH2 0x2C5E JUMPI PUSH2 0x2C5D PUSH2 0x21A5 JUMP JUMPDEST JUMPDEST PUSH2 0x2C6A DUP9 DUP3 DUP10 ADD PUSH2 0x2565 JUMP JUMPDEST SWAP3 POP POP PUSH1 0x80 DUP7 ADD CALLDATALOAD PUSH8 0xFFFFFFFFFFFFFFFF DUP2 GT ISZERO PUSH2 0x2C8B JUMPI PUSH2 0x2C8A PUSH2 0x21A5 JUMP JUMPDEST JUMPDEST PUSH2 0x2C97 DUP9 DUP3 DUP10 ADD PUSH2 0x2565 JUMP JUMPDEST SWAP2 POP POP SWAP3 SWAP6 POP SWAP3 SWAP6 SWAP1 SWAP4 POP JUMP JUMPDEST PUSH1 0x0 PUSH1 0xE0 DUP3 ADD SWAP1 POP DUP2 DUP2 SUB PUSH1 0x0 DUP4 ADD MSTORE PUSH2 0x2CBE DUP2 DUP11 PUSH2 0x23F0 JUMP JUMPDEST SWAP1 POP DUP2 DUP2 SUB PUSH1 0x20 DUP4 ADD MSTORE PUSH2 0x2CD2 DUP2 DUP10 PUSH2 0x23F0 JUMP JUMPDEST SWAP1 POP DUP2 DUP2 SUB PUSH1 0x40 DUP4 ADD MSTORE PUSH2 0x2CE6 DUP2 DUP9 PUSH2 0x23F0 JUMP JUMPDEST SWAP1 POP PUSH2 0x2CF5 PUSH1 0x60 DUP4 ADD DUP8 PUSH2 0x227E JUMP JUMPDEST PUSH2 0x2D02 PUSH1 0x80 DUP4 ADD DUP7 PUSH2 0x2985 JUMP JUMPDEST PUSH2 0x2D0F PUSH1 0xA0 DUP4 ADD DUP6 PUSH2 0x227E JUMP JUMPDEST PUSH2 0x2D1C PUSH1 0xC0 DUP4 ADD DUP5 PUSH2 0x2339 JUMP JUMPDEST SWAP9 SWAP8 POP POP POP POP POP POP POP POP JUMP JUMPDEST PUSH1 0x0 PUSH1 0x20 DUP3 DUP5 SUB SLT ISZERO PUSH2 0x2D3E JUMPI PUSH2 0x2D3D PUSH2 0x21A0 JUMP JUMPDEST JUMPDEST PUSH1 0x0 PUSH2 0x2D4C DUP5 DUP3 DUP6 ADD PUSH2 0x21F3 JUMP JUMPDEST SWAP2 POP POP SWAP3 SWAP2 POP POP JUMP JUMPDEST PUSH1 0x0 DUP1 PUSH1 0x40 DUP4 DUP6 SUB SLT ISZERO PUSH2 0x2D6C JUMPI PUSH2 0x2D6B PUSH2 0x21A0 JUMP JUMPDEST JUMPDEST PUSH1 0x0 PUSH2 0x2D7A DUP6 DUP3 DUP7 ADD PUSH2 0x21F3 JUMP JUMPDEST SWAP3 POP POP PUSH1 0x20 PUSH2 0x2D8B DUP6 DUP3 DUP7 ADD PUSH2 0x21F3 JUMP JUMPDEST SWAP2 POP POP SWAP3 POP SWAP3 SWAP1 POP JUMP JUMPDEST PUSH1 0x0 DUP1 PUSH1 0x0 DUP1 PUSH1 0x0 PUSH1 0xA0 DUP7 DUP9 SUB SLT ISZERO PUSH2 0x2DB1 JUMPI PUSH2 0x2DB0 PUSH2 0x21A0 JUMP JUMPDEST JUMPDEST PUSH1 0x0 PUSH2 0x2DBF DUP9 DUP3 DUP10 ADD PUSH2 0x21F3 JUMP JUMPDEST SWAP6 POP POP PUSH1 0x20 PUSH2 0x2DD0 DUP9 DUP3 DUP10 ADD PUSH2 0x21F3 JUMP JUMPDEST SWAP5 POP POP PUSH1 0x40 PUSH2 0x2DE1 DUP9 DUP3 DUP10 ADD PUSH2 0x2229 JUMP JUMPDEST SWAP4 POP POP PUSH1 0x60 PUSH2 0x2DF2 DUP9 DUP3 DUP10 ADD PUSH2 0x2229 JUMP JUMPDEST SWAP3 POP POP PUSH1 0x80 DUP7 ADD CALLDATALOAD PUSH8 0xFFFFFFFFFFFFFFFF DUP2 GT ISZERO PUSH2 0x2E13 JUMPI PUSH2 0x2E12 PUSH2 0x21A5 JUMP JUMPDEST JUMPDEST PUSH2 0x2E1F DUP9 DUP3 DUP10 ADD PUSH2 0x261A JUMP JUMPDEST SWAP2 POP POP SWAP3 SWAP6 POP SWAP3 SWAP6 SWAP1 SWAP4 POP JUMP JUMPDEST PUSH32 0x455243313135353A2061646472657373207A65726F206973206E6F7420612076 PUSH1 0x0 DUP3 ADD MSTORE PUSH32 0x616C6964206F776E657200000000000000000000000000000000000000000000 PUSH1 0x20 DUP3 ADD MSTORE POP JUMP JUMPDEST PUSH1 0x0 PUSH2 0x2E88 PUSH1 0x2A DUP4 PUSH2 0x239B JUMP JUMPDEST SWAP2 POP PUSH2 0x2E93 DUP3 PUSH2 0x2E2C JUMP JUMPDEST PUSH1 0x40 DUP3 ADD SWAP1 POP SWAP2 SWAP1 POP JUMP JUMPDEST PUSH1 0x0 PUSH1 0x20 DUP3 ADD SWAP1 POP DUP2 DUP2 SUB PUSH1 0x0 DUP4 ADD MSTORE PUSH2 0x2EB7 DUP2 PUSH2 0x2E7B JUMP JUMPDEST SWAP1 POP SWAP2 SWAP1 POP JUMP JUMPDEST PUSH32 0x4E487B7100000000000000000000000000000000000000000000000000000000 PUSH1 0x0 MSTORE PUSH1 0x22 PUSH1 0x4 MSTORE PUSH1 0x24 PUSH1 0x0 REVERT JUMPDEST PUSH1 0x0 PUSH1 0x2 DUP3 DIV SWAP1 POP PUSH1 0x1 DUP3 AND DUP1 PUSH2 0x2F05 JUMPI PUSH1 0x7F DUP3 AND SWAP2 POP JUMPDEST PUSH1 0x20 DUP3 LT DUP2 EQ ISZERO PUSH2 0x2F19 JUMPI PUSH2 0x2F18 PUSH2 0x2EBE JUMP JUMPDEST JUMPDEST POP SWAP2 SWAP1 POP JUMP JUMPDEST PUSH32 0x455243313135353A2063616C6C6572206973206E6F7420746F6B656E206F776E PUSH1 0x0 DUP3 ADD MSTORE PUSH32 0x6572206F7220617070726F766564000000000000000000000000000000000000 PUSH1 0x20 DUP3 ADD MSTORE POP JUMP JUMPDEST PUSH1 0x0 PUSH2 0x2F7B PUSH1 0x2E DUP4 PUSH2 0x239B JUMP JUMPDEST SWAP2 POP PUSH2 0x2F86 DUP3 PUSH2 0x2F1F JUMP JUMPDEST PUSH1 0x40 DUP3 ADD SWAP1 POP SWAP2 SWAP1 POP JUMP JUMPDEST PUSH1 0x0 PUSH1 0x20 DUP3 ADD SWAP1 POP DUP2 DUP2 SUB PUSH1 0x0 DUP4 ADD MSTORE PUSH2 0x2FAA DUP2 PUSH2 0x2F6E JUMP JUMPDEST SWAP1 POP SWAP2 SWAP1 POP JUMP JUMPDEST PUSH32 0x496E73756666696369656E7420737570706C792E000000000000000000000000 PUSH1 0x0 DUP3 ADD MSTORE POP JUMP JUMPDEST PUSH1 0x0 PUSH2 0x2FE7 PUSH1 0x14 DUP4 PUSH2 0x239B JUMP JUMPDEST SWAP2 POP PUSH2 0x2FF2 DUP3 PUSH2 0x2FB1 JUMP JUMPDEST PUSH1 0x20 DUP3 ADD SWAP1 POP SWAP2 SWAP1 POP JUMP JUMPDEST PUSH1 0x0 PUSH1 0x20 DUP3 ADD SWAP1 POP DUP2 DUP2 SUB PUSH1 0x0 DUP4 ADD MSTORE PUSH2 0x3016 DUP2 PUSH2 0x2FDA JUMP JUMPDEST SWAP1 POP SWAP2 SWAP1 POP JUMP JUMPDEST PUSH32 0x4F6E6C7920746865206F776E65722063616E206C69737420746865206974656D PUSH1 0x0 DUP3 ADD MSTORE PUSH32 0x20666F722073616C652E00000000000000000000000000000000000000000000 PUSH1 0x20 DUP3 ADD MSTORE POP JUMP JUMPDEST PUSH1 0x0 PUSH2 0x3079 PUSH1 0x2A DUP4 PUSH2 0x239B JUMP JUMPDEST SWAP2 POP PUSH2 0x3084 DUP3 PUSH2 0x301D JUMP JUMPDEST PUSH1 0x40 DUP3 ADD SWAP1 POP SWAP2 SWAP1 POP JUMP JUMPDEST PUSH1 0x0 PUSH1 0x20 DUP3 ADD SWAP1 POP DUP2 DUP2 SUB PUSH1 0x0 DUP4 ADD MSTORE PUSH2 0x30A8 DUP2 PUSH2 0x306C JUMP JUMPDEST SWAP1 POP SWAP2 SWAP1 POP JUMP JUMPDEST PUSH1 0x0 PUSH1 0x40 DUP3 ADD SWAP1 POP PUSH2 0x30C4 PUSH1 0x0 DUP4 ADD DUP6 PUSH2 0x227E JUMP JUMPDEST PUSH2 0x30D1 PUSH1 0x20 DUP4 ADD DUP5 PUSH2 0x227E JUMP JUMPDEST SWAP4 SWAP3 POP POP POP JUMP JUMPDEST PUSH32 0x455243313135353A206163636F756E747320616E6420696473206C656E677468 PUSH1 0x0 DUP3 ADD MSTORE PUSH32 0x206D69736D617463680000000000000000000000000000000000000000000000 PUSH1 0x20 DUP3 ADD MSTORE POP JUMP JUMPDEST PUSH1 0x0 PUSH2 0x3134 PUSH1 0x29 DUP4 PUSH2 0x239B JUMP JUMPDEST SWAP2 POP PUSH2 0x313F DUP3 PUSH2 0x30D8 JUMP JUMPDEST PUSH1 0x40 DUP3 ADD SWAP1 POP SWAP2 SWAP1 POP JUMP JUMPDEST PUSH1 0x0 PUSH1 0x20 DUP3 ADD SWAP1 POP DUP2 DUP2 SUB PUSH1 0x0 DUP4 ADD MSTORE PUSH2 0x3163 DUP2 PUSH2 0x3127 JUMP JUMPDEST SWAP1 POP SWAP2 SWAP1 POP JUMP JUMPDEST PUSH32 0x4E487B7100000000000000000000000000000000000000000000000000000000 PUSH1 0x0 MSTORE PUSH1 0x32 PUSH1 0x4 MSTORE PUSH1 0x24 PUSH1 0x0 REVERT JUMPDEST PUSH32 0x4E487B7100000000000000000000000000000000000000000000000000000000 PUSH1 0x0 MSTORE PUSH1 0x11 PUSH1 0x4 MSTORE PUSH1 0x24 PUSH1 0x0 REVERT JUMPDEST PUSH1 0x0 PUSH2 0x31D3 DUP3 PUSH2 0x2208 JUMP JUMPDEST SWAP2 POP PUSH32 0xFFFFFFFFFFFFFFFFFFFFFFFFFFFFFFFFFFFFFFFFFFFFFFFFFFFFFFFFFFFFFFFF DUP3 EQ ISZERO PUSH2 0x3206 JUMPI PUSH2 0x3205 PUSH2 0x3199 JUMP JUMPDEST JUMPDEST PUSH1 0x1 DUP3 ADD SWAP1 POP SWAP2 SWAP1 POP JUMP JUMPDEST PUSH32 0x417272617973206D757374206265207468652073616D65206C656E6774682E00 PUSH1 0x0 DUP3 ADD MSTORE POP JUMP JUMPDEST PUSH1 0x0 PUSH2 0x3247 PUSH1 0x1F DUP4 PUSH2 0x239B JUMP JUMPDEST SWAP2 POP PUSH2 0x3252 DUP3 PUSH2 0x3211 JUMP JUMPDEST PUSH1 0x20 DUP3 ADD SWAP1 POP SWAP2 SWAP1 POP JUMP JUMPDEST PUSH1 0x0 PUSH1 0x20 DUP3 ADD SWAP1 POP DUP2 DUP2 SUB PUSH1 0x0 DUP4 ADD MSTORE PUSH2 0x3276 DUP2 PUSH2 0x323A JUMP JUMPDEST SWAP1 POP SWAP2 SWAP1 POP JUMP JUMPDEST PUSH32 0x4F776E61626C653A206E6577206F776E657220697320746865207A65726F2061 PUSH1 0x0 DUP3 ADD MSTORE PUSH32 0x6464726573730000000000000000000000000000000000000000000000000000 PUSH1 0x20 DUP3 ADD MSTORE POP JUMP JUMPDEST PUSH1 0x0 PUSH2 0x32D9 PUSH1 0x26 DUP4 PUSH2 0x239B JUMP JUMPDEST SWAP2 POP PUSH2 0x32E4 DUP3 PUSH2 0x327D JUMP JUMPDEST PUSH1 0x40 DUP3 ADD SWAP1 POP SWAP2 SWAP1 POP JUMP JUMPDEST PUSH1 0x0 PUSH1 0x20 DUP3 ADD SWAP1 POP DUP2 DUP2 SUB PUSH1 0x0 DUP4 ADD MSTORE PUSH2 0x3308 DUP2 PUSH2 0x32CC JUMP JUMPDEST SWAP1 POP SWAP2 SWAP1 POP JUMP JUMPDEST PUSH32 0x455243313135353A2069647320616E6420616D6F756E7473206C656E67746820 PUSH1 0x0 DUP3 ADD MSTORE PUSH32 0x6D69736D61746368000000000000000000000000000000000000000000000000 PUSH1 0x20 DUP3 ADD MSTORE POP JUMP JUMPDEST PUSH1 0x0 PUSH2 0x336B PUSH1 0x28 DUP4 PUSH2 0x239B JUMP JUMPDEST SWAP2 POP PUSH2 0x3376 DUP3 PUSH2 0x330F JUMP JUMPDEST PUSH1 0x40 DUP3 ADD SWAP1 POP SWAP2 SWAP1 POP JUMP JUMPDEST PUSH1 0x0 PUSH1 0x20 DUP3 ADD SWAP1 POP DUP2 DUP2 SUB PUSH1 0x0 DUP4 ADD MSTORE PUSH2 0x339A DUP2 PUSH2 0x335E JUMP JUMPDEST SWAP1 POP SWAP2 SWAP1 POP JUMP JUMPDEST PUSH32 0x455243313135353A207472616E7366657220746F20746865207A65726F206164 PUSH1 0x0 DUP3 ADD MSTORE PUSH32 0x6472657373000000000000000000000000000000000000000000000000000000 PUSH1 0x20 DUP3 ADD MSTORE POP JUMP JUMPDEST PUSH1 0x0 PUSH2 0x33FD PUSH1 0x25 DUP4 PUSH2 0x239B JUMP JUMPDEST SWAP2 POP PUSH2 0x3408 DUP3 PUSH2 0x33A1 JUMP JUMPDEST PUSH1 0x40 DUP3 ADD SWAP1 POP SWAP2 SWAP1 POP JUMP JUMPDEST PUSH1 0x0 PUSH1 0x20 DUP3 ADD SWAP1 POP DUP2 DUP2 SUB PUSH1 0x0 DUP4 ADD MSTORE PUSH2 0x342C DUP2 PUSH2 0x33F0 JUMP JUMPDEST SWAP1 POP SWAP2 SWAP1 POP JUMP JUMPDEST PUSH32 0x455243313135353A20696E73756666696369656E742062616C616E636520666F PUSH1 0x0 DUP3 ADD MSTORE PUSH32 0x72207472616E7366657200000000000000000000000000000000000000000000 PUSH1 0x20 DUP3 ADD MSTORE POP JUMP JUMPDEST PUSH1 0x0 PUSH2 0x348F PUSH1 0x2A DUP4 PUSH2 0x239B JUMP JUMPDEST SWAP2 POP PUSH2 0x349A DUP3 PUSH2 0x3433 JUMP JUMPDEST PUSH1 0x40 DUP3 ADD SWAP1 POP SWAP2 SWAP1 POP JUMP JUMPDEST PUSH1 0x0 PUSH1 0x20 DUP3 ADD SWAP1 POP DUP2 DUP2 SUB PUSH1 0x0 DUP4 ADD MSTORE PUSH2 0x34BE DUP2 PUSH2 0x3482 JUMP JUMPDEST SWAP1 POP SWAP2 SWAP1 POP JUMP JUMPDEST PUSH1 0x0 PUSH2 0x34D0 DUP3 PUSH2 0x2208 JUMP JUMPDEST SWAP2 POP PUSH2 0x34DB DUP4 PUSH2 0x2208 JUMP JUMPDEST SWAP3 POP DUP3 PUSH32 0xFFFFFFFFFFFFFFFFFFFFFFFFFFFFFFFFFFFFFFFFFFFFFFFFFFFFFFFFFFFFFFFF SUB DUP3 GT ISZERO PUSH2 0x3510 JUMPI PUSH2 0x350F PUSH2 0x3199 JUMP JUMPDEST JUMPDEST DUP3 DUP3 ADD SWAP1 POP SWAP3 SWAP2 POP POP JUMP JUMPDEST PUSH1 0x0 PUSH1 0x40 DUP3 ADD SWAP1 POP DUP2 DUP2 SUB PUSH1 0x0 DUP4 ADD MSTORE PUSH2 0x3535 DUP2 DUP6 PUSH2 0x2905 JUMP JUMPDEST SWAP1 POP DUP2 DUP2 SUB PUSH1 0x20 DUP4 ADD MSTORE PUSH2 0x3549 DUP2 DUP5 PUSH2 0x2905 JUMP JUMPDEST SWAP1 POP SWAP4 SWAP3 POP POP POP JUMP JUMPDEST PUSH32 0x4F776E61626C653A2063616C6C6572206973206E6F7420746865206F776E6572 PUSH1 0x0 DUP3 ADD MSTORE POP JUMP JUMPDEST PUSH1 0x0 PUSH2 0x3588 PUSH1 0x20 DUP4 PUSH2 0x239B JUMP JUMPDEST SWAP2 POP PUSH2 0x3593 DUP3 PUSH2 0x3552 JUMP JUMPDEST PUSH1 0x20 DUP3 ADD SWAP1 POP SWAP2 SWAP1 POP JUMP JUMPDEST PUSH1 0x0 PUSH1 0x20 DUP3 ADD SWAP1 POP DUP2 DUP2 SUB PUSH1 0x0 DUP4 ADD MSTORE PUSH2 0x35B7 DUP2 PUSH2 0x357B JUMP JUMPDEST SWAP1 POP SWAP2 SWAP1 POP JUMP JUMPDEST PUSH32 0x5265656E7472616E637947756172643A207265656E7472616E742063616C6C00 PUSH1 0x0 DUP3 ADD MSTORE POP JUMP JUMPDEST PUSH1 0x0 PUSH2 0x35F4 PUSH1 0x1F DUP4 PUSH2 0x239B JUMP JUMPDEST SWAP2 POP PUSH2 0x35FF DUP3 PUSH2 0x35BE JUMP JUMPDEST PUSH1 0x20 DUP3 ADD SWAP1 POP SWAP2 SWAP1 POP JUMP JUMPDEST PUSH1 0x0 PUSH1 0x20 DUP3 ADD SWAP1 POP DUP2 DUP2 SUB PUSH1 0x0 DUP4 ADD MSTORE PUSH2 0x3623 DUP2 PUSH2 0x35E7 JUMP JUMPDEST SWAP1 POP SWAP2 SWAP1 POP JUMP JUMPDEST PUSH1 0x0 PUSH2 0x3635 DUP3 PUSH2 0x2208 JUMP JUMPDEST SWAP2 POP PUSH2 0x3640 DUP4 PUSH2 0x2208 JUMP JUMPDEST SWAP3 POP DUP3 DUP3 LT ISZERO PUSH2 0x3653 JUMPI PUSH2 0x3652 PUSH2 0x3199 JUMP JUMPDEST JUMPDEST DUP3 DUP3 SUB SWAP1 POP SWAP3 SWAP2 POP POP JUMP JUMPDEST PUSH32 0x455243313135353A2073657474696E6720617070726F76616C20737461747573 PUSH1 0x0 DUP3 ADD MSTORE PUSH32 0x20666F722073656C660000000000000000000000000000000000000000000000 PUSH1 0x20 DUP3 ADD MSTORE POP JUMP JUMPDEST PUSH1 0x0 PUSH2 0x36BA PUSH1 0x29 DUP4 PUSH2 0x239B JUMP JUMPDEST SWAP2 POP PUSH2 0x36C5 DUP3 PUSH2 0x365E JUMP JUMPDEST PUSH1 0x40 DUP3 ADD SWAP1 POP SWAP2 SWAP1 POP JUMP JUMPDEST PUSH1 0x0 PUSH1 0x20 DUP3 ADD SWAP1 POP DUP2 DUP2 SUB PUSH1 0x0 DUP4 ADD MSTORE PUSH2 0x36E9 DUP2 PUSH2 0x36AD JUMP JUMPDEST SWAP1 POP SWAP2 SWAP1 POP JUMP JUMPDEST PUSH32 0x455243313135353A206D696E7420746F20746865207A65726F20616464726573 PUSH1 0x0 DUP3 ADD MSTORE PUSH32 0x7300000000000000000000000000000000000000000000000000000000000000 PUSH1 0x20 DUP3 ADD MSTORE POP JUMP JUMPDEST PUSH1 0x0 PUSH2 0x374C PUSH1 0x21 DUP4 PUSH2 0x239B JUMP JUMPDEST SWAP2 POP PUSH2 0x3757 DUP3 PUSH2 0x36F0 JUMP JUMPDEST PUSH1 0x40 DUP3 ADD SWAP1 POP SWAP2 SWAP1 POP JUMP JUMPDEST PUSH1 0x0 PUSH1 0x20 DUP3 ADD SWAP1 POP DUP2 DUP2 SUB PUSH1 0x0 DUP4 ADD MSTORE PUSH2 0x377B DUP2 PUSH2 0x373F JUMP JUMPDEST SWAP1 POP SWAP2 SWAP1 POP JUMP JUMPDEST PUSH1 0x0 DUP2 MLOAD SWAP1 POP SWAP2 SWAP1 POP JUMP JUMPDEST PUSH1 0x0 DUP3 DUP3 MSTORE PUSH1 0x20 DUP3 ADD SWAP1 POP SWAP3 SWAP2 POP POP JUMP JUMPDEST PUSH1 0x0 PUSH2 0x37A9 DUP3 PUSH2 0x3782 JUMP JUMPDEST PUSH2 0x37B3 DUP2 DUP6 PUSH2 0x378D JUMP JUMPDEST SWAP4 POP PUSH2 0x37C3 DUP2 DUP6 PUSH1 0x20 DUP7 ADD PUSH2 0x23AC JUMP JUMPDEST PUSH2 0x37CC DUP2 PUSH2 0x23DF JUMP JUMPDEST DUP5 ADD SWAP2 POP POP SWAP3 SWAP2 POP POP JUMP JUMPDEST PUSH1 0x0 PUSH1 0xA0 DUP3 ADD SWAP1 POP PUSH2 0x37EC PUSH1 0x0 DUP4 ADD DUP9 PUSH2 0x2985 JUMP JUMPDEST PUSH2 0x37F9 PUSH1 0x20 DUP4 ADD DUP8 PUSH2 0x2985 JUMP JUMPDEST DUP2 DUP2 SUB PUSH1 0x40 DUP4 ADD MSTORE PUSH2 0x380B DUP2 DUP7 PUSH2 0x2905 JUMP JUMPDEST SWAP1 POP DUP2 DUP2 SUB PUSH1 0x60 DUP4 ADD MSTORE PUSH2 0x381F DUP2 DUP6 PUSH2 0x2905 JUMP JUMPDEST SWAP1 POP DUP2 DUP2 SUB PUSH1 0x80 DUP4 ADD MSTORE PUSH2 0x3833 DUP2 DUP5 PUSH2 0x379E JUMP JUMPDEST SWAP1 POP SWAP7 SWAP6 POP POP POP POP POP POP JUMP JUMPDEST PUSH1 0x0 DUP2 MLOAD SWAP1 POP PUSH2 0x384E DUP2 PUSH2 0x22D4 JUMP JUMPDEST SWAP3 SWAP2 POP POP JUMP JUMPDEST PUSH1 0x0 PUSH1 0x20 DUP3 DUP5 SUB SLT ISZERO PUSH2 0x386A JUMPI PUSH2 0x3869 PUSH2 0x21A0 JUMP JUMPDEST JUMPDEST PUSH1 0x0 PUSH2 0x3878 DUP5 DUP3 DUP6 ADD PUSH2 0x383F JUMP JUMPDEST SWAP2 POP POP SWAP3 SWAP2 POP POP JUMP JUMPDEST PUSH1 0x0 DUP2 PUSH1 0xE0 SHR SWAP1 POP SWAP2 SWAP1 POP JUMP JUMPDEST PUSH1 0x0 PUSH1 0x3 RETURNDATASIZE GT ISZERO PUSH2 0x38AD JUMPI PUSH1 0x4 PUSH1 0x0 DUP1 RETURNDATACOPY PUSH2 0x38AA PUSH1 0x0 MLOAD PUSH2 0x3881 JUMP JUMPDEST SWAP1 POP JUMPDEST SWAP1 JUMP JUMPDEST PUSH1 0x0 PUSH1 0x44 RETURNDATASIZE LT ISZERO PUSH2 0x38C0 JUMPI PUSH2 0x3943 JUMP JUMPDEST PUSH2 0x38C8 PUSH2 0x2196 JUMP JUMPDEST PUSH1 0x4 RETURNDATASIZE SUB PUSH1 0x4 DUP3 RETURNDATACOPY DUP1 MLOAD RETURNDATASIZE PUSH1 0x24 DUP3 ADD GT PUSH8 0xFFFFFFFFFFFFFFFF DUP3 GT OR ISZERO PUSH2 0x38F0 JUMPI POP POP PUSH2 0x3943 JUMP JUMPDEST DUP1 DUP3 ADD DUP1 MLOAD PUSH8 0xFFFFFFFFFFFFFFFF DUP2 GT ISZERO PUSH2 0x390E JUMPI POP POP POP POP PUSH2 0x3943 JUMP JUMPDEST DUP1 PUSH1 0x20 DUP4 ADD ADD PUSH1 0x4 RETURNDATASIZE SUB DUP6 ADD DUP2 GT ISZERO PUSH2 0x392B JUMPI POP POP POP POP POP PUSH2 0x3943 JUMP JUMPDEST PUSH2 0x393A DUP3 PUSH1 0x20 ADD DUP6 ADD DUP7 PUSH2 0x247F JUMP JUMPDEST DUP3 SWAP6 POP POP POP POP POP POP JUMPDEST SWAP1 JUMP JUMPDEST PUSH32 0x455243313135353A207472616E7366657220746F206E6F6E2D45524331313535 PUSH1 0x0 DUP3 ADD MSTORE PUSH32 0x526563656976657220696D706C656D656E746572000000000000000000000000 PUSH1 0x20 DUP3 ADD MSTORE POP JUMP JUMPDEST PUSH1 0x0 PUSH2 0x39A2 PUSH1 0x34 DUP4 PUSH2 0x239B JUMP JUMPDEST SWAP2 POP PUSH2 0x39AD DUP3 PUSH2 0x3946 JUMP JUMPDEST PUSH1 0x40 DUP3 ADD SWAP1 POP SWAP2 SWAP1 POP JUMP JUMPDEST PUSH1 0x0 PUSH1 0x20 DUP3 ADD SWAP1 POP DUP2 DUP2 SUB PUSH1 0x0 DUP4 ADD MSTORE PUSH2 0x39D1 DUP2 PUSH2 0x3995 JUMP JUMPDEST SWAP1 POP SWAP2 SWAP1 POP JUMP JUMPDEST PUSH32 0x455243313135353A204552433131353552656365697665722072656A65637465 PUSH1 0x0 DUP3 ADD MSTORE PUSH32 0x6420746F6B656E73000000000000000000000000000000000000000000000000 PUSH1 0x20 DUP3 ADD MSTORE POP JUMP JUMPDEST PUSH1 0x0 PUSH2 0x3A34 PUSH1 0x28 DUP4 PUSH2 0x239B JUMP JUMPDEST SWAP2 POP PUSH2 0x3A3F DUP3 PUSH2 0x39D8 JUMP JUMPDEST PUSH1 0x40 DUP3 ADD SWAP1 POP SWAP2 SWAP1 POP JUMP JUMPDEST PUSH1 0x0 PUSH1 0x20 DUP3 ADD SWAP1 POP DUP2 DUP2 SUB PUSH1 0x0 DUP4 ADD MSTORE PUSH2 0x3A63 DUP2 PUSH2 0x3A27 JUMP JUMPDEST SWAP1 POP SWAP2 SWAP1 POP JUMP JUMPDEST PUSH1 0x0 PUSH1 0xA0 DUP3 ADD SWAP1 POP PUSH2 0x3A7F PUSH1 0x0 DUP4 ADD DUP9 PUSH2 0x2985 JUMP JUMPDEST PUSH2 0x3A8C PUSH1 0x20 DUP4 ADD DUP8 PUSH2 0x2985 JUMP JUMPDEST PUSH2 0x3A99 PUSH1 0x40 DUP4 ADD DUP7 PUSH2 0x227E JUMP JUMPDEST PUSH2 0x3AA6 PUSH1 0x60 DUP4 ADD DUP6 PUSH2 0x227E JUMP JUMPDEST DUP2 DUP2 SUB PUSH1 0x80 DUP4 ADD MSTORE PUSH2 0x3AB8 DUP2 DUP5 PUSH2 0x379E JUMP JUMPDEST SWAP1 POP SWAP7 SWAP6 POP POP POP POP POP POP JUMP INVALID LOG2 PUSH5 0x6970667358 0x22 SLT KECCAK256 PUSH3 0x2B6E44 0x2B 0x21 0xD ORIGIN PUSH25 0xDB85053FF57A7FF052590C5B964F369E6539BB98169D886473 PUSH16 0x6C634300080900330000000000000000 "},"methodIdentifiers":{"balanceOf(address,uint256)":"00fdd58e","balanceOfBatch(address[],uint256[])":"4e1273f4","escrow()":"e2fdcc17","isApprovedForAll(address,address)":"e985e9c5","itemCount()":"6bfb0d01","items(uint256)":"bfb231d2","listItems(string[],string[],string[],uint256[],uint256[])":"a8346a46","owner()":"8da5cb5b","renounceOwnership()":"715018a6","safeBatchTransferFrom(address,address,uint256[],uint256[],bytes)":"2eb2c2d6","safeTransferFrom(address,address,uint256,uint256,bytes)":"f242432a","setApprovalForAll(address,bool)":"a22cb465","setEscrow(address)":"c10c3546","supportsInterface(bytes4)":"01ffc9a7","transferOwnership(address)":"f2fde38b","transferToEscrow(uint256,uint256,uint256)":"4d125ba6","uri(uint256)":"0e89341c","withdraw()":"3ccfd60b"}}}}}