{"contracts/contrackts.sol":{"contracktV001":{"abi":[{"inputs":[],"stateMutability":"nonpayable","type":"constructor"},{"anonymous":false,"inputs":[{"indexed":true,"internalType":"address","name":"account","type":"address"},{"indexed":true,"internalType":"address","name":"operator","type":"address"},{"indexed":false,"internalType":"bool","name":"approved","type":"bool"}],"name":"ApprovalForAll","type":"event"},{"anonymous":false,"inputs":[{"indexed":true,"internalType":"address","name":"previousOwner","type":"address"},{"indexed":true,"internalType":"address","name":"newOwner","type":"address"}],"name":"OwnershipTransferred","type":"event"},{"anonymous":false,"inputs":[{"indexed":true,"internalType":"address","name":"operator","type":"address"},{"indexed":true,"internalType":"address","name":"from","type":"address"},{"indexed":true,"internalType":"address","name":"to","type":"address"},{"indexed":false,"internalType":"uint256[]","name":"ids","type":"uint256[]"},{"indexed":false,"internalType":"uint256[]","name":"values","type":"uint256[]"}],"name":"TransferBatch","type":"event"},{"anonymous":false,"inputs":[{"indexed":true,"internalType":"address","name":"operator","type":"address"},{"indexed":true,"internalType":"address","name":"from","type":"address"},{"indexed":true,"internalType":"address","name":"to","type":"address"},{"indexed":false,"internalType":"uint256","name":"id","type":"uint256"},{"indexed":false,"internalType":"uint256","name":"value","type":"uint256"}],"name":"TransferSingle","type":"event"},{"anonymous":false,"inputs":[{"indexed":false,"internalType":"string","name":"value","type":"string"},{"indexed":true,"internalType":"uint256","name":"id","type":"uint256"}],"name":"URI","type":"event"},{"inputs":[{"internalType":"uint256","name":"orderId","type":"uint256"},{"internalType":"address","name":"intermediary","type":"address"}],"name":"addIntermediary","outputs":[],"stateMutability":"nonpayable","type":"function"},{"inputs":[{"internalType":"address","name":"account","type":"address"},{"internalType":"uint256","name":"id","type":"uint256"}],"name":"balanceOf","outputs":[{"internalType":"uint256","name":"","type":"uint256"}],"stateMutability":"view","type":"function"},{"inputs":[{"internalType":"address[]","name":"accounts","type":"address[]"},{"internalType":"uint256[]","name":"ids","type":"uint256[]"}],"name":"balanceOfBatch","outputs":[{"internalType":"uint256[]","name":"","type":"uint256[]"}],"stateMutability":"view","type":"function"},{"inputs":[{"internalType":"uint256","name":"saleItemId","type":"uint256"},{"internalType":"uint256","name":"quantity","type":"uint256"}],"name":"buyItem","outputs":[],"stateMutability":"nonpayable","type":"function"},{"inputs":[{"internalType":"uint256","name":"orderId","type":"uint256"}],"name":"cancelItem","outputs":[],"stateMutability":"nonpayable","type":"function"},{"inputs":[{"internalType":"uint256","name":"orderId","type":"uint256"},{"internalType":"address","name":"intermediary","type":"address"},{"internalType":"bool","name":"access","type":"bool"}],"name":"controllIntermediaryAccessHold","outputs":[],"stateMutability":"nonpayable","type":"function"},{"inputs":[{"internalType":"string","name":"name","type":"string"},{"internalType":"uint256","name":"quantity","type":"uint256"},{"internalType":"string","name":"uri","type":"string"}],"name":"createItem","outputs":[],"stateMutability":"nonpayable","type":"function"},{"inputs":[{"internalType":"uint256","name":"_orderId","type":"uint256"}],"name":"deliverItem","outputs":[],"stateMutability":"nonpayable","type":"function"},{"inputs":[{"internalType":"uint256","name":"_orderId","type":"uint256"}],"name":"getIntermediariesAndStatus","outputs":[{"internalType":"address[]","name":"","type":"address[]"},{"internalType":"string[][]","name":"","type":"string[][]"}],"stateMutability":"view","type":"function"},{"inputs":[{"internalType":"address","name":"account","type":"address"},{"internalType":"address","name":"operator","type":"address"}],"name":"isApprovedForAll","outputs":[{"internalType":"bool","name":"","type":"bool"}],"stateMutability":"view","type":"function"},{"inputs":[{"internalType":"uint256","name":"orderId","type":"uint256"},{"internalType":"address","name":"intermediary","type":"address"}],"name":"isIntermediaryAccessActive","outputs":[{"internalType":"bool","name":"","type":"bool"}],"stateMutability":"view","type":"function"},{"inputs":[{"internalType":"uint256","name":"_orderId","type":"uint256"},{"internalType":"address","name":"_intermediary","type":"address"}],"name":"isIntermediaryOfOrder","outputs":[{"internalType":"bool","name":"","type":"bool"}],"stateMutability":"view","type":"function"},{"inputs":[],"name":"itemCount","outputs":[{"internalType":"uint256","name":"","type":"uint256"}],"stateMutability":"view","type":"function"},{"inputs":[{"internalType":"uint256","name":"","type":"uint256"}],"name":"items","outputs":[{"internalType":"uint256","name":"itemId","type":"uint256"},{"internalType":"uint256","name":"quantity","type":"uint256"},{"internalType":"string","name":"name","type":"string"},{"internalType":"string","name":"uri","type":"string"},{"internalType":"address","name":"seller","type":"address"}],"stateMutability":"view","type":"function"},{"inputs":[{"internalType":"uint256","name":"itemId","type":"uint256"},{"internalType":"uint256","name":"quantity","type":"uint256"},{"internalType":"uint256","name":"price","type":"uint256"}],"name":"listItemForSale","outputs":[],"stateMutability":"nonpayable","type":"function"},{"inputs":[],"name":"manager","outputs":[{"internalType":"address","name":"","type":"address"}],"stateMutability":"view","type":"function"},{"inputs":[],"name":"orderCount","outputs":[{"internalType":"uint256","name":"","type":"uint256"}],"stateMutability":"view","type":"function"},{"inputs":[{"internalType":"uint256","name":"","type":"uint256"}],"name":"orders","outputs":[{"internalType":"uint256","name":"orderId","type":"uint256"},{"internalType":"uint256","name":"saleItemId","type":"uint256"},{"internalType":"uint256","name":"quantity","type":"uint256"},{"internalType":"address","name":"seller","type":"address"},{"internalType":"address","name":"buyer","type":"address"},{"internalType":"string","name":"status","type":"string"}],"stateMutability":"view","type":"function"},{"inputs":[],"name":"owner","outputs":[{"internalType":"address","name":"","type":"address"}],"stateMutability":"view","type":"function"},{"inputs":[{"internalType":"uint256","name":"orderId","type":"uint256"}],"name":"renounceIntermediary","outputs":[],"stateMutability":"nonpayable","type":"function"},{"inputs":[],"name":"renounceOwnership","outputs":[],"stateMutability":"nonpayable","type":"function"},{"inputs":[{"internalType":"address","name":"from","type":"address"},{"internalType":"address","name":"to","type":"address"},{"internalType":"uint256[]","name":"ids","type":"uint256[]"},{"internalType":"uint256[]","name":"amounts","type":"uint256[]"},{"internalType":"bytes","name":"data","type":"bytes"}],"name":"safeBatchTransferFrom","outputs":[],"stateMutability":"nonpayable","type":"function"},{"inputs":[{"internalType":"address","name":"from","type":"address"},{"internalType":"address","name":"to","type":"address"},{"internalType":"uint256","name":"id","type":"uint256"},{"internalType":"uint256","name":"amount","type":"uint256"},{"internalType":"bytes","name":"data","type":"bytes"}],"name":"safeTransferFrom","outputs":[],"stateMutability":"nonpayable","type":"function"},{"inputs":[],"name":"saleItemCount","outputs":[{"internalType":"uint256","name":"","type":"uint256"}],"stateMutability":"view","type":"function"},{"inputs":[{"internalType":"uint256","name":"","type":"uint256"}],"name":"saleItems","outputs":[{"internalType":"uint256","name":"itemId","type":"uint256"},{"internalType":"uint256","name":"quantity","type":"uint256"},{"internalType":"uint256","name":"price","type":"uint256"},{"internalType":"string","name":"uri","type":"string"},{"internalType":"address","name":"seller","type":"address"}],"stateMutability":"view","type":"function"},{"inputs":[{"internalType":"address","name":"operator","type":"address"},{"internalType":"bool","name":"approved","type":"bool"}],"name":"setApprovalForAll","outputs":[],"stateMutability":"nonpayable","type":"function"},{"inputs":[{"internalType":"address","name":"_manager","type":"address"}],"name":"setManager","outputs":[],"stateMutability":"nonpayable","type":"function"},{"inputs":[{"internalType":"bytes4","name":"interfaceId","type":"bytes4"}],"name":"supportsInterface","outputs":[{"internalType":"bool","name":"","type":"bool"}],"stateMutability":"view","type":"function"},{"inputs":[{"internalType":"address","name":"newOwner","type":"address"}],"name":"transferOwnership","outputs":[],"stateMutability":"nonpayable","type":"function"},{"inputs":[{"internalType":"uint256","name":"orderId","type":"uint256"},{"internalType":"string","name":"status","type":"string"}],"name":"updateOrderStatus","outputs":[],"stateMutability":"nonpayable","type":"function"},{"inputs":[{"internalType":"uint256","name":"","type":"uint256"}],"name":"uri","outputs":[{"internalType":"string","name":"","type":"string"}],"stateMutability":"view","type":"function"}],"evm":{"bytecode":{"linkReferences":{},"object":"60806040523480156200001157600080fd5b506040518060400160405280600481526020017f7b69647d000000000000000000000000000000000000000000000000000000008152506200005981620000c960201b60201c565b506200007a6200006e620000e560201b60201c565b620000ed60201b60201c565b600160048190555033600c60006101000a81548173ffffffffffffffffffffffffffffffffffffffff021916908373ffffffffffffffffffffffffffffffffffffffff160217905550620002c8565b8060029080519060200190620000e1929190620001b3565b5050565b600033905090565b6000600360009054906101000a900473ffffffffffffffffffffffffffffffffffffffff16905081600360006101000a81548173ffffffffffffffffffffffffffffffffffffffff021916908373ffffffffffffffffffffffffffffffffffffffff1602179055508173ffffffffffffffffffffffffffffffffffffffff168173ffffffffffffffffffffffffffffffffffffffff167f8be0079c531659141344cd1fd0a4f28419497f9722a3daafe3b4186f6b6457e060405160405180910390a35050565b828054620001c19062000292565b90600052602060002090601f016020900481019282620001e5576000855562000231565b82601f106200020057805160ff191683800117855562000231565b8280016001018555821562000231579182015b828111156200023057825182559160200191906001019062000213565b5b50905062000240919062000244565b5090565b5b808211156200025f57600081600090555060010162000245565b5090565b7f4e487b7100000000000000000000000000000000000000000000000000000000600052602260045260246000fd5b60006002820490506001821680620002ab57607f821691505b60208210811415620002c257620002c162000263565b5b50919050565b6158f180620002d86000396000f3fe608060405234801561001057600080fd5b50600436106101e45760003560e01c8063715018a61161010f578063bfb231d2116100a2578063e985e9c511610071578063e985e9c5146105ab578063edc07396146105db578063f242432a146105f7578063f2fde38b14610613576101e4565b8063bfb231d2146104fa578063c02a51811461052e578063c16cade51461055f578063d0ebdbe71461058f576101e4565b80639979c009116100de5780639979c00914610471578063a0a5af5f1461048d578063a22cb465146104a9578063a85c38ef146104c5576101e4565b8063715018a6146103f95780637d9208b7146104035780638abf20921461041f5780638da5cb5b14610453576101e4565b8063312fb302116101875780634e1273f4116101565780634e1273f41461037357806351563f8e146103a3578063532e1453146103bf5780636bfb0d01146103db576101e4565b8063312fb302146102eb5780633457770d14610309578063481c6a75146103255780634d4886b714610343576101e4565b80631f686083116101c35780631f68608314610279578063205fdde6146102955780632453ffa8146102b15780632eb2c2d6146102cf576101e4565b8062fdd58e146101e957806301ffc9a7146102195780630e89341c14610249575b600080fd5b61020360048036038101906101fe9190613a4f565b61062f565b6040516102109190613a9e565b60405180910390f35b610233600480360381019061022e9190613b11565b6106f8565b6040516102409190613b59565b60405180910390f35b610263600480360381019061025e9190613b74565b6107da565b6040516102709190613c3a565b60405180910390f35b610293600480360381019061028e9190613b74565b61086e565b005b6102af60048036038101906102aa9190613d91565b610a0c565b005b6102b9610c7b565b6040516102c69190613a9e565b60405180910390f35b6102e960048036038101906102e49190613f56565b610c81565b005b6102f3610d22565b6040516103009190613a9e565b60405180910390f35b610323600480360381019061031e9190614025565b610d28565b005b61032d610e3d565b60405161033a91906140bf565b60405180910390f35b61035d600480360381019061035891906140da565b610e63565b60405161036a9190613b59565b60405180910390f35b61038d600480360381019061038891906141dd565b610f76565b60405161039a9190614313565b60405180910390f35b6103bd60048036038101906103b89190613b74565b61108f565b005b6103d960048036038101906103d49190614361565b6112b7565b005b6103e36113d2565b6040516103f09190613a9e565b60405180910390f35b6104016113d8565b005b61041d600480360381019061041891906143b4565b6113ec565b005b61043960048036038101906104349190613b74565b611642565b60405161044a959493929190614407565b60405180910390f35b61045b611720565b60405161046891906140bf565b60405180910390f35b61048b60048036038101906104869190614461565b61174a565b005b6104a760048036038101906104a29190613b74565b611bfd565b005b6104c360048036038101906104be91906144a1565b611d98565b005b6104df60048036038101906104da9190613b74565b611dae565b6040516104f1969594939291906144e1565b60405180910390f35b610514600480360381019061050f9190613b74565b611eb2565b604051610525959493929190614549565b60405180910390f35b61054860048036038101906105439190613b74565b612018565b604051610556929190614836565b60405180910390f35b610579600480360381019061057491906140da565b612425565b6040516105869190613b59565b60405180910390f35b6105a960048036038101906105a4919061486d565b6124ee565b005b6105c560048036038101906105c0919061489a565b61253a565b6040516105d29190613b59565b60405180910390f35b6105f560048036038101906105f091906140da565b6125ce565b005b610611600480360381019061060c91906148da565b61281c565b005b61062d6004803603810190610628919061486d565b6128bd565b005b60008073ffffffffffffffffffffffffffffffffffffffff168373ffffffffffffffffffffffffffffffffffffffff1614156106a0576040517f08c379a0000000000000000000000000000000000000000000000000000000008152600401610697906149e3565b60405180910390fd5b60008083815260200190815260200160002060008473ffffffffffffffffffffffffffffffffffffffff1673ffffffffffffffffffffffffffffffffffffffff16815260200190815260200160002054905092915050565b60007fd9b67a26000000000000000000000000000000000000000000000000000000007bffffffffffffffffffffffffffffffffffffffffffffffffffffffff1916827bffffffffffffffffffffffffffffffffffffffffffffffffffffffff191614806107c357507f0e89341c000000000000000000000000000000000000000000000000000000007bffffffffffffffffffffffffffffffffffffffffffffffffffffffff1916827bffffffffffffffffffffffffffffffffffffffffffffffffffffffff1916145b806107d357506107d282612941565b5b9050919050565b6060600280546107e990614a32565b80601f016020809104026020016040519081016040528092919081815260200182805461081590614a32565b80156108625780601f1061083757610100808354040283529160200191610862565b820191906000526020600020905b81548152906001019060200180831161084557829003601f168201915b50505050509050919050565b6108766129ab565b600073ffffffffffffffffffffffffffffffffffffffff166006600083815260200190815260200160002060040160009054906101000a900473ffffffffffffffffffffffffffffffffffffffff1673ffffffffffffffffffffffffffffffffffffffff16141561091c576040517f08c379a000000000000000000000000000000000000000000000000000000000815260040161091390614ab0565b60405180910390fd5b600060066000838152602001908152602001600020905060005b8160060180549050811015610a0757600082600601828154811061095d5761095c614ad0565b5b9060005260206000200160009054906101000a900473ffffffffffffffffffffffffffffffffffffffff1690506000600960008373ffffffffffffffffffffffffffffffffffffffff1673ffffffffffffffffffffffffffffffffffffffff168152602001908152602001600020600086815260200190815260200160002060006101000a81548160ff0219169083151502179055505080806109ff90614b2e565b915050610936565b505050565b600073ffffffffffffffffffffffffffffffffffffffff166006600084815260200190815260200160002060040160009054906101000a900473ffffffffffffffffffffffffffffffffffffffff1673ffffffffffffffffffffffffffffffffffffffff161415610ab2576040517f08c379a0000000000000000000000000000000000000000000000000000000008152600401610aa990614ab0565b60405180910390fd5b610abc8233612425565b610afb576040517f08c379a0000000000000000000000000000000000000000000000000000000008152600401610af290614bc3565b60405180910390fd5b610b058233610e63565b610b44576040517f08c379a0000000000000000000000000000000000000000000000000000000008152600401610b3b90614c2f565b60405180910390fd5b6040518060400160405280600981526020017f44656c69766572656400000000000000000000000000000000000000000000008152508051906020012060066000848152602001908152602001600020600501604051610ba49190614cee565b60405180910390201415610bed576040517f08c379a0000000000000000000000000000000000000000000000000000000008152600401610be490614d51565b60405180910390fd5b6008600083815260200190815260200160002060003373ffffffffffffffffffffffffffffffffffffffff1673ffffffffffffffffffffffffffffffffffffffff16815260200190815260200160002081908060018154018082558091505060019003906000526020600020016000909190919091509080519060200190610c7692919061387a565b505050565b600b5481565b610c89612a29565b73ffffffffffffffffffffffffffffffffffffffff168573ffffffffffffffffffffffffffffffffffffffff161480610ccf5750610cce85610cc9612a29565b61253a565b5b610d0e576040517f08c379a0000000000000000000000000000000000000000000000000000000008152600401610d0590614de3565b60405180910390fd5b610d1b8585858585612a31565b5050505050565b600d5481565b610d306129ab565b6040518060a00160405280600a5481526020018381526020018481526020018281526020013373ffffffffffffffffffffffffffffffffffffffff1681525060056000600a54815260200190815260200160002060008201518160000155602082015181600101556040820151816002019080519060200190610db492919061387a565b506060820151816003019080519060200190610dd192919061387a565b5060808201518160040160006101000a81548173ffffffffffffffffffffffffffffffffffffffff021916908373ffffffffffffffffffffffffffffffffffffffff160217905550905050610e326001600a54612d5390919063ffffffff16565b600a81905550505050565b600c60009054906101000a900473ffffffffffffffffffffffffffffffffffffffff1681565b60008073ffffffffffffffffffffffffffffffffffffffff166006600085815260200190815260200160002060040160009054906101000a900473ffffffffffffffffffffffffffffffffffffffff1673ffffffffffffffffffffffffffffffffffffffff161415610f0a576040517f08c379a0000000000000000000000000000000000000000000000000000000008152600401610f0190614ab0565b60405180910390fd5b6000600960008473ffffffffffffffffffffffffffffffffffffffff1673ffffffffffffffffffffffffffffffffffffffff168152602001908152602001600020600085815260200190815260200160002060009054906101000a900460ff1690508091505092915050565b60608151835114610fbc576040517f08c379a0000000000000000000000000000000000000000000000000000000008152600401610fb390614e75565b60405180910390fd5b6000835167ffffffffffffffff811115610fd957610fd8613c66565b5b6040519080825280602002602001820160405280156110075781602001602082028036833780820191505090505b50905060005b84518110156110845761105485828151811061102c5761102b614ad0565b5b602002602001015185838151811061104757611046614ad0565b5b602002602001015161062f565b82828151811061106757611066614ad0565b5b6020026020010181815250508061107d90614b2e565b905061100d565b508091505092915050565b600073ffffffffffffffffffffffffffffffffffffffff166006600083815260200190815260200160002060040160009054906101000a900473ffffffffffffffffffffffffffffffffffffffff1673ffffffffffffffffffffffffffffffffffffffff161415611135576040517f08c379a000000000000000000000000000000000000000000000000000000000815260040161112c90614ab0565b60405180910390fd5b6006600082815260200190815260200160002060040160009054906101000a900473ffffffffffffffffffffffffffffffffffffffff1673ffffffffffffffffffffffffffffffffffffffff163373ffffffffffffffffffffffffffffffffffffffff16146111d9576040517f08c379a00000000000000000000000000000000000000000000000000000000081526004016111d090614f07565b60405180910390fd5b6000600660008381526020019081526020016000206001015490506000600660008481526020019081526020016000206002015490506040518060400160405280601281526020017f43616e63656c6c6564206279204275796572000000000000000000000000000081525060066000858152602001908152602001600020600501908051906020019061126e92919061387a565b50611298816007600085815260200190815260200160002060010154612d5390919063ffffffff16565b6007600084815260200190815260200160002060010181905550505050565b6112bf6129ab565b600073ffffffffffffffffffffffffffffffffffffffff166006600085815260200190815260200160002060040160009054906101000a900473ffffffffffffffffffffffffffffffffffffffff1673ffffffffffffffffffffffffffffffffffffffff161415611365576040517f08c379a000000000000000000000000000000000000000000000000000000000815260040161135c90614ab0565b60405180910390fd5b80600960008473ffffffffffffffffffffffffffffffffffffffff1673ffffffffffffffffffffffffffffffffffffffff168152602001908152602001600020600085815260200190815260200160002060006101000a81548160ff021916908315150217905550505050565b600a5481565b6113e06129ab565b6113ea6000612d69565b565b6113f46129ab565b60006005600085815260200190815260200160002060010154101561144e576040517f08c379a000000000000000000000000000000000000000000000000000000000815260040161144590614f99565b60405180910390fd5b611477826005600086815260200190815260200160002060010154612e2f90919063ffffffff16565b60056000858152602001908152602001600020600101819055506040518060a001604052808481526020018381526020018281526020016005600086815260200190815260200160002060030180546114cf90614a32565b80601f01602080910402602001604051908101604052809291908181526020018280546114fb90614a32565b80156115485780601f1061151d57610100808354040283529160200191611548565b820191906000526020600020905b81548152906001019060200180831161152b57829003601f168201915b505050505081526020013373ffffffffffffffffffffffffffffffffffffffff1681525060076000600d54815260200190815260200160002060008201518160000155602082015181600101556040820151816002015560608201518160030190805190602001906115bb92919061387a565b5060808201518160040160006101000a81548173ffffffffffffffffffffffffffffffffffffffff021916908373ffffffffffffffffffffffffffffffffffffffff16021790555090505061162133848460405180602001604052806000815250612e45565b6116376001600d54612d5390919063ffffffff16565b600d81905550505050565b600760205280600052604060002060009150905080600001549080600101549080600201549080600301805461167790614a32565b80601f01602080910402602001604051908101604052809291908181526020018280546116a390614a32565b80156116f05780601f106116c5576101008083540402835291602001916116f0565b820191906000526020600020905b8154815290600101906020018083116116d357829003601f168201915b5050505050908060040160009054906101000a900473ffffffffffffffffffffffffffffffffffffffff16905085565b6000600360009054906101000a900473ffffffffffffffffffffffffffffffffffffffff16905090565b80600760008481526020019081526020016000206001015410156117a3576040517f08c379a000000000000000000000000000000000000000000000000000000000815260040161179a9061502b565b60405180910390fd5b6000600167ffffffffffffffff8111156117c0576117bf613c66565b5b6040519080825280602002602001820160405280156117ee5781602001602082028036833780820191505090505b509050600c60009054906101000a900473ffffffffffffffffffffffffffffffffffffffff168160008151811061182857611827614ad0565b5b602002602001019073ffffffffffffffffffffffffffffffffffffffff16908173ffffffffffffffffffffffffffffffffffffffff16815250506040518060e00160405280600b5481526020018481526020018381526020016007600086815260200190815260200160002060040160009054906101000a900473ffffffffffffffffffffffffffffffffffffffff1673ffffffffffffffffffffffffffffffffffffffff1681526020013373ffffffffffffffffffffffffffffffffffffffff1681526020016040518060400160405280600781526020017f50656e64696e670000000000000000000000000000000000000000000000000081525081526020018281525060066000600b54815260200190815260200160002060008201518160000155602082015181600101556040820151816002015560608201518160030160006101000a81548173ffffffffffffffffffffffffffffffffffffffff021916908373ffffffffffffffffffffffffffffffffffffffff16021790555060808201518160040160006101000a81548173ffffffffffffffffffffffffffffffffffffffff021916908373ffffffffffffffffffffffffffffffffffffffff16021790555060a0820151816005019080519060200190611a0b92919061387a565b5060c0820151816006019080519060200190611a28929190613900565b5090505060086000600b5481526020019081526020016000206000600c60009054906101000a900473ffffffffffffffffffffffffffffffffffffffff1673ffffffffffffffffffffffffffffffffffffffff1673ffffffffffffffffffffffffffffffffffffffff16815260200190815260200160002080600181540180825580915050600190039060005260206000200160006040518060400160405280600681526020017f426f6f6b6564000000000000000000000000000000000000000000000000000081525090919091509080519060200190611b0b92919061387a565b50600160096000600c60009054906101000a900473ffffffffffffffffffffffffffffffffffffffff1673ffffffffffffffffffffffffffffffffffffffff1673ffffffffffffffffffffffffffffffffffffffff1681526020019081526020016000206000600b54815260200190815260200160002060006101000a81548160ff021916908315150217905550611bc2826007600086815260200190815260200160002060010154612e2f90919063ffffffff16565b6007600085815260200190815260200160002060010181905550611bf26001600b54612d5390919063ffffffff16565b600b81905550505050565b611c056129ab565b600073ffffffffffffffffffffffffffffffffffffffff166006600083815260200190815260200160002060040160009054906101000a900473ffffffffffffffffffffffffffffffffffffffff1673ffffffffffffffffffffffffffffffffffffffff161415611cab576040517f08c379a0000000000000000000000000000000000000000000000000000000008152600401611ca290615097565b60405180910390fd5b600060066000838152602001908152602001600020600101549050600060066000848152602001908152602001600020600201549050611d33336006600086815260200190815260200160002060040160009054906101000a900473ffffffffffffffffffffffffffffffffffffffff1684846040518060200160405280600081525061281c565b6040518060400160405280600981526020017f44656c6976657265640000000000000000000000000000000000000000000000815250600660008581526020019081526020016000206005019080519060200190611d9292919061387a565b50505050565b611daa611da3612a29565b8383612ff6565b5050565b60066020528060005260406000206000915090508060000154908060010154908060020154908060030160009054906101000a900473ffffffffffffffffffffffffffffffffffffffff16908060040160009054906101000a900473ffffffffffffffffffffffffffffffffffffffff1690806005018054611e2f90614a32565b80601f0160208091040260200160405190810160405280929190818152602001828054611e5b90614a32565b8015611ea85780601f10611e7d57610100808354040283529160200191611ea8565b820191906000526020600020905b815481529060010190602001808311611e8b57829003601f168201915b5050505050905086565b6005602052806000526040600020600091509050806000015490806001015490806002018054611ee190614a32565b80601f0160208091040260200160405190810160405280929190818152602001828054611f0d90614a32565b8015611f5a5780601f10611f2f57610100808354040283529160200191611f5a565b820191906000526020600020905b815481529060010190602001808311611f3d57829003601f168201915b505050505090806003018054611f6f90614a32565b80601f0160208091040260200160405190810160405280929190818152602001828054611f9b90614a32565b8015611fe85780601f10611fbd57610100808354040283529160200191611fe8565b820191906000526020600020905b815481529060010190602001808311611fcb57829003601f168201915b5050505050908060040160009054906101000a900473ffffffffffffffffffffffffffffffffffffffff16905085565b606080600073ffffffffffffffffffffffffffffffffffffffff166006600085815260200190815260200160002060040160009054906101000a900473ffffffffffffffffffffffffffffffffffffffff1673ffffffffffffffffffffffffffffffffffffffff1614156120c1576040517f08c379a00000000000000000000000000000000000000000000000000000000081526004016120b890615097565b60405180910390fd5b60006006600085815260200190815260200160002060060180548060200260200160405190810160405280929190818152602001828054801561215957602002820191906000526020600020905b8160009054906101000a900473ffffffffffffffffffffffffffffffffffffffff1673ffffffffffffffffffffffffffffffffffffffff168152602001906001019080831161210f575b505050505090506000815167ffffffffffffffff81111561217d5761217c613c66565b5b6040519080825280602002602001820160405280156121b057816020015b606081526020019060019003908161219b5790505b50905060005b82518110156124175760006008600088815260200190815260200160002060008584815181106121e9576121e8614ad0565b5b602002602001015173ffffffffffffffffffffffffffffffffffffffff1673ffffffffffffffffffffffffffffffffffffffff1681526020019081526020016000208054905090508067ffffffffffffffff81111561224b5761224a613c66565b5b60405190808252806020026020018201604052801561227e57816020015b60608152602001906001900390816122695790505b5083838151811061229257612291614ad0565b5b602002602001018190525060005b81811015612402576008600089815260200190815260200160002060008685815181106122d0576122cf614ad0565b5b602002602001015173ffffffffffffffffffffffffffffffffffffffff1673ffffffffffffffffffffffffffffffffffffffff168152602001908152602001600020818154811061232457612323614ad0565b5b90600052602060002001805461233990614a32565b80601f016020809104026020016040519081016040528092919081815260200182805461236590614a32565b80156123b25780601f10612387576101008083540402835291602001916123b2565b820191906000526020600020905b81548152906001019060200180831161239557829003601f168201915b50505050508484815181106123ca576123c9614ad0565b5b602002602001015182815181106123e4576123e3614ad0565b5b602002602001018190525080806123fa90614b2e565b9150506122a0565b5050808061240f90614b2e565b9150506121b6565b508181935093505050915091565b60008060066000858152602001908152602001600020905060005b81600601805490508110156124e1578373ffffffffffffffffffffffffffffffffffffffff1682600601828154811061247c5761247b614ad0565b5b9060005260206000200160009054906101000a900473ffffffffffffffffffffffffffffffffffffffff1673ffffffffffffffffffffffffffffffffffffffff1614156124ce576001925050506124e8565b80806124d990614b2e565b915050612440565b5060009150505b92915050565b6124f66129ab565b80600c60006101000a81548173ffffffffffffffffffffffffffffffffffffffff021916908373ffffffffffffffffffffffffffffffffffffffff16021790555050565b6000600160008473ffffffffffffffffffffffffffffffffffffffff1673ffffffffffffffffffffffffffffffffffffffff16815260200190815260200160002060008373ffffffffffffffffffffffffffffffffffffffff1673ffffffffffffffffffffffffffffffffffffffff16815260200190815260200160002060009054906101000a900460ff16905092915050565b6125d66129ab565b600073ffffffffffffffffffffffffffffffffffffffff166006600084815260200190815260200160002060040160009054906101000a900473ffffffffffffffffffffffffffffffffffffffff1673ffffffffffffffffffffffffffffffffffffffff16141561267c576040517f08c379a000000000000000000000000000000000000000000000000000000000815260040161267390614ab0565b60405180910390fd5b60066000838152602001908152602001600020600601819080600181540180825580915050600190039060005260206000200160009091909190916101000a81548173ffffffffffffffffffffffffffffffffffffffff021916908373ffffffffffffffffffffffffffffffffffffffff1602179055506001600960008373ffffffffffffffffffffffffffffffffffffffff1673ffffffffffffffffffffffffffffffffffffffff168152602001908152602001600020600084815260200190815260200160002060006101000a81548160ff0219169083151502179055506008600083815260200190815260200160002060008273ffffffffffffffffffffffffffffffffffffffff1673ffffffffffffffffffffffffffffffffffffffff16815260200190815260200160002080600181540180825580915050600190039060005260206000200160006040518060400160405280600781526020017f50656e64696e67000000000000000000000000000000000000000000000000008152509091909150908051906020019061281792919061387a565b505050565b612824612a29565b73ffffffffffffffffffffffffffffffffffffffff168573ffffffffffffffffffffffffffffffffffffffff16148061286a575061286985612864612a29565b61253a565b5b6128a9576040517f08c379a00000000000000000000000000000000000000000000000000000000081526004016128a090614de3565b60405180910390fd5b6128b68585858585613163565b5050505050565b6128c56129ab565b600073ffffffffffffffffffffffffffffffffffffffff168173ffffffffffffffffffffffffffffffffffffffff161415612935576040517f08c379a000000000000000000000000000000000000000000000000000000000815260040161292c90615129565b60405180910390fd5b61293e81612d69565b50565b60007f01ffc9a7000000000000000000000000000000000000000000000000000000007bffffffffffffffffffffffffffffffffffffffffffffffffffffffff1916827bffffffffffffffffffffffffffffffffffffffffffffffffffffffff1916149050919050565b6129b3612a29565b73ffffffffffffffffffffffffffffffffffffffff166129d1611720565b73ffffffffffffffffffffffffffffffffffffffff1614612a27576040517f08c379a0000000000000000000000000000000000000000000000000000000008152600401612a1e90615195565b60405180910390fd5b565b600033905090565b8151835114612a75576040517f08c379a0000000000000000000000000000000000000000000000000000000008152600401612a6c90615227565b60405180910390fd5b600073ffffffffffffffffffffffffffffffffffffffff168473ffffffffffffffffffffffffffffffffffffffff161415612ae5576040517f08c379a0000000000000000000000000000000000000000000000000000000008152600401612adc906152b9565b60405180910390fd5b6000612aef612a29565b9050612aff8187878787876133ff565b60005b8451811015612cb0576000858281518110612b2057612b1f614ad0565b5b602002602001015190506000858381518110612b3f57612b3e614ad0565b5b60200260200101519050600080600084815260200190815260200160002060008b73ffffffffffffffffffffffffffffffffffffffff1673ffffffffffffffffffffffffffffffffffffffff16815260200190815260200160002054905081811015612be0576040517f08c379a0000000000000000000000000000000000000000000000000000000008152600401612bd79061534b565b60405180910390fd5b81810360008085815260200190815260200160002060008c73ffffffffffffffffffffffffffffffffffffffff1673ffffffffffffffffffffffffffffffffffffffff168152602001908152602001600020819055508160008085815260200190815260200160002060008b73ffffffffffffffffffffffffffffffffffffffff1673ffffffffffffffffffffffffffffffffffffffff1681526020019081526020016000206000828254612c95919061536b565b9250508190555050505080612ca990614b2e565b9050612b02565b508473ffffffffffffffffffffffffffffffffffffffff168673ffffffffffffffffffffffffffffffffffffffff168273ffffffffffffffffffffffffffffffffffffffff167f4a39dc06d4c0dbc64b70af90fd698a233a518aa5d07e595d983b8c0526c8f7fb8787604051612d279291906153c1565b60405180910390a4612d3d818787878787613407565b612d4b81878787878761340f565b505050505050565b60008183612d61919061536b565b905092915050565b6000600360009054906101000a900473ffffffffffffffffffffffffffffffffffffffff16905081600360006101000a81548173ffffffffffffffffffffffffffffffffffffffff021916908373ffffffffffffffffffffffffffffffffffffffff1602179055508173ffffffffffffffffffffffffffffffffffffffff168173ffffffffffffffffffffffffffffffffffffffff167f8be0079c531659141344cd1fd0a4f28419497f9722a3daafe3b4186f6b6457e060405160405180910390a35050565b60008183612e3d91906153f8565b905092915050565b600073ffffffffffffffffffffffffffffffffffffffff168473ffffffffffffffffffffffffffffffffffffffff161415612eb5576040517f08c379a0000000000000000000000000000000000000000000000000000000008152600401612eac9061549e565b60405180910390fd5b6000612ebf612a29565b90506000612ecc856135f6565b90506000612ed9856135f6565b9050612eea836000898585896133ff565b8460008088815260200190815260200160002060008973ffffffffffffffffffffffffffffffffffffffff1673ffffffffffffffffffffffffffffffffffffffff1681526020019081526020016000206000828254612f49919061536b565b925050819055508673ffffffffffffffffffffffffffffffffffffffff16600073ffffffffffffffffffffffffffffffffffffffff168473ffffffffffffffffffffffffffffffffffffffff167fc3d58168c5ae7397731d063d5bbf3d657854427343f4c083240f7aacaa2d0f628989604051612fc79291906154be565b60405180910390a4612fde83600089858589613407565b612fed83600089898989613670565b50505050505050565b8173ffffffffffffffffffffffffffffffffffffffff168373ffffffffffffffffffffffffffffffffffffffff161415613065576040517f08c379a000000000000000000000000000000000000000000000000000000000815260040161305c90615559565b60405180910390fd5b80600160008573ffffffffffffffffffffffffffffffffffffffff1673ffffffffffffffffffffffffffffffffffffffff16815260200190815260200160002060008473ffffffffffffffffffffffffffffffffffffffff1673ffffffffffffffffffffffffffffffffffffffff16815260200190815260200160002060006101000a81548160ff0219169083151502179055508173ffffffffffffffffffffffffffffffffffffffff168373ffffffffffffffffffffffffffffffffffffffff167f17307eab39ab6107e8899845ad3d59bd9653f200f220920489ca2b5937696c31836040516131569190613b59565b60405180910390a3505050565b600073ffffffffffffffffffffffffffffffffffffffff168473ffffffffffffffffffffffffffffffffffffffff1614156131d3576040517f08c379a00000000000000000000000000000000000000000000000000000000081526004016131ca906152b9565b60405180910390fd5b60006131dd612a29565b905060006131ea856135f6565b905060006131f7856135f6565b90506132078389898585896133ff565b600080600088815260200190815260200160002060008a73ffffffffffffffffffffffffffffffffffffffff1673ffffffffffffffffffffffffffffffffffffffff1681526020019081526020016000205490508581101561329e576040517f08c379a00000000000000000000000000000000000000000000000000000000081526004016132959061534b565b60405180910390fd5b85810360008089815260200190815260200160002060008b73ffffffffffffffffffffffffffffffffffffffff1673ffffffffffffffffffffffffffffffffffffffff168152602001908152602001600020819055508560008089815260200190815260200160002060008a73ffffffffffffffffffffffffffffffffffffffff1673ffffffffffffffffffffffffffffffffffffffff1681526020019081526020016000206000828254613353919061536b565b925050819055508773ffffffffffffffffffffffffffffffffffffffff168973ffffffffffffffffffffffffffffffffffffffff168573ffffffffffffffffffffffffffffffffffffffff167fc3d58168c5ae7397731d063d5bbf3d657854427343f4c083240f7aacaa2d0f628a8a6040516133d09291906154be565b60405180910390a46133e6848a8a86868a613407565b6133f4848a8a8a8a8a613670565b505050505050505050565b505050505050565b505050505050565b61342e8473ffffffffffffffffffffffffffffffffffffffff16613857565b156135ee578373ffffffffffffffffffffffffffffffffffffffff1663bc197c8187878686866040518663ffffffff1660e01b81526004016134749594939291906155ce565b602060405180830381600087803b15801561348e57600080fd5b505af19250505080156134bf57506040513d601f19601f820116820180604052508101906134bc919061564b565b60015b613565576134cb615685565b806308c379a0141561352857506134e06156a7565b806134eb575061352a565b806040517f08c379a000000000000000000000000000000000000000000000000000000000815260040161351f9190613c3a565b60405180910390fd5b505b6040517f08c379a000000000000000000000000000000000000000000000000000000000815260040161355c906157af565b60405180910390fd5b63bc197c8160e01b7bffffffffffffffffffffffffffffffffffffffffffffffffffffffff1916817bffffffffffffffffffffffffffffffffffffffffffffffffffffffff1916146135ec576040517f08c379a00000000000000000000000000000000000000000000000000000000081526004016135e390615841565b60405180910390fd5b505b505050505050565b60606000600167ffffffffffffffff81111561361557613614613c66565b5b6040519080825280602002602001820160405280156136435781602001602082028036833780820191505090505b509050828160008151811061365b5761365a614ad0565b5b60200260200101818152505080915050919050565b61368f8473ffffffffffffffffffffffffffffffffffffffff16613857565b1561384f578373ffffffffffffffffffffffffffffffffffffffff1663f23a6e6187878686866040518663ffffffff1660e01b81526004016136d5959493929190615861565b602060405180830381600087803b1580156136ef57600080fd5b505af192505050801561372057506040513d601f19601f8201168201806040525081019061371d919061564b565b60015b6137c65761372c615685565b806308c379a0141561378957506137416156a7565b8061374c575061378b565b806040517f08c379a00000000000000000000000000000000000000000000000000000000081526004016137809190613c3a565b60405180910390fd5b505b6040517f08c379a00000000000000000000000000000000000000000000000000000000081526004016137bd906157af565b60405180910390fd5b63f23a6e6160e01b7bffffffffffffffffffffffffffffffffffffffffffffffffffffffff1916817bffffffffffffffffffffffffffffffffffffffffffffffffffffffff19161461384d576040517f08c379a000000000000000000000000000000000000000000000000000000000815260040161384490615841565b60405180910390fd5b505b505050505050565b6000808273ffffffffffffffffffffffffffffffffffffffff163b119050919050565b82805461388690614a32565b90600052602060002090601f0160209004810192826138a857600085556138ef565b82601f106138c157805160ff19168380011785556138ef565b828001600101855582156138ef579182015b828111156138ee5782518255916020019190600101906138d3565b5b5090506138fc919061398a565b5090565b828054828255906000526020600020908101928215613979579160200282015b828111156139785782518260006101000a81548173ffffffffffffffffffffffffffffffffffffffff021916908373ffffffffffffffffffffffffffffffffffffffff16021790555091602001919060010190613920565b5b509050613986919061398a565b5090565b5b808211156139a357600081600090555060010161398b565b5090565b6000604051905090565b600080fd5b600080fd5b600073ffffffffffffffffffffffffffffffffffffffff82169050919050565b60006139e6826139bb565b9050919050565b6139f6816139db565b8114613a0157600080fd5b50565b600081359050613a13816139ed565b92915050565b6000819050919050565b613a2c81613a19565b8114613a3757600080fd5b50565b600081359050613a4981613a23565b92915050565b60008060408385031215613a6657613a656139b1565b5b6000613a7485828601613a04565b9250506020613a8585828601613a3a565b9150509250929050565b613a9881613a19565b82525050565b6000602082019050613ab36000830184613a8f565b92915050565b60007fffffffff0000000000000000000000000000000000000000000000000000000082169050919050565b613aee81613ab9565b8114613af957600080fd5b50565b600081359050613b0b81613ae5565b92915050565b600060208284031215613b2757613b266139b1565b5b6000613b3584828501613afc565b91505092915050565b60008115159050919050565b613b5381613b3e565b82525050565b6000602082019050613b6e6000830184613b4a565b92915050565b600060208284031215613b8a57613b896139b1565b5b6000613b9884828501613a3a565b91505092915050565b600081519050919050565b600082825260208201905092915050565b60005b83811015613bdb578082015181840152602081019050613bc0565b83811115613bea576000848401525b50505050565b6000601f19601f8301169050919050565b6000613c0c82613ba1565b613c168185613bac565b9350613c26818560208601613bbd565b613c2f81613bf0565b840191505092915050565b60006020820190508181036000830152613c548184613c01565b905092915050565b600080fd5b600080fd5b7f4e487b7100000000000000000000000000000000000000000000000000000000600052604160045260246000fd5b613c9e82613bf0565b810181811067ffffffffffffffff82111715613cbd57613cbc613c66565b5b80604052505050565b6000613cd06139a7565b9050613cdc8282613c95565b919050565b600067ffffffffffffffff821115613cfc57613cfb613c66565b5b613d0582613bf0565b9050602081019050919050565b82818337600083830152505050565b6000613d34613d2f84613ce1565b613cc6565b905082815260208101848484011115613d5057613d4f613c61565b5b613d5b848285613d12565b509392505050565b600082601f830112613d7857613d77613c5c565b5b8135613d88848260208601613d21565b91505092915050565b60008060408385031215613da857613da76139b1565b5b6000613db685828601613a3a565b925050602083013567ffffffffffffffff811115613dd757613dd66139b6565b5b613de385828601613d63565b9150509250929050565b600067ffffffffffffffff821115613e0857613e07613c66565b5b602082029050602081019050919050565b600080fd5b6000613e31613e2c84613ded565b613cc6565b90508083825260208201905060208402830185811115613e5457613e53613e19565b5b835b81811015613e7d5780613e698882613a3a565b845260208401935050602081019050613e56565b5050509392505050565b600082601f830112613e9c57613e9b613c5c565b5b8135613eac848260208601613e1e565b91505092915050565b600067ffffffffffffffff821115613ed057613ecf613c66565b5b613ed982613bf0565b9050602081019050919050565b6000613ef9613ef484613eb5565b613cc6565b905082815260208101848484011115613f1557613f14613c61565b5b613f20848285613d12565b509392505050565b600082601f830112613f3d57613f3c613c5c565b5b8135613f4d848260208601613ee6565b91505092915050565b600080600080600060a08688031215613f7257613f716139b1565b5b6000613f8088828901613a04565b9550506020613f9188828901613a04565b945050604086013567ffffffffffffffff811115613fb257613fb16139b6565b5b613fbe88828901613e87565b935050606086013567ffffffffffffffff811115613fdf57613fde6139b6565b5b613feb88828901613e87565b925050608086013567ffffffffffffffff81111561400c5761400b6139b6565b5b61401888828901613f28565b9150509295509295909350565b60008060006060848603121561403e5761403d6139b1565b5b600084013567ffffffffffffffff81111561405c5761405b6139b6565b5b61406886828701613d63565b935050602061407986828701613a3a565b925050604084013567ffffffffffffffff81111561409a576140996139b6565b5b6140a686828701613d63565b9150509250925092565b6140b9816139db565b82525050565b60006020820190506140d460008301846140b0565b92915050565b600080604083850312156140f1576140f06139b1565b5b60006140ff85828601613a3a565b925050602061411085828601613a04565b9150509250929050565b600067ffffffffffffffff82111561413557614134613c66565b5b602082029050602081019050919050565b60006141596141548461411a565b613cc6565b9050808382526020820190506020840283018581111561417c5761417b613e19565b5b835b818110156141a557806141918882613a04565b84526020840193505060208101905061417e565b5050509392505050565b600082601f8301126141c4576141c3613c5c565b5b81356141d4848260208601614146565b91505092915050565b600080604083850312156141f4576141f36139b1565b5b600083013567ffffffffffffffff811115614212576142116139b6565b5b61421e858286016141af565b925050602083013567ffffffffffffffff81111561423f5761423e6139b6565b5b61424b85828601613e87565b9150509250929050565b600081519050919050565b600082825260208201905092915050565b6000819050602082019050919050565b61428a81613a19565b82525050565b600061429c8383614281565b60208301905092915050565b6000602082019050919050565b60006142c082614255565b6142ca8185614260565b93506142d583614271565b8060005b838110156143065781516142ed8882614290565b97506142f8836142a8565b9250506001810190506142d9565b5085935050505092915050565b6000602082019050818103600083015261432d81846142b5565b905092915050565b61433e81613b3e565b811461434957600080fd5b50565b60008135905061435b81614335565b92915050565b60008060006060848603121561437a576143796139b1565b5b600061438886828701613a3a565b935050602061439986828701613a04565b92505060406143aa8682870161434c565b9150509250925092565b6000806000606084860312156143cd576143cc6139b1565b5b60006143db86828701613a3a565b93505060206143ec86828701613a3a565b92505060406143fd86828701613a3a565b9150509250925092565b600060a08201905061441c6000830188613a8f565b6144296020830187613a8f565b6144366040830186613a8f565b81810360608301526144488185613c01565b905061445760808301846140b0565b9695505050505050565b60008060408385031215614478576144776139b1565b5b600061448685828601613a3a565b925050602061449785828601613a3a565b9150509250929050565b600080604083850312156144b8576144b76139b1565b5b60006144c685828601613a04565b92505060206144d78582860161434c565b9150509250929050565b600060c0820190506144f66000830189613a8f565b6145036020830188613a8f565b6145106040830187613a8f565b61451d60608301866140b0565b61452a60808301856140b0565b81810360a083015261453c8184613c01565b9050979650505050505050565b600060a08201905061455e6000830188613a8f565b61456b6020830187613a8f565b818103604083015261457d8186613c01565b905081810360608301526145918185613c01565b90506145a060808301846140b0565b9695505050505050565b600081519050919050565b600082825260208201905092915050565b6000819050602082019050919050565b6145df816139db565b82525050565b60006145f183836145d6565b60208301905092915050565b6000602082019050919050565b6000614615826145aa565b61461f81856145b5565b935061462a836145c6565b8060005b8381101561465b57815161464288826145e5565b975061464d836145fd565b92505060018101905061462e565b5085935050505092915050565b600081519050919050565b600082825260208201905092915050565b6000819050602082019050919050565b600081519050919050565b600082825260208201905092915050565b6000819050602082019050919050565b600082825260208201905092915050565b60006146dc82613ba1565b6146e681856146c0565b93506146f6818560208601613bbd565b6146ff81613bf0565b840191505092915050565b600061471683836146d1565b905092915050565b6000602082019050919050565b600061473682614694565b614740818561469f565b935083602082028501614752856146b0565b8060005b8581101561478e578484038952815161476f858261470a565b945061477a8361471e565b925060208a01995050600181019050614756565b50829750879550505050505092915050565b60006147ac838361472b565b905092915050565b6000602082019050919050565b60006147cc82614668565b6147d68185614673565b9350836020820285016147e885614684565b8060005b85811015614824578484038952815161480585826147a0565b9450614810836147b4565b925060208a019950506001810190506147ec565b50829750879550505050505092915050565b60006040820190508181036000830152614850818561460a565b9050818103602083015261486481846147c1565b90509392505050565b600060208284031215614883576148826139b1565b5b600061489184828501613a04565b91505092915050565b600080604083850312156148b1576148b06139b1565b5b60006148bf85828601613a04565b92505060206148d085828601613a04565b9150509250929050565b600080600080600060a086880312156148f6576148f56139b1565b5b600061490488828901613a04565b955050602061491588828901613a04565b945050604061492688828901613a3a565b935050606061493788828901613a3a565b925050608086013567ffffffffffffffff811115614958576149576139b6565b5b61496488828901613f28565b9150509295509295909350565b7f455243313135353a2061646472657373207a65726f206973206e6f742061207660008201527f616c6964206f776e657200000000000000000000000000000000000000000000602082015250565b60006149cd602a83613bac565b91506149d882614971565b604082019050919050565b600060208201905081810360008301526149fc816149c0565b9050919050565b7f4e487b7100000000000000000000000000000000000000000000000000000000600052602260045260246000fd5b60006002820490506001821680614a4a57607f821691505b60208210811415614a5e57614a5d614a03565b5b50919050565b7f4f7264657220646f6573206e6f74206578697374000000000000000000000000600082015250565b6000614a9a601483613bac565b9150614aa582614a64565b602082019050919050565b60006020820190508181036000830152614ac981614a8d565b9050919050565b7f4e487b7100000000000000000000000000000000000000000000000000000000600052603260045260246000fd5b7f4e487b7100000000000000000000000000000000000000000000000000000000600052601160045260246000fd5b6000614b3982613a19565b91507fffffffffffffffffffffffffffffffffffffffffffffffffffffffffffffffff821415614b6c57614b6b614aff565b5b600182019050919050565b7f4e6f7420616e2061737369676e656420696e7465726d65646961727900000000600082015250565b6000614bad601c83613bac565b9150614bb882614b77565b602082019050919050565b60006020820190508181036000830152614bdc81614ba0565b9050919050565b7f496e7465726d65646961727920616363657373206e6f74206163746976650000600082015250565b6000614c19601e83613bac565b9150614c2482614be3565b602082019050919050565b60006020820190508181036000830152614c4881614c0c565b9050919050565b600081905092915050565b60008190508160005260206000209050919050565b60008154614c7c81614a32565b614c868186614c4f565b94506001821660008114614ca15760018114614cb257614ce5565b60ff19831686528186019350614ce5565b614cbb85614c5a565b60005b83811015614cdd57815481890152600182019150602081019050614cbe565b838801955050505b50505092915050565b6000614cfa8284614c6f565b915081905092915050565b7f4f726465722044656c6976657265640000000000000000000000000000000000600082015250565b6000614d3b600f83613bac565b9150614d4682614d05565b602082019050919050565b60006020820190508181036000830152614d6a81614d2e565b9050919050565b7f455243313135353a2063616c6c6572206973206e6f7420746f6b656e206f776e60008201527f6572206f7220617070726f766564000000000000000000000000000000000000602082015250565b6000614dcd602e83613bac565b9150614dd882614d71565b604082019050919050565b60006020820190508181036000830152614dfc81614dc0565b9050919050565b7f455243313135353a206163636f756e747320616e6420696473206c656e67746860008201527f206d69736d617463680000000000000000000000000000000000000000000000602082015250565b6000614e5f602983613bac565b9150614e6a82614e03565b604082019050919050565b60006020820190508181036000830152614e8e81614e52565b9050919050565b7f4f6e6c79207468652062757965722063616e2063616e63656c2074686520697460008201527f656d000000000000000000000000000000000000000000000000000000000000602082015250565b6000614ef1602283613bac565b9150614efc82614e95565b604082019050919050565b60006020820190508181036000830152614f2081614ee4565b9050919050565b7f496e73756666696369656e74207175616e7469747920696e207468652069746560008201527f6d00000000000000000000000000000000000000000000000000000000000000602082015250565b6000614f83602183613bac565b9150614f8e82614f27565b604082019050919050565b60006020820190508181036000830152614fb281614f76565b9050919050565b7f4974656d206973206e6f74206c697374656420666f722073616c65206f72206960008201527f6e73756666696369656e74207175616e74697479000000000000000000000000602082015250565b6000615015603483613bac565b915061502082614fb9565b604082019050919050565b6000602082019050818103600083015261504481615008565b9050919050565b7f4f7264657220494420646f6573206e6f74206578697374000000000000000000600082015250565b6000615081601783613bac565b915061508c8261504b565b602082019050919050565b600060208201905081810360008301526150b081615074565b9050919050565b7f4f776e61626c653a206e6577206f776e657220697320746865207a65726f206160008201527f6464726573730000000000000000000000000000000000000000000000000000602082015250565b6000615113602683613bac565b915061511e826150b7565b604082019050919050565b6000602082019050818103600083015261514281615106565b9050919050565b7f4f776e61626c653a2063616c6c6572206973206e6f7420746865206f776e6572600082015250565b600061517f602083613bac565b915061518a82615149565b602082019050919050565b600060208201905081810360008301526151ae81615172565b9050919050565b7f455243313135353a2069647320616e6420616d6f756e7473206c656e6774682060008201527f6d69736d61746368000000000000000000000000000000000000000000000000602082015250565b6000615211602883613bac565b915061521c826151b5565b604082019050919050565b6000602082019050818103600083015261524081615204565b9050919050565b7f455243313135353a207472616e7366657220746f20746865207a65726f20616460008201527f6472657373000000000000000000000000000000000000000000000000000000602082015250565b60006152a3602583613bac565b91506152ae82615247565b604082019050919050565b600060208201905081810360008301526152d281615296565b9050919050565b7f455243313135353a20696e73756666696369656e742062616c616e636520666f60008201527f72207472616e7366657200000000000000000000000000000000000000000000602082015250565b6000615335602a83613bac565b9150615340826152d9565b604082019050919050565b6000602082019050818103600083015261536481615328565b9050919050565b600061537682613a19565b915061538183613a19565b9250827fffffffffffffffffffffffffffffffffffffffffffffffffffffffffffffffff038211156153b6576153b5614aff565b5b828201905092915050565b600060408201905081810360008301526153db81856142b5565b905081810360208301526153ef81846142b5565b90509392505050565b600061540382613a19565b915061540e83613a19565b92508282101561542157615420614aff565b5b828203905092915050565b7f455243313135353a206d696e7420746f20746865207a65726f2061646472657360008201527f7300000000000000000000000000000000000000000000000000000000000000602082015250565b6000615488602183613bac565b91506154938261542c565b604082019050919050565b600060208201905081810360008301526154b78161547b565b9050919050565b60006040820190506154d36000830185613a8f565b6154e06020830184613a8f565b9392505050565b7f455243313135353a2073657474696e6720617070726f76616c2073746174757360008201527f20666f722073656c660000000000000000000000000000000000000000000000602082015250565b6000615543602983613bac565b915061554e826154e7565b604082019050919050565b6000602082019050818103600083015261557281615536565b9050919050565b600081519050919050565b600082825260208201905092915050565b60006155a082615579565b6155aa8185615584565b93506155ba818560208601613bbd565b6155c381613bf0565b840191505092915050565b600060a0820190506155e360008301886140b0565b6155f060208301876140b0565b818103604083015261560281866142b5565b9050818103606083015261561681856142b5565b9050818103608083015261562a8184615595565b90509695505050505050565b60008151905061564581613ae5565b92915050565b600060208284031215615661576156606139b1565b5b600061566f84828501615636565b91505092915050565b60008160e01c9050919050565b600060033d11156156a45760046000803e6156a1600051615678565b90505b90565b600060443d10156156b75761573a565b6156bf6139a7565b60043d036004823e80513d602482011167ffffffffffffffff821117156156e757505061573a565b808201805167ffffffffffffffff811115615705575050505061573a565b80602083010160043d03850181111561572257505050505061573a565b61573182602001850186613c95565b82955050505050505b90565b7f455243313135353a207472616e7366657220746f206e6f6e2d4552433131353560008201527f526563656976657220696d706c656d656e746572000000000000000000000000602082015250565b6000615799603483613bac565b91506157a48261573d565b604082019050919050565b600060208201905081810360008301526157c88161578c565b9050919050565b7f455243313135353a204552433131353552656365697665722072656a6563746560008201527f6420746f6b656e73000000000000000000000000000000000000000000000000602082015250565b600061582b602883613bac565b9150615836826157cf565b604082019050919050565b6000602082019050818103600083015261585a8161581e565b9050919050565b600060a08201905061587660008301886140b0565b61588360208301876140b0565b6158906040830186613a8f565b61589d6060830185613a8f565b81810360808301526158af8184615595565b9050969550505050505056fea2646970667358221220e15d9fbe962d513581ad2d70a5ee84cf8f9698aa8893dab27e65d087f1a44c1364736f6c63430008090033","opcodes":"PUSH1 0x80 PUSH1 0x40 MSTORE CALLVALUE DUP1 ISZERO PUSH3 0x11 JUMPI PUSH1 0x0 DUP1 REVERT JUMPDEST POP PUSH1 0x40 MLOAD DUP1 PUSH1 0x40 ADD PUSH1 0x40 MSTORE DUP1 PUSH1 0x4 DUP2 MSTORE PUSH1 0x20 ADD PUSH32 0x7B69647D00000000000000000000000000000000000000000000000000000000 DUP2 MSTORE POP PUSH3 0x59 DUP2 PUSH3 0xC9 PUSH1 0x20 SHL PUSH1 0x20 SHR JUMP JUMPDEST POP PUSH3 0x7A PUSH3 0x6E PUSH3 0xE5 PUSH1 0x20 SHL PUSH1 0x20 SHR JUMP JUMPDEST PUSH3 0xED PUSH1 0x20 SHL PUSH1 0x20 SHR JUMP JUMPDEST PUSH1 0x1 PUSH1 0x4 DUP2 SWAP1 SSTORE POP CALLER PUSH1 0xC PUSH1 0x0 PUSH2 0x100 EXP DUP2 SLOAD DUP2 PUSH20 0xFFFFFFFFFFFFFFFFFFFFFFFFFFFFFFFFFFFFFFFF MUL NOT AND SWAP1 DUP4 PUSH20 0xFFFFFFFFFFFFFFFFFFFFFFFFFFFFFFFFFFFFFFFF AND MUL OR SWAP1 SSTORE POP PUSH3 0x2C8 JUMP JUMPDEST DUP1 PUSH1 0x2 SWAP1 DUP1 MLOAD SWAP1 PUSH1 0x20 ADD SWAP1 PUSH3 0xE1 SWAP3 SWAP2 SWAP1 PUSH3 0x1B3 JUMP JUMPDEST POP POP JUMP JUMPDEST PUSH1 0x0 CALLER SWAP1 POP SWAP1 JUMP JUMPDEST PUSH1 0x0 PUSH1 0x3 PUSH1 0x0 SWAP1 SLOAD SWAP1 PUSH2 0x100 EXP SWAP1 DIV PUSH20 0xFFFFFFFFFFFFFFFFFFFFFFFFFFFFFFFFFFFFFFFF AND SWAP1 POP DUP2 PUSH1 0x3 PUSH1 0x0 PUSH2 0x100 EXP DUP2 SLOAD DUP2 PUSH20 0xFFFFFFFFFFFFFFFFFFFFFFFFFFFFFFFFFFFFFFFF MUL NOT AND SWAP1 DUP4 PUSH20 0xFFFFFFFFFFFFFFFFFFFFFFFFFFFFFFFFFFFFFFFF AND MUL OR SWAP1 SSTORE POP DUP2 PUSH20 0xFFFFFFFFFFFFFFFFFFFFFFFFFFFFFFFFFFFFFFFF AND DUP2 PUSH20 0xFFFFFFFFFFFFFFFFFFFFFFFFFFFFFFFFFFFFFFFF AND PUSH32 0x8BE0079C531659141344CD1FD0A4F28419497F9722A3DAAFE3B4186F6B6457E0 PUSH1 0x40 MLOAD PUSH1 0x40 MLOAD DUP1 SWAP2 SUB SWAP1 LOG3 POP POP JUMP JUMPDEST DUP3 DUP1 SLOAD PUSH3 0x1C1 SWAP1 PUSH3 0x292 JUMP JUMPDEST SWAP1 PUSH1 0x0 MSTORE PUSH1 0x20 PUSH1 0x0 KECCAK256 SWAP1 PUSH1 0x1F ADD PUSH1 0x20 SWAP1 DIV DUP2 ADD SWAP3 DUP3 PUSH3 0x1E5 JUMPI PUSH1 0x0 DUP6 SSTORE PUSH3 0x231 JUMP JUMPDEST DUP3 PUSH1 0x1F LT PUSH3 0x200 JUMPI DUP1 MLOAD PUSH1 0xFF NOT AND DUP4 DUP1 ADD OR DUP6 SSTORE PUSH3 0x231 JUMP JUMPDEST DUP3 DUP1 ADD PUSH1 0x1 ADD DUP6 SSTORE DUP3 ISZERO PUSH3 0x231 JUMPI SWAP2 DUP3 ADD JUMPDEST DUP3 DUP2 GT ISZERO PUSH3 0x230 JUMPI DUP3 MLOAD DUP3 SSTORE SWAP2 PUSH1 0x20 ADD SWAP2 SWAP1 PUSH1 0x1 ADD SWAP1 PUSH3 0x213 JUMP JUMPDEST JUMPDEST POP SWAP1 POP PUSH3 0x240 SWAP2 SWAP1 PUSH3 0x244 JUMP JUMPDEST POP SWAP1 JUMP JUMPDEST JUMPDEST DUP1 DUP3 GT ISZERO PUSH3 0x25F JUMPI PUSH1 0x0 DUP2 PUSH1 0x0 SWAP1 SSTORE POP PUSH1 0x1 ADD PUSH3 0x245 JUMP JUMPDEST POP SWAP1 JUMP JUMPDEST PUSH32 0x4E487B7100000000000000000000000000000000000000000000000000000000 PUSH1 0x0 MSTORE PUSH1 0x22 PUSH1 0x4 MSTORE PUSH1 0x24 PUSH1 0x0 REVERT JUMPDEST PUSH1 0x0 PUSH1 0x2 DUP3 DIV SWAP1 POP PUSH1 0x1 DUP3 AND DUP1 PUSH3 0x2AB JUMPI PUSH1 0x7F DUP3 AND SWAP2 POP JUMPDEST PUSH1 0x20 DUP3 LT DUP2 EQ ISZERO PUSH3 0x2C2 JUMPI PUSH3 0x2C1 PUSH3 0x263 JUMP JUMPDEST JUMPDEST POP SWAP2 SWAP1 POP JUMP JUMPDEST PUSH2 0x58F1 DUP1 PUSH3 0x2D8 PUSH1 0x0 CODECOPY PUSH1 0x0 RETURN INVALID PUSH1 0x80 PUSH1 0x40 MSTORE CALLVALUE DUP1 ISZERO PUSH2 0x10 JUMPI PUSH1 0x0 DUP1 REVERT JUMPDEST POP PUSH1 0x4 CALLDATASIZE LT PUSH2 0x1E4 JUMPI PUSH1 0x0 CALLDATALOAD PUSH1 0xE0 SHR DUP1 PUSH4 0x715018A6 GT PUSH2 0x10F JUMPI DUP1 PUSH4 0xBFB231D2 GT PUSH2 0xA2 JUMPI DUP1 PUSH4 0xE985E9C5 GT PUSH2 0x71 JUMPI DUP1 PUSH4 0xE985E9C5 EQ PUSH2 0x5AB JUMPI DUP1 PUSH4 0xEDC07396 EQ PUSH2 0x5DB JUMPI DUP1 PUSH4 0xF242432A EQ PUSH2 0x5F7 JUMPI DUP1 PUSH4 0xF2FDE38B EQ PUSH2 0x613 JUMPI PUSH2 0x1E4 JUMP JUMPDEST DUP1 PUSH4 0xBFB231D2 EQ PUSH2 0x4FA JUMPI DUP1 PUSH4 0xC02A5181 EQ PUSH2 0x52E JUMPI DUP1 PUSH4 0xC16CADE5 EQ PUSH2 0x55F JUMPI DUP1 PUSH4 0xD0EBDBE7 EQ PUSH2 0x58F JUMPI PUSH2 0x1E4 JUMP JUMPDEST DUP1 PUSH4 0x9979C009 GT PUSH2 0xDE JUMPI DUP1 PUSH4 0x9979C009 EQ PUSH2 0x471 JUMPI DUP1 PUSH4 0xA0A5AF5F EQ PUSH2 0x48D JUMPI DUP1 PUSH4 0xA22CB465 EQ PUSH2 0x4A9 JUMPI DUP1 PUSH4 0xA85C38EF EQ PUSH2 0x4C5 JUMPI PUSH2 0x1E4 JUMP JUMPDEST DUP1 PUSH4 0x715018A6 EQ PUSH2 0x3F9 JUMPI DUP1 PUSH4 0x7D9208B7 EQ PUSH2 0x403 JUMPI DUP1 PUSH4 0x8ABF2092 EQ PUSH2 0x41F JUMPI DUP1 PUSH4 0x8DA5CB5B EQ PUSH2 0x453 JUMPI PUSH2 0x1E4 JUMP JUMPDEST DUP1 PUSH4 0x312FB302 GT PUSH2 0x187 JUMPI DUP1 PUSH4 0x4E1273F4 GT PUSH2 0x156 JUMPI DUP1 PUSH4 0x4E1273F4 EQ PUSH2 0x373 JUMPI DUP1 PUSH4 0x51563F8E EQ PUSH2 0x3A3 JUMPI DUP1 PUSH4 0x532E1453 EQ PUSH2 0x3BF JUMPI DUP1 PUSH4 0x6BFB0D01 EQ PUSH2 0x3DB JUMPI PUSH2 0x1E4 JUMP JUMPDEST DUP1 PUSH4 0x312FB302 EQ PUSH2 0x2EB JUMPI DUP1 PUSH4 0x3457770D EQ PUSH2 0x309 JUMPI DUP1 PUSH4 0x481C6A75 EQ PUSH2 0x325 JUMPI DUP1 PUSH4 0x4D4886B7 EQ PUSH2 0x343 JUMPI PUSH2 0x1E4 JUMP JUMPDEST DUP1 PUSH4 0x1F686083 GT PUSH2 0x1C3 JUMPI DUP1 PUSH4 0x1F686083 EQ PUSH2 0x279 JUMPI DUP1 PUSH4 0x205FDDE6 EQ PUSH2 0x295 JUMPI DUP1 PUSH4 0x2453FFA8 EQ PUSH2 0x2B1 JUMPI DUP1 PUSH4 0x2EB2C2D6 EQ PUSH2 0x2CF JUMPI PUSH2 0x1E4 JUMP JUMPDEST DUP1 PUSH3 0xFDD58E EQ PUSH2 0x1E9 JUMPI DUP1 PUSH4 0x1FFC9A7 EQ PUSH2 0x219 JUMPI DUP1 PUSH4 0xE89341C EQ PUSH2 0x249 JUMPI JUMPDEST PUSH1 0x0 DUP1 REVERT JUMPDEST PUSH2 0x203 PUSH1 0x4 DUP1 CALLDATASIZE SUB DUP2 ADD SWAP1 PUSH2 0x1FE SWAP2 SWAP1 PUSH2 0x3A4F JUMP JUMPDEST PUSH2 0x62F JUMP JUMPDEST PUSH1 0x40 MLOAD PUSH2 0x210 SWAP2 SWAP1 PUSH2 0x3A9E JUMP JUMPDEST PUSH1 0x40 MLOAD DUP1 SWAP2 SUB SWAP1 RETURN JUMPDEST PUSH2 0x233 PUSH1 0x4 DUP1 CALLDATASIZE SUB DUP2 ADD SWAP1 PUSH2 0x22E SWAP2 SWAP1 PUSH2 0x3B11 JUMP JUMPDEST PUSH2 0x6F8 JUMP JUMPDEST PUSH1 0x40 MLOAD PUSH2 0x240 SWAP2 SWAP1 PUSH2 0x3B59 JUMP JUMPDEST PUSH1 0x40 MLOAD DUP1 SWAP2 SUB SWAP1 RETURN JUMPDEST PUSH2 0x263 PUSH1 0x4 DUP1 CALLDATASIZE SUB DUP2 ADD SWAP1 PUSH2 0x25E SWAP2 SWAP1 PUSH2 0x3B74 JUMP JUMPDEST PUSH2 0x7DA JUMP JUMPDEST PUSH1 0x40 MLOAD PUSH2 0x270 SWAP2 SWAP1 PUSH2 0x3C3A JUMP JUMPDEST PUSH1 0x40 MLOAD DUP1 SWAP2 SUB SWAP1 RETURN JUMPDEST PUSH2 0x293 PUSH1 0x4 DUP1 CALLDATASIZE SUB DUP2 ADD SWAP1 PUSH2 0x28E SWAP2 SWAP1 PUSH2 0x3B74 JUMP JUMPDEST PUSH2 0x86E JUMP JUMPDEST STOP JUMPDEST PUSH2 0x2AF PUSH1 0x4 DUP1 CALLDATASIZE SUB DUP2 ADD SWAP1 PUSH2 0x2AA SWAP2 SWAP1 PUSH2 0x3D91 JUMP JUMPDEST PUSH2 0xA0C JUMP JUMPDEST STOP JUMPDEST PUSH2 0x2B9 PUSH2 0xC7B JUMP JUMPDEST PUSH1 0x40 MLOAD PUSH2 0x2C6 SWAP2 SWAP1 PUSH2 0x3A9E JUMP JUMPDEST PUSH1 0x40 MLOAD DUP1 SWAP2 SUB SWAP1 RETURN JUMPDEST PUSH2 0x2E9 PUSH1 0x4 DUP1 CALLDATASIZE SUB DUP2 ADD SWAP1 PUSH2 0x2E4 SWAP2 SWAP1 PUSH2 0x3F56 JUMP JUMPDEST PUSH2 0xC81 JUMP JUMPDEST STOP JUMPDEST PUSH2 0x2F3 PUSH2 0xD22 JUMP JUMPDEST PUSH1 0x40 MLOAD PUSH2 0x300 SWAP2 SWAP1 PUSH2 0x3A9E JUMP JUMPDEST PUSH1 0x40 MLOAD DUP1 SWAP2 SUB SWAP1 RETURN JUMPDEST PUSH2 0x323 PUSH1 0x4 DUP1 CALLDATASIZE SUB DUP2 ADD SWAP1 PUSH2 0x31E SWAP2 SWAP1 PUSH2 0x4025 JUMP JUMPDEST PUSH2 0xD28 JUMP JUMPDEST STOP JUMPDEST PUSH2 0x32D PUSH2 0xE3D JUMP JUMPDEST PUSH1 0x40 MLOAD PUSH2 0x33A SWAP2 SWAP1 PUSH2 0x40BF JUMP JUMPDEST PUSH1 0x40 MLOAD DUP1 SWAP2 SUB SWAP1 RETURN JUMPDEST PUSH2 0x35D PUSH1 0x4 DUP1 CALLDATASIZE SUB DUP2 ADD SWAP1 PUSH2 0x358 SWAP2 SWAP1 PUSH2 0x40DA JUMP JUMPDEST PUSH2 0xE63 JUMP JUMPDEST PUSH1 0x40 MLOAD PUSH2 0x36A SWAP2 SWAP1 PUSH2 0x3B59 JUMP JUMPDEST PUSH1 0x40 MLOAD DUP1 SWAP2 SUB SWAP1 RETURN JUMPDEST PUSH2 0x38D PUSH1 0x4 DUP1 CALLDATASIZE SUB DUP2 ADD SWAP1 PUSH2 0x388 SWAP2 SWAP1 PUSH2 0x41DD JUMP JUMPDEST PUSH2 0xF76 JUMP JUMPDEST PUSH1 0x40 MLOAD PUSH2 0x39A SWAP2 SWAP1 PUSH2 0x4313 JUMP JUMPDEST PUSH1 0x40 MLOAD DUP1 SWAP2 SUB SWAP1 RETURN JUMPDEST PUSH2 0x3BD PUSH1 0x4 DUP1 CALLDATASIZE SUB DUP2 ADD SWAP1 PUSH2 0x3B8 SWAP2 SWAP1 PUSH2 0x3B74 JUMP JUMPDEST PUSH2 0x108F JUMP JUMPDEST STOP JUMPDEST PUSH2 0x3D9 PUSH1 0x4 DUP1 CALLDATASIZE SUB DUP2 ADD SWAP1 PUSH2 0x3D4 SWAP2 SWAP1 PUSH2 0x4361 JUMP JUMPDEST PUSH2 0x12B7 JUMP JUMPDEST STOP JUMPDEST PUSH2 0x3E3 PUSH2 0x13D2 JUMP JUMPDEST PUSH1 0x40 MLOAD PUSH2 0x3F0 SWAP2 SWAP1 PUSH2 0x3A9E JUMP JUMPDEST PUSH1 0x40 MLOAD DUP1 SWAP2 SUB SWAP1 RETURN JUMPDEST PUSH2 0x401 PUSH2 0x13D8 JUMP JUMPDEST STOP JUMPDEST PUSH2 0x41D PUSH1 0x4 DUP1 CALLDATASIZE SUB DUP2 ADD SWAP1 PUSH2 0x418 SWAP2 SWAP1 PUSH2 0x43B4 JUMP JUMPDEST PUSH2 0x13EC JUMP JUMPDEST STOP JUMPDEST PUSH2 0x439 PUSH1 0x4 DUP1 CALLDATASIZE SUB DUP2 ADD SWAP1 PUSH2 0x434 SWAP2 SWAP1 PUSH2 0x3B74 JUMP JUMPDEST PUSH2 0x1642 JUMP JUMPDEST PUSH1 0x40 MLOAD PUSH2 0x44A SWAP6 SWAP5 SWAP4 SWAP3 SWAP2 SWAP1 PUSH2 0x4407 JUMP JUMPDEST PUSH1 0x40 MLOAD DUP1 SWAP2 SUB SWAP1 RETURN JUMPDEST PUSH2 0x45B PUSH2 0x1720 JUMP JUMPDEST PUSH1 0x40 MLOAD PUSH2 0x468 SWAP2 SWAP1 PUSH2 0x40BF JUMP JUMPDEST PUSH1 0x40 MLOAD DUP1 SWAP2 SUB SWAP1 RETURN JUMPDEST PUSH2 0x48B PUSH1 0x4 DUP1 CALLDATASIZE SUB DUP2 ADD SWAP1 PUSH2 0x486 SWAP2 SWAP1 PUSH2 0x4461 JUMP JUMPDEST PUSH2 0x174A JUMP JUMPDEST STOP JUMPDEST PUSH2 0x4A7 PUSH1 0x4 DUP1 CALLDATASIZE SUB DUP2 ADD SWAP1 PUSH2 0x4A2 SWAP2 SWAP1 PUSH2 0x3B74 JUMP JUMPDEST PUSH2 0x1BFD JUMP JUMPDEST STOP JUMPDEST PUSH2 0x4C3 PUSH1 0x4 DUP1 CALLDATASIZE SUB DUP2 ADD SWAP1 PUSH2 0x4BE SWAP2 SWAP1 PUSH2 0x44A1 JUMP JUMPDEST PUSH2 0x1D98 JUMP JUMPDEST STOP JUMPDEST PUSH2 0x4DF PUSH1 0x4 DUP1 CALLDATASIZE SUB DUP2 ADD SWAP1 PUSH2 0x4DA SWAP2 SWAP1 PUSH2 0x3B74 JUMP JUMPDEST PUSH2 0x1DAE JUMP JUMPDEST PUSH1 0x40 MLOAD PUSH2 0x4F1 SWAP7 SWAP6 SWAP5 SWAP4 SWAP3 SWAP2 SWAP1 PUSH2 0x44E1 JUMP JUMPDEST PUSH1 0x40 MLOAD DUP1 SWAP2 SUB SWAP1 RETURN JUMPDEST PUSH2 0x514 PUSH1 0x4 DUP1 CALLDATASIZE SUB DUP2 ADD SWAP1 PUSH2 0x50F SWAP2 SWAP1 PUSH2 0x3B74 JUMP JUMPDEST PUSH2 0x1EB2 JUMP JUMPDEST PUSH1 0x40 MLOAD PUSH2 0x525 SWAP6 SWAP5 SWAP4 SWAP3 SWAP2 SWAP1 PUSH2 0x4549 JUMP JUMPDEST PUSH1 0x40 MLOAD DUP1 SWAP2 SUB SWAP1 RETURN JUMPDEST PUSH2 0x548 PUSH1 0x4 DUP1 CALLDATASIZE SUB DUP2 ADD SWAP1 PUSH2 0x543 SWAP2 SWAP1 PUSH2 0x3B74 JUMP JUMPDEST PUSH2 0x2018 JUMP JUMPDEST PUSH1 0x40 MLOAD PUSH2 0x556 SWAP3 SWAP2 SWAP1 PUSH2 0x4836 JUMP JUMPDEST PUSH1 0x40 MLOAD DUP1 SWAP2 SUB SWAP1 RETURN JUMPDEST PUSH2 0x579 PUSH1 0x4 DUP1 CALLDATASIZE SUB DUP2 ADD SWAP1 PUSH2 0x574 SWAP2 SWAP1 PUSH2 0x40DA JUMP JUMPDEST PUSH2 0x2425 JUMP JUMPDEST PUSH1 0x40 MLOAD PUSH2 0x586 SWAP2 SWAP1 PUSH2 0x3B59 JUMP JUMPDEST PUSH1 0x40 MLOAD DUP1 SWAP2 SUB SWAP1 RETURN JUMPDEST PUSH2 0x5A9 PUSH1 0x4 DUP1 CALLDATASIZE SUB DUP2 ADD SWAP1 PUSH2 0x5A4 SWAP2 SWAP1 PUSH2 0x486D JUMP JUMPDEST PUSH2 0x24EE JUMP JUMPDEST STOP JUMPDEST PUSH2 0x5C5 PUSH1 0x4 DUP1 CALLDATASIZE SUB DUP2 ADD SWAP1 PUSH2 0x5C0 SWAP2 SWAP1 PUSH2 0x489A JUMP JUMPDEST PUSH2 0x253A JUMP JUMPDEST PUSH1 0x40 MLOAD PUSH2 0x5D2 SWAP2 SWAP1 PUSH2 0x3B59 JUMP JUMPDEST PUSH1 0x40 MLOAD DUP1 SWAP2 SUB SWAP1 RETURN JUMPDEST PUSH2 0x5F5 PUSH1 0x4 DUP1 CALLDATASIZE SUB DUP2 ADD SWAP1 PUSH2 0x5F0 SWAP2 SWAP1 PUSH2 0x40DA JUMP JUMPDEST PUSH2 0x25CE JUMP JUMPDEST STOP JUMPDEST PUSH2 0x611 PUSH1 0x4 DUP1 CALLDATASIZE SUB DUP2 ADD SWAP1 PUSH2 0x60C SWAP2 SWAP1 PUSH2 0x48DA JUMP JUMPDEST PUSH2 0x281C JUMP JUMPDEST STOP JUMPDEST PUSH2 0x62D PUSH1 0x4 DUP1 CALLDATASIZE SUB DUP2 ADD SWAP1 PUSH2 0x628 SWAP2 SWAP1 PUSH2 0x486D JUMP JUMPDEST PUSH2 0x28BD JUMP JUMPDEST STOP JUMPDEST PUSH1 0x0 DUP1 PUSH20 0xFFFFFFFFFFFFFFFFFFFFFFFFFFFFFFFFFFFFFFFF AND DUP4 PUSH20 0xFFFFFFFFFFFFFFFFFFFFFFFFFFFFFFFFFFFFFFFF AND EQ ISZERO PUSH2 0x6A0 JUMPI PUSH1 0x40 MLOAD PUSH32 0x8C379A000000000000000000000000000000000000000000000000000000000 DUP2 MSTORE PUSH1 0x4 ADD PUSH2 0x697 SWAP1 PUSH2 0x49E3 JUMP JUMPDEST PUSH1 0x40 MLOAD DUP1 SWAP2 SUB SWAP1 REVERT JUMPDEST PUSH1 0x0 DUP1 DUP4 DUP2 MSTORE PUSH1 0x20 ADD SWAP1 DUP2 MSTORE PUSH1 0x20 ADD PUSH1 0x0 KECCAK256 PUSH1 0x0 DUP5 PUSH20 0xFFFFFFFFFFFFFFFFFFFFFFFFFFFFFFFFFFFFFFFF AND PUSH20 0xFFFFFFFFFFFFFFFFFFFFFFFFFFFFFFFFFFFFFFFF AND DUP2 MSTORE PUSH1 0x20 ADD SWAP1 DUP2 MSTORE PUSH1 0x20 ADD PUSH1 0x0 KECCAK256 SLOAD SWAP1 POP SWAP3 SWAP2 POP POP JUMP JUMPDEST PUSH1 0x0 PUSH32 0xD9B67A2600000000000000000000000000000000000000000000000000000000 PUSH28 0xFFFFFFFFFFFFFFFFFFFFFFFFFFFFFFFFFFFFFFFFFFFFFFFFFFFFFFFF NOT AND DUP3 PUSH28 0xFFFFFFFFFFFFFFFFFFFFFFFFFFFFFFFFFFFFFFFFFFFFFFFFFFFFFFFF NOT AND EQ DUP1 PUSH2 0x7C3 JUMPI POP PUSH32 0xE89341C00000000000000000000000000000000000000000000000000000000 PUSH28 0xFFFFFFFFFFFFFFFFFFFFFFFFFFFFFFFFFFFFFFFFFFFFFFFFFFFFFFFF NOT AND DUP3 PUSH28 0xFFFFFFFFFFFFFFFFFFFFFFFFFFFFFFFFFFFFFFFFFFFFFFFFFFFFFFFF NOT AND EQ JUMPDEST DUP1 PUSH2 0x7D3 JUMPI POP PUSH2 0x7D2 DUP3 PUSH2 0x2941 JUMP JUMPDEST JUMPDEST SWAP1 POP SWAP2 SWAP1 POP JUMP JUMPDEST PUSH1 0x60 PUSH1 0x2 DUP1 SLOAD PUSH2 0x7E9 SWAP1 PUSH2 0x4A32 JUMP JUMPDEST DUP1 PUSH1 0x1F ADD PUSH1 0x20 DUP1 SWAP2 DIV MUL PUSH1 0x20 ADD PUSH1 0x40 MLOAD SWAP1 DUP2 ADD PUSH1 0x40 MSTORE DUP1 SWAP3 SWAP2 SWAP1 DUP2 DUP2 MSTORE PUSH1 0x20 ADD DUP3 DUP1 SLOAD PUSH2 0x815 SWAP1 PUSH2 0x4A32 JUMP JUMPDEST DUP1 ISZERO PUSH2 0x862 JUMPI DUP1 PUSH1 0x1F LT PUSH2 0x837 JUMPI PUSH2 0x100 DUP1 DUP4 SLOAD DIV MUL DUP4 MSTORE SWAP2 PUSH1 0x20 ADD SWAP2 PUSH2 0x862 JUMP JUMPDEST DUP3 ADD SWAP2 SWAP1 PUSH1 0x0 MSTORE PUSH1 0x20 PUSH1 0x0 KECCAK256 SWAP1 JUMPDEST DUP2 SLOAD DUP2 MSTORE SWAP1 PUSH1 0x1 ADD SWAP1 PUSH1 0x20 ADD DUP1 DUP4 GT PUSH2 0x845 JUMPI DUP3 SWAP1 SUB PUSH1 0x1F AND DUP3 ADD SWAP2 JUMPDEST POP POP POP POP POP SWAP1 POP SWAP2 SWAP1 POP JUMP JUMPDEST PUSH2 0x876 PUSH2 0x29AB JUMP JUMPDEST PUSH1 0x0 PUSH20 0xFFFFFFFFFFFFFFFFFFFFFFFFFFFFFFFFFFFFFFFF AND PUSH1 0x6 PUSH1 0x0 DUP4 DUP2 MSTORE PUSH1 0x20 ADD SWAP1 DUP2 MSTORE PUSH1 0x20 ADD PUSH1 0x0 KECCAK256 PUSH1 0x4 ADD PUSH1 0x0 SWAP1 SLOAD SWAP1 PUSH2 0x100 EXP SWAP1 DIV PUSH20 0xFFFFFFFFFFFFFFFFFFFFFFFFFFFFFFFFFFFFFFFF AND PUSH20 0xFFFFFFFFFFFFFFFFFFFFFFFFFFFFFFFFFFFFFFFF AND EQ ISZERO PUSH2 0x91C JUMPI PUSH1 0x40 MLOAD PUSH32 0x8C379A000000000000000000000000000000000000000000000000000000000 DUP2 MSTORE PUSH1 0x4 ADD PUSH2 0x913 SWAP1 PUSH2 0x4AB0 JUMP JUMPDEST PUSH1 0x40 MLOAD DUP1 SWAP2 SUB SWAP1 REVERT JUMPDEST PUSH1 0x0 PUSH1 0x6 PUSH1 0x0 DUP4 DUP2 MSTORE PUSH1 0x20 ADD SWAP1 DUP2 MSTORE PUSH1 0x20 ADD PUSH1 0x0 KECCAK256 SWAP1 POP PUSH1 0x0 JUMPDEST DUP2 PUSH1 0x6 ADD DUP1 SLOAD SWAP1 POP DUP2 LT ISZERO PUSH2 0xA07 JUMPI PUSH1 0x0 DUP3 PUSH1 0x6 ADD DUP3 DUP2 SLOAD DUP2 LT PUSH2 0x95D JUMPI PUSH2 0x95C PUSH2 0x4AD0 JUMP JUMPDEST JUMPDEST SWAP1 PUSH1 0x0 MSTORE PUSH1 0x20 PUSH1 0x0 KECCAK256 ADD PUSH1 0x0 SWAP1 SLOAD SWAP1 PUSH2 0x100 EXP SWAP1 DIV PUSH20 0xFFFFFFFFFFFFFFFFFFFFFFFFFFFFFFFFFFFFFFFF AND SWAP1 POP PUSH1 0x0 PUSH1 0x9 PUSH1 0x0 DUP4 PUSH20 0xFFFFFFFFFFFFFFFFFFFFFFFFFFFFFFFFFFFFFFFF AND PUSH20 0xFFFFFFFFFFFFFFFFFFFFFFFFFFFFFFFFFFFFFFFF AND DUP2 MSTORE PUSH1 0x20 ADD SWAP1 DUP2 MSTORE PUSH1 0x20 ADD PUSH1 0x0 KECCAK256 PUSH1 0x0 DUP7 DUP2 MSTORE PUSH1 0x20 ADD SWAP1 DUP2 MSTORE PUSH1 0x20 ADD PUSH1 0x0 KECCAK256 PUSH1 0x0 PUSH2 0x100 EXP DUP2 SLOAD DUP2 PUSH1 0xFF MUL NOT AND SWAP1 DUP4 ISZERO ISZERO MUL OR SWAP1 SSTORE POP POP DUP1 DUP1 PUSH2 0x9FF SWAP1 PUSH2 0x4B2E JUMP JUMPDEST SWAP2 POP POP PUSH2 0x936 JUMP JUMPDEST POP POP POP JUMP JUMPDEST PUSH1 0x0 PUSH20 0xFFFFFFFFFFFFFFFFFFFFFFFFFFFFFFFFFFFFFFFF AND PUSH1 0x6 PUSH1 0x0 DUP5 DUP2 MSTORE PUSH1 0x20 ADD SWAP1 DUP2 MSTORE PUSH1 0x20 ADD PUSH1 0x0 KECCAK256 PUSH1 0x4 ADD PUSH1 0x0 SWAP1 SLOAD SWAP1 PUSH2 0x100 EXP SWAP1 DIV PUSH20 0xFFFFFFFFFFFFFFFFFFFFFFFFFFFFFFFFFFFFFFFF AND PUSH20 0xFFFFFFFFFFFFFFFFFFFFFFFFFFFFFFFFFFFFFFFF AND EQ ISZERO PUSH2 0xAB2 JUMPI PUSH1 0x40 MLOAD PUSH32 0x8C379A000000000000000000000000000000000000000000000000000000000 DUP2 MSTORE PUSH1 0x4 ADD PUSH2 0xAA9 SWAP1 PUSH2 0x4AB0 JUMP JUMPDEST PUSH1 0x40 MLOAD DUP1 SWAP2 SUB SWAP1 REVERT JUMPDEST PUSH2 0xABC DUP3 CALLER PUSH2 0x2425 JUMP JUMPDEST PUSH2 0xAFB JUMPI PUSH1 0x40 MLOAD PUSH32 0x8C379A000000000000000000000000000000000000000000000000000000000 DUP2 MSTORE PUSH1 0x4 ADD PUSH2 0xAF2 SWAP1 PUSH2 0x4BC3 JUMP JUMPDEST PUSH1 0x40 MLOAD DUP1 SWAP2 SUB SWAP1 REVERT JUMPDEST PUSH2 0xB05 DUP3 CALLER PUSH2 0xE63 JUMP JUMPDEST PUSH2 0xB44 JUMPI PUSH1 0x40 MLOAD PUSH32 0x8C379A000000000000000000000000000000000000000000000000000000000 DUP2 MSTORE PUSH1 0x4 ADD PUSH2 0xB3B SWAP1 PUSH2 0x4C2F JUMP JUMPDEST PUSH1 0x40 MLOAD DUP1 SWAP2 SUB SWAP1 REVERT JUMPDEST PUSH1 0x40 MLOAD DUP1 PUSH1 0x40 ADD PUSH1 0x40 MSTORE DUP1 PUSH1 0x9 DUP2 MSTORE PUSH1 0x20 ADD PUSH32 0x44656C6976657265640000000000000000000000000000000000000000000000 DUP2 MSTORE POP DUP1 MLOAD SWAP1 PUSH1 0x20 ADD KECCAK256 PUSH1 0x6 PUSH1 0x0 DUP5 DUP2 MSTORE PUSH1 0x20 ADD SWAP1 DUP2 MSTORE PUSH1 0x20 ADD PUSH1 0x0 KECCAK256 PUSH1 0x5 ADD PUSH1 0x40 MLOAD PUSH2 0xBA4 SWAP2 SWAP1 PUSH2 0x4CEE JUMP JUMPDEST PUSH1 0x40 MLOAD DUP1 SWAP2 SUB SWAP1 KECCAK256 EQ ISZERO PUSH2 0xBED JUMPI PUSH1 0x40 MLOAD PUSH32 0x8C379A000000000000000000000000000000000000000000000000000000000 DUP2 MSTORE PUSH1 0x4 ADD PUSH2 0xBE4 SWAP1 PUSH2 0x4D51 JUMP JUMPDEST PUSH1 0x40 MLOAD DUP1 SWAP2 SUB SWAP1 REVERT JUMPDEST PUSH1 0x8 PUSH1 0x0 DUP4 DUP2 MSTORE PUSH1 0x20 ADD SWAP1 DUP2 MSTORE PUSH1 0x20 ADD PUSH1 0x0 KECCAK256 PUSH1 0x0 CALLER PUSH20 0xFFFFFFFFFFFFFFFFFFFFFFFFFFFFFFFFFFFFFFFF AND PUSH20 0xFFFFFFFFFFFFFFFFFFFFFFFFFFFFFFFFFFFFFFFF AND DUP2 MSTORE PUSH1 0x20 ADD SWAP1 DUP2 MSTORE PUSH1 0x20 ADD PUSH1 0x0 KECCAK256 DUP2 SWAP1 DUP1 PUSH1 0x1 DUP2 SLOAD ADD DUP1 DUP3 SSTORE DUP1 SWAP2 POP POP PUSH1 0x1 SWAP1 SUB SWAP1 PUSH1 0x0 MSTORE PUSH1 0x20 PUSH1 0x0 KECCAK256 ADD PUSH1 0x0 SWAP1 SWAP2 SWAP1 SWAP2 SWAP1 SWAP2 POP SWAP1 DUP1 MLOAD SWAP1 PUSH1 0x20 ADD SWAP1 PUSH2 0xC76 SWAP3 SWAP2 SWAP1 PUSH2 0x387A JUMP JUMPDEST POP POP POP JUMP JUMPDEST PUSH1 0xB SLOAD DUP2 JUMP JUMPDEST PUSH2 0xC89 PUSH2 0x2A29 JUMP JUMPDEST PUSH20 0xFFFFFFFFFFFFFFFFFFFFFFFFFFFFFFFFFFFFFFFF AND DUP6 PUSH20 0xFFFFFFFFFFFFFFFFFFFFFFFFFFFFFFFFFFFFFFFF AND EQ DUP1 PUSH2 0xCCF JUMPI POP PUSH2 0xCCE DUP6 PUSH2 0xCC9 PUSH2 0x2A29 JUMP JUMPDEST PUSH2 0x253A JUMP JUMPDEST JUMPDEST PUSH2 0xD0E JUMPI PUSH1 0x40 MLOAD PUSH32 0x8C379A000000000000000000000000000000000000000000000000000000000 DUP2 MSTORE PUSH1 0x4 ADD PUSH2 0xD05 SWAP1 PUSH2 0x4DE3 JUMP JUMPDEST PUSH1 0x40 MLOAD DUP1 SWAP2 SUB SWAP1 REVERT JUMPDEST PUSH2 0xD1B DUP6 DUP6 DUP6 DUP6 DUP6 PUSH2 0x2A31 JUMP JUMPDEST POP POP POP POP POP JUMP JUMPDEST PUSH1 0xD SLOAD DUP2 JUMP JUMPDEST PUSH2 0xD30 PUSH2 0x29AB JUMP JUMPDEST PUSH1 0x40 MLOAD DUP1 PUSH1 0xA0 ADD PUSH1 0x40 MSTORE DUP1 PUSH1 0xA SLOAD DUP2 MSTORE PUSH1 0x20 ADD DUP4 DUP2 MSTORE PUSH1 0x20 ADD DUP5 DUP2 MSTORE PUSH1 0x20 ADD DUP3 DUP2 MSTORE PUSH1 0x20 ADD CALLER PUSH20 0xFFFFFFFFFFFFFFFFFFFFFFFFFFFFFFFFFFFFFFFF AND DUP2 MSTORE POP PUSH1 0x5 PUSH1 0x0 PUSH1 0xA SLOAD DUP2 MSTORE PUSH1 0x20 ADD SWAP1 DUP2 MSTORE PUSH1 0x20 ADD PUSH1 0x0 KECCAK256 PUSH1 0x0 DUP3 ADD MLOAD DUP2 PUSH1 0x0 ADD SSTORE PUSH1 0x20 DUP3 ADD MLOAD DUP2 PUSH1 0x1 ADD SSTORE PUSH1 0x40 DUP3 ADD MLOAD DUP2 PUSH1 0x2 ADD SWAP1 DUP1 MLOAD SWAP1 PUSH1 0x20 ADD SWAP1 PUSH2 0xDB4 SWAP3 SWAP2 SWAP1 PUSH2 0x387A JUMP JUMPDEST POP PUSH1 0x60 DUP3 ADD MLOAD DUP2 PUSH1 0x3 ADD SWAP1 DUP1 MLOAD SWAP1 PUSH1 0x20 ADD SWAP1 PUSH2 0xDD1 SWAP3 SWAP2 SWAP1 PUSH2 0x387A JUMP JUMPDEST POP PUSH1 0x80 DUP3 ADD MLOAD DUP2 PUSH1 0x4 ADD PUSH1 0x0 PUSH2 0x100 EXP DUP2 SLOAD DUP2 PUSH20 0xFFFFFFFFFFFFFFFFFFFFFFFFFFFFFFFFFFFFFFFF MUL NOT AND SWAP1 DUP4 PUSH20 0xFFFFFFFFFFFFFFFFFFFFFFFFFFFFFFFFFFFFFFFF AND MUL OR SWAP1 SSTORE POP SWAP1 POP POP PUSH2 0xE32 PUSH1 0x1 PUSH1 0xA SLOAD PUSH2 0x2D53 SWAP1 SWAP2 SWAP1 PUSH4 0xFFFFFFFF AND JUMP JUMPDEST PUSH1 0xA DUP2 SWAP1 SSTORE POP POP POP POP JUMP JUMPDEST PUSH1 0xC PUSH1 0x0 SWAP1 SLOAD SWAP1 PUSH2 0x100 EXP SWAP1 DIV PUSH20 0xFFFFFFFFFFFFFFFFFFFFFFFFFFFFFFFFFFFFFFFF AND DUP2 JUMP JUMPDEST PUSH1 0x0 DUP1 PUSH20 0xFFFFFFFFFFFFFFFFFFFFFFFFFFFFFFFFFFFFFFFF AND PUSH1 0x6 PUSH1 0x0 DUP6 DUP2 MSTORE PUSH1 0x20 ADD SWAP1 DUP2 MSTORE PUSH1 0x20 ADD PUSH1 0x0 KECCAK256 PUSH1 0x4 ADD PUSH1 0x0 SWAP1 SLOAD SWAP1 PUSH2 0x100 EXP SWAP1 DIV PUSH20 0xFFFFFFFFFFFFFFFFFFFFFFFFFFFFFFFFFFFFFFFF AND PUSH20 0xFFFFFFFFFFFFFFFFFFFFFFFFFFFFFFFFFFFFFFFF AND EQ ISZERO PUSH2 0xF0A JUMPI PUSH1 0x40 MLOAD PUSH32 0x8C379A000000000000000000000000000000000000000000000000000000000 DUP2 MSTORE PUSH1 0x4 ADD PUSH2 0xF01 SWAP1 PUSH2 0x4AB0 JUMP JUMPDEST PUSH1 0x40 MLOAD DUP1 SWAP2 SUB SWAP1 REVERT JUMPDEST PUSH1 0x0 PUSH1 0x9 PUSH1 0x0 DUP5 PUSH20 0xFFFFFFFFFFFFFFFFFFFFFFFFFFFFFFFFFFFFFFFF AND PUSH20 0xFFFFFFFFFFFFFFFFFFFFFFFFFFFFFFFFFFFFFFFF AND DUP2 MSTORE PUSH1 0x20 ADD SWAP1 DUP2 MSTORE PUSH1 0x20 ADD PUSH1 0x0 KECCAK256 PUSH1 0x0 DUP6 DUP2 MSTORE PUSH1 0x20 ADD SWAP1 DUP2 MSTORE PUSH1 0x20 ADD PUSH1 0x0 KECCAK256 PUSH1 0x0 SWAP1 SLOAD SWAP1 PUSH2 0x100 EXP SWAP1 DIV PUSH1 0xFF AND SWAP1 POP DUP1 SWAP2 POP POP SWAP3 SWAP2 POP POP JUMP JUMPDEST PUSH1 0x60 DUP2 MLOAD DUP4 MLOAD EQ PUSH2 0xFBC JUMPI PUSH1 0x40 MLOAD PUSH32 0x8C379A000000000000000000000000000000000000000000000000000000000 DUP2 MSTORE PUSH1 0x4 ADD PUSH2 0xFB3 SWAP1 PUSH2 0x4E75 JUMP JUMPDEST PUSH1 0x40 MLOAD DUP1 SWAP2 SUB SWAP1 REVERT JUMPDEST PUSH1 0x0 DUP4 MLOAD PUSH8 0xFFFFFFFFFFFFFFFF DUP2 GT ISZERO PUSH2 0xFD9 JUMPI PUSH2 0xFD8 PUSH2 0x3C66 JUMP JUMPDEST JUMPDEST PUSH1 0x40 MLOAD SWAP1 DUP1 DUP3 MSTORE DUP1 PUSH1 0x20 MUL PUSH1 0x20 ADD DUP3 ADD PUSH1 0x40 MSTORE DUP1 ISZERO PUSH2 0x1007 JUMPI DUP2 PUSH1 0x20 ADD PUSH1 0x20 DUP3 MUL DUP1 CALLDATASIZE DUP4 CALLDATACOPY DUP1 DUP3 ADD SWAP2 POP POP SWAP1 POP JUMPDEST POP SWAP1 POP PUSH1 0x0 JUMPDEST DUP5 MLOAD DUP2 LT ISZERO PUSH2 0x1084 JUMPI PUSH2 0x1054 DUP6 DUP3 DUP2 MLOAD DUP2 LT PUSH2 0x102C JUMPI PUSH2 0x102B PUSH2 0x4AD0 JUMP JUMPDEST JUMPDEST PUSH1 0x20 MUL PUSH1 0x20 ADD ADD MLOAD DUP6 DUP4 DUP2 MLOAD DUP2 LT PUSH2 0x1047 JUMPI PUSH2 0x1046 PUSH2 0x4AD0 JUMP JUMPDEST JUMPDEST PUSH1 0x20 MUL PUSH1 0x20 ADD ADD MLOAD PUSH2 0x62F JUMP JUMPDEST DUP3 DUP3 DUP2 MLOAD DUP2 LT PUSH2 0x1067 JUMPI PUSH2 0x1066 PUSH2 0x4AD0 JUMP JUMPDEST JUMPDEST PUSH1 0x20 MUL PUSH1 0x20 ADD ADD DUP2 DUP2 MSTORE POP POP DUP1 PUSH2 0x107D SWAP1 PUSH2 0x4B2E JUMP JUMPDEST SWAP1 POP PUSH2 0x100D JUMP JUMPDEST POP DUP1 SWAP2 POP POP SWAP3 SWAP2 POP POP JUMP JUMPDEST PUSH1 0x0 PUSH20 0xFFFFFFFFFFFFFFFFFFFFFFFFFFFFFFFFFFFFFFFF AND PUSH1 0x6 PUSH1 0x0 DUP4 DUP2 MSTORE PUSH1 0x20 ADD SWAP1 DUP2 MSTORE PUSH1 0x20 ADD PUSH1 0x0 KECCAK256 PUSH1 0x4 ADD PUSH1 0x0 SWAP1 SLOAD SWAP1 PUSH2 0x100 EXP SWAP1 DIV PUSH20 0xFFFFFFFFFFFFFFFFFFFFFFFFFFFFFFFFFFFFFFFF AND PUSH20 0xFFFFFFFFFFFFFFFFFFFFFFFFFFFFFFFFFFFFFFFF AND EQ ISZERO PUSH2 0x1135 JUMPI PUSH1 0x40 MLOAD PUSH32 0x8C379A000000000000000000000000000000000000000000000000000000000 DUP2 MSTORE PUSH1 0x4 ADD PUSH2 0x112C SWAP1 PUSH2 0x4AB0 JUMP JUMPDEST PUSH1 0x40 MLOAD DUP1 SWAP2 SUB SWAP1 REVERT JUMPDEST PUSH1 0x6 PUSH1 0x0 DUP3 DUP2 MSTORE PUSH1 0x20 ADD SWAP1 DUP2 MSTORE PUSH1 0x20 ADD PUSH1 0x0 KECCAK256 PUSH1 0x4 ADD PUSH1 0x0 SWAP1 SLOAD SWAP1 PUSH2 0x100 EXP SWAP1 DIV PUSH20 0xFFFFFFFFFFFFFFFFFFFFFFFFFFFFFFFFFFFFFFFF AND PUSH20 0xFFFFFFFFFFFFFFFFFFFFFFFFFFFFFFFFFFFFFFFF AND CALLER PUSH20 0xFFFFFFFFFFFFFFFFFFFFFFFFFFFFFFFFFFFFFFFF AND EQ PUSH2 0x11D9 JUMPI PUSH1 0x40 MLOAD PUSH32 0x8C379A000000000000000000000000000000000000000000000000000000000 DUP2 MSTORE PUSH1 0x4 ADD PUSH2 0x11D0 SWAP1 PUSH2 0x4F07 JUMP JUMPDEST PUSH1 0x40 MLOAD DUP1 SWAP2 SUB SWAP1 REVERT JUMPDEST PUSH1 0x0 PUSH1 0x6 PUSH1 0x0 DUP4 DUP2 MSTORE PUSH1 0x20 ADD SWAP1 DUP2 MSTORE PUSH1 0x20 ADD PUSH1 0x0 KECCAK256 PUSH1 0x1 ADD SLOAD SWAP1 POP PUSH1 0x0 PUSH1 0x6 PUSH1 0x0 DUP5 DUP2 MSTORE PUSH1 0x20 ADD SWAP1 DUP2 MSTORE PUSH1 0x20 ADD PUSH1 0x0 KECCAK256 PUSH1 0x2 ADD SLOAD SWAP1 POP PUSH1 0x40 MLOAD DUP1 PUSH1 0x40 ADD PUSH1 0x40 MSTORE DUP1 PUSH1 0x12 DUP2 MSTORE PUSH1 0x20 ADD PUSH32 0x43616E63656C6C65642062792042757965720000000000000000000000000000 DUP2 MSTORE POP PUSH1 0x6 PUSH1 0x0 DUP6 DUP2 MSTORE PUSH1 0x20 ADD SWAP1 DUP2 MSTORE PUSH1 0x20 ADD PUSH1 0x0 KECCAK256 PUSH1 0x5 ADD SWAP1 DUP1 MLOAD SWAP1 PUSH1 0x20 ADD SWAP1 PUSH2 0x126E SWAP3 SWAP2 SWAP1 PUSH2 0x387A JUMP JUMPDEST POP PUSH2 0x1298 DUP2 PUSH1 0x7 PUSH1 0x0 DUP6 DUP2 MSTORE PUSH1 0x20 ADD SWAP1 DUP2 MSTORE PUSH1 0x20 ADD PUSH1 0x0 KECCAK256 PUSH1 0x1 ADD SLOAD PUSH2 0x2D53 SWAP1 SWAP2 SWAP1 PUSH4 0xFFFFFFFF AND JUMP JUMPDEST PUSH1 0x7 PUSH1 0x0 DUP5 DUP2 MSTORE PUSH1 0x20 ADD SWAP1 DUP2 MSTORE PUSH1 0x20 ADD PUSH1 0x0 KECCAK256 PUSH1 0x1 ADD DUP2 SWAP1 SSTORE POP POP POP POP JUMP JUMPDEST PUSH2 0x12BF PUSH2 0x29AB JUMP JUMPDEST PUSH1 0x0 PUSH20 0xFFFFFFFFFFFFFFFFFFFFFFFFFFFFFFFFFFFFFFFF AND PUSH1 0x6 PUSH1 0x0 DUP6 DUP2 MSTORE PUSH1 0x20 ADD SWAP1 DUP2 MSTORE PUSH1 0x20 ADD PUSH1 0x0 KECCAK256 PUSH1 0x4 ADD PUSH1 0x0 SWAP1 SLOAD SWAP1 PUSH2 0x100 EXP SWAP1 DIV PUSH20 0xFFFFFFFFFFFFFFFFFFFFFFFFFFFFFFFFFFFFFFFF AND PUSH20 0xFFFFFFFFFFFFFFFFFFFFFFFFFFFFFFFFFFFFFFFF AND EQ ISZERO PUSH2 0x1365 JUMPI PUSH1 0x40 MLOAD PUSH32 0x8C379A000000000000000000000000000000000000000000000000000000000 DUP2 MSTORE PUSH1 0x4 ADD PUSH2 0x135C SWAP1 PUSH2 0x4AB0 JUMP JUMPDEST PUSH1 0x40 MLOAD DUP1 SWAP2 SUB SWAP1 REVERT JUMPDEST DUP1 PUSH1 0x9 PUSH1 0x0 DUP5 PUSH20 0xFFFFFFFFFFFFFFFFFFFFFFFFFFFFFFFFFFFFFFFF AND PUSH20 0xFFFFFFFFFFFFFFFFFFFFFFFFFFFFFFFFFFFFFFFF AND DUP2 MSTORE PUSH1 0x20 ADD SWAP1 DUP2 MSTORE PUSH1 0x20 ADD PUSH1 0x0 KECCAK256 PUSH1 0x0 DUP6 DUP2 MSTORE PUSH1 0x20 ADD SWAP1 DUP2 MSTORE PUSH1 0x20 ADD PUSH1 0x0 KECCAK256 PUSH1 0x0 PUSH2 0x100 EXP DUP2 SLOAD DUP2 PUSH1 0xFF MUL NOT AND SWAP1 DUP4 ISZERO ISZERO MUL OR SWAP1 SSTORE POP POP POP POP JUMP JUMPDEST PUSH1 0xA SLOAD DUP2 JUMP JUMPDEST PUSH2 0x13E0 PUSH2 0x29AB JUMP JUMPDEST PUSH2 0x13EA PUSH1 0x0 PUSH2 0x2D69 JUMP JUMPDEST JUMP JUMPDEST PUSH2 0x13F4 PUSH2 0x29AB JUMP JUMPDEST PUSH1 0x0 PUSH1 0x5 PUSH1 0x0 DUP6 DUP2 MSTORE PUSH1 0x20 ADD SWAP1 DUP2 MSTORE PUSH1 0x20 ADD PUSH1 0x0 KECCAK256 PUSH1 0x1 ADD SLOAD LT ISZERO PUSH2 0x144E JUMPI PUSH1 0x40 MLOAD PUSH32 0x8C379A000000000000000000000000000000000000000000000000000000000 DUP2 MSTORE PUSH1 0x4 ADD PUSH2 0x1445 SWAP1 PUSH2 0x4F99 JUMP JUMPDEST PUSH1 0x40 MLOAD DUP1 SWAP2 SUB SWAP1 REVERT JUMPDEST PUSH2 0x1477 DUP3 PUSH1 0x5 PUSH1 0x0 DUP7 DUP2 MSTORE PUSH1 0x20 ADD SWAP1 DUP2 MSTORE PUSH1 0x20 ADD PUSH1 0x0 KECCAK256 PUSH1 0x1 ADD SLOAD PUSH2 0x2E2F SWAP1 SWAP2 SWAP1 PUSH4 0xFFFFFFFF AND JUMP JUMPDEST PUSH1 0x5 PUSH1 0x0 DUP6 DUP2 MSTORE PUSH1 0x20 ADD SWAP1 DUP2 MSTORE PUSH1 0x20 ADD PUSH1 0x0 KECCAK256 PUSH1 0x1 ADD DUP2 SWAP1 SSTORE POP PUSH1 0x40 MLOAD DUP1 PUSH1 0xA0 ADD PUSH1 0x40 MSTORE DUP1 DUP5 DUP2 MSTORE PUSH1 0x20 ADD DUP4 DUP2 MSTORE PUSH1 0x20 ADD DUP3 DUP2 MSTORE PUSH1 0x20 ADD PUSH1 0x5 PUSH1 0x0 DUP7 DUP2 MSTORE PUSH1 0x20 ADD SWAP1 DUP2 MSTORE PUSH1 0x20 ADD PUSH1 0x0 KECCAK256 PUSH1 0x3 ADD DUP1 SLOAD PUSH2 0x14CF SWAP1 PUSH2 0x4A32 JUMP JUMPDEST DUP1 PUSH1 0x1F ADD PUSH1 0x20 DUP1 SWAP2 DIV MUL PUSH1 0x20 ADD PUSH1 0x40 MLOAD SWAP1 DUP2 ADD PUSH1 0x40 MSTORE DUP1 SWAP3 SWAP2 SWAP1 DUP2 DUP2 MSTORE PUSH1 0x20 ADD DUP3 DUP1 SLOAD PUSH2 0x14FB SWAP1 PUSH2 0x4A32 JUMP JUMPDEST DUP1 ISZERO PUSH2 0x1548 JUMPI DUP1 PUSH1 0x1F LT PUSH2 0x151D JUMPI PUSH2 0x100 DUP1 DUP4 SLOAD DIV MUL DUP4 MSTORE SWAP2 PUSH1 0x20 ADD SWAP2 PUSH2 0x1548 JUMP JUMPDEST DUP3 ADD SWAP2 SWAP1 PUSH1 0x0 MSTORE PUSH1 0x20 PUSH1 0x0 KECCAK256 SWAP1 JUMPDEST DUP2 SLOAD DUP2 MSTORE SWAP1 PUSH1 0x1 ADD SWAP1 PUSH1 0x20 ADD DUP1 DUP4 GT PUSH2 0x152B JUMPI DUP3 SWAP1 SUB PUSH1 0x1F AND DUP3 ADD SWAP2 JUMPDEST POP POP POP POP POP DUP2 MSTORE PUSH1 0x20 ADD CALLER PUSH20 0xFFFFFFFFFFFFFFFFFFFFFFFFFFFFFFFFFFFFFFFF AND DUP2 MSTORE POP PUSH1 0x7 PUSH1 0x0 PUSH1 0xD SLOAD DUP2 MSTORE PUSH1 0x20 ADD SWAP1 DUP2 MSTORE PUSH1 0x20 ADD PUSH1 0x0 KECCAK256 PUSH1 0x0 DUP3 ADD MLOAD DUP2 PUSH1 0x0 ADD SSTORE PUSH1 0x20 DUP3 ADD MLOAD DUP2 PUSH1 0x1 ADD SSTORE PUSH1 0x40 DUP3 ADD MLOAD DUP2 PUSH1 0x2 ADD SSTORE PUSH1 0x60 DUP3 ADD MLOAD DUP2 PUSH1 0x3 ADD SWAP1 DUP1 MLOAD SWAP1 PUSH1 0x20 ADD SWAP1 PUSH2 0x15BB SWAP3 SWAP2 SWAP1 PUSH2 0x387A JUMP JUMPDEST POP PUSH1 0x80 DUP3 ADD MLOAD DUP2 PUSH1 0x4 ADD PUSH1 0x0 PUSH2 0x100 EXP DUP2 SLOAD DUP2 PUSH20 0xFFFFFFFFFFFFFFFFFFFFFFFFFFFFFFFFFFFFFFFF MUL NOT AND SWAP1 DUP4 PUSH20 0xFFFFFFFFFFFFFFFFFFFFFFFFFFFFFFFFFFFFFFFF AND MUL OR SWAP1 SSTORE POP SWAP1 POP POP PUSH2 0x1621 CALLER DUP5 DUP5 PUSH1 0x40 MLOAD DUP1 PUSH1 0x20 ADD PUSH1 0x40 MSTORE DUP1 PUSH1 0x0 DUP2 MSTORE POP PUSH2 0x2E45 JUMP JUMPDEST PUSH2 0x1637 PUSH1 0x1 PUSH1 0xD SLOAD PUSH2 0x2D53 SWAP1 SWAP2 SWAP1 PUSH4 0xFFFFFFFF AND JUMP JUMPDEST PUSH1 0xD DUP2 SWAP1 SSTORE POP POP POP POP JUMP JUMPDEST PUSH1 0x7 PUSH1 0x20 MSTORE DUP1 PUSH1 0x0 MSTORE PUSH1 0x40 PUSH1 0x0 KECCAK256 PUSH1 0x0 SWAP2 POP SWAP1 POP DUP1 PUSH1 0x0 ADD SLOAD SWAP1 DUP1 PUSH1 0x1 ADD SLOAD SWAP1 DUP1 PUSH1 0x2 ADD SLOAD SWAP1 DUP1 PUSH1 0x3 ADD DUP1 SLOAD PUSH2 0x1677 SWAP1 PUSH2 0x4A32 JUMP JUMPDEST DUP1 PUSH1 0x1F ADD PUSH1 0x20 DUP1 SWAP2 DIV MUL PUSH1 0x20 ADD PUSH1 0x40 MLOAD SWAP1 DUP2 ADD PUSH1 0x40 MSTORE DUP1 SWAP3 SWAP2 SWAP1 DUP2 DUP2 MSTORE PUSH1 0x20 ADD DUP3 DUP1 SLOAD PUSH2 0x16A3 SWAP1 PUSH2 0x4A32 JUMP JUMPDEST DUP1 ISZERO PUSH2 0x16F0 JUMPI DUP1 PUSH1 0x1F LT PUSH2 0x16C5 JUMPI PUSH2 0x100 DUP1 DUP4 SLOAD DIV MUL DUP4 MSTORE SWAP2 PUSH1 0x20 ADD SWAP2 PUSH2 0x16F0 JUMP JUMPDEST DUP3 ADD SWAP2 SWAP1 PUSH1 0x0 MSTORE PUSH1 0x20 PUSH1 0x0 KECCAK256 SWAP1 JUMPDEST DUP2 SLOAD DUP2 MSTORE SWAP1 PUSH1 0x1 ADD SWAP1 PUSH1 0x20 ADD DUP1 DUP4 GT PUSH2 0x16D3 JUMPI DUP3 SWAP1 SUB PUSH1 0x1F AND DUP3 ADD SWAP2 JUMPDEST POP POP POP POP POP SWAP1 DUP1 PUSH1 0x4 ADD PUSH1 0x0 SWAP1 SLOAD SWAP1 PUSH2 0x100 EXP SWAP1 DIV PUSH20 0xFFFFFFFFFFFFFFFFFFFFFFFFFFFFFFFFFFFFFFFF AND SWAP1 POP DUP6 JUMP JUMPDEST PUSH1 0x0 PUSH1 0x3 PUSH1 0x0 SWAP1 SLOAD SWAP1 PUSH2 0x100 EXP SWAP1 DIV PUSH20 0xFFFFFFFFFFFFFFFFFFFFFFFFFFFFFFFFFFFFFFFF AND SWAP1 POP SWAP1 JUMP JUMPDEST DUP1 PUSH1 0x7 PUSH1 0x0 DUP5 DUP2 MSTORE PUSH1 0x20 ADD SWAP1 DUP2 MSTORE PUSH1 0x20 ADD PUSH1 0x0 KECCAK256 PUSH1 0x1 ADD SLOAD LT ISZERO PUSH2 0x17A3 JUMPI PUSH1 0x40 MLOAD PUSH32 0x8C379A000000000000000000000000000000000000000000000000000000000 DUP2 MSTORE PUSH1 0x4 ADD PUSH2 0x179A SWAP1 PUSH2 0x502B JUMP JUMPDEST PUSH1 0x40 MLOAD DUP1 SWAP2 SUB SWAP1 REVERT JUMPDEST PUSH1 0x0 PUSH1 0x1 PUSH8 0xFFFFFFFFFFFFFFFF DUP2 GT ISZERO PUSH2 0x17C0 JUMPI PUSH2 0x17BF PUSH2 0x3C66 JUMP JUMPDEST JUMPDEST PUSH1 0x40 MLOAD SWAP1 DUP1 DUP3 MSTORE DUP1 PUSH1 0x20 MUL PUSH1 0x20 ADD DUP3 ADD PUSH1 0x40 MSTORE DUP1 ISZERO PUSH2 0x17EE JUMPI DUP2 PUSH1 0x20 ADD PUSH1 0x20 DUP3 MUL DUP1 CALLDATASIZE DUP4 CALLDATACOPY DUP1 DUP3 ADD SWAP2 POP POP SWAP1 POP JUMPDEST POP SWAP1 POP PUSH1 0xC PUSH1 0x0 SWAP1 SLOAD SWAP1 PUSH2 0x100 EXP SWAP1 DIV PUSH20 0xFFFFFFFFFFFFFFFFFFFFFFFFFFFFFFFFFFFFFFFF AND DUP2 PUSH1 0x0 DUP2 MLOAD DUP2 LT PUSH2 0x1828 JUMPI PUSH2 0x1827 PUSH2 0x4AD0 JUMP JUMPDEST JUMPDEST PUSH1 0x20 MUL PUSH1 0x20 ADD ADD SWAP1 PUSH20 0xFFFFFFFFFFFFFFFFFFFFFFFFFFFFFFFFFFFFFFFF AND SWAP1 DUP2 PUSH20 0xFFFFFFFFFFFFFFFFFFFFFFFFFFFFFFFFFFFFFFFF AND DUP2 MSTORE POP POP PUSH1 0x40 MLOAD DUP1 PUSH1 0xE0 ADD PUSH1 0x40 MSTORE DUP1 PUSH1 0xB SLOAD DUP2 MSTORE PUSH1 0x20 ADD DUP5 DUP2 MSTORE PUSH1 0x20 ADD DUP4 DUP2 MSTORE PUSH1 0x20 ADD PUSH1 0x7 PUSH1 0x0 DUP7 DUP2 MSTORE PUSH1 0x20 ADD SWAP1 DUP2 MSTORE PUSH1 0x20 ADD PUSH1 0x0 KECCAK256 PUSH1 0x4 ADD PUSH1 0x0 SWAP1 SLOAD SWAP1 PUSH2 0x100 EXP SWAP1 DIV PUSH20 0xFFFFFFFFFFFFFFFFFFFFFFFFFFFFFFFFFFFFFFFF AND PUSH20 0xFFFFFFFFFFFFFFFFFFFFFFFFFFFFFFFFFFFFFFFF AND DUP2 MSTORE PUSH1 0x20 ADD CALLER PUSH20 0xFFFFFFFFFFFFFFFFFFFFFFFFFFFFFFFFFFFFFFFF AND DUP2 MSTORE PUSH1 0x20 ADD PUSH1 0x40 MLOAD DUP1 PUSH1 0x40 ADD PUSH1 0x40 MSTORE DUP1 PUSH1 0x7 DUP2 MSTORE PUSH1 0x20 ADD PUSH32 0x50656E64696E6700000000000000000000000000000000000000000000000000 DUP2 MSTORE POP DUP2 MSTORE PUSH1 0x20 ADD DUP3 DUP2 MSTORE POP PUSH1 0x6 PUSH1 0x0 PUSH1 0xB SLOAD DUP2 MSTORE PUSH1 0x20 ADD SWAP1 DUP2 MSTORE PUSH1 0x20 ADD PUSH1 0x0 KECCAK256 PUSH1 0x0 DUP3 ADD MLOAD DUP2 PUSH1 0x0 ADD SSTORE PUSH1 0x20 DUP3 ADD MLOAD DUP2 PUSH1 0x1 ADD SSTORE PUSH1 0x40 DUP3 ADD MLOAD DUP2 PUSH1 0x2 ADD SSTORE PUSH1 0x60 DUP3 ADD MLOAD DUP2 PUSH1 0x3 ADD PUSH1 0x0 PUSH2 0x100 EXP DUP2 SLOAD DUP2 PUSH20 0xFFFFFFFFFFFFFFFFFFFFFFFFFFFFFFFFFFFFFFFF MUL NOT AND SWAP1 DUP4 PUSH20 0xFFFFFFFFFFFFFFFFFFFFFFFFFFFFFFFFFFFFFFFF AND MUL OR SWAP1 SSTORE POP PUSH1 0x80 DUP3 ADD MLOAD DUP2 PUSH1 0x4 ADD PUSH1 0x0 PUSH2 0x100 EXP DUP2 SLOAD DUP2 PUSH20 0xFFFFFFFFFFFFFFFFFFFFFFFFFFFFFFFFFFFFFFFF MUL NOT AND SWAP1 DUP4 PUSH20 0xFFFFFFFFFFFFFFFFFFFFFFFFFFFFFFFFFFFFFFFF AND MUL OR SWAP1 SSTORE POP PUSH1 0xA0 DUP3 ADD MLOAD DUP2 PUSH1 0x5 ADD SWAP1 DUP1 MLOAD SWAP1 PUSH1 0x20 ADD SWAP1 PUSH2 0x1A0B SWAP3 SWAP2 SWAP1 PUSH2 0x387A JUMP JUMPDEST POP PUSH1 0xC0 DUP3 ADD MLOAD DUP2 PUSH1 0x6 ADD SWAP1 DUP1 MLOAD SWAP1 PUSH1 0x20 ADD SWAP1 PUSH2 0x1A28 SWAP3 SWAP2 SWAP1 PUSH2 0x3900 JUMP JUMPDEST POP SWAP1 POP POP PUSH1 0x8 PUSH1 0x0 PUSH1 0xB SLOAD DUP2 MSTORE PUSH1 0x20 ADD SWAP1 DUP2 MSTORE PUSH1 0x20 ADD PUSH1 0x0 KECCAK256 PUSH1 0x0 PUSH1 0xC PUSH1 0x0 SWAP1 SLOAD SWAP1 PUSH2 0x100 EXP SWAP1 DIV PUSH20 0xFFFFFFFFFFFFFFFFFFFFFFFFFFFFFFFFFFFFFFFF AND PUSH20 0xFFFFFFFFFFFFFFFFFFFFFFFFFFFFFFFFFFFFFFFF AND PUSH20 0xFFFFFFFFFFFFFFFFFFFFFFFFFFFFFFFFFFFFFFFF AND DUP2 MSTORE PUSH1 0x20 ADD SWAP1 DUP2 MSTORE PUSH1 0x20 ADD PUSH1 0x0 KECCAK256 DUP1 PUSH1 0x1 DUP2 SLOAD ADD DUP1 DUP3 SSTORE DUP1 SWAP2 POP POP PUSH1 0x1 SWAP1 SUB SWAP1 PUSH1 0x0 MSTORE PUSH1 0x20 PUSH1 0x0 KECCAK256 ADD PUSH1 0x0 PUSH1 0x40 MLOAD DUP1 PUSH1 0x40 ADD PUSH1 0x40 MSTORE DUP1 PUSH1 0x6 DUP2 MSTORE PUSH1 0x20 ADD PUSH32 0x426F6F6B65640000000000000000000000000000000000000000000000000000 DUP2 MSTORE POP SWAP1 SWAP2 SWAP1 SWAP2 POP SWAP1 DUP1 MLOAD SWAP1 PUSH1 0x20 ADD SWAP1 PUSH2 0x1B0B SWAP3 SWAP2 SWAP1 PUSH2 0x387A JUMP JUMPDEST POP PUSH1 0x1 PUSH1 0x9 PUSH1 0x0 PUSH1 0xC PUSH1 0x0 SWAP1 SLOAD SWAP1 PUSH2 0x100 EXP SWAP1 DIV PUSH20 0xFFFFFFFFFFFFFFFFFFFFFFFFFFFFFFFFFFFFFFFF AND PUSH20 0xFFFFFFFFFFFFFFFFFFFFFFFFFFFFFFFFFFFFFFFF AND PUSH20 0xFFFFFFFFFFFFFFFFFFFFFFFFFFFFFFFFFFFFFFFF AND DUP2 MSTORE PUSH1 0x20 ADD SWAP1 DUP2 MSTORE PUSH1 0x20 ADD PUSH1 0x0 KECCAK256 PUSH1 0x0 PUSH1 0xB SLOAD DUP2 MSTORE PUSH1 0x20 ADD SWAP1 DUP2 MSTORE PUSH1 0x20 ADD PUSH1 0x0 KECCAK256 PUSH1 0x0 PUSH2 0x100 EXP DUP2 SLOAD DUP2 PUSH1 0xFF MUL NOT AND SWAP1 DUP4 ISZERO ISZERO MUL OR SWAP1 SSTORE POP PUSH2 0x1BC2 DUP3 PUSH1 0x7 PUSH1 0x0 DUP7 DUP2 MSTORE PUSH1 0x20 ADD SWAP1 DUP2 MSTORE PUSH1 0x20 ADD PUSH1 0x0 KECCAK256 PUSH1 0x1 ADD SLOAD PUSH2 0x2E2F SWAP1 SWAP2 SWAP1 PUSH4 0xFFFFFFFF AND JUMP JUMPDEST PUSH1 0x7 PUSH1 0x0 DUP6 DUP2 MSTORE PUSH1 0x20 ADD SWAP1 DUP2 MSTORE PUSH1 0x20 ADD PUSH1 0x0 KECCAK256 PUSH1 0x1 ADD DUP2 SWAP1 SSTORE POP PUSH2 0x1BF2 PUSH1 0x1 PUSH1 0xB SLOAD PUSH2 0x2D53 SWAP1 SWAP2 SWAP1 PUSH4 0xFFFFFFFF AND JUMP JUMPDEST PUSH1 0xB DUP2 SWAP1 SSTORE POP POP POP POP JUMP JUMPDEST PUSH2 0x1C05 PUSH2 0x29AB JUMP JUMPDEST PUSH1 0x0 PUSH20 0xFFFFFFFFFFFFFFFFFFFFFFFFFFFFFFFFFFFFFFFF AND PUSH1 0x6 PUSH1 0x0 DUP4 DUP2 MSTORE PUSH1 0x20 ADD SWAP1 DUP2 MSTORE PUSH1 0x20 ADD PUSH1 0x0 KECCAK256 PUSH1 0x4 ADD PUSH1 0x0 SWAP1 SLOAD SWAP1 PUSH2 0x100 EXP SWAP1 DIV PUSH20 0xFFFFFFFFFFFFFFFFFFFFFFFFFFFFFFFFFFFFFFFF AND PUSH20 0xFFFFFFFFFFFFFFFFFFFFFFFFFFFFFFFFFFFFFFFF AND EQ ISZERO PUSH2 0x1CAB JUMPI PUSH1 0x40 MLOAD PUSH32 0x8C379A000000000000000000000000000000000000000000000000000000000 DUP2 MSTORE PUSH1 0x4 ADD PUSH2 0x1CA2 SWAP1 PUSH2 0x5097 JUMP JUMPDEST PUSH1 0x40 MLOAD DUP1 SWAP2 SUB SWAP1 REVERT JUMPDEST PUSH1 0x0 PUSH1 0x6 PUSH1 0x0 DUP4 DUP2 MSTORE PUSH1 0x20 ADD SWAP1 DUP2 MSTORE PUSH1 0x20 ADD PUSH1 0x0 KECCAK256 PUSH1 0x1 ADD SLOAD SWAP1 POP PUSH1 0x0 PUSH1 0x6 PUSH1 0x0 DUP5 DUP2 MSTORE PUSH1 0x20 ADD SWAP1 DUP2 MSTORE PUSH1 0x20 ADD PUSH1 0x0 KECCAK256 PUSH1 0x2 ADD SLOAD SWAP1 POP PUSH2 0x1D33 CALLER PUSH1 0x6 PUSH1 0x0 DUP7 DUP2 MSTORE PUSH1 0x20 ADD SWAP1 DUP2 MSTORE PUSH1 0x20 ADD PUSH1 0x0 KECCAK256 PUSH1 0x4 ADD PUSH1 0x0 SWAP1 SLOAD SWAP1 PUSH2 0x100 EXP SWAP1 DIV PUSH20 0xFFFFFFFFFFFFFFFFFFFFFFFFFFFFFFFFFFFFFFFF AND DUP5 DUP5 PUSH1 0x40 MLOAD DUP1 PUSH1 0x20 ADD PUSH1 0x40 MSTORE DUP1 PUSH1 0x0 DUP2 MSTORE POP PUSH2 0x281C JUMP JUMPDEST PUSH1 0x40 MLOAD DUP1 PUSH1 0x40 ADD PUSH1 0x40 MSTORE DUP1 PUSH1 0x9 DUP2 MSTORE PUSH1 0x20 ADD PUSH32 0x44656C6976657265640000000000000000000000000000000000000000000000 DUP2 MSTORE POP PUSH1 0x6 PUSH1 0x0 DUP6 DUP2 MSTORE PUSH1 0x20 ADD SWAP1 DUP2 MSTORE PUSH1 0x20 ADD PUSH1 0x0 KECCAK256 PUSH1 0x5 ADD SWAP1 DUP1 MLOAD SWAP1 PUSH1 0x20 ADD SWAP1 PUSH2 0x1D92 SWAP3 SWAP2 SWAP1 PUSH2 0x387A JUMP JUMPDEST POP POP POP POP JUMP JUMPDEST PUSH2 0x1DAA PUSH2 0x1DA3 PUSH2 0x2A29 JUMP JUMPDEST DUP4 DUP4 PUSH2 0x2FF6 JUMP JUMPDEST POP POP JUMP JUMPDEST PUSH1 0x6 PUSH1 0x20 MSTORE DUP1 PUSH1 0x0 MSTORE PUSH1 0x40 PUSH1 0x0 KECCAK256 PUSH1 0x0 SWAP2 POP SWAP1 POP DUP1 PUSH1 0x0 ADD SLOAD SWAP1 DUP1 PUSH1 0x1 ADD SLOAD SWAP1 DUP1 PUSH1 0x2 ADD SLOAD SWAP1 DUP1 PUSH1 0x3 ADD PUSH1 0x0 SWAP1 SLOAD SWAP1 PUSH2 0x100 EXP SWAP1 DIV PUSH20 0xFFFFFFFFFFFFFFFFFFFFFFFFFFFFFFFFFFFFFFFF AND SWAP1 DUP1 PUSH1 0x4 ADD PUSH1 0x0 SWAP1 SLOAD SWAP1 PUSH2 0x100 EXP SWAP1 DIV PUSH20 0xFFFFFFFFFFFFFFFFFFFFFFFFFFFFFFFFFFFFFFFF AND SWAP1 DUP1 PUSH1 0x5 ADD DUP1 SLOAD PUSH2 0x1E2F SWAP1 PUSH2 0x4A32 JUMP JUMPDEST DUP1 PUSH1 0x1F ADD PUSH1 0x20 DUP1 SWAP2 DIV MUL PUSH1 0x20 ADD PUSH1 0x40 MLOAD SWAP1 DUP2 ADD PUSH1 0x40 MSTORE DUP1 SWAP3 SWAP2 SWAP1 DUP2 DUP2 MSTORE PUSH1 0x20 ADD DUP3 DUP1 SLOAD PUSH2 0x1E5B SWAP1 PUSH2 0x4A32 JUMP JUMPDEST DUP1 ISZERO PUSH2 0x1EA8 JUMPI DUP1 PUSH1 0x1F LT PUSH2 0x1E7D JUMPI PUSH2 0x100 DUP1 DUP4 SLOAD DIV MUL DUP4 MSTORE SWAP2 PUSH1 0x20 ADD SWAP2 PUSH2 0x1EA8 JUMP JUMPDEST DUP3 ADD SWAP2 SWAP1 PUSH1 0x0 MSTORE PUSH1 0x20 PUSH1 0x0 KECCAK256 SWAP1 JUMPDEST DUP2 SLOAD DUP2 MSTORE SWAP1 PUSH1 0x1 ADD SWAP1 PUSH1 0x20 ADD DUP1 DUP4 GT PUSH2 0x1E8B JUMPI DUP3 SWAP1 SUB PUSH1 0x1F AND DUP3 ADD SWAP2 JUMPDEST POP POP POP POP POP SWAP1 POP DUP7 JUMP JUMPDEST PUSH1 0x5 PUSH1 0x20 MSTORE DUP1 PUSH1 0x0 MSTORE PUSH1 0x40 PUSH1 0x0 KECCAK256 PUSH1 0x0 SWAP2 POP SWAP1 POP DUP1 PUSH1 0x0 ADD SLOAD SWAP1 DUP1 PUSH1 0x1 ADD SLOAD SWAP1 DUP1 PUSH1 0x2 ADD DUP1 SLOAD PUSH2 0x1EE1 SWAP1 PUSH2 0x4A32 JUMP JUMPDEST DUP1 PUSH1 0x1F ADD PUSH1 0x20 DUP1 SWAP2 DIV MUL PUSH1 0x20 ADD PUSH1 0x40 MLOAD SWAP1 DUP2 ADD PUSH1 0x40 MSTORE DUP1 SWAP3 SWAP2 SWAP1 DUP2 DUP2 MSTORE PUSH1 0x20 ADD DUP3 DUP1 SLOAD PUSH2 0x1F0D SWAP1 PUSH2 0x4A32 JUMP JUMPDEST DUP1 ISZERO PUSH2 0x1F5A JUMPI DUP1 PUSH1 0x1F LT PUSH2 0x1F2F JUMPI PUSH2 0x100 DUP1 DUP4 SLOAD DIV MUL DUP4 MSTORE SWAP2 PUSH1 0x20 ADD SWAP2 PUSH2 0x1F5A JUMP JUMPDEST DUP3 ADD SWAP2 SWAP1 PUSH1 0x0 MSTORE PUSH1 0x20 PUSH1 0x0 KECCAK256 SWAP1 JUMPDEST DUP2 SLOAD DUP2 MSTORE SWAP1 PUSH1 0x1 ADD SWAP1 PUSH1 0x20 ADD DUP1 DUP4 GT PUSH2 0x1F3D JUMPI DUP3 SWAP1 SUB PUSH1 0x1F AND DUP3 ADD SWAP2 JUMPDEST POP POP POP POP POP SWAP1 DUP1 PUSH1 0x3 ADD DUP1 SLOAD PUSH2 0x1F6F SWAP1 PUSH2 0x4A32 JUMP JUMPDEST DUP1 PUSH1 0x1F ADD PUSH1 0x20 DUP1 SWAP2 DIV MUL PUSH1 0x20 ADD PUSH1 0x40 MLOAD SWAP1 DUP2 ADD PUSH1 0x40 MSTORE DUP1 SWAP3 SWAP2 SWAP1 DUP2 DUP2 MSTORE PUSH1 0x20 ADD DUP3 DUP1 SLOAD PUSH2 0x1F9B SWAP1 PUSH2 0x4A32 JUMP JUMPDEST DUP1 ISZERO PUSH2 0x1FE8 JUMPI DUP1 PUSH1 0x1F LT PUSH2 0x1FBD JUMPI PUSH2 0x100 DUP1 DUP4 SLOAD DIV MUL DUP4 MSTORE SWAP2 PUSH1 0x20 ADD SWAP2 PUSH2 0x1FE8 JUMP JUMPDEST DUP3 ADD SWAP2 SWAP1 PUSH1 0x0 MSTORE PUSH1 0x20 PUSH1 0x0 KECCAK256 SWAP1 JUMPDEST DUP2 SLOAD DUP2 MSTORE SWAP1 PUSH1 0x1 ADD SWAP1 PUSH1 0x20 ADD DUP1 DUP4 GT PUSH2 0x1FCB JUMPI DUP3 SWAP1 SUB PUSH1 0x1F AND DUP3 ADD SWAP2 JUMPDEST POP POP POP POP POP SWAP1 DUP1 PUSH1 0x4 ADD PUSH1 0x0 SWAP1 SLOAD SWAP1 PUSH2 0x100 EXP SWAP1 DIV PUSH20 0xFFFFFFFFFFFFFFFFFFFFFFFFFFFFFFFFFFFFFFFF AND SWAP1 POP DUP6 JUMP JUMPDEST PUSH1 0x60 DUP1 PUSH1 0x0 PUSH20 0xFFFFFFFFFFFFFFFFFFFFFFFFFFFFFFFFFFFFFFFF AND PUSH1 0x6 PUSH1 0x0 DUP6 DUP2 MSTORE PUSH1 0x20 ADD SWAP1 DUP2 MSTORE PUSH1 0x20 ADD PUSH1 0x0 KECCAK256 PUSH1 0x4 ADD PUSH1 0x0 SWAP1 SLOAD SWAP1 PUSH2 0x100 EXP SWAP1 DIV PUSH20 0xFFFFFFFFFFFFFFFFFFFFFFFFFFFFFFFFFFFFFFFF AND PUSH20 0xFFFFFFFFFFFFFFFFFFFFFFFFFFFFFFFFFFFFFFFF AND EQ ISZERO PUSH2 0x20C1 JUMPI PUSH1 0x40 MLOAD PUSH32 0x8C379A000000000000000000000000000000000000000000000000000000000 DUP2 MSTORE PUSH1 0x4 ADD PUSH2 0x20B8 SWAP1 PUSH2 0x5097 JUMP JUMPDEST PUSH1 0x40 MLOAD DUP1 SWAP2 SUB SWAP1 REVERT JUMPDEST PUSH1 0x0 PUSH1 0x6 PUSH1 0x0 DUP6 DUP2 MSTORE PUSH1 0x20 ADD SWAP1 DUP2 MSTORE PUSH1 0x20 ADD PUSH1 0x0 KECCAK256 PUSH1 0x6 ADD DUP1 SLOAD DUP1 PUSH1 0x20 MUL PUSH1 0x20 ADD PUSH1 0x40 MLOAD SWAP1 DUP2 ADD PUSH1 0x40 MSTORE DUP1 SWAP3 SWAP2 SWAP1 DUP2 DUP2 MSTORE PUSH1 0x20 ADD DUP3 DUP1 SLOAD DUP1 ISZERO PUSH2 0x2159 JUMPI PUSH1 0x20 MUL DUP3 ADD SWAP2 SWAP1 PUSH1 0x0 MSTORE PUSH1 0x20 PUSH1 0x0 KECCAK256 SWAP1 JUMPDEST DUP2 PUSH1 0x0 SWAP1 SLOAD SWAP1 PUSH2 0x100 EXP SWAP1 DIV PUSH20 0xFFFFFFFFFFFFFFFFFFFFFFFFFFFFFFFFFFFFFFFF AND PUSH20 0xFFFFFFFFFFFFFFFFFFFFFFFFFFFFFFFFFFFFFFFF AND DUP2 MSTORE PUSH1 0x20 ADD SWAP1 PUSH1 0x1 ADD SWAP1 DUP1 DUP4 GT PUSH2 0x210F JUMPI JUMPDEST POP POP POP POP POP SWAP1 POP PUSH1 0x0 DUP2 MLOAD PUSH8 0xFFFFFFFFFFFFFFFF DUP2 GT ISZERO PUSH2 0x217D JUMPI PUSH2 0x217C PUSH2 0x3C66 JUMP JUMPDEST JUMPDEST PUSH1 0x40 MLOAD SWAP1 DUP1 DUP3 MSTORE DUP1 PUSH1 0x20 MUL PUSH1 0x20 ADD DUP3 ADD PUSH1 0x40 MSTORE DUP1 ISZERO PUSH2 0x21B0 JUMPI DUP2 PUSH1 0x20 ADD JUMPDEST PUSH1 0x60 DUP2 MSTORE PUSH1 0x20 ADD SWAP1 PUSH1 0x1 SWAP1 SUB SWAP1 DUP2 PUSH2 0x219B JUMPI SWAP1 POP JUMPDEST POP SWAP1 POP PUSH1 0x0 JUMPDEST DUP3 MLOAD DUP2 LT ISZERO PUSH2 0x2417 JUMPI PUSH1 0x0 PUSH1 0x8 PUSH1 0x0 DUP9 DUP2 MSTORE PUSH1 0x20 ADD SWAP1 DUP2 MSTORE PUSH1 0x20 ADD PUSH1 0x0 KECCAK256 PUSH1 0x0 DUP6 DUP5 DUP2 MLOAD DUP2 LT PUSH2 0x21E9 JUMPI PUSH2 0x21E8 PUSH2 0x4AD0 JUMP JUMPDEST JUMPDEST PUSH1 0x20 MUL PUSH1 0x20 ADD ADD MLOAD PUSH20 0xFFFFFFFFFFFFFFFFFFFFFFFFFFFFFFFFFFFFFFFF AND PUSH20 0xFFFFFFFFFFFFFFFFFFFFFFFFFFFFFFFFFFFFFFFF AND DUP2 MSTORE PUSH1 0x20 ADD SWAP1 DUP2 MSTORE PUSH1 0x20 ADD PUSH1 0x0 KECCAK256 DUP1 SLOAD SWAP1 POP SWAP1 POP DUP1 PUSH8 0xFFFFFFFFFFFFFFFF DUP2 GT ISZERO PUSH2 0x224B JUMPI PUSH2 0x224A PUSH2 0x3C66 JUMP JUMPDEST JUMPDEST PUSH1 0x40 MLOAD SWAP1 DUP1 DUP3 MSTORE DUP1 PUSH1 0x20 MUL PUSH1 0x20 ADD DUP3 ADD PUSH1 0x40 MSTORE DUP1 ISZERO PUSH2 0x227E JUMPI DUP2 PUSH1 0x20 ADD JUMPDEST PUSH1 0x60 DUP2 MSTORE PUSH1 0x20 ADD SWAP1 PUSH1 0x1 SWAP1 SUB SWAP1 DUP2 PUSH2 0x2269 JUMPI SWAP1 POP JUMPDEST POP DUP4 DUP4 DUP2 MLOAD DUP2 LT PUSH2 0x2292 JUMPI PUSH2 0x2291 PUSH2 0x4AD0 JUMP JUMPDEST JUMPDEST PUSH1 0x20 MUL PUSH1 0x20 ADD ADD DUP2 SWAP1 MSTORE POP PUSH1 0x0 JUMPDEST DUP2 DUP2 LT ISZERO PUSH2 0x2402 JUMPI PUSH1 0x8 PUSH1 0x0 DUP10 DUP2 MSTORE PUSH1 0x20 ADD SWAP1 DUP2 MSTORE PUSH1 0x20 ADD PUSH1 0x0 KECCAK256 PUSH1 0x0 DUP7 DUP6 DUP2 MLOAD DUP2 LT PUSH2 0x22D0 JUMPI PUSH2 0x22CF PUSH2 0x4AD0 JUMP JUMPDEST JUMPDEST PUSH1 0x20 MUL PUSH1 0x20 ADD ADD MLOAD PUSH20 0xFFFFFFFFFFFFFFFFFFFFFFFFFFFFFFFFFFFFFFFF AND PUSH20 0xFFFFFFFFFFFFFFFFFFFFFFFFFFFFFFFFFFFFFFFF AND DUP2 MSTORE PUSH1 0x20 ADD SWAP1 DUP2 MSTORE PUSH1 0x20 ADD PUSH1 0x0 KECCAK256 DUP2 DUP2 SLOAD DUP2 LT PUSH2 0x2324 JUMPI PUSH2 0x2323 PUSH2 0x4AD0 JUMP JUMPDEST JUMPDEST SWAP1 PUSH1 0x0 MSTORE PUSH1 0x20 PUSH1 0x0 KECCAK256 ADD DUP1 SLOAD PUSH2 0x2339 SWAP1 PUSH2 0x4A32 JUMP JUMPDEST DUP1 PUSH1 0x1F ADD PUSH1 0x20 DUP1 SWAP2 DIV MUL PUSH1 0x20 ADD PUSH1 0x40 MLOAD SWAP1 DUP2 ADD PUSH1 0x40 MSTORE DUP1 SWAP3 SWAP2 SWAP1 DUP2 DUP2 MSTORE PUSH1 0x20 ADD DUP3 DUP1 SLOAD PUSH2 0x2365 SWAP1 PUSH2 0x4A32 JUMP JUMPDEST DUP1 ISZERO PUSH2 0x23B2 JUMPI DUP1 PUSH1 0x1F LT PUSH2 0x2387 JUMPI PUSH2 0x100 DUP1 DUP4 SLOAD DIV MUL DUP4 MSTORE SWAP2 PUSH1 0x20 ADD SWAP2 PUSH2 0x23B2 JUMP JUMPDEST DUP3 ADD SWAP2 SWAP1 PUSH1 0x0 MSTORE PUSH1 0x20 PUSH1 0x0 KECCAK256 SWAP1 JUMPDEST DUP2 SLOAD DUP2 MSTORE SWAP1 PUSH1 0x1 ADD SWAP1 PUSH1 0x20 ADD DUP1 DUP4 GT PUSH2 0x2395 JUMPI DUP3 SWAP1 SUB PUSH1 0x1F AND DUP3 ADD SWAP2 JUMPDEST POP POP POP POP POP DUP5 DUP5 DUP2 MLOAD DUP2 LT PUSH2 0x23CA JUMPI PUSH2 0x23C9 PUSH2 0x4AD0 JUMP JUMPDEST JUMPDEST PUSH1 0x20 MUL PUSH1 0x20 ADD ADD MLOAD DUP3 DUP2 MLOAD DUP2 LT PUSH2 0x23E4 JUMPI PUSH2 0x23E3 PUSH2 0x4AD0 JUMP JUMPDEST JUMPDEST PUSH1 0x20 MUL PUSH1 0x20 ADD ADD DUP2 SWAP1 MSTORE POP DUP1 DUP1 PUSH2 0x23FA SWAP1 PUSH2 0x4B2E JUMP JUMPDEST SWAP2 POP POP PUSH2 0x22A0 JUMP JUMPDEST POP POP DUP1 DUP1 PUSH2 0x240F SWAP1 PUSH2 0x4B2E JUMP JUMPDEST SWAP2 POP POP PUSH2 0x21B6 JUMP JUMPDEST POP DUP2 DUP2 SWAP4 POP SWAP4 POP POP POP SWAP2 POP SWAP2 JUMP JUMPDEST PUSH1 0x0 DUP1 PUSH1 0x6 PUSH1 0x0 DUP6 DUP2 MSTORE PUSH1 0x20 ADD SWAP1 DUP2 MSTORE PUSH1 0x20 ADD PUSH1 0x0 KECCAK256 SWAP1 POP PUSH1 0x0 JUMPDEST DUP2 PUSH1 0x6 ADD DUP1 SLOAD SWAP1 POP DUP2 LT ISZERO PUSH2 0x24E1 JUMPI DUP4 PUSH20 0xFFFFFFFFFFFFFFFFFFFFFFFFFFFFFFFFFFFFFFFF AND DUP3 PUSH1 0x6 ADD DUP3 DUP2 SLOAD DUP2 LT PUSH2 0x247C JUMPI PUSH2 0x247B PUSH2 0x4AD0 JUMP JUMPDEST JUMPDEST SWAP1 PUSH1 0x0 MSTORE PUSH1 0x20 PUSH1 0x0 KECCAK256 ADD PUSH1 0x0 SWAP1 SLOAD SWAP1 PUSH2 0x100 EXP SWAP1 DIV PUSH20 0xFFFFFFFFFFFFFFFFFFFFFFFFFFFFFFFFFFFFFFFF AND PUSH20 0xFFFFFFFFFFFFFFFFFFFFFFFFFFFFFFFFFFFFFFFF AND EQ ISZERO PUSH2 0x24CE JUMPI PUSH1 0x1 SWAP3 POP POP POP PUSH2 0x24E8 JUMP JUMPDEST DUP1 DUP1 PUSH2 0x24D9 SWAP1 PUSH2 0x4B2E JUMP JUMPDEST SWAP2 POP POP PUSH2 0x2440 JUMP JUMPDEST POP PUSH1 0x0 SWAP2 POP POP JUMPDEST SWAP3 SWAP2 POP POP JUMP JUMPDEST PUSH2 0x24F6 PUSH2 0x29AB JUMP JUMPDEST DUP1 PUSH1 0xC PUSH1 0x0 PUSH2 0x100 EXP DUP2 SLOAD DUP2 PUSH20 0xFFFFFFFFFFFFFFFFFFFFFFFFFFFFFFFFFFFFFFFF MUL NOT AND SWAP1 DUP4 PUSH20 0xFFFFFFFFFFFFFFFFFFFFFFFFFFFFFFFFFFFFFFFF AND MUL OR SWAP1 SSTORE POP POP JUMP JUMPDEST PUSH1 0x0 PUSH1 0x1 PUSH1 0x0 DUP5 PUSH20 0xFFFFFFFFFFFFFFFFFFFFFFFFFFFFFFFFFFFFFFFF AND PUSH20 0xFFFFFFFFFFFFFFFFFFFFFFFFFFFFFFFFFFFFFFFF AND DUP2 MSTORE PUSH1 0x20 ADD SWAP1 DUP2 MSTORE PUSH1 0x20 ADD PUSH1 0x0 KECCAK256 PUSH1 0x0 DUP4 PUSH20 0xFFFFFFFFFFFFFFFFFFFFFFFFFFFFFFFFFFFFFFFF AND PUSH20 0xFFFFFFFFFFFFFFFFFFFFFFFFFFFFFFFFFFFFFFFF AND DUP2 MSTORE PUSH1 0x20 ADD SWAP1 DUP2 MSTORE PUSH1 0x20 ADD PUSH1 0x0 KECCAK256 PUSH1 0x0 SWAP1 SLOAD SWAP1 PUSH2 0x100 EXP SWAP1 DIV PUSH1 0xFF AND SWAP1 POP SWAP3 SWAP2 POP POP JUMP JUMPDEST PUSH2 0x25D6 PUSH2 0x29AB JUMP JUMPDEST PUSH1 0x0 PUSH20 0xFFFFFFFFFFFFFFFFFFFFFFFFFFFFFFFFFFFFFFFF AND PUSH1 0x6 PUSH1 0x0 DUP5 DUP2 MSTORE PUSH1 0x20 ADD SWAP1 DUP2 MSTORE PUSH1 0x20 ADD PUSH1 0x0 KECCAK256 PUSH1 0x4 ADD PUSH1 0x0 SWAP1 SLOAD SWAP1 PUSH2 0x100 EXP SWAP1 DIV PUSH20 0xFFFFFFFFFFFFFFFFFFFFFFFFFFFFFFFFFFFFFFFF AND PUSH20 0xFFFFFFFFFFFFFFFFFFFFFFFFFFFFFFFFFFFFFFFF AND EQ ISZERO PUSH2 0x267C JUMPI PUSH1 0x40 MLOAD PUSH32 0x8C379A000000000000000000000000000000000000000000000000000000000 DUP2 MSTORE PUSH1 0x4 ADD PUSH2 0x2673 SWAP1 PUSH2 0x4AB0 JUMP JUMPDEST PUSH1 0x40 MLOAD DUP1 SWAP2 SUB SWAP1 REVERT JUMPDEST PUSH1 0x6 PUSH1 0x0 DUP4 DUP2 MSTORE PUSH1 0x20 ADD SWAP1 DUP2 MSTORE PUSH1 0x20 ADD PUSH1 0x0 KECCAK256 PUSH1 0x6 ADD DUP2 SWAP1 DUP1 PUSH1 0x1 DUP2 SLOAD ADD DUP1 DUP3 SSTORE DUP1 SWAP2 POP POP PUSH1 0x1 SWAP1 SUB SWAP1 PUSH1 0x0 MSTORE PUSH1 0x20 PUSH1 0x0 KECCAK256 ADD PUSH1 0x0 SWAP1 SWAP2 SWAP1 SWAP2 SWAP1 SWAP2 PUSH2 0x100 EXP DUP2 SLOAD DUP2 PUSH20 0xFFFFFFFFFFFFFFFFFFFFFFFFFFFFFFFFFFFFFFFF MUL NOT AND SWAP1 DUP4 PUSH20 0xFFFFFFFFFFFFFFFFFFFFFFFFFFFFFFFFFFFFFFFF AND MUL OR SWAP1 SSTORE POP PUSH1 0x1 PUSH1 0x9 PUSH1 0x0 DUP4 PUSH20 0xFFFFFFFFFFFFFFFFFFFFFFFFFFFFFFFFFFFFFFFF AND PUSH20 0xFFFFFFFFFFFFFFFFFFFFFFFFFFFFFFFFFFFFFFFF AND DUP2 MSTORE PUSH1 0x20 ADD SWAP1 DUP2 MSTORE PUSH1 0x20 ADD PUSH1 0x0 KECCAK256 PUSH1 0x0 DUP5 DUP2 MSTORE PUSH1 0x20 ADD SWAP1 DUP2 MSTORE PUSH1 0x20 ADD PUSH1 0x0 KECCAK256 PUSH1 0x0 PUSH2 0x100 EXP DUP2 SLOAD DUP2 PUSH1 0xFF MUL NOT AND SWAP1 DUP4 ISZERO ISZERO MUL OR SWAP1 SSTORE POP PUSH1 0x8 PUSH1 0x0 DUP4 DUP2 MSTORE PUSH1 0x20 ADD SWAP1 DUP2 MSTORE PUSH1 0x20 ADD PUSH1 0x0 KECCAK256 PUSH1 0x0 DUP3 PUSH20 0xFFFFFFFFFFFFFFFFFFFFFFFFFFFFFFFFFFFFFFFF AND PUSH20 0xFFFFFFFFFFFFFFFFFFFFFFFFFFFFFFFFFFFFFFFF AND DUP2 MSTORE PUSH1 0x20 ADD SWAP1 DUP2 MSTORE PUSH1 0x20 ADD PUSH1 0x0 KECCAK256 DUP1 PUSH1 0x1 DUP2 SLOAD ADD DUP1 DUP3 SSTORE DUP1 SWAP2 POP POP PUSH1 0x1 SWAP1 SUB SWAP1 PUSH1 0x0 MSTORE PUSH1 0x20 PUSH1 0x0 KECCAK256 ADD PUSH1 0x0 PUSH1 0x40 MLOAD DUP1 PUSH1 0x40 ADD PUSH1 0x40 MSTORE DUP1 PUSH1 0x7 DUP2 MSTORE PUSH1 0x20 ADD PUSH32 0x50656E64696E6700000000000000000000000000000000000000000000000000 DUP2 MSTORE POP SWAP1 SWAP2 SWAP1 SWAP2 POP SWAP1 DUP1 MLOAD SWAP1 PUSH1 0x20 ADD SWAP1 PUSH2 0x2817 SWAP3 SWAP2 SWAP1 PUSH2 0x387A JUMP JUMPDEST POP POP POP JUMP JUMPDEST PUSH2 0x2824 PUSH2 0x2A29 JUMP JUMPDEST PUSH20 0xFFFFFFFFFFFFFFFFFFFFFFFFFFFFFFFFFFFFFFFF AND DUP6 PUSH20 0xFFFFFFFFFFFFFFFFFFFFFFFFFFFFFFFFFFFFFFFF AND EQ DUP1 PUSH2 0x286A JUMPI POP PUSH2 0x2869 DUP6 PUSH2 0x2864 PUSH2 0x2A29 JUMP JUMPDEST PUSH2 0x253A JUMP JUMPDEST JUMPDEST PUSH2 0x28A9 JUMPI PUSH1 0x40 MLOAD PUSH32 0x8C379A000000000000000000000000000000000000000000000000000000000 DUP2 MSTORE PUSH1 0x4 ADD PUSH2 0x28A0 SWAP1 PUSH2 0x4DE3 JUMP JUMPDEST PUSH1 0x40 MLOAD DUP1 SWAP2 SUB SWAP1 REVERT JUMPDEST PUSH2 0x28B6 DUP6 DUP6 DUP6 DUP6 DUP6 PUSH2 0x3163 JUMP JUMPDEST POP POP POP POP POP JUMP JUMPDEST PUSH2 0x28C5 PUSH2 0x29AB JUMP JUMPDEST PUSH1 0x0 PUSH20 0xFFFFFFFFFFFFFFFFFFFFFFFFFFFFFFFFFFFFFFFF AND DUP2 PUSH20 0xFFFFFFFFFFFFFFFFFFFFFFFFFFFFFFFFFFFFFFFF AND EQ ISZERO PUSH2 0x2935 JUMPI PUSH1 0x40 MLOAD PUSH32 0x8C379A000000000000000000000000000000000000000000000000000000000 DUP2 MSTORE PUSH1 0x4 ADD PUSH2 0x292C SWAP1 PUSH2 0x5129 JUMP JUMPDEST PUSH1 0x40 MLOAD DUP1 SWAP2 SUB SWAP1 REVERT JUMPDEST PUSH2 0x293E DUP2 PUSH2 0x2D69 JUMP JUMPDEST POP JUMP JUMPDEST PUSH1 0x0 PUSH32 0x1FFC9A700000000000000000000000000000000000000000000000000000000 PUSH28 0xFFFFFFFFFFFFFFFFFFFFFFFFFFFFFFFFFFFFFFFFFFFFFFFFFFFFFFFF NOT AND DUP3 PUSH28 0xFFFFFFFFFFFFFFFFFFFFFFFFFFFFFFFFFFFFFFFFFFFFFFFFFFFFFFFF NOT AND EQ SWAP1 POP SWAP2 SWAP1 POP JUMP JUMPDEST PUSH2 0x29B3 PUSH2 0x2A29 JUMP JUMPDEST PUSH20 0xFFFFFFFFFFFFFFFFFFFFFFFFFFFFFFFFFFFFFFFF AND PUSH2 0x29D1 PUSH2 0x1720 JUMP JUMPDEST PUSH20 0xFFFFFFFFFFFFFFFFFFFFFFFFFFFFFFFFFFFFFFFF AND EQ PUSH2 0x2A27 JUMPI PUSH1 0x40 MLOAD PUSH32 0x8C379A000000000000000000000000000000000000000000000000000000000 DUP2 MSTORE PUSH1 0x4 ADD PUSH2 0x2A1E SWAP1 PUSH2 0x5195 JUMP JUMPDEST PUSH1 0x40 MLOAD DUP1 SWAP2 SUB SWAP1 REVERT JUMPDEST JUMP JUMPDEST PUSH1 0x0 CALLER SWAP1 POP SWAP1 JUMP JUMPDEST DUP2 MLOAD DUP4 MLOAD EQ PUSH2 0x2A75 JUMPI PUSH1 0x40 MLOAD PUSH32 0x8C379A000000000000000000000000000000000000000000000000000000000 DUP2 MSTORE PUSH1 0x4 ADD PUSH2 0x2A6C SWAP1 PUSH2 0x5227 JUMP JUMPDEST PUSH1 0x40 MLOAD DUP1 SWAP2 SUB SWAP1 REVERT JUMPDEST PUSH1 0x0 PUSH20 0xFFFFFFFFFFFFFFFFFFFFFFFFFFFFFFFFFFFFFFFF AND DUP5 PUSH20 0xFFFFFFFFFFFFFFFFFFFFFFFFFFFFFFFFFFFFFFFF AND EQ ISZERO PUSH2 0x2AE5 JUMPI PUSH1 0x40 MLOAD PUSH32 0x8C379A000000000000000000000000000000000000000000000000000000000 DUP2 MSTORE PUSH1 0x4 ADD PUSH2 0x2ADC SWAP1 PUSH2 0x52B9 JUMP JUMPDEST PUSH1 0x40 MLOAD DUP1 SWAP2 SUB SWAP1 REVERT JUMPDEST PUSH1 0x0 PUSH2 0x2AEF PUSH2 0x2A29 JUMP JUMPDEST SWAP1 POP PUSH2 0x2AFF DUP2 DUP8 DUP8 DUP8 DUP8 DUP8 PUSH2 0x33FF JUMP JUMPDEST PUSH1 0x0 JUMPDEST DUP5 MLOAD DUP2 LT ISZERO PUSH2 0x2CB0 JUMPI PUSH1 0x0 DUP6 DUP3 DUP2 MLOAD DUP2 LT PUSH2 0x2B20 JUMPI PUSH2 0x2B1F PUSH2 0x4AD0 JUMP JUMPDEST JUMPDEST PUSH1 0x20 MUL PUSH1 0x20 ADD ADD MLOAD SWAP1 POP PUSH1 0x0 DUP6 DUP4 DUP2 MLOAD DUP2 LT PUSH2 0x2B3F JUMPI PUSH2 0x2B3E PUSH2 0x4AD0 JUMP JUMPDEST JUMPDEST PUSH1 0x20 MUL PUSH1 0x20 ADD ADD MLOAD SWAP1 POP PUSH1 0x0 DUP1 PUSH1 0x0 DUP5 DUP2 MSTORE PUSH1 0x20 ADD SWAP1 DUP2 MSTORE PUSH1 0x20 ADD PUSH1 0x0 KECCAK256 PUSH1 0x0 DUP12 PUSH20 0xFFFFFFFFFFFFFFFFFFFFFFFFFFFFFFFFFFFFFFFF AND PUSH20 0xFFFFFFFFFFFFFFFFFFFFFFFFFFFFFFFFFFFFFFFF AND DUP2 MSTORE PUSH1 0x20 ADD SWAP1 DUP2 MSTORE PUSH1 0x20 ADD PUSH1 0x0 KECCAK256 SLOAD SWAP1 POP DUP2 DUP2 LT ISZERO PUSH2 0x2BE0 JUMPI PUSH1 0x40 MLOAD PUSH32 0x8C379A000000000000000000000000000000000000000000000000000000000 DUP2 MSTORE PUSH1 0x4 ADD PUSH2 0x2BD7 SWAP1 PUSH2 0x534B JUMP JUMPDEST PUSH1 0x40 MLOAD DUP1 SWAP2 SUB SWAP1 REVERT JUMPDEST DUP2 DUP2 SUB PUSH1 0x0 DUP1 DUP6 DUP2 MSTORE PUSH1 0x20 ADD SWAP1 DUP2 MSTORE PUSH1 0x20 ADD PUSH1 0x0 KECCAK256 PUSH1 0x0 DUP13 PUSH20 0xFFFFFFFFFFFFFFFFFFFFFFFFFFFFFFFFFFFFFFFF AND PUSH20 0xFFFFFFFFFFFFFFFFFFFFFFFFFFFFFFFFFFFFFFFF AND DUP2 MSTORE PUSH1 0x20 ADD SWAP1 DUP2 MSTORE PUSH1 0x20 ADD PUSH1 0x0 KECCAK256 DUP2 SWAP1 SSTORE POP DUP2 PUSH1 0x0 DUP1 DUP6 DUP2 MSTORE PUSH1 0x20 ADD SWAP1 DUP2 MSTORE PUSH1 0x20 ADD PUSH1 0x0 KECCAK256 PUSH1 0x0 DUP12 PUSH20 0xFFFFFFFFFFFFFFFFFFFFFFFFFFFFFFFFFFFFFFFF AND PUSH20 0xFFFFFFFFFFFFFFFFFFFFFFFFFFFFFFFFFFFFFFFF AND DUP2 MSTORE PUSH1 0x20 ADD SWAP1 DUP2 MSTORE PUSH1 0x20 ADD PUSH1 0x0 KECCAK256 PUSH1 0x0 DUP3 DUP3 SLOAD PUSH2 0x2C95 SWAP2 SWAP1 PUSH2 0x536B JUMP JUMPDEST SWAP3 POP POP DUP2 SWAP1 SSTORE POP POP POP POP DUP1 PUSH2 0x2CA9 SWAP1 PUSH2 0x4B2E JUMP JUMPDEST SWAP1 POP PUSH2 0x2B02 JUMP JUMPDEST POP DUP5 PUSH20 0xFFFFFFFFFFFFFFFFFFFFFFFFFFFFFFFFFFFFFFFF AND DUP7 PUSH20 0xFFFFFFFFFFFFFFFFFFFFFFFFFFFFFFFFFFFFFFFF AND DUP3 PUSH20 0xFFFFFFFFFFFFFFFFFFFFFFFFFFFFFFFFFFFFFFFF AND PUSH32 0x4A39DC06D4C0DBC64B70AF90FD698A233A518AA5D07E595D983B8C0526C8F7FB DUP8 DUP8 PUSH1 0x40 MLOAD PUSH2 0x2D27 SWAP3 SWAP2 SWAP1 PUSH2 0x53C1 JUMP JUMPDEST PUSH1 0x40 MLOAD DUP1 SWAP2 SUB SWAP1 LOG4 PUSH2 0x2D3D DUP2 DUP8 DUP8 DUP8 DUP8 DUP8 PUSH2 0x3407 JUMP JUMPDEST PUSH2 0x2D4B DUP2 DUP8 DUP8 DUP8 DUP8 DUP8 PUSH2 0x340F JUMP JUMPDEST POP POP POP POP POP POP JUMP JUMPDEST PUSH1 0x0 DUP2 DUP4 PUSH2 0x2D61 SWAP2 SWAP1 PUSH2 0x536B JUMP JUMPDEST SWAP1 POP SWAP3 SWAP2 POP POP JUMP JUMPDEST PUSH1 0x0 PUSH1 0x3 PUSH1 0x0 SWAP1 SLOAD SWAP1 PUSH2 0x100 EXP SWAP1 DIV PUSH20 0xFFFFFFFFFFFFFFFFFFFFFFFFFFFFFFFFFFFFFFFF AND SWAP1 POP DUP2 PUSH1 0x3 PUSH1 0x0 PUSH2 0x100 EXP DUP2 SLOAD DUP2 PUSH20 0xFFFFFFFFFFFFFFFFFFFFFFFFFFFFFFFFFFFFFFFF MUL NOT AND SWAP1 DUP4 PUSH20 0xFFFFFFFFFFFFFFFFFFFFFFFFFFFFFFFFFFFFFFFF AND MUL OR SWAP1 SSTORE POP DUP2 PUSH20 0xFFFFFFFFFFFFFFFFFFFFFFFFFFFFFFFFFFFFFFFF AND DUP2 PUSH20 0xFFFFFFFFFFFFFFFFFFFFFFFFFFFFFFFFFFFFFFFF AND PUSH32 0x8BE0079C531659141344CD1FD0A4F28419497F9722A3DAAFE3B4186F6B6457E0 PUSH1 0x40 MLOAD PUSH1 0x40 MLOAD DUP1 SWAP2 SUB SWAP1 LOG3 POP POP JUMP JUMPDEST PUSH1 0x0 DUP2 DUP4 PUSH2 0x2E3D SWAP2 SWAP1 PUSH2 0x53F8 JUMP JUMPDEST SWAP1 POP SWAP3 SWAP2 POP POP JUMP JUMPDEST PUSH1 0x0 PUSH20 0xFFFFFFFFFFFFFFFFFFFFFFFFFFFFFFFFFFFFFFFF AND DUP5 PUSH20 0xFFFFFFFFFFFFFFFFFFFFFFFFFFFFFFFFFFFFFFFF AND EQ ISZERO PUSH2 0x2EB5 JUMPI PUSH1 0x40 MLOAD PUSH32 0x8C379A000000000000000000000000000000000000000000000000000000000 DUP2 MSTORE PUSH1 0x4 ADD PUSH2 0x2EAC SWAP1 PUSH2 0x549E JUMP JUMPDEST PUSH1 0x40 MLOAD DUP1 SWAP2 SUB SWAP1 REVERT JUMPDEST PUSH1 0x0 PUSH2 0x2EBF PUSH2 0x2A29 JUMP JUMPDEST SWAP1 POP PUSH1 0x0 PUSH2 0x2ECC DUP6 PUSH2 0x35F6 JUMP JUMPDEST SWAP1 POP PUSH1 0x0 PUSH2 0x2ED9 DUP6 PUSH2 0x35F6 JUMP JUMPDEST SWAP1 POP PUSH2 0x2EEA DUP4 PUSH1 0x0 DUP10 DUP6 DUP6 DUP10 PUSH2 0x33FF JUMP JUMPDEST DUP5 PUSH1 0x0 DUP1 DUP9 DUP2 MSTORE PUSH1 0x20 ADD SWAP1 DUP2 MSTORE PUSH1 0x20 ADD PUSH1 0x0 KECCAK256 PUSH1 0x0 DUP10 PUSH20 0xFFFFFFFFFFFFFFFFFFFFFFFFFFFFFFFFFFFFFFFF AND PUSH20 0xFFFFFFFFFFFFFFFFFFFFFFFFFFFFFFFFFFFFFFFF AND DUP2 MSTORE PUSH1 0x20 ADD SWAP1 DUP2 MSTORE PUSH1 0x20 ADD PUSH1 0x0 KECCAK256 PUSH1 0x0 DUP3 DUP3 SLOAD PUSH2 0x2F49 SWAP2 SWAP1 PUSH2 0x536B JUMP JUMPDEST SWAP3 POP POP DUP2 SWAP1 SSTORE POP DUP7 PUSH20 0xFFFFFFFFFFFFFFFFFFFFFFFFFFFFFFFFFFFFFFFF AND PUSH1 0x0 PUSH20 0xFFFFFFFFFFFFFFFFFFFFFFFFFFFFFFFFFFFFFFFF AND DUP5 PUSH20 0xFFFFFFFFFFFFFFFFFFFFFFFFFFFFFFFFFFFFFFFF AND PUSH32 0xC3D58168C5AE7397731D063D5BBF3D657854427343F4C083240F7AACAA2D0F62 DUP10 DUP10 PUSH1 0x40 MLOAD PUSH2 0x2FC7 SWAP3 SWAP2 SWAP1 PUSH2 0x54BE JUMP JUMPDEST PUSH1 0x40 MLOAD DUP1 SWAP2 SUB SWAP1 LOG4 PUSH2 0x2FDE DUP4 PUSH1 0x0 DUP10 DUP6 DUP6 DUP10 PUSH2 0x3407 JUMP JUMPDEST PUSH2 0x2FED DUP4 PUSH1 0x0 DUP10 DUP10 DUP10 DUP10 PUSH2 0x3670 JUMP JUMPDEST POP POP POP POP POP POP POP JUMP JUMPDEST DUP2 PUSH20 0xFFFFFFFFFFFFFFFFFFFFFFFFFFFFFFFFFFFFFFFF AND DUP4 PUSH20 0xFFFFFFFFFFFFFFFFFFFFFFFFFFFFFFFFFFFFFFFF AND EQ ISZERO PUSH2 0x3065 JUMPI PUSH1 0x40 MLOAD PUSH32 0x8C379A000000000000000000000000000000000000000000000000000000000 DUP2 MSTORE PUSH1 0x4 ADD PUSH2 0x305C SWAP1 PUSH2 0x5559 JUMP JUMPDEST PUSH1 0x40 MLOAD DUP1 SWAP2 SUB SWAP1 REVERT JUMPDEST DUP1 PUSH1 0x1 PUSH1 0x0 DUP6 PUSH20 0xFFFFFFFFFFFFFFFFFFFFFFFFFFFFFFFFFFFFFFFF AND PUSH20 0xFFFFFFFFFFFFFFFFFFFFFFFFFFFFFFFFFFFFFFFF AND DUP2 MSTORE PUSH1 0x20 ADD SWAP1 DUP2 MSTORE PUSH1 0x20 ADD PUSH1 0x0 KECCAK256 PUSH1 0x0 DUP5 PUSH20 0xFFFFFFFFFFFFFFFFFFFFFFFFFFFFFFFFFFFFFFFF AND PUSH20 0xFFFFFFFFFFFFFFFFFFFFFFFFFFFFFFFFFFFFFFFF AND DUP2 MSTORE PUSH1 0x20 ADD SWAP1 DUP2 MSTORE PUSH1 0x20 ADD PUSH1 0x0 KECCAK256 PUSH1 0x0 PUSH2 0x100 EXP DUP2 SLOAD DUP2 PUSH1 0xFF MUL NOT AND SWAP1 DUP4 ISZERO ISZERO MUL OR SWAP1 SSTORE POP DUP2 PUSH20 0xFFFFFFFFFFFFFFFFFFFFFFFFFFFFFFFFFFFFFFFF AND DUP4 PUSH20 0xFFFFFFFFFFFFFFFFFFFFFFFFFFFFFFFFFFFFFFFF AND PUSH32 0x17307EAB39AB6107E8899845AD3D59BD9653F200F220920489CA2B5937696C31 DUP4 PUSH1 0x40 MLOAD PUSH2 0x3156 SWAP2 SWAP1 PUSH2 0x3B59 JUMP JUMPDEST PUSH1 0x40 MLOAD DUP1 SWAP2 SUB SWAP1 LOG3 POP POP POP JUMP JUMPDEST PUSH1 0x0 PUSH20 0xFFFFFFFFFFFFFFFFFFFFFFFFFFFFFFFFFFFFFFFF AND DUP5 PUSH20 0xFFFFFFFFFFFFFFFFFFFFFFFFFFFFFFFFFFFFFFFF AND EQ ISZERO PUSH2 0x31D3 JUMPI PUSH1 0x40 MLOAD PUSH32 0x8C379A000000000000000000000000000000000000000000000000000000000 DUP2 MSTORE PUSH1 0x4 ADD PUSH2 0x31CA SWAP1 PUSH2 0x52B9 JUMP JUMPDEST PUSH1 0x40 MLOAD DUP1 SWAP2 SUB SWAP1 REVERT JUMPDEST PUSH1 0x0 PUSH2 0x31DD PUSH2 0x2A29 JUMP JUMPDEST SWAP1 POP PUSH1 0x0 PUSH2 0x31EA DUP6 PUSH2 0x35F6 JUMP JUMPDEST SWAP1 POP PUSH1 0x0 PUSH2 0x31F7 DUP6 PUSH2 0x35F6 JUMP JUMPDEST SWAP1 POP PUSH2 0x3207 DUP4 DUP10 DUP10 DUP6 DUP6 DUP10 PUSH2 0x33FF JUMP JUMPDEST PUSH1 0x0 DUP1 PUSH1 0x0 DUP9 DUP2 MSTORE PUSH1 0x20 ADD SWAP1 DUP2 MSTORE PUSH1 0x20 ADD PUSH1 0x0 KECCAK256 PUSH1 0x0 DUP11 PUSH20 0xFFFFFFFFFFFFFFFFFFFFFFFFFFFFFFFFFFFFFFFF AND PUSH20 0xFFFFFFFFFFFFFFFFFFFFFFFFFFFFFFFFFFFFFFFF AND DUP2 MSTORE PUSH1 0x20 ADD SWAP1 DUP2 MSTORE PUSH1 0x20 ADD PUSH1 0x0 KECCAK256 SLOAD SWAP1 POP DUP6 DUP2 LT ISZERO PUSH2 0x329E JUMPI PUSH1 0x40 MLOAD PUSH32 0x8C379A000000000000000000000000000000000000000000000000000000000 DUP2 MSTORE PUSH1 0x4 ADD PUSH2 0x3295 SWAP1 PUSH2 0x534B JUMP JUMPDEST PUSH1 0x40 MLOAD DUP1 SWAP2 SUB SWAP1 REVERT JUMPDEST DUP6 DUP2 SUB PUSH1 0x0 DUP1 DUP10 DUP2 MSTORE PUSH1 0x20 ADD SWAP1 DUP2 MSTORE PUSH1 0x20 ADD PUSH1 0x0 KECCAK256 PUSH1 0x0 DUP12 PUSH20 0xFFFFFFFFFFFFFFFFFFFFFFFFFFFFFFFFFFFFFFFF AND PUSH20 0xFFFFFFFFFFFFFFFFFFFFFFFFFFFFFFFFFFFFFFFF AND DUP2 MSTORE PUSH1 0x20 ADD SWAP1 DUP2 MSTORE PUSH1 0x20 ADD PUSH1 0x0 KECCAK256 DUP2 SWAP1 SSTORE POP DUP6 PUSH1 0x0 DUP1 DUP10 DUP2 MSTORE PUSH1 0x20 ADD SWAP1 DUP2 MSTORE PUSH1 0x20 ADD PUSH1 0x0 KECCAK256 PUSH1 0x0 DUP11 PUSH20 0xFFFFFFFFFFFFFFFFFFFFFFFFFFFFFFFFFFFFFFFF AND PUSH20 0xFFFFFFFFFFFFFFFFFFFFFFFFFFFFFFFFFFFFFFFF AND DUP2 MSTORE PUSH1 0x20 ADD SWAP1 DUP2 MSTORE PUSH1 0x20 ADD PUSH1 0x0 KECCAK256 PUSH1 0x0 DUP3 DUP3 SLOAD PUSH2 0x3353 SWAP2 SWAP1 PUSH2 0x536B JUMP JUMPDEST SWAP3 POP POP DUP2 SWAP1 SSTORE POP DUP8 PUSH20 0xFFFFFFFFFFFFFFFFFFFFFFFFFFFFFFFFFFFFFFFF AND DUP10 PUSH20 0xFFFFFFFFFFFFFFFFFFFFFFFFFFFFFFFFFFFFFFFF AND DUP6 PUSH20 0xFFFFFFFFFFFFFFFFFFFFFFFFFFFFFFFFFFFFFFFF AND PUSH32 0xC3D58168C5AE7397731D063D5BBF3D657854427343F4C083240F7AACAA2D0F62 DUP11 DUP11 PUSH1 0x40 MLOAD PUSH2 0x33D0 SWAP3 SWAP2 SWAP1 PUSH2 0x54BE JUMP JUMPDEST PUSH1 0x40 MLOAD DUP1 SWAP2 SUB SWAP1 LOG4 PUSH2 0x33E6 DUP5 DUP11 DUP11 DUP7 DUP7 DUP11 PUSH2 0x3407 JUMP JUMPDEST PUSH2 0x33F4 DUP5 DUP11 DUP11 DUP11 DUP11 DUP11 PUSH2 0x3670 JUMP JUMPDEST POP POP POP POP POP POP POP POP POP JUMP JUMPDEST POP POP POP POP POP POP JUMP JUMPDEST POP POP POP POP POP POP JUMP JUMPDEST PUSH2 0x342E DUP5 PUSH20 0xFFFFFFFFFFFFFFFFFFFFFFFFFFFFFFFFFFFFFFFF AND PUSH2 0x3857 JUMP JUMPDEST ISZERO PUSH2 0x35EE JUMPI DUP4 PUSH20 0xFFFFFFFFFFFFFFFFFFFFFFFFFFFFFFFFFFFFFFFF AND PUSH4 0xBC197C81 DUP8 DUP8 DUP7 DUP7 DUP7 PUSH1 0x40 MLOAD DUP7 PUSH4 0xFFFFFFFF AND PUSH1 0xE0 SHL DUP2 MSTORE PUSH1 0x4 ADD PUSH2 0x3474 SWAP6 SWAP5 SWAP4 SWAP3 SWAP2 SWAP1 PUSH2 0x55CE JUMP JUMPDEST PUSH1 0x20 PUSH1 0x40 MLOAD DUP1 DUP4 SUB DUP2 PUSH1 0x0 DUP8 DUP1 EXTCODESIZE ISZERO DUP1 ISZERO PUSH2 0x348E JUMPI PUSH1 0x0 DUP1 REVERT JUMPDEST POP GAS CALL SWAP3 POP POP POP DUP1 ISZERO PUSH2 0x34BF JUMPI POP PUSH1 0x40 MLOAD RETURNDATASIZE PUSH1 0x1F NOT PUSH1 0x1F DUP3 ADD AND DUP3 ADD DUP1 PUSH1 0x40 MSTORE POP DUP2 ADD SWAP1 PUSH2 0x34BC SWAP2 SWAP1 PUSH2 0x564B JUMP JUMPDEST PUSH1 0x1 JUMPDEST PUSH2 0x3565 JUMPI PUSH2 0x34CB PUSH2 0x5685 JUMP JUMPDEST DUP1 PUSH4 0x8C379A0 EQ ISZERO PUSH2 0x3528 JUMPI POP PUSH2 0x34E0 PUSH2 0x56A7 JUMP JUMPDEST DUP1 PUSH2 0x34EB JUMPI POP PUSH2 0x352A JUMP JUMPDEST DUP1 PUSH1 0x40 MLOAD PUSH32 0x8C379A000000000000000000000000000000000000000000000000000000000 DUP2 MSTORE PUSH1 0x4 ADD PUSH2 0x351F SWAP2 SWAP1 PUSH2 0x3C3A JUMP JUMPDEST PUSH1 0x40 MLOAD DUP1 SWAP2 SUB SWAP1 REVERT JUMPDEST POP JUMPDEST PUSH1 0x40 MLOAD PUSH32 0x8C379A000000000000000000000000000000000000000000000000000000000 DUP2 MSTORE PUSH1 0x4 ADD PUSH2 0x355C SWAP1 PUSH2 0x57AF JUMP JUMPDEST PUSH1 0x40 MLOAD DUP1 SWAP2 SUB SWAP1 REVERT JUMPDEST PUSH4 0xBC197C81 PUSH1 0xE0 SHL PUSH28 0xFFFFFFFFFFFFFFFFFFFFFFFFFFFFFFFFFFFFFFFFFFFFFFFFFFFFFFFF NOT AND DUP2 PUSH28 0xFFFFFFFFFFFFFFFFFFFFFFFFFFFFFFFFFFFFFFFFFFFFFFFFFFFFFFFF NOT AND EQ PUSH2 0x35EC JUMPI PUSH1 0x40 MLOAD PUSH32 0x8C379A000000000000000000000000000000000000000000000000000000000 DUP2 MSTORE PUSH1 0x4 ADD PUSH2 0x35E3 SWAP1 PUSH2 0x5841 JUMP JUMPDEST PUSH1 0x40 MLOAD DUP1 SWAP2 SUB SWAP1 REVERT JUMPDEST POP JUMPDEST POP POP POP POP POP POP JUMP JUMPDEST PUSH1 0x60 PUSH1 0x0 PUSH1 0x1 PUSH8 0xFFFFFFFFFFFFFFFF DUP2 GT ISZERO PUSH2 0x3615 JUMPI PUSH2 0x3614 PUSH2 0x3C66 JUMP JUMPDEST JUMPDEST PUSH1 0x40 MLOAD SWAP1 DUP1 DUP3 MSTORE DUP1 PUSH1 0x20 MUL PUSH1 0x20 ADD DUP3 ADD PUSH1 0x40 MSTORE DUP1 ISZERO PUSH2 0x3643 JUMPI DUP2 PUSH1 0x20 ADD PUSH1 0x20 DUP3 MUL DUP1 CALLDATASIZE DUP4 CALLDATACOPY DUP1 DUP3 ADD SWAP2 POP POP SWAP1 POP JUMPDEST POP SWAP1 POP DUP3 DUP2 PUSH1 0x0 DUP2 MLOAD DUP2 LT PUSH2 0x365B JUMPI PUSH2 0x365A PUSH2 0x4AD0 JUMP JUMPDEST JUMPDEST PUSH1 0x20 MUL PUSH1 0x20 ADD ADD DUP2 DUP2 MSTORE POP POP DUP1 SWAP2 POP POP SWAP2 SWAP1 POP JUMP JUMPDEST PUSH2 0x368F DUP5 PUSH20 0xFFFFFFFFFFFFFFFFFFFFFFFFFFFFFFFFFFFFFFFF AND PUSH2 0x3857 JUMP JUMPDEST ISZERO PUSH2 0x384F JUMPI DUP4 PUSH20 0xFFFFFFFFFFFFFFFFFFFFFFFFFFFFFFFFFFFFFFFF AND PUSH4 0xF23A6E61 DUP8 DUP8 DUP7 DUP7 DUP7 PUSH1 0x40 MLOAD DUP7 PUSH4 0xFFFFFFFF AND PUSH1 0xE0 SHL DUP2 MSTORE PUSH1 0x4 ADD PUSH2 0x36D5 SWAP6 SWAP5 SWAP4 SWAP3 SWAP2 SWAP1 PUSH2 0x5861 JUMP JUMPDEST PUSH1 0x20 PUSH1 0x40 MLOAD DUP1 DUP4 SUB DUP2 PUSH1 0x0 DUP8 DUP1 EXTCODESIZE ISZERO DUP1 ISZERO PUSH2 0x36EF JUMPI PUSH1 0x0 DUP1 REVERT JUMPDEST POP GAS CALL SWAP3 POP POP POP DUP1 ISZERO PUSH2 0x3720 JUMPI POP PUSH1 0x40 MLOAD RETURNDATASIZE PUSH1 0x1F NOT PUSH1 0x1F DUP3 ADD AND DUP3 ADD DUP1 PUSH1 0x40 MSTORE POP DUP2 ADD SWAP1 PUSH2 0x371D SWAP2 SWAP1 PUSH2 0x564B JUMP JUMPDEST PUSH1 0x1 JUMPDEST PUSH2 0x37C6 JUMPI PUSH2 0x372C PUSH2 0x5685 JUMP JUMPDEST DUP1 PUSH4 0x8C379A0 EQ ISZERO PUSH2 0x3789 JUMPI POP PUSH2 0x3741 PUSH2 0x56A7 JUMP JUMPDEST DUP1 PUSH2 0x374C JUMPI POP PUSH2 0x378B JUMP JUMPDEST DUP1 PUSH1 0x40 MLOAD PUSH32 0x8C379A000000000000000000000000000000000000000000000000000000000 DUP2 MSTORE PUSH1 0x4 ADD PUSH2 0x3780 SWAP2 SWAP1 PUSH2 0x3C3A JUMP JUMPDEST PUSH1 0x40 MLOAD DUP1 SWAP2 SUB SWAP1 REVERT JUMPDEST POP JUMPDEST PUSH1 0x40 MLOAD PUSH32 0x8C379A000000000000000000000000000000000000000000000000000000000 DUP2 MSTORE PUSH1 0x4 ADD PUSH2 0x37BD SWAP1 PUSH2 0x57AF JUMP JUMPDEST PUSH1 0x40 MLOAD DUP1 SWAP2 SUB SWAP1 REVERT JUMPDEST PUSH4 0xF23A6E61 PUSH1 0xE0 SHL PUSH28 0xFFFFFFFFFFFFFFFFFFFFFFFFFFFFFFFFFFFFFFFFFFFFFFFFFFFFFFFF NOT AND DUP2 PUSH28 0xFFFFFFFFFFFFFFFFFFFFFFFFFFFFFFFFFFFFFFFFFFFFFFFFFFFFFFFF NOT AND EQ PUSH2 0x384D JUMPI PUSH1 0x40 MLOAD PUSH32 0x8C379A000000000000000000000000000000000000000000000000000000000 DUP2 MSTORE PUSH1 0x4 ADD PUSH2 0x3844 SWAP1 PUSH2 0x5841 JUMP JUMPDEST PUSH1 0x40 MLOAD DUP1 SWAP2 SUB SWAP1 REVERT JUMPDEST POP JUMPDEST POP POP POP POP POP POP JUMP JUMPDEST PUSH1 0x0 DUP1 DUP3 PUSH20 0xFFFFFFFFFFFFFFFFFFFFFFFFFFFFFFFFFFFFFFFF AND EXTCODESIZE GT SWAP1 POP SWAP2 SWAP1 POP JUMP JUMPDEST DUP3 DUP1 SLOAD PUSH2 0x3886 SWAP1 PUSH2 0x4A32 JUMP JUMPDEST SWAP1 PUSH1 0x0 MSTORE PUSH1 0x20 PUSH1 0x0 KECCAK256 SWAP1 PUSH1 0x1F ADD PUSH1 0x20 SWAP1 DIV DUP2 ADD SWAP3 DUP3 PUSH2 0x38A8 JUMPI PUSH1 0x0 DUP6 SSTORE PUSH2 0x38EF JUMP JUMPDEST DUP3 PUSH1 0x1F LT PUSH2 0x38C1 JUMPI DUP1 MLOAD PUSH1 0xFF NOT AND DUP4 DUP1 ADD OR DUP6 SSTORE PUSH2 0x38EF JUMP JUMPDEST DUP3 DUP1 ADD PUSH1 0x1 ADD DUP6 SSTORE DUP3 ISZERO PUSH2 0x38EF JUMPI SWAP2 DUP3 ADD JUMPDEST DUP3 DUP2 GT ISZERO PUSH2 0x38EE JUMPI DUP3 MLOAD DUP3 SSTORE SWAP2 PUSH1 0x20 ADD SWAP2 SWAP1 PUSH1 0x1 ADD SWAP1 PUSH2 0x38D3 JUMP JUMPDEST JUMPDEST POP SWAP1 POP PUSH2 0x38FC SWAP2 SWAP1 PUSH2 0x398A JUMP JUMPDEST POP SWAP1 JUMP JUMPDEST DUP3 DUP1 SLOAD DUP3 DUP3 SSTORE SWAP1 PUSH1 0x0 MSTORE PUSH1 0x20 PUSH1 0x0 KECCAK256 SWAP1 DUP2 ADD SWAP3 DUP3 ISZERO PUSH2 0x3979 JUMPI SWAP2 PUSH1 0x20 MUL DUP3 ADD JUMPDEST DUP3 DUP2 GT ISZERO PUSH2 0x3978 JUMPI DUP3 MLOAD DUP3 PUSH1 0x0 PUSH2 0x100 EXP DUP2 SLOAD DUP2 PUSH20 0xFFFFFFFFFFFFFFFFFFFFFFFFFFFFFFFFFFFFFFFF MUL NOT AND SWAP1 DUP4 PUSH20 0xFFFFFFFFFFFFFFFFFFFFFFFFFFFFFFFFFFFFFFFF AND MUL OR SWAP1 SSTORE POP SWAP2 PUSH1 0x20 ADD SWAP2 SWAP1 PUSH1 0x1 ADD SWAP1 PUSH2 0x3920 JUMP JUMPDEST JUMPDEST POP SWAP1 POP PUSH2 0x3986 SWAP2 SWAP1 PUSH2 0x398A JUMP JUMPDEST POP SWAP1 JUMP JUMPDEST JUMPDEST DUP1 DUP3 GT ISZERO PUSH2 0x39A3 JUMPI PUSH1 0x0 DUP2 PUSH1 0x0 SWAP1 SSTORE POP PUSH1 0x1 ADD PUSH2 0x398B JUMP JUMPDEST POP SWAP1 JUMP JUMPDEST PUSH1 0x0 PUSH1 0x40 MLOAD SWAP1 POP SWAP1 JUMP JUMPDEST PUSH1 0x0 DUP1 REVERT JUMPDEST PUSH1 0x0 DUP1 REVERT JUMPDEST PUSH1 0x0 PUSH20 0xFFFFFFFFFFFFFFFFFFFFFFFFFFFFFFFFFFFFFFFF DUP3 AND SWAP1 POP SWAP2 SWAP1 POP JUMP JUMPDEST PUSH1 0x0 PUSH2 0x39E6 DUP3 PUSH2 0x39BB JUMP JUMPDEST SWAP1 POP SWAP2 SWAP1 POP JUMP JUMPDEST PUSH2 0x39F6 DUP2 PUSH2 0x39DB JUMP JUMPDEST DUP2 EQ PUSH2 0x3A01 JUMPI PUSH1 0x0 DUP1 REVERT JUMPDEST POP JUMP JUMPDEST PUSH1 0x0 DUP2 CALLDATALOAD SWAP1 POP PUSH2 0x3A13 DUP2 PUSH2 0x39ED JUMP JUMPDEST SWAP3 SWAP2 POP POP JUMP JUMPDEST PUSH1 0x0 DUP2 SWAP1 POP SWAP2 SWAP1 POP JUMP JUMPDEST PUSH2 0x3A2C DUP2 PUSH2 0x3A19 JUMP JUMPDEST DUP2 EQ PUSH2 0x3A37 JUMPI PUSH1 0x0 DUP1 REVERT JUMPDEST POP JUMP JUMPDEST PUSH1 0x0 DUP2 CALLDATALOAD SWAP1 POP PUSH2 0x3A49 DUP2 PUSH2 0x3A23 JUMP JUMPDEST SWAP3 SWAP2 POP POP JUMP JUMPDEST PUSH1 0x0 DUP1 PUSH1 0x40 DUP4 DUP6 SUB SLT ISZERO PUSH2 0x3A66 JUMPI PUSH2 0x3A65 PUSH2 0x39B1 JUMP JUMPDEST JUMPDEST PUSH1 0x0 PUSH2 0x3A74 DUP6 DUP3 DUP7 ADD PUSH2 0x3A04 JUMP JUMPDEST SWAP3 POP POP PUSH1 0x20 PUSH2 0x3A85 DUP6 DUP3 DUP7 ADD PUSH2 0x3A3A JUMP JUMPDEST SWAP2 POP POP SWAP3 POP SWAP3 SWAP1 POP JUMP JUMPDEST PUSH2 0x3A98 DUP2 PUSH2 0x3A19 JUMP JUMPDEST DUP3 MSTORE POP POP JUMP JUMPDEST PUSH1 0x0 PUSH1 0x20 DUP3 ADD SWAP1 POP PUSH2 0x3AB3 PUSH1 0x0 DUP4 ADD DUP5 PUSH2 0x3A8F JUMP JUMPDEST SWAP3 SWAP2 POP POP JUMP JUMPDEST PUSH1 0x0 PUSH32 0xFFFFFFFF00000000000000000000000000000000000000000000000000000000 DUP3 AND SWAP1 POP SWAP2 SWAP1 POP JUMP JUMPDEST PUSH2 0x3AEE DUP2 PUSH2 0x3AB9 JUMP JUMPDEST DUP2 EQ PUSH2 0x3AF9 JUMPI PUSH1 0x0 DUP1 REVERT JUMPDEST POP JUMP JUMPDEST PUSH1 0x0 DUP2 CALLDATALOAD SWAP1 POP PUSH2 0x3B0B DUP2 PUSH2 0x3AE5 JUMP JUMPDEST SWAP3 SWAP2 POP POP JUMP JUMPDEST PUSH1 0x0 PUSH1 0x20 DUP3 DUP5 SUB SLT ISZERO PUSH2 0x3B27 JUMPI PUSH2 0x3B26 PUSH2 0x39B1 JUMP JUMPDEST JUMPDEST PUSH1 0x0 PUSH2 0x3B35 DUP5 DUP3 DUP6 ADD PUSH2 0x3AFC JUMP JUMPDEST SWAP2 POP POP SWAP3 SWAP2 POP POP JUMP JUMPDEST PUSH1 0x0 DUP2 ISZERO ISZERO SWAP1 POP SWAP2 SWAP1 POP JUMP JUMPDEST PUSH2 0x3B53 DUP2 PUSH2 0x3B3E JUMP JUMPDEST DUP3 MSTORE POP POP JUMP JUMPDEST PUSH1 0x0 PUSH1 0x20 DUP3 ADD SWAP1 POP PUSH2 0x3B6E PUSH1 0x0 DUP4 ADD DUP5 PUSH2 0x3B4A JUMP JUMPDEST SWAP3 SWAP2 POP POP JUMP JUMPDEST PUSH1 0x0 PUSH1 0x20 DUP3 DUP5 SUB SLT ISZERO PUSH2 0x3B8A JUMPI PUSH2 0x3B89 PUSH2 0x39B1 JUMP JUMPDEST JUMPDEST PUSH1 0x0 PUSH2 0x3B98 DUP5 DUP3 DUP6 ADD PUSH2 0x3A3A JUMP JUMPDEST SWAP2 POP POP SWAP3 SWAP2 POP POP JUMP JUMPDEST PUSH1 0x0 DUP2 MLOAD SWAP1 POP SWAP2 SWAP1 POP JUMP JUMPDEST PUSH1 0x0 DUP3 DUP3 MSTORE PUSH1 0x20 DUP3 ADD SWAP1 POP SWAP3 SWAP2 POP POP JUMP JUMPDEST PUSH1 0x0 JUMPDEST DUP4 DUP2 LT ISZERO PUSH2 0x3BDB JUMPI DUP1 DUP3 ADD MLOAD DUP2 DUP5 ADD MSTORE PUSH1 0x20 DUP2 ADD SWAP1 POP PUSH2 0x3BC0 JUMP JUMPDEST DUP4 DUP2 GT ISZERO PUSH2 0x3BEA JUMPI PUSH1 0x0 DUP5 DUP5 ADD MSTORE JUMPDEST POP POP POP POP JUMP JUMPDEST PUSH1 0x0 PUSH1 0x1F NOT PUSH1 0x1F DUP4 ADD AND SWAP1 POP SWAP2 SWAP1 POP JUMP JUMPDEST PUSH1 0x0 PUSH2 0x3C0C DUP3 PUSH2 0x3BA1 JUMP JUMPDEST PUSH2 0x3C16 DUP2 DUP6 PUSH2 0x3BAC JUMP JUMPDEST SWAP4 POP PUSH2 0x3C26 DUP2 DUP6 PUSH1 0x20 DUP7 ADD PUSH2 0x3BBD JUMP JUMPDEST PUSH2 0x3C2F DUP2 PUSH2 0x3BF0 JUMP JUMPDEST DUP5 ADD SWAP2 POP POP SWAP3 SWAP2 POP POP JUMP JUMPDEST PUSH1 0x0 PUSH1 0x20 DUP3 ADD SWAP1 POP DUP2 DUP2 SUB PUSH1 0x0 DUP4 ADD MSTORE PUSH2 0x3C54 DUP2 DUP5 PUSH2 0x3C01 JUMP JUMPDEST SWAP1 POP SWAP3 SWAP2 POP POP JUMP JUMPDEST PUSH1 0x0 DUP1 REVERT JUMPDEST PUSH1 0x0 DUP1 REVERT JUMPDEST PUSH32 0x4E487B7100000000000000000000000000000000000000000000000000000000 PUSH1 0x0 MSTORE PUSH1 0x41 PUSH1 0x4 MSTORE PUSH1 0x24 PUSH1 0x0 REVERT JUMPDEST PUSH2 0x3C9E DUP3 PUSH2 0x3BF0 JUMP JUMPDEST DUP2 ADD DUP2 DUP2 LT PUSH8 0xFFFFFFFFFFFFFFFF DUP3 GT OR ISZERO PUSH2 0x3CBD JUMPI PUSH2 0x3CBC PUSH2 0x3C66 JUMP JUMPDEST JUMPDEST DUP1 PUSH1 0x40 MSTORE POP POP POP JUMP JUMPDEST PUSH1 0x0 PUSH2 0x3CD0 PUSH2 0x39A7 JUMP JUMPDEST SWAP1 POP PUSH2 0x3CDC DUP3 DUP3 PUSH2 0x3C95 JUMP JUMPDEST SWAP2 SWAP1 POP JUMP JUMPDEST PUSH1 0x0 PUSH8 0xFFFFFFFFFFFFFFFF DUP3 GT ISZERO PUSH2 0x3CFC JUMPI PUSH2 0x3CFB PUSH2 0x3C66 JUMP JUMPDEST JUMPDEST PUSH2 0x3D05 DUP3 PUSH2 0x3BF0 JUMP JUMPDEST SWAP1 POP PUSH1 0x20 DUP2 ADD SWAP1 POP SWAP2 SWAP1 POP JUMP JUMPDEST DUP3 DUP2 DUP4 CALLDATACOPY PUSH1 0x0 DUP4 DUP4 ADD MSTORE POP POP POP JUMP JUMPDEST PUSH1 0x0 PUSH2 0x3D34 PUSH2 0x3D2F DUP5 PUSH2 0x3CE1 JUMP JUMPDEST PUSH2 0x3CC6 JUMP JUMPDEST SWAP1 POP DUP3 DUP2 MSTORE PUSH1 0x20 DUP2 ADD DUP5 DUP5 DUP5 ADD GT ISZERO PUSH2 0x3D50 JUMPI PUSH2 0x3D4F PUSH2 0x3C61 JUMP JUMPDEST JUMPDEST PUSH2 0x3D5B DUP5 DUP3 DUP6 PUSH2 0x3D12 JUMP JUMPDEST POP SWAP4 SWAP3 POP POP POP JUMP JUMPDEST PUSH1 0x0 DUP3 PUSH1 0x1F DUP4 ADD SLT PUSH2 0x3D78 JUMPI PUSH2 0x3D77 PUSH2 0x3C5C JUMP JUMPDEST JUMPDEST DUP2 CALLDATALOAD PUSH2 0x3D88 DUP5 DUP3 PUSH1 0x20 DUP7 ADD PUSH2 0x3D21 JUMP JUMPDEST SWAP2 POP POP SWAP3 SWAP2 POP POP JUMP JUMPDEST PUSH1 0x0 DUP1 PUSH1 0x40 DUP4 DUP6 SUB SLT ISZERO PUSH2 0x3DA8 JUMPI PUSH2 0x3DA7 PUSH2 0x39B1 JUMP JUMPDEST JUMPDEST PUSH1 0x0 PUSH2 0x3DB6 DUP6 DUP3 DUP7 ADD PUSH2 0x3A3A JUMP JUMPDEST SWAP3 POP POP PUSH1 0x20 DUP4 ADD CALLDATALOAD PUSH8 0xFFFFFFFFFFFFFFFF DUP2 GT ISZERO PUSH2 0x3DD7 JUMPI PUSH2 0x3DD6 PUSH2 0x39B6 JUMP JUMPDEST JUMPDEST PUSH2 0x3DE3 DUP6 DUP3 DUP7 ADD PUSH2 0x3D63 JUMP JUMPDEST SWAP2 POP POP SWAP3 POP SWAP3 SWAP1 POP JUMP JUMPDEST PUSH1 0x0 PUSH8 0xFFFFFFFFFFFFFFFF DUP3 GT ISZERO PUSH2 0x3E08 JUMPI PUSH2 0x3E07 PUSH2 0x3C66 JUMP JUMPDEST JUMPDEST PUSH1 0x20 DUP3 MUL SWAP1 POP PUSH1 0x20 DUP2 ADD SWAP1 POP SWAP2 SWAP1 POP JUMP JUMPDEST PUSH1 0x0 DUP1 REVERT JUMPDEST PUSH1 0x0 PUSH2 0x3E31 PUSH2 0x3E2C DUP5 PUSH2 0x3DED JUMP JUMPDEST PUSH2 0x3CC6 JUMP JUMPDEST SWAP1 POP DUP1 DUP4 DUP3 MSTORE PUSH1 0x20 DUP3 ADD SWAP1 POP PUSH1 0x20 DUP5 MUL DUP4 ADD DUP6 DUP2 GT ISZERO PUSH2 0x3E54 JUMPI PUSH2 0x3E53 PUSH2 0x3E19 JUMP JUMPDEST JUMPDEST DUP4 JUMPDEST DUP2 DUP2 LT ISZERO PUSH2 0x3E7D JUMPI DUP1 PUSH2 0x3E69 DUP9 DUP3 PUSH2 0x3A3A JUMP JUMPDEST DUP5 MSTORE PUSH1 0x20 DUP5 ADD SWAP4 POP POP PUSH1 0x20 DUP2 ADD SWAP1 POP PUSH2 0x3E56 JUMP JUMPDEST POP POP POP SWAP4 SWAP3 POP POP POP JUMP JUMPDEST PUSH1 0x0 DUP3 PUSH1 0x1F DUP4 ADD SLT PUSH2 0x3E9C JUMPI PUSH2 0x3E9B PUSH2 0x3C5C JUMP JUMPDEST JUMPDEST DUP2 CALLDATALOAD PUSH2 0x3EAC DUP5 DUP3 PUSH1 0x20 DUP7 ADD PUSH2 0x3E1E JUMP JUMPDEST SWAP2 POP POP SWAP3 SWAP2 POP POP JUMP JUMPDEST PUSH1 0x0 PUSH8 0xFFFFFFFFFFFFFFFF DUP3 GT ISZERO PUSH2 0x3ED0 JUMPI PUSH2 0x3ECF PUSH2 0x3C66 JUMP JUMPDEST JUMPDEST PUSH2 0x3ED9 DUP3 PUSH2 0x3BF0 JUMP JUMPDEST SWAP1 POP PUSH1 0x20 DUP2 ADD SWAP1 POP SWAP2 SWAP1 POP JUMP JUMPDEST PUSH1 0x0 PUSH2 0x3EF9 PUSH2 0x3EF4 DUP5 PUSH2 0x3EB5 JUMP JUMPDEST PUSH2 0x3CC6 JUMP JUMPDEST SWAP1 POP DUP3 DUP2 MSTORE PUSH1 0x20 DUP2 ADD DUP5 DUP5 DUP5 ADD GT ISZERO PUSH2 0x3F15 JUMPI PUSH2 0x3F14 PUSH2 0x3C61 JUMP JUMPDEST JUMPDEST PUSH2 0x3F20 DUP5 DUP3 DUP6 PUSH2 0x3D12 JUMP JUMPDEST POP SWAP4 SWAP3 POP POP POP JUMP JUMPDEST PUSH1 0x0 DUP3 PUSH1 0x1F DUP4 ADD SLT PUSH2 0x3F3D JUMPI PUSH2 0x3F3C PUSH2 0x3C5C JUMP JUMPDEST JUMPDEST DUP2 CALLDATALOAD PUSH2 0x3F4D DUP5 DUP3 PUSH1 0x20 DUP7 ADD PUSH2 0x3EE6 JUMP JUMPDEST SWAP2 POP POP SWAP3 SWAP2 POP POP JUMP JUMPDEST PUSH1 0x0 DUP1 PUSH1 0x0 DUP1 PUSH1 0x0 PUSH1 0xA0 DUP7 DUP9 SUB SLT ISZERO PUSH2 0x3F72 JUMPI PUSH2 0x3F71 PUSH2 0x39B1 JUMP JUMPDEST JUMPDEST PUSH1 0x0 PUSH2 0x3F80 DUP9 DUP3 DUP10 ADD PUSH2 0x3A04 JUMP JUMPDEST SWAP6 POP POP PUSH1 0x20 PUSH2 0x3F91 DUP9 DUP3 DUP10 ADD PUSH2 0x3A04 JUMP JUMPDEST SWAP5 POP POP PUSH1 0x40 DUP7 ADD CALLDATALOAD PUSH8 0xFFFFFFFFFFFFFFFF DUP2 GT ISZERO PUSH2 0x3FB2 JUMPI PUSH2 0x3FB1 PUSH2 0x39B6 JUMP JUMPDEST JUMPDEST PUSH2 0x3FBE DUP9 DUP3 DUP10 ADD PUSH2 0x3E87 JUMP JUMPDEST SWAP4 POP POP PUSH1 0x60 DUP7 ADD CALLDATALOAD PUSH8 0xFFFFFFFFFFFFFFFF DUP2 GT ISZERO PUSH2 0x3FDF JUMPI PUSH2 0x3FDE PUSH2 0x39B6 JUMP JUMPDEST JUMPDEST PUSH2 0x3FEB DUP9 DUP3 DUP10 ADD PUSH2 0x3E87 JUMP JUMPDEST SWAP3 POP POP PUSH1 0x80 DUP7 ADD CALLDATALOAD PUSH8 0xFFFFFFFFFFFFFFFF DUP2 GT ISZERO PUSH2 0x400C JUMPI PUSH2 0x400B PUSH2 0x39B6 JUMP JUMPDEST JUMPDEST PUSH2 0x4018 DUP9 DUP3 DUP10 ADD PUSH2 0x3F28 JUMP JUMPDEST SWAP2 POP POP SWAP3 SWAP6 POP SWAP3 SWAP6 SWAP1 SWAP4 POP JUMP JUMPDEST PUSH1 0x0 DUP1 PUSH1 0x0 PUSH1 0x60 DUP5 DUP7 SUB SLT ISZERO PUSH2 0x403E JUMPI PUSH2 0x403D PUSH2 0x39B1 JUMP JUMPDEST JUMPDEST PUSH1 0x0 DUP5 ADD CALLDATALOAD PUSH8 0xFFFFFFFFFFFFFFFF DUP2 GT ISZERO PUSH2 0x405C JUMPI PUSH2 0x405B PUSH2 0x39B6 JUMP JUMPDEST JUMPDEST PUSH2 0x4068 DUP7 DUP3 DUP8 ADD PUSH2 0x3D63 JUMP JUMPDEST SWAP4 POP POP PUSH1 0x20 PUSH2 0x4079 DUP7 DUP3 DUP8 ADD PUSH2 0x3A3A JUMP JUMPDEST SWAP3 POP POP PUSH1 0x40 DUP5 ADD CALLDATALOAD PUSH8 0xFFFFFFFFFFFFFFFF DUP2 GT ISZERO PUSH2 0x409A JUMPI PUSH2 0x4099 PUSH2 0x39B6 JUMP JUMPDEST JUMPDEST PUSH2 0x40A6 DUP7 DUP3 DUP8 ADD PUSH2 0x3D63 JUMP JUMPDEST SWAP2 POP POP SWAP3 POP SWAP3 POP SWAP3 JUMP JUMPDEST PUSH2 0x40B9 DUP2 PUSH2 0x39DB JUMP JUMPDEST DUP3 MSTORE POP POP JUMP JUMPDEST PUSH1 0x0 PUSH1 0x20 DUP3 ADD SWAP1 POP PUSH2 0x40D4 PUSH1 0x0 DUP4 ADD DUP5 PUSH2 0x40B0 JUMP JUMPDEST SWAP3 SWAP2 POP POP JUMP JUMPDEST PUSH1 0x0 DUP1 PUSH1 0x40 DUP4 DUP6 SUB SLT ISZERO PUSH2 0x40F1 JUMPI PUSH2 0x40F0 PUSH2 0x39B1 JUMP JUMPDEST JUMPDEST PUSH1 0x0 PUSH2 0x40FF DUP6 DUP3 DUP7 ADD PUSH2 0x3A3A JUMP JUMPDEST SWAP3 POP POP PUSH1 0x20 PUSH2 0x4110 DUP6 DUP3 DUP7 ADD PUSH2 0x3A04 JUMP JUMPDEST SWAP2 POP POP SWAP3 POP SWAP3 SWAP1 POP JUMP JUMPDEST PUSH1 0x0 PUSH8 0xFFFFFFFFFFFFFFFF DUP3 GT ISZERO PUSH2 0x4135 JUMPI PUSH2 0x4134 PUSH2 0x3C66 JUMP JUMPDEST JUMPDEST PUSH1 0x20 DUP3 MUL SWAP1 POP PUSH1 0x20 DUP2 ADD SWAP1 POP SWAP2 SWAP1 POP JUMP JUMPDEST PUSH1 0x0 PUSH2 0x4159 PUSH2 0x4154 DUP5 PUSH2 0x411A JUMP JUMPDEST PUSH2 0x3CC6 JUMP JUMPDEST SWAP1 POP DUP1 DUP4 DUP3 MSTORE PUSH1 0x20 DUP3 ADD SWAP1 POP PUSH1 0x20 DUP5 MUL DUP4 ADD DUP6 DUP2 GT ISZERO PUSH2 0x417C JUMPI PUSH2 0x417B PUSH2 0x3E19 JUMP JUMPDEST JUMPDEST DUP4 JUMPDEST DUP2 DUP2 LT ISZERO PUSH2 0x41A5 JUMPI DUP1 PUSH2 0x4191 DUP9 DUP3 PUSH2 0x3A04 JUMP JUMPDEST DUP5 MSTORE PUSH1 0x20 DUP5 ADD SWAP4 POP POP PUSH1 0x20 DUP2 ADD SWAP1 POP PUSH2 0x417E JUMP JUMPDEST POP POP POP SWAP4 SWAP3 POP POP POP JUMP JUMPDEST PUSH1 0x0 DUP3 PUSH1 0x1F DUP4 ADD SLT PUSH2 0x41C4 JUMPI PUSH2 0x41C3 PUSH2 0x3C5C JUMP JUMPDEST JUMPDEST DUP2 CALLDATALOAD PUSH2 0x41D4 DUP5 DUP3 PUSH1 0x20 DUP7 ADD PUSH2 0x4146 JUMP JUMPDEST SWAP2 POP POP SWAP3 SWAP2 POP POP JUMP JUMPDEST PUSH1 0x0 DUP1 PUSH1 0x40 DUP4 DUP6 SUB SLT ISZERO PUSH2 0x41F4 JUMPI PUSH2 0x41F3 PUSH2 0x39B1 JUMP JUMPDEST JUMPDEST PUSH1 0x0 DUP4 ADD CALLDATALOAD PUSH8 0xFFFFFFFFFFFFFFFF DUP2 GT ISZERO PUSH2 0x4212 JUMPI PUSH2 0x4211 PUSH2 0x39B6 JUMP JUMPDEST JUMPDEST PUSH2 0x421E DUP6 DUP3 DUP7 ADD PUSH2 0x41AF JUMP JUMPDEST SWAP3 POP POP PUSH1 0x20 DUP4 ADD CALLDATALOAD PUSH8 0xFFFFFFFFFFFFFFFF DUP2 GT ISZERO PUSH2 0x423F JUMPI PUSH2 0x423E PUSH2 0x39B6 JUMP JUMPDEST JUMPDEST PUSH2 0x424B DUP6 DUP3 DUP7 ADD PUSH2 0x3E87 JUMP JUMPDEST SWAP2 POP POP SWAP3 POP SWAP3 SWAP1 POP JUMP JUMPDEST PUSH1 0x0 DUP2 MLOAD SWAP1 POP SWAP2 SWAP1 POP JUMP JUMPDEST PUSH1 0x0 DUP3 DUP3 MSTORE PUSH1 0x20 DUP3 ADD SWAP1 POP SWAP3 SWAP2 POP POP JUMP JUMPDEST PUSH1 0x0 DUP2 SWAP1 POP PUSH1 0x20 DUP3 ADD SWAP1 POP SWAP2 SWAP1 POP JUMP JUMPDEST PUSH2 0x428A DUP2 PUSH2 0x3A19 JUMP JUMPDEST DUP3 MSTORE POP POP JUMP JUMPDEST PUSH1 0x0 PUSH2 0x429C DUP4 DUP4 PUSH2 0x4281 JUMP JUMPDEST PUSH1 0x20 DUP4 ADD SWAP1 POP SWAP3 SWAP2 POP POP JUMP JUMPDEST PUSH1 0x0 PUSH1 0x20 DUP3 ADD SWAP1 POP SWAP2 SWAP1 POP JUMP JUMPDEST PUSH1 0x0 PUSH2 0x42C0 DUP3 PUSH2 0x4255 JUMP JUMPDEST PUSH2 0x42CA DUP2 DUP6 PUSH2 0x4260 JUMP JUMPDEST SWAP4 POP PUSH2 0x42D5 DUP4 PUSH2 0x4271 JUMP JUMPDEST DUP1 PUSH1 0x0 JUMPDEST DUP4 DUP2 LT ISZERO PUSH2 0x4306 JUMPI DUP2 MLOAD PUSH2 0x42ED DUP9 DUP3 PUSH2 0x4290 JUMP JUMPDEST SWAP8 POP PUSH2 0x42F8 DUP4 PUSH2 0x42A8 JUMP JUMPDEST SWAP3 POP POP PUSH1 0x1 DUP2 ADD SWAP1 POP PUSH2 0x42D9 JUMP JUMPDEST POP DUP6 SWAP4 POP POP POP POP SWAP3 SWAP2 POP POP JUMP JUMPDEST PUSH1 0x0 PUSH1 0x20 DUP3 ADD SWAP1 POP DUP2 DUP2 SUB PUSH1 0x0 DUP4 ADD MSTORE PUSH2 0x432D DUP2 DUP5 PUSH2 0x42B5 JUMP JUMPDEST SWAP1 POP SWAP3 SWAP2 POP POP JUMP JUMPDEST PUSH2 0x433E DUP2 PUSH2 0x3B3E JUMP JUMPDEST DUP2 EQ PUSH2 0x4349 JUMPI PUSH1 0x0 DUP1 REVERT JUMPDEST POP JUMP JUMPDEST PUSH1 0x0 DUP2 CALLDATALOAD SWAP1 POP PUSH2 0x435B DUP2 PUSH2 0x4335 JUMP JUMPDEST SWAP3 SWAP2 POP POP JUMP JUMPDEST PUSH1 0x0 DUP1 PUSH1 0x0 PUSH1 0x60 DUP5 DUP7 SUB SLT ISZERO PUSH2 0x437A JUMPI PUSH2 0x4379 PUSH2 0x39B1 JUMP JUMPDEST JUMPDEST PUSH1 0x0 PUSH2 0x4388 DUP7 DUP3 DUP8 ADD PUSH2 0x3A3A JUMP JUMPDEST SWAP4 POP POP PUSH1 0x20 PUSH2 0x4399 DUP7 DUP3 DUP8 ADD PUSH2 0x3A04 JUMP JUMPDEST SWAP3 POP POP PUSH1 0x40 PUSH2 0x43AA DUP7 DUP3 DUP8 ADD PUSH2 0x434C JUMP JUMPDEST SWAP2 POP POP SWAP3 POP SWAP3 POP SWAP3 JUMP JUMPDEST PUSH1 0x0 DUP1 PUSH1 0x0 PUSH1 0x60 DUP5 DUP7 SUB SLT ISZERO PUSH2 0x43CD JUMPI PUSH2 0x43CC PUSH2 0x39B1 JUMP JUMPDEST JUMPDEST PUSH1 0x0 PUSH2 0x43DB DUP7 DUP3 DUP8 ADD PUSH2 0x3A3A JUMP JUMPDEST SWAP4 POP POP PUSH1 0x20 PUSH2 0x43EC DUP7 DUP3 DUP8 ADD PUSH2 0x3A3A JUMP JUMPDEST SWAP3 POP POP PUSH1 0x40 PUSH2 0x43FD DUP7 DUP3 DUP8 ADD PUSH2 0x3A3A JUMP JUMPDEST SWAP2 POP POP SWAP3 POP SWAP3 POP SWAP3 JUMP JUMPDEST PUSH1 0x0 PUSH1 0xA0 DUP3 ADD SWAP1 POP PUSH2 0x441C PUSH1 0x0 DUP4 ADD DUP9 PUSH2 0x3A8F JUMP JUMPDEST PUSH2 0x4429 PUSH1 0x20 DUP4 ADD DUP8 PUSH2 0x3A8F JUMP JUMPDEST PUSH2 0x4436 PUSH1 0x40 DUP4 ADD DUP7 PUSH2 0x3A8F JUMP JUMPDEST DUP2 DUP2 SUB PUSH1 0x60 DUP4 ADD MSTORE PUSH2 0x4448 DUP2 DUP6 PUSH2 0x3C01 JUMP JUMPDEST SWAP1 POP PUSH2 0x4457 PUSH1 0x80 DUP4 ADD DUP5 PUSH2 0x40B0 JUMP JUMPDEST SWAP7 SWAP6 POP POP POP POP POP POP JUMP JUMPDEST PUSH1 0x0 DUP1 PUSH1 0x40 DUP4 DUP6 SUB SLT ISZERO PUSH2 0x4478 JUMPI PUSH2 0x4477 PUSH2 0x39B1 JUMP JUMPDEST JUMPDEST PUSH1 0x0 PUSH2 0x4486 DUP6 DUP3 DUP7 ADD PUSH2 0x3A3A JUMP JUMPDEST SWAP3 POP POP PUSH1 0x20 PUSH2 0x4497 DUP6 DUP3 DUP7 ADD PUSH2 0x3A3A JUMP JUMPDEST SWAP2 POP POP SWAP3 POP SWAP3 SWAP1 POP JUMP JUMPDEST PUSH1 0x0 DUP1 PUSH1 0x40 DUP4 DUP6 SUB SLT ISZERO PUSH2 0x44B8 JUMPI PUSH2 0x44B7 PUSH2 0x39B1 JUMP JUMPDEST JUMPDEST PUSH1 0x0 PUSH2 0x44C6 DUP6 DUP3 DUP7 ADD PUSH2 0x3A04 JUMP JUMPDEST SWAP3 POP POP PUSH1 0x20 PUSH2 0x44D7 DUP6 DUP3 DUP7 ADD PUSH2 0x434C JUMP JUMPDEST SWAP2 POP POP SWAP3 POP SWAP3 SWAP1 POP JUMP JUMPDEST PUSH1 0x0 PUSH1 0xC0 DUP3 ADD SWAP1 POP PUSH2 0x44F6 PUSH1 0x0 DUP4 ADD DUP10 PUSH2 0x3A8F JUMP JUMPDEST PUSH2 0x4503 PUSH1 0x20 DUP4 ADD DUP9 PUSH2 0x3A8F JUMP JUMPDEST PUSH2 0x4510 PUSH1 0x40 DUP4 ADD DUP8 PUSH2 0x3A8F JUMP JUMPDEST PUSH2 0x451D PUSH1 0x60 DUP4 ADD DUP7 PUSH2 0x40B0 JUMP JUMPDEST PUSH2 0x452A PUSH1 0x80 DUP4 ADD DUP6 PUSH2 0x40B0 JUMP JUMPDEST DUP2 DUP2 SUB PUSH1 0xA0 DUP4 ADD MSTORE PUSH2 0x453C DUP2 DUP5 PUSH2 0x3C01 JUMP JUMPDEST SWAP1 POP SWAP8 SWAP7 POP POP POP POP POP POP POP JUMP JUMPDEST PUSH1 0x0 PUSH1 0xA0 DUP3 ADD SWAP1 POP PUSH2 0x455E PUSH1 0x0 DUP4 ADD DUP9 PUSH2 0x3A8F JUMP JUMPDEST PUSH2 0x456B PUSH1 0x20 DUP4 ADD DUP8 PUSH2 0x3A8F JUMP JUMPDEST DUP2 DUP2 SUB PUSH1 0x40 DUP4 ADD MSTORE PUSH2 0x457D DUP2 DUP7 PUSH2 0x3C01 JUMP JUMPDEST SWAP1 POP DUP2 DUP2 SUB PUSH1 0x60 DUP4 ADD MSTORE PUSH2 0x4591 DUP2 DUP6 PUSH2 0x3C01 JUMP JUMPDEST SWAP1 POP PUSH2 0x45A0 PUSH1 0x80 DUP4 ADD DUP5 PUSH2 0x40B0 JUMP JUMPDEST SWAP7 SWAP6 POP POP POP POP POP POP JUMP JUMPDEST PUSH1 0x0 DUP2 MLOAD SWAP1 POP SWAP2 SWAP1 POP JUMP JUMPDEST PUSH1 0x0 DUP3 DUP3 MSTORE PUSH1 0x20 DUP3 ADD SWAP1 POP SWAP3 SWAP2 POP POP JUMP JUMPDEST PUSH1 0x0 DUP2 SWAP1 POP PUSH1 0x20 DUP3 ADD SWAP1 POP SWAP2 SWAP1 POP JUMP JUMPDEST PUSH2 0x45DF DUP2 PUSH2 0x39DB JUMP JUMPDEST DUP3 MSTORE POP POP JUMP JUMPDEST PUSH1 0x0 PUSH2 0x45F1 DUP4 DUP4 PUSH2 0x45D6 JUMP JUMPDEST PUSH1 0x20 DUP4 ADD SWAP1 POP SWAP3 SWAP2 POP POP JUMP JUMPDEST PUSH1 0x0 PUSH1 0x20 DUP3 ADD SWAP1 POP SWAP2 SWAP1 POP JUMP JUMPDEST PUSH1 0x0 PUSH2 0x4615 DUP3 PUSH2 0x45AA JUMP JUMPDEST PUSH2 0x461F DUP2 DUP6 PUSH2 0x45B5 JUMP JUMPDEST SWAP4 POP PUSH2 0x462A DUP4 PUSH2 0x45C6 JUMP JUMPDEST DUP1 PUSH1 0x0 JUMPDEST DUP4 DUP2 LT ISZERO PUSH2 0x465B JUMPI DUP2 MLOAD PUSH2 0x4642 DUP9 DUP3 PUSH2 0x45E5 JUMP JUMPDEST SWAP8 POP PUSH2 0x464D DUP4 PUSH2 0x45FD JUMP JUMPDEST SWAP3 POP POP PUSH1 0x1 DUP2 ADD SWAP1 POP PUSH2 0x462E JUMP JUMPDEST POP DUP6 SWAP4 POP POP POP POP SWAP3 SWAP2 POP POP JUMP JUMPDEST PUSH1 0x0 DUP2 MLOAD SWAP1 POP SWAP2 SWAP1 POP JUMP JUMPDEST PUSH1 0x0 DUP3 DUP3 MSTORE PUSH1 0x20 DUP3 ADD SWAP1 POP SWAP3 SWAP2 POP POP JUMP JUMPDEST PUSH1 0x0 DUP2 SWAP1 POP PUSH1 0x20 DUP3 ADD SWAP1 POP SWAP2 SWAP1 POP JUMP JUMPDEST PUSH1 0x0 DUP2 MLOAD SWAP1 POP SWAP2 SWAP1 POP JUMP JUMPDEST PUSH1 0x0 DUP3 DUP3 MSTORE PUSH1 0x20 DUP3 ADD SWAP1 POP SWAP3 SWAP2 POP POP JUMP JUMPDEST PUSH1 0x0 DUP2 SWAP1 POP PUSH1 0x20 DUP3 ADD SWAP1 POP SWAP2 SWAP1 POP JUMP JUMPDEST PUSH1 0x0 DUP3 DUP3 MSTORE PUSH1 0x20 DUP3 ADD SWAP1 POP SWAP3 SWAP2 POP POP JUMP JUMPDEST PUSH1 0x0 PUSH2 0x46DC DUP3 PUSH2 0x3BA1 JUMP JUMPDEST PUSH2 0x46E6 DUP2 DUP6 PUSH2 0x46C0 JUMP JUMPDEST SWAP4 POP PUSH2 0x46F6 DUP2 DUP6 PUSH1 0x20 DUP7 ADD PUSH2 0x3BBD JUMP JUMPDEST PUSH2 0x46FF DUP2 PUSH2 0x3BF0 JUMP JUMPDEST DUP5 ADD SWAP2 POP POP SWAP3 SWAP2 POP POP JUMP JUMPDEST PUSH1 0x0 PUSH2 0x4716 DUP4 DUP4 PUSH2 0x46D1 JUMP JUMPDEST SWAP1 POP SWAP3 SWAP2 POP POP JUMP JUMPDEST PUSH1 0x0 PUSH1 0x20 DUP3 ADD SWAP1 POP SWAP2 SWAP1 POP JUMP JUMPDEST PUSH1 0x0 PUSH2 0x4736 DUP3 PUSH2 0x4694 JUMP JUMPDEST PUSH2 0x4740 DUP2 DUP6 PUSH2 0x469F JUMP JUMPDEST SWAP4 POP DUP4 PUSH1 0x20 DUP3 MUL DUP6 ADD PUSH2 0x4752 DUP6 PUSH2 0x46B0 JUMP JUMPDEST DUP1 PUSH1 0x0 JUMPDEST DUP6 DUP2 LT ISZERO PUSH2 0x478E JUMPI DUP5 DUP5 SUB DUP10 MSTORE DUP2 MLOAD PUSH2 0x476F DUP6 DUP3 PUSH2 0x470A JUMP JUMPDEST SWAP5 POP PUSH2 0x477A DUP4 PUSH2 0x471E JUMP JUMPDEST SWAP3 POP PUSH1 0x20 DUP11 ADD SWAP10 POP POP PUSH1 0x1 DUP2 ADD SWAP1 POP PUSH2 0x4756 JUMP JUMPDEST POP DUP3 SWAP8 POP DUP8 SWAP6 POP POP POP POP POP POP SWAP3 SWAP2 POP POP JUMP JUMPDEST PUSH1 0x0 PUSH2 0x47AC DUP4 DUP4 PUSH2 0x472B JUMP JUMPDEST SWAP1 POP SWAP3 SWAP2 POP POP JUMP JUMPDEST PUSH1 0x0 PUSH1 0x20 DUP3 ADD SWAP1 POP SWAP2 SWAP1 POP JUMP JUMPDEST PUSH1 0x0 PUSH2 0x47CC DUP3 PUSH2 0x4668 JUMP JUMPDEST PUSH2 0x47D6 DUP2 DUP6 PUSH2 0x4673 JUMP JUMPDEST SWAP4 POP DUP4 PUSH1 0x20 DUP3 MUL DUP6 ADD PUSH2 0x47E8 DUP6 PUSH2 0x4684 JUMP JUMPDEST DUP1 PUSH1 0x0 JUMPDEST DUP6 DUP2 LT ISZERO PUSH2 0x4824 JUMPI DUP5 DUP5 SUB DUP10 MSTORE DUP2 MLOAD PUSH2 0x4805 DUP6 DUP3 PUSH2 0x47A0 JUMP JUMPDEST SWAP5 POP PUSH2 0x4810 DUP4 PUSH2 0x47B4 JUMP JUMPDEST SWAP3 POP PUSH1 0x20 DUP11 ADD SWAP10 POP POP PUSH1 0x1 DUP2 ADD SWAP1 POP PUSH2 0x47EC JUMP JUMPDEST POP DUP3 SWAP8 POP DUP8 SWAP6 POP POP POP POP POP POP SWAP3 SWAP2 POP POP JUMP JUMPDEST PUSH1 0x0 PUSH1 0x40 DUP3 ADD SWAP1 POP DUP2 DUP2 SUB PUSH1 0x0 DUP4 ADD MSTORE PUSH2 0x4850 DUP2 DUP6 PUSH2 0x460A JUMP JUMPDEST SWAP1 POP DUP2 DUP2 SUB PUSH1 0x20 DUP4 ADD MSTORE PUSH2 0x4864 DUP2 DUP5 PUSH2 0x47C1 JUMP JUMPDEST SWAP1 POP SWAP4 SWAP3 POP POP POP JUMP JUMPDEST PUSH1 0x0 PUSH1 0x20 DUP3 DUP5 SUB SLT ISZERO PUSH2 0x4883 JUMPI PUSH2 0x4882 PUSH2 0x39B1 JUMP JUMPDEST JUMPDEST PUSH1 0x0 PUSH2 0x4891 DUP5 DUP3 DUP6 ADD PUSH2 0x3A04 JUMP JUMPDEST SWAP2 POP POP SWAP3 SWAP2 POP POP JUMP JUMPDEST PUSH1 0x0 DUP1 PUSH1 0x40 DUP4 DUP6 SUB SLT ISZERO PUSH2 0x48B1 JUMPI PUSH2 0x48B0 PUSH2 0x39B1 JUMP JUMPDEST JUMPDEST PUSH1 0x0 PUSH2 0x48BF DUP6 DUP3 DUP7 ADD PUSH2 0x3A04 JUMP JUMPDEST SWAP3 POP POP PUSH1 0x20 PUSH2 0x48D0 DUP6 DUP3 DUP7 ADD PUSH2 0x3A04 JUMP JUMPDEST SWAP2 POP POP SWAP3 POP SWAP3 SWAP1 POP JUMP JUMPDEST PUSH1 0x0 DUP1 PUSH1 0x0 DUP1 PUSH1 0x0 PUSH1 0xA0 DUP7 DUP9 SUB SLT ISZERO PUSH2 0x48F6 JUMPI PUSH2 0x48F5 PUSH2 0x39B1 JUMP JUMPDEST JUMPDEST PUSH1 0x0 PUSH2 0x4904 DUP9 DUP3 DUP10 ADD PUSH2 0x3A04 JUMP JUMPDEST SWAP6 POP POP PUSH1 0x20 PUSH2 0x4915 DUP9 DUP3 DUP10 ADD PUSH2 0x3A04 JUMP JUMPDEST SWAP5 POP POP PUSH1 0x40 PUSH2 0x4926 DUP9 DUP3 DUP10 ADD PUSH2 0x3A3A JUMP JUMPDEST SWAP4 POP POP PUSH1 0x60 PUSH2 0x4937 DUP9 DUP3 DUP10 ADD PUSH2 0x3A3A JUMP JUMPDEST SWAP3 POP POP PUSH1 0x80 DUP7 ADD CALLDATALOAD PUSH8 0xFFFFFFFFFFFFFFFF DUP2 GT ISZERO PUSH2 0x4958 JUMPI PUSH2 0x4957 PUSH2 0x39B6 JUMP JUMPDEST JUMPDEST PUSH2 0x4964 DUP9 DUP3 DUP10 ADD PUSH2 0x3F28 JUMP JUMPDEST SWAP2 POP POP SWAP3 SWAP6 POP SWAP3 SWAP6 SWAP1 SWAP4 POP JUMP JUMPDEST PUSH32 0x455243313135353A2061646472657373207A65726F206973206E6F7420612076 PUSH1 0x0 DUP3 ADD MSTORE PUSH32 0x616C6964206F776E657200000000000000000000000000000000000000000000 PUSH1 0x20 DUP3 ADD MSTORE POP JUMP JUMPDEST PUSH1 0x0 PUSH2 0x49CD PUSH1 0x2A DUP4 PUSH2 0x3BAC JUMP JUMPDEST SWAP2 POP PUSH2 0x49D8 DUP3 PUSH2 0x4971 JUMP JUMPDEST PUSH1 0x40 DUP3 ADD SWAP1 POP SWAP2 SWAP1 POP JUMP JUMPDEST PUSH1 0x0 PUSH1 0x20 DUP3 ADD SWAP1 POP DUP2 DUP2 SUB PUSH1 0x0 DUP4 ADD MSTORE PUSH2 0x49FC DUP2 PUSH2 0x49C0 JUMP JUMPDEST SWAP1 POP SWAP2 SWAP1 POP JUMP JUMPDEST PUSH32 0x4E487B7100000000000000000000000000000000000000000000000000000000 PUSH1 0x0 MSTORE PUSH1 0x22 PUSH1 0x4 MSTORE PUSH1 0x24 PUSH1 0x0 REVERT JUMPDEST PUSH1 0x0 PUSH1 0x2 DUP3 DIV SWAP1 POP PUSH1 0x1 DUP3 AND DUP1 PUSH2 0x4A4A JUMPI PUSH1 0x7F DUP3 AND SWAP2 POP JUMPDEST PUSH1 0x20 DUP3 LT DUP2 EQ ISZERO PUSH2 0x4A5E JUMPI PUSH2 0x4A5D PUSH2 0x4A03 JUMP JUMPDEST JUMPDEST POP SWAP2 SWAP1 POP JUMP JUMPDEST PUSH32 0x4F7264657220646F6573206E6F74206578697374000000000000000000000000 PUSH1 0x0 DUP3 ADD MSTORE POP JUMP JUMPDEST PUSH1 0x0 PUSH2 0x4A9A PUSH1 0x14 DUP4 PUSH2 0x3BAC JUMP JUMPDEST SWAP2 POP PUSH2 0x4AA5 DUP3 PUSH2 0x4A64 JUMP JUMPDEST PUSH1 0x20 DUP3 ADD SWAP1 POP SWAP2 SWAP1 POP JUMP JUMPDEST PUSH1 0x0 PUSH1 0x20 DUP3 ADD SWAP1 POP DUP2 DUP2 SUB PUSH1 0x0 DUP4 ADD MSTORE PUSH2 0x4AC9 DUP2 PUSH2 0x4A8D JUMP JUMPDEST SWAP1 POP SWAP2 SWAP1 POP JUMP JUMPDEST PUSH32 0x4E487B7100000000000000000000000000000000000000000000000000000000 PUSH1 0x0 MSTORE PUSH1 0x32 PUSH1 0x4 MSTORE PUSH1 0x24 PUSH1 0x0 REVERT JUMPDEST PUSH32 0x4E487B7100000000000000000000000000000000000000000000000000000000 PUSH1 0x0 MSTORE PUSH1 0x11 PUSH1 0x4 MSTORE PUSH1 0x24 PUSH1 0x0 REVERT JUMPDEST PUSH1 0x0 PUSH2 0x4B39 DUP3 PUSH2 0x3A19 JUMP JUMPDEST SWAP2 POP PUSH32 0xFFFFFFFFFFFFFFFFFFFFFFFFFFFFFFFFFFFFFFFFFFFFFFFFFFFFFFFFFFFFFFFF DUP3 EQ ISZERO PUSH2 0x4B6C JUMPI PUSH2 0x4B6B PUSH2 0x4AFF JUMP JUMPDEST JUMPDEST PUSH1 0x1 DUP3 ADD SWAP1 POP SWAP2 SWAP1 POP JUMP JUMPDEST PUSH32 0x4E6F7420616E2061737369676E656420696E7465726D65646961727900000000 PUSH1 0x0 DUP3 ADD MSTORE POP JUMP JUMPDEST PUSH1 0x0 PUSH2 0x4BAD PUSH1 0x1C DUP4 PUSH2 0x3BAC JUMP JUMPDEST SWAP2 POP PUSH2 0x4BB8 DUP3 PUSH2 0x4B77 JUMP JUMPDEST PUSH1 0x20 DUP3 ADD SWAP1 POP SWAP2 SWAP1 POP JUMP JUMPDEST PUSH1 0x0 PUSH1 0x20 DUP3 ADD SWAP1 POP DUP2 DUP2 SUB PUSH1 0x0 DUP4 ADD MSTORE PUSH2 0x4BDC DUP2 PUSH2 0x4BA0 JUMP JUMPDEST SWAP1 POP SWAP2 SWAP1 POP JUMP JUMPDEST PUSH32 0x496E7465726D65646961727920616363657373206E6F74206163746976650000 PUSH1 0x0 DUP3 ADD MSTORE POP JUMP JUMPDEST PUSH1 0x0 PUSH2 0x4C19 PUSH1 0x1E DUP4 PUSH2 0x3BAC JUMP JUMPDEST SWAP2 POP PUSH2 0x4C24 DUP3 PUSH2 0x4BE3 JUMP JUMPDEST PUSH1 0x20 DUP3 ADD SWAP1 POP SWAP2 SWAP1 POP JUMP JUMPDEST PUSH1 0x0 PUSH1 0x20 DUP3 ADD SWAP1 POP DUP2 DUP2 SUB PUSH1 0x0 DUP4 ADD MSTORE PUSH2 0x4C48 DUP2 PUSH2 0x4C0C JUMP JUMPDEST SWAP1 POP SWAP2 SWAP1 POP JUMP JUMPDEST PUSH1 0x0 DUP2 SWAP1 POP SWAP3 SWAP2 POP POP JUMP JUMPDEST PUSH1 0x0 DUP2 SWAP1 POP DUP2 PUSH1 0x0 MSTORE PUSH1 0x20 PUSH1 0x0 KECCAK256 SWAP1 POP SWAP2 SWAP1 POP JUMP JUMPDEST PUSH1 0x0 DUP2 SLOAD PUSH2 0x4C7C DUP2 PUSH2 0x4A32 JUMP JUMPDEST PUSH2 0x4C86 DUP2 DUP7 PUSH2 0x4C4F JUMP JUMPDEST SWAP5 POP PUSH1 0x1 DUP3 AND PUSH1 0x0 DUP2 EQ PUSH2 0x4CA1 JUMPI PUSH1 0x1 DUP2 EQ PUSH2 0x4CB2 JUMPI PUSH2 0x4CE5 JUMP JUMPDEST PUSH1 0xFF NOT DUP4 AND DUP7 MSTORE DUP2 DUP7 ADD SWAP4 POP PUSH2 0x4CE5 JUMP JUMPDEST PUSH2 0x4CBB DUP6 PUSH2 0x4C5A JUMP JUMPDEST PUSH1 0x0 JUMPDEST DUP4 DUP2 LT ISZERO PUSH2 0x4CDD JUMPI DUP2 SLOAD DUP2 DUP10 ADD MSTORE PUSH1 0x1 DUP3 ADD SWAP2 POP PUSH1 0x20 DUP2 ADD SWAP1 POP PUSH2 0x4CBE JUMP JUMPDEST DUP4 DUP9 ADD SWAP6 POP POP POP JUMPDEST POP POP POP SWAP3 SWAP2 POP POP JUMP JUMPDEST PUSH1 0x0 PUSH2 0x4CFA DUP3 DUP5 PUSH2 0x4C6F JUMP JUMPDEST SWAP2 POP DUP2 SWAP1 POP SWAP3 SWAP2 POP POP JUMP JUMPDEST PUSH32 0x4F726465722044656C6976657265640000000000000000000000000000000000 PUSH1 0x0 DUP3 ADD MSTORE POP JUMP JUMPDEST PUSH1 0x0 PUSH2 0x4D3B PUSH1 0xF DUP4 PUSH2 0x3BAC JUMP JUMPDEST SWAP2 POP PUSH2 0x4D46 DUP3 PUSH2 0x4D05 JUMP JUMPDEST PUSH1 0x20 DUP3 ADD SWAP1 POP SWAP2 SWAP1 POP JUMP JUMPDEST PUSH1 0x0 PUSH1 0x20 DUP3 ADD SWAP1 POP DUP2 DUP2 SUB PUSH1 0x0 DUP4 ADD MSTORE PUSH2 0x4D6A DUP2 PUSH2 0x4D2E JUMP JUMPDEST SWAP1 POP SWAP2 SWAP1 POP JUMP JUMPDEST PUSH32 0x455243313135353A2063616C6C6572206973206E6F7420746F6B656E206F776E PUSH1 0x0 DUP3 ADD MSTORE PUSH32 0x6572206F7220617070726F766564000000000000000000000000000000000000 PUSH1 0x20 DUP3 ADD MSTORE POP JUMP JUMPDEST PUSH1 0x0 PUSH2 0x4DCD PUSH1 0x2E DUP4 PUSH2 0x3BAC JUMP JUMPDEST SWAP2 POP PUSH2 0x4DD8 DUP3 PUSH2 0x4D71 JUMP JUMPDEST PUSH1 0x40 DUP3 ADD SWAP1 POP SWAP2 SWAP1 POP JUMP JUMPDEST PUSH1 0x0 PUSH1 0x20 DUP3 ADD SWAP1 POP DUP2 DUP2 SUB PUSH1 0x0 DUP4 ADD MSTORE PUSH2 0x4DFC DUP2 PUSH2 0x4DC0 JUMP JUMPDEST SWAP1 POP SWAP2 SWAP1 POP JUMP JUMPDEST PUSH32 0x455243313135353A206163636F756E747320616E6420696473206C656E677468 PUSH1 0x0 DUP3 ADD MSTORE PUSH32 0x206D69736D617463680000000000000000000000000000000000000000000000 PUSH1 0x20 DUP3 ADD MSTORE POP JUMP JUMPDEST PUSH1 0x0 PUSH2 0x4E5F PUSH1 0x29 DUP4 PUSH2 0x3BAC JUMP JUMPDEST SWAP2 POP PUSH2 0x4E6A DUP3 PUSH2 0x4E03 JUMP JUMPDEST PUSH1 0x40 DUP3 ADD SWAP1 POP SWAP2 SWAP1 POP JUMP JUMPDEST PUSH1 0x0 PUSH1 0x20 DUP3 ADD SWAP1 POP DUP2 DUP2 SUB PUSH1 0x0 DUP4 ADD MSTORE PUSH2 0x4E8E DUP2 PUSH2 0x4E52 JUMP JUMPDEST SWAP1 POP SWAP2 SWAP1 POP JUMP JUMPDEST PUSH32 0x4F6E6C79207468652062757965722063616E2063616E63656C20746865206974 PUSH1 0x0 DUP3 ADD MSTORE PUSH32 0x656D000000000000000000000000000000000000000000000000000000000000 PUSH1 0x20 DUP3 ADD MSTORE POP JUMP JUMPDEST PUSH1 0x0 PUSH2 0x4EF1 PUSH1 0x22 DUP4 PUSH2 0x3BAC JUMP JUMPDEST SWAP2 POP PUSH2 0x4EFC DUP3 PUSH2 0x4E95 JUMP JUMPDEST PUSH1 0x40 DUP3 ADD SWAP1 POP SWAP2 SWAP1 POP JUMP JUMPDEST PUSH1 0x0 PUSH1 0x20 DUP3 ADD SWAP1 POP DUP2 DUP2 SUB PUSH1 0x0 DUP4 ADD MSTORE PUSH2 0x4F20 DUP2 PUSH2 0x4EE4 JUMP JUMPDEST SWAP1 POP SWAP2 SWAP1 POP JUMP JUMPDEST PUSH32 0x496E73756666696369656E74207175616E7469747920696E2074686520697465 PUSH1 0x0 DUP3 ADD MSTORE PUSH32 0x6D00000000000000000000000000000000000000000000000000000000000000 PUSH1 0x20 DUP3 ADD MSTORE POP JUMP JUMPDEST PUSH1 0x0 PUSH2 0x4F83 PUSH1 0x21 DUP4 PUSH2 0x3BAC JUMP JUMPDEST SWAP2 POP PUSH2 0x4F8E DUP3 PUSH2 0x4F27 JUMP JUMPDEST PUSH1 0x40 DUP3 ADD SWAP1 POP SWAP2 SWAP1 POP JUMP JUMPDEST PUSH1 0x0 PUSH1 0x20 DUP3 ADD SWAP1 POP DUP2 DUP2 SUB PUSH1 0x0 DUP4 ADD MSTORE PUSH2 0x4FB2 DUP2 PUSH2 0x4F76 JUMP JUMPDEST SWAP1 POP SWAP2 SWAP1 POP JUMP JUMPDEST PUSH32 0x4974656D206973206E6F74206C697374656420666F722073616C65206F722069 PUSH1 0x0 DUP3 ADD MSTORE PUSH32 0x6E73756666696369656E74207175616E74697479000000000000000000000000 PUSH1 0x20 DUP3 ADD MSTORE POP JUMP JUMPDEST PUSH1 0x0 PUSH2 0x5015 PUSH1 0x34 DUP4 PUSH2 0x3BAC JUMP JUMPDEST SWAP2 POP PUSH2 0x5020 DUP3 PUSH2 0x4FB9 JUMP JUMPDEST PUSH1 0x40 DUP3 ADD SWAP1 POP SWAP2 SWAP1 POP JUMP JUMPDEST PUSH1 0x0 PUSH1 0x20 DUP3 ADD SWAP1 POP DUP2 DUP2 SUB PUSH1 0x0 DUP4 ADD MSTORE PUSH2 0x5044 DUP2 PUSH2 0x5008 JUMP JUMPDEST SWAP1 POP SWAP2 SWAP1 POP JUMP JUMPDEST PUSH32 0x4F7264657220494420646F6573206E6F74206578697374000000000000000000 PUSH1 0x0 DUP3 ADD MSTORE POP JUMP JUMPDEST PUSH1 0x0 PUSH2 0x5081 PUSH1 0x17 DUP4 PUSH2 0x3BAC JUMP JUMPDEST SWAP2 POP PUSH2 0x508C DUP3 PUSH2 0x504B JUMP JUMPDEST PUSH1 0x20 DUP3 ADD SWAP1 POP SWAP2 SWAP1 POP JUMP JUMPDEST PUSH1 0x0 PUSH1 0x20 DUP3 ADD SWAP1 POP DUP2 DUP2 SUB PUSH1 0x0 DUP4 ADD MSTORE PUSH2 0x50B0 DUP2 PUSH2 0x5074 JUMP JUMPDEST SWAP1 POP SWAP2 SWAP1 POP JUMP JUMPDEST PUSH32 0x4F776E61626C653A206E6577206F776E657220697320746865207A65726F2061 PUSH1 0x0 DUP3 ADD MSTORE PUSH32 0x6464726573730000000000000000000000000000000000000000000000000000 PUSH1 0x20 DUP3 ADD MSTORE POP JUMP JUMPDEST PUSH1 0x0 PUSH2 0x5113 PUSH1 0x26 DUP4 PUSH2 0x3BAC JUMP JUMPDEST SWAP2 POP PUSH2 0x511E DUP3 PUSH2 0x50B7 JUMP JUMPDEST PUSH1 0x40 DUP3 ADD SWAP1 POP SWAP2 SWAP1 POP JUMP JUMPDEST PUSH1 0x0 PUSH1 0x20 DUP3 ADD SWAP1 POP DUP2 DUP2 SUB PUSH1 0x0 DUP4 ADD MSTORE PUSH2 0x5142 DUP2 PUSH2 0x5106 JUMP JUMPDEST SWAP1 POP SWAP2 SWAP1 POP JUMP JUMPDEST PUSH32 0x4F776E61626C653A2063616C6C6572206973206E6F7420746865206F776E6572 PUSH1 0x0 DUP3 ADD MSTORE POP JUMP JUMPDEST PUSH1 0x0 PUSH2 0x517F PUSH1 0x20 DUP4 PUSH2 0x3BAC JUMP JUMPDEST SWAP2 POP PUSH2 0x518A DUP3 PUSH2 0x5149 JUMP JUMPDEST PUSH1 0x20 DUP3 ADD SWAP1 POP SWAP2 SWAP1 POP JUMP JUMPDEST PUSH1 0x0 PUSH1 0x20 DUP3 ADD SWAP1 POP DUP2 DUP2 SUB PUSH1 0x0 DUP4 ADD MSTORE PUSH2 0x51AE DUP2 PUSH2 0x5172 JUMP JUMPDEST SWAP1 POP SWAP2 SWAP1 POP JUMP JUMPDEST PUSH32 0x455243313135353A2069647320616E6420616D6F756E7473206C656E67746820 PUSH1 0x0 DUP3 ADD MSTORE PUSH32 0x6D69736D61746368000000000000000000000000000000000000000000000000 PUSH1 0x20 DUP3 ADD MSTORE POP JUMP JUMPDEST PUSH1 0x0 PUSH2 0x5211 PUSH1 0x28 DUP4 PUSH2 0x3BAC JUMP JUMPDEST SWAP2 POP PUSH2 0x521C DUP3 PUSH2 0x51B5 JUMP JUMPDEST PUSH1 0x40 DUP3 ADD SWAP1 POP SWAP2 SWAP1 POP JUMP JUMPDEST PUSH1 0x0 PUSH1 0x20 DUP3 ADD SWAP1 POP DUP2 DUP2 SUB PUSH1 0x0 DUP4 ADD MSTORE PUSH2 0x5240 DUP2 PUSH2 0x5204 JUMP JUMPDEST SWAP1 POP SWAP2 SWAP1 POP JUMP JUMPDEST PUSH32 0x455243313135353A207472616E7366657220746F20746865207A65726F206164 PUSH1 0x0 DUP3 ADD MSTORE PUSH32 0x6472657373000000000000000000000000000000000000000000000000000000 PUSH1 0x20 DUP3 ADD MSTORE POP JUMP JUMPDEST PUSH1 0x0 PUSH2 0x52A3 PUSH1 0x25 DUP4 PUSH2 0x3BAC JUMP JUMPDEST SWAP2 POP PUSH2 0x52AE DUP3 PUSH2 0x5247 JUMP JUMPDEST PUSH1 0x40 DUP3 ADD SWAP1 POP SWAP2 SWAP1 POP JUMP JUMPDEST PUSH1 0x0 PUSH1 0x20 DUP3 ADD SWAP1 POP DUP2 DUP2 SUB PUSH1 0x0 DUP4 ADD MSTORE PUSH2 0x52D2 DUP2 PUSH2 0x5296 JUMP JUMPDEST SWAP1 POP SWAP2 SWAP1 POP JUMP JUMPDEST PUSH32 0x455243313135353A20696E73756666696369656E742062616C616E636520666F PUSH1 0x0 DUP3 ADD MSTORE PUSH32 0x72207472616E7366657200000000000000000000000000000000000000000000 PUSH1 0x20 DUP3 ADD MSTORE POP JUMP JUMPDEST PUSH1 0x0 PUSH2 0x5335 PUSH1 0x2A DUP4 PUSH2 0x3BAC JUMP JUMPDEST SWAP2 POP PUSH2 0x5340 DUP3 PUSH2 0x52D9 JUMP JUMPDEST PUSH1 0x40 DUP3 ADD SWAP1 POP SWAP2 SWAP1 POP JUMP JUMPDEST PUSH1 0x0 PUSH1 0x20 DUP3 ADD SWAP1 POP DUP2 DUP2 SUB PUSH1 0x0 DUP4 ADD MSTORE PUSH2 0x5364 DUP2 PUSH2 0x5328 JUMP JUMPDEST SWAP1 POP SWAP2 SWAP1 POP JUMP JUMPDEST PUSH1 0x0 PUSH2 0x5376 DUP3 PUSH2 0x3A19 JUMP JUMPDEST SWAP2 POP PUSH2 0x5381 DUP4 PUSH2 0x3A19 JUMP JUMPDEST SWAP3 POP DUP3 PUSH32 0xFFFFFFFFFFFFFFFFFFFFFFFFFFFFFFFFFFFFFFFFFFFFFFFFFFFFFFFFFFFFFFFF SUB DUP3 GT ISZERO PUSH2 0x53B6 JUMPI PUSH2 0x53B5 PUSH2 0x4AFF JUMP JUMPDEST JUMPDEST DUP3 DUP3 ADD SWAP1 POP SWAP3 SWAP2 POP POP JUMP JUMPDEST PUSH1 0x0 PUSH1 0x40 DUP3 ADD SWAP1 POP DUP2 DUP2 SUB PUSH1 0x0 DUP4 ADD MSTORE PUSH2 0x53DB DUP2 DUP6 PUSH2 0x42B5 JUMP JUMPDEST SWAP1 POP DUP2 DUP2 SUB PUSH1 0x20 DUP4 ADD MSTORE PUSH2 0x53EF DUP2 DUP5 PUSH2 0x42B5 JUMP JUMPDEST SWAP1 POP SWAP4 SWAP3 POP POP POP JUMP JUMPDEST PUSH1 0x0 PUSH2 0x5403 DUP3 PUSH2 0x3A19 JUMP JUMPDEST SWAP2 POP PUSH2 0x540E DUP4 PUSH2 0x3A19 JUMP JUMPDEST SWAP3 POP DUP3 DUP3 LT ISZERO PUSH2 0x5421 JUMPI PUSH2 0x5420 PUSH2 0x4AFF JUMP JUMPDEST JUMPDEST DUP3 DUP3 SUB SWAP1 POP SWAP3 SWAP2 POP POP JUMP JUMPDEST PUSH32 0x455243313135353A206D696E7420746F20746865207A65726F20616464726573 PUSH1 0x0 DUP3 ADD MSTORE PUSH32 0x7300000000000000000000000000000000000000000000000000000000000000 PUSH1 0x20 DUP3 ADD MSTORE POP JUMP JUMPDEST PUSH1 0x0 PUSH2 0x5488 PUSH1 0x21 DUP4 PUSH2 0x3BAC JUMP JUMPDEST SWAP2 POP PUSH2 0x5493 DUP3 PUSH2 0x542C JUMP JUMPDEST PUSH1 0x40 DUP3 ADD SWAP1 POP SWAP2 SWAP1 POP JUMP JUMPDEST PUSH1 0x0 PUSH1 0x20 DUP3 ADD SWAP1 POP DUP2 DUP2 SUB PUSH1 0x0 DUP4 ADD MSTORE PUSH2 0x54B7 DUP2 PUSH2 0x547B JUMP JUMPDEST SWAP1 POP SWAP2 SWAP1 POP JUMP JUMPDEST PUSH1 0x0 PUSH1 0x40 DUP3 ADD SWAP1 POP PUSH2 0x54D3 PUSH1 0x0 DUP4 ADD DUP6 PUSH2 0x3A8F JUMP JUMPDEST PUSH2 0x54E0 PUSH1 0x20 DUP4 ADD DUP5 PUSH2 0x3A8F JUMP JUMPDEST SWAP4 SWAP3 POP POP POP JUMP JUMPDEST PUSH32 0x455243313135353A2073657474696E6720617070726F76616C20737461747573 PUSH1 0x0 DUP3 ADD MSTORE PUSH32 0x20666F722073656C660000000000000000000000000000000000000000000000 PUSH1 0x20 DUP3 ADD MSTORE POP JUMP JUMPDEST PUSH1 0x0 PUSH2 0x5543 PUSH1 0x29 DUP4 PUSH2 0x3BAC JUMP JUMPDEST SWAP2 POP PUSH2 0x554E DUP3 PUSH2 0x54E7 JUMP JUMPDEST PUSH1 0x40 DUP3 ADD SWAP1 POP SWAP2 SWAP1 POP JUMP JUMPDEST PUSH1 0x0 PUSH1 0x20 DUP3 ADD SWAP1 POP DUP2 DUP2 SUB PUSH1 0x0 DUP4 ADD MSTORE PUSH2 0x5572 DUP2 PUSH2 0x5536 JUMP JUMPDEST SWAP1 POP SWAP2 SWAP1 POP JUMP JUMPDEST PUSH1 0x0 DUP2 MLOAD SWAP1 POP SWAP2 SWAP1 POP JUMP JUMPDEST PUSH1 0x0 DUP3 DUP3 MSTORE PUSH1 0x20 DUP3 ADD SWAP1 POP SWAP3 SWAP2 POP POP JUMP JUMPDEST PUSH1 0x0 PUSH2 0x55A0 DUP3 PUSH2 0x5579 JUMP JUMPDEST PUSH2 0x55AA DUP2 DUP6 PUSH2 0x5584 JUMP JUMPDEST SWAP4 POP PUSH2 0x55BA DUP2 DUP6 PUSH1 0x20 DUP7 ADD PUSH2 0x3BBD JUMP JUMPDEST PUSH2 0x55C3 DUP2 PUSH2 0x3BF0 JUMP JUMPDEST DUP5 ADD SWAP2 POP POP SWAP3 SWAP2 POP POP JUMP JUMPDEST PUSH1 0x0 PUSH1 0xA0 DUP3 ADD SWAP1 POP PUSH2 0x55E3 PUSH1 0x0 DUP4 ADD DUP9 PUSH2 0x40B0 JUMP JUMPDEST PUSH2 0x55F0 PUSH1 0x20 DUP4 ADD DUP8 PUSH2 0x40B0 JUMP JUMPDEST DUP2 DUP2 SUB PUSH1 0x40 DUP4 ADD MSTORE PUSH2 0x5602 DUP2 DUP7 PUSH2 0x42B5 JUMP JUMPDEST SWAP1 POP DUP2 DUP2 SUB PUSH1 0x60 DUP4 ADD MSTORE PUSH2 0x5616 DUP2 DUP6 PUSH2 0x42B5 JUMP JUMPDEST SWAP1 POP DUP2 DUP2 SUB PUSH1 0x80 DUP4 ADD MSTORE PUSH2 0x562A DUP2 DUP5 PUSH2 0x5595 JUMP JUMPDEST SWAP1 POP SWAP7 SWAP6 POP POP POP POP POP POP JUMP JUMPDEST PUSH1 0x0 DUP2 MLOAD SWAP1 POP PUSH2 0x5645 DUP2 PUSH2 0x3AE5 JUMP JUMPDEST SWAP3 SWAP2 POP POP JUMP JUMPDEST PUSH1 0x0 PUSH1 0x20 DUP3 DUP5 SUB SLT ISZERO PUSH2 0x5661 JUMPI PUSH2 0x5660 PUSH2 0x39B1 JUMP JUMPDEST JUMPDEST PUSH1 0x0 PUSH2 0x566F DUP5 DUP3 DUP6 ADD PUSH2 0x5636 JUMP JUMPDEST SWAP2 POP POP SWAP3 SWAP2 POP POP JUMP JUMPDEST PUSH1 0x0 DUP2 PUSH1 0xE0 SHR SWAP1 POP SWAP2 SWAP1 POP JUMP JUMPDEST PUSH1 0x0 PUSH1 0x3 RETURNDATASIZE GT ISZERO PUSH2 0x56A4 JUMPI PUSH1 0x4 PUSH1 0x0 DUP1 RETURNDATACOPY PUSH2 0x56A1 PUSH1 0x0 MLOAD PUSH2 0x5678 JUMP JUMPDEST SWAP1 POP JUMPDEST SWAP1 JUMP JUMPDEST PUSH1 0x0 PUSH1 0x44 RETURNDATASIZE LT ISZERO PUSH2 0x56B7 JUMPI PUSH2 0x573A JUMP JUMPDEST PUSH2 0x56BF PUSH2 0x39A7 JUMP JUMPDEST PUSH1 0x4 RETURNDATASIZE SUB PUSH1 0x4 DUP3 RETURNDATACOPY DUP1 MLOAD RETURNDATASIZE PUSH1 0x24 DUP3 ADD GT PUSH8 0xFFFFFFFFFFFFFFFF DUP3 GT OR ISZERO PUSH2 0x56E7 JUMPI POP POP PUSH2 0x573A JUMP JUMPDEST DUP1 DUP3 ADD DUP1 MLOAD PUSH8 0xFFFFFFFFFFFFFFFF DUP2 GT ISZERO PUSH2 0x5705 JUMPI POP POP POP POP PUSH2 0x573A JUMP JUMPDEST DUP1 PUSH1 0x20 DUP4 ADD ADD PUSH1 0x4 RETURNDATASIZE SUB DUP6 ADD DUP2 GT ISZERO PUSH2 0x5722 JUMPI POP POP POP POP POP PUSH2 0x573A JUMP JUMPDEST PUSH2 0x5731 DUP3 PUSH1 0x20 ADD DUP6 ADD DUP7 PUSH2 0x3C95 JUMP JUMPDEST DUP3 SWAP6 POP POP POP POP POP POP JUMPDEST SWAP1 JUMP JUMPDEST PUSH32 0x455243313135353A207472616E7366657220746F206E6F6E2D45524331313535 PUSH1 0x0 DUP3 ADD MSTORE PUSH32 0x526563656976657220696D706C656D656E746572000000000000000000000000 PUSH1 0x20 DUP3 ADD MSTORE POP JUMP JUMPDEST PUSH1 0x0 PUSH2 0x5799 PUSH1 0x34 DUP4 PUSH2 0x3BAC JUMP JUMPDEST SWAP2 POP PUSH2 0x57A4 DUP3 PUSH2 0x573D JUMP JUMPDEST PUSH1 0x40 DUP3 ADD SWAP1 POP SWAP2 SWAP1 POP JUMP JUMPDEST PUSH1 0x0 PUSH1 0x20 DUP3 ADD SWAP1 POP DUP2 DUP2 SUB PUSH1 0x0 DUP4 ADD MSTORE PUSH2 0x57C8 DUP2 PUSH2 0x578C JUMP JUMPDEST SWAP1 POP SWAP2 SWAP1 POP JUMP JUMPDEST PUSH32 0x455243313135353A204552433131353552656365697665722072656A65637465 PUSH1 0x0 DUP3 ADD MSTORE PUSH32 0x6420746F6B656E73000000000000000000000000000000000000000000000000 PUSH1 0x20 DUP3 ADD MSTORE POP JUMP JUMPDEST PUSH1 0x0 PUSH2 0x582B PUSH1 0x28 DUP4 PUSH2 0x3BAC JUMP JUMPDEST SWAP2 POP PUSH2 0x5836 DUP3 PUSH2 0x57CF JUMP JUMPDEST PUSH1 0x40 DUP3 ADD SWAP1 POP SWAP2 SWAP1 POP JUMP JUMPDEST PUSH1 0x0 PUSH1 0x20 DUP3 ADD SWAP1 POP DUP2 DUP2 SUB PUSH1 0x0 DUP4 ADD MSTORE PUSH2 0x585A DUP2 PUSH2 0x581E JUMP JUMPDEST SWAP1 POP SWAP2 SWAP1 POP JUMP JUMPDEST PUSH1 0x0 PUSH1 0xA0 DUP3 ADD SWAP1 POP PUSH2 0x5876 PUSH1 0x0 DUP4 ADD DUP9 PUSH2 0x40B0 JUMP JUMPDEST PUSH2 0x5883 PUSH1 0x20 DUP4 ADD DUP8 PUSH2 0x40B0 JUMP JUMPDEST PUSH2 0x5890 PUSH1 0x40 DUP4 ADD DUP7 PUSH2 0x3A8F JUMP JUMPDEST PUSH2 0x589D PUSH1 0x60 DUP4 ADD DUP6 PUSH2 0x3A8F JUMP JUMPDEST DUP2 DUP2 SUB PUSH1 0x80 DUP4 ADD MSTORE PUSH2 0x58AF DUP2 DUP5 PUSH2 0x5595 JUMP JUMPDEST SWAP1 POP SWAP7 SWAP6 POP POP POP POP POP POP JUMP INVALID LOG2 PUSH5 0x6970667358 0x22 SLT KECCAK256 0xE1 0x5D SWAP16 0xBE SWAP7 0x2D MLOAD CALLDATALOAD DUP2 0xAD 0x2D PUSH17 0xA5EE84CF8F9698AA8893DAB27E65D087F1 LOG4 0x4C SGT PUSH5 0x736F6C6343 STOP ADDMOD MULMOD STOP CALLER "},"methodIdentifiers":{"addIntermediary(uint256,address)":"edc07396","balanceOf(address,uint256)":"00fdd58e","balanceOfBatch(address[],uint256[])":"4e1273f4","buyItem(uint256,uint256)":"9979c009","cancelItem(uint256)":"51563f8e","controllIntermediaryAccessHold(uint256,address,bool)":"532e1453","createItem(string,uint256,string)":"3457770d","deliverItem(uint256)":"a0a5af5f","getIntermediariesAndStatus(uint256)":"c02a5181","isApprovedForAll(address,address)":"e985e9c5","isIntermediaryAccessActive(uint256,address)":"4d4886b7","isIntermediaryOfOrder(uint256,address)":"c16cade5","itemCount()":"6bfb0d01","items(uint256)":"bfb231d2","listItemForSale(uint256,uint256,uint256)":"7d9208b7","manager()":"481c6a75","orderCount()":"2453ffa8","orders(uint256)":"a85c38ef","owner()":"8da5cb5b","renounceIntermediary(uint256)":"1f686083","renounceOwnership()":"715018a6","safeBatchTransferFrom(address,address,uint256[],uint256[],bytes)":"2eb2c2d6","safeTransferFrom(address,address,uint256,uint256,bytes)":"f242432a","saleItemCount()":"312fb302","saleItems(uint256)":"8abf2092","setApprovalForAll(address,bool)":"a22cb465","setManager(address)":"d0ebdbe7","supportsInterface(bytes4)":"01ffc9a7","transferOwnership(address)":"f2fde38b","updateOrderStatus(uint256,string)":"205fdde6","uri(uint256)":"0e89341c"}}}}}