{
  "_format": "hh-sol-artifact-1",
  "contractName": "Escrow",
  "sourceName": "contracts/EscrowContrackt.sol",
  "abi": [
    {
      "inputs": [],
      "stateMutability": "nonpayable",
      "type": "constructor"
    },
    {
      "anonymous": false,
      "inputs": [
        {
          "indexed": true,
          "internalType": "address",
          "name": "previousOwner",
          "type": "address"
        },
        {
          "indexed": true,
          "internalType": "address",
          "name": "newOwner",
          "type": "address"
        }
      ],
      "name": "OwnershipTransferred",
      "type": "event"
    },
    {
      "inputs": [
        {
          "internalType": "uint256",
          "name": "tokenId",
          "type": "uint256"
        },
        {
          "internalType": "address[]",
          "name": "newIntermediaries",
          "type": "address[]"
        }
      ],
      "name": "addIntermediaries",
      "outputs": [],
      "stateMutability": "nonpayable",
      "type": "function"
    },
    {
      "inputs": [],
      "name": "agent",
      "outputs": [
        {
          "internalType": "address payable",
          "name": "",
          "type": "address"
        }
      ],
      "stateMutability": "view",
      "type": "function"
    },
    {
      "inputs": [
        {
          "internalType": "address",
          "name": "payee",
          "type": "address"
        },
        {
          "internalType": "uint256",
          "name": "tokenId",
          "type": "uint256"
        },
        {
          "internalType": "uint256",
          "name": "amount",
          "type": "uint256"
        },
        {
          "internalType": "contract IERC1155",
          "name": "token",
          "type": "address"
        }
      ],
      "name": "deposit",
      "outputs": [],
      "stateMutability": "nonpayable",
      "type": "function"
    },
    {
      "inputs": [
        {
          "internalType": "address",
          "name": "",
          "type": "address"
        },
        {
          "internalType": "uint256",
          "name": "",
          "type": "uint256"
        }
      ],
      "name": "deposits",
      "outputs": [
        {
          "internalType": "uint256",
          "name": "",
          "type": "uint256"
        }
      ],
      "stateMutability": "view",
      "type": "function"
    },
    {
      "inputs": [
        {
          "internalType": "address",
          "name": "intermediary",
          "type": "address"
        },
        {
          "internalType": "uint256",
          "name": "tokenId",
          "type": "uint256"
        }
      ],
      "name": "getTokenStatus",
      "outputs": [
        {
          "internalType": "string",
          "name": "",
          "type": "string"
        }
      ],
      "stateMutability": "view",
      "type": "function"
    },
    {
      "inputs": [
        {
          "internalType": "uint256",
          "name": "",
          "type": "uint256"
        },
        {
          "internalType": "uint256",
          "name": "",
          "type": "uint256"
        }
      ],
      "name": "intermediaries",
      "outputs": [
        {
          "internalType": "address",
          "name": "",
          "type": "address"
        }
      ],
      "stateMutability": "view",
      "type": "function"
    },
    {
      "inputs": [
        {
          "internalType": "address",
          "name": "",
          "type": "address"
        },
        {
          "internalType": "address",
          "name": "",
          "type": "address"
        },
        {
          "internalType": "uint256[]",
          "name": "",
          "type": "uint256[]"
        },
        {
          "internalType": "uint256[]",
          "name": "",
          "type": "uint256[]"
        },
        {
          "internalType": "bytes",
          "name": "",
          "type": "bytes"
        }
      ],
      "name": "onERC1155BatchReceived",
      "outputs": [
        {
          "internalType": "bytes4",
          "name": "",
          "type": "bytes4"
        }
      ],
      "stateMutability": "pure",
      "type": "function"
    },
    {
      "inputs": [
        {
          "internalType": "address",
          "name": "",
          "type": "address"
        },
        {
          "internalType": "address",
          "name": "",
          "type": "address"
        },
        {
          "internalType": "uint256",
          "name": "",
          "type": "uint256"
        },
        {
          "internalType": "uint256",
          "name": "",
          "type": "uint256"
        },
        {
          "internalType": "bytes",
          "name": "",
          "type": "bytes"
        }
      ],
      "name": "onERC1155Received",
      "outputs": [
        {
          "internalType": "bytes4",
          "name": "",
          "type": "bytes4"
        }
      ],
      "stateMutability": "pure",
      "type": "function"
    },
    {
      "inputs": [],
      "name": "owner",
      "outputs": [
        {
          "internalType": "address",
          "name": "",
          "type": "address"
        }
      ],
      "stateMutability": "view",
      "type": "function"
    },
    {
      "inputs": [],
      "name": "renounceOwnership",
      "outputs": [],
      "stateMutability": "nonpayable",
      "type": "function"
    },
    {
      "inputs": [
        {
          "internalType": "bytes4",
          "name": "interfaceId",
          "type": "bytes4"
        }
      ],
      "name": "supportsInterface",
      "outputs": [
        {
          "internalType": "bool",
          "name": "",
          "type": "bool"
        }
      ],
      "stateMutability": "view",
      "type": "function"
    },
    {
      "inputs": [
        {
          "internalType": "uint256",
          "name": "",
          "type": "uint256"
        },
        {
          "internalType": "address",
          "name": "",
          "type": "address"
        }
      ],
      "name": "tokenStatus",
      "outputs": [
        {
          "internalType": "string",
          "name": "",
          "type": "string"
        }
      ],
      "stateMutability": "view",
      "type": "function"
    },
    {
      "inputs": [
        {
          "internalType": "address",
          "name": "newOwner",
          "type": "address"
        }
      ],
      "name": "transferOwnership",
      "outputs": [],
      "stateMutability": "nonpayable",
      "type": "function"
    },
    {
      "inputs": [
        {
          "internalType": "uint256",
          "name": "tokenId",
          "type": "uint256"
        },
        {
          "internalType": "string",
          "name": "status",
          "type": "string"
        }
      ],
      "name": "updateTokenStatus",
      "outputs": [],
      "stateMutability": "nonpayable",
      "type": "function"
    },
    {
      "inputs": [
        {
          "internalType": "address payable",
          "name": "payee",
          "type": "address"
        },
        {
          "internalType": "uint256",
          "name": "tokenId",
          "type": "uint256"
        },
        {
          "internalType": "uint256",
          "name": "amount",
          "type": "uint256"
        },
        {
          "internalType": "contract IERC1155",
          "name": "token",
          "type": "address"
        }
      ],
      "name": "withdraw",
      "outputs": [],
      "stateMutability": "nonpayable",
      "type": "function"
    }
  ],
  "bytecode": "0x608060405234801561001057600080fd5b5061002d61002261007a60201b60201c565b61008260201b60201c565b6001808190555033600260006101000a81548173ffffffffffffffffffffffffffffffffffffffff021916908373ffffffffffffffffffffffffffffffffffffffff160217905550610146565b600033905090565b60008060009054906101000a900473ffffffffffffffffffffffffffffffffffffffff169050816000806101000a81548173ffffffffffffffffffffffffffffffffffffffff021916908373ffffffffffffffffffffffffffffffffffffffff1602179055508173ffffffffffffffffffffffffffffffffffffffff168173ffffffffffffffffffffffffffffffffffffffff167f8be0079c531659141344cd1fd0a4f28419497f9722a3daafe3b4186f6b6457e060405160405180910390a35050565b611e77806101556000396000f3fe608060405234801561001057600080fd5b50600436106100f55760003560e01c80638da5cb5b11610097578063f1c71beb11610066578063f1c71beb14610282578063f23a6e61146102b2578063f2fde38b146102e2578063f5ff5c76146102fe576100f5565b80638da5cb5b146101d4578063bc197c81146101f2578063c63e8d6414610222578063d6d6817714610252576100f5565b8063230dc9ff116100d3578063230dc9ff146101625780636904a30a14610192578063715018a6146101ae5780638b6099db146101b8576100f5565b806301ffc9a7146100fa57806315d605191461012a57806316762eed14610146575b600080fd5b610114600480360381019061010f9190610ef1565b61031c565b6040516101219190610f39565b60405180910390f35b610144600480360381019061013f91906110d0565b610396565b005b610160600480360381019061015b91906111da565b610502565b005b61017c6004803603810190610177919061126d565b610691565b6040516101899190611335565b60405180910390f35b6101ac60048036038101906101a7919061141f565b61073e565b005b6101b6610772565b005b6101d260048036038101906101cd919061147b565b610786565b005b6101dc6108cc565b6040516101e991906114f1565b60405180910390f35b61020c60048036038101906102079190611670565b6108f5565b604051610219919061174e565b60405180910390f35b61023c60048036038101906102379190611769565b61090a565b60405161024991906114f1565b60405180910390f35b61026c600480360381019061026791906117a9565b610958565b60405161027991906117f8565b60405180910390f35b61029c600480360381019061029791906117a9565b61097d565b6040516102a99190611335565b60405180910390f35b6102cc60048036038101906102c79190611813565b610a60565b6040516102d9919061174e565b60405180910390f35b6102fc60048036038101906102f791906118aa565b610a75565b005b610306610af9565b60405161031391906118e6565b60405180910390f35b60007f4e2312e0000000000000000000000000000000000000000000000000000000007bffffffffffffffffffffffffffffffffffffffffffffffffffffffff1916827bffffffffffffffffffffffffffffffffffffffffffffffffffffffff1916148061038f575061038e82610b1f565b5b9050919050565b6000805b6004600085815260200190815260200160002080549050811015610457573373ffffffffffffffffffffffffffffffffffffffff166004600086815260200190815260200160002082815481106103f4576103f3611901565b5b9060005260206000200160009054906101000a900473ffffffffffffffffffffffffffffffffffffffff1673ffffffffffffffffffffffffffffffffffffffff1614156104445760019150610457565b808061044f9061195f565b91505061039a565b5080610498576040517f08c379a000000000000000000000000000000000000000000000000000000000815260040161048f90611a1a565b60405180910390fd5b816005600085815260200190815260200160002060003373ffffffffffffffffffffffffffffffffffffffff1673ffffffffffffffffffffffffffffffffffffffff16815260200190815260200160002090805190602001906104fc929190610d58565b50505050565b61050a610b89565b610512610c07565b6000600360008673ffffffffffffffffffffffffffffffffffffffff1673ffffffffffffffffffffffffffffffffffffffff1681526020019081526020016000206000858152602001908152602001600020549050828110156105aa576040517f08c379a00000000000000000000000000000000000000000000000000000000081526004016105a190611a86565b60405180910390fd5b6105bd8382610c5790919063ffffffff16565b600360008773ffffffffffffffffffffffffffffffffffffffff1673ffffffffffffffffffffffffffffffffffffffff1681526020019081526020016000206000868152602001908152602001600020819055508173ffffffffffffffffffffffffffffffffffffffff1663f242432a308787876040518563ffffffff1660e01b81526004016106509493929190611b3c565b600060405180830381600087803b15801561066a57600080fd5b505af115801561067e573d6000803e3d6000fd5b505050505061068b610c6d565b50505050565b60056020528160005260406000206020528060005260406000206000915091505080546106bd90611bc3565b80601f01602080910402602001604051908101604052809291908181526020018280546106e990611bc3565b80156107365780601f1061070b57610100808354040283529160200191610736565b820191906000526020600020905b81548152906001019060200180831161071957829003601f168201915b505050505081565b610746610b89565b8060046000848152602001908152602001600020908051906020019061076d929190610dde565b505050565b61077a610b89565b6107846000610c76565b565b61078e610b89565b610796610c07565b8073ffffffffffffffffffffffffffffffffffffffff1663f242432a333086866040518563ffffffff1660e01b81526004016107d59493929190611bf5565b600060405180830381600087803b1580156107ef57600080fd5b505af1158015610803573d6000803e3d6000fd5b5050505061086a82600360008773ffffffffffffffffffffffffffffffffffffffff1673ffffffffffffffffffffffffffffffffffffffff168152602001908152602001600020600086815260200190815260200160002054610d3a90919063ffffffff16565b600360008673ffffffffffffffffffffffffffffffffffffffff1673ffffffffffffffffffffffffffffffffffffffff1681526020019081526020016000206000858152602001908152602001600020819055506108c6610c6d565b50505050565b60008060009054906101000a900473ffffffffffffffffffffffffffffffffffffffff16905090565b600063bc197c8160e01b905095945050505050565b6004602052816000526040600020818154811061092657600080fd5b906000526020600020016000915091509054906101000a900473ffffffffffffffffffffffffffffffffffffffff1681565b6003602052816000526040600020602052806000526040600020600091509150505481565b60606005600083815260200190815260200160002060008473ffffffffffffffffffffffffffffffffffffffff1673ffffffffffffffffffffffffffffffffffffffff16815260200190815260200160002080546109da90611bc3565b80601f0160208091040260200160405190810160405280929190818152602001828054610a0690611bc3565b8015610a535780601f10610a2857610100808354040283529160200191610a53565b820191906000526020600020905b815481529060010190602001808311610a3657829003601f168201915b5050505050905092915050565b600063f23a6e6160e01b905095945050505050565b610a7d610b89565b600073ffffffffffffffffffffffffffffffffffffffff168173ffffffffffffffffffffffffffffffffffffffff161415610aed576040517f08c379a0000000000000000000000000000000000000000000000000000000008152600401610ae490611cbf565b60405180910390fd5b610af681610c76565b50565b600260009054906101000a900473ffffffffffffffffffffffffffffffffffffffff1681565b60007f01ffc9a7000000000000000000000000000000000000000000000000000000007bffffffffffffffffffffffffffffffffffffffffffffffffffffffff1916827bffffffffffffffffffffffffffffffffffffffffffffffffffffffff1916149050919050565b610b91610d50565b73ffffffffffffffffffffffffffffffffffffffff16610baf6108cc565b73ffffffffffffffffffffffffffffffffffffffff1614610c05576040517f08c379a0000000000000000000000000000000000000000000000000000000008152600401610bfc90611d2b565b60405180910390fd5b565b60026001541415610c4d576040517f08c379a0000000000000000000000000000000000000000000000000000000008152600401610c4490611d97565b60405180910390fd5b6002600181905550565b60008183610c659190611db7565b905092915050565b60018081905550565b60008060009054906101000a900473ffffffffffffffffffffffffffffffffffffffff169050816000806101000a81548173ffffffffffffffffffffffffffffffffffffffff021916908373ffffffffffffffffffffffffffffffffffffffff1602179055508173ffffffffffffffffffffffffffffffffffffffff168173ffffffffffffffffffffffffffffffffffffffff167f8be0079c531659141344cd1fd0a4f28419497f9722a3daafe3b4186f6b6457e060405160405180910390a35050565b60008183610d489190611deb565b905092915050565b600033905090565b828054610d6490611bc3565b90600052602060002090601f016020900481019282610d865760008555610dcd565b82601f10610d9f57805160ff1916838001178555610dcd565b82800160010185558215610dcd579182015b82811115610dcc578251825591602001919060010190610db1565b5b509050610dda9190610e68565b5090565b828054828255906000526020600020908101928215610e57579160200282015b82811115610e565782518260006101000a81548173ffffffffffffffffffffffffffffffffffffffff021916908373ffffffffffffffffffffffffffffffffffffffff16021790555091602001919060010190610dfe565b5b509050610e649190610e68565b5090565b5b80821115610e81576000816000905550600101610e69565b5090565b6000604051905090565b600080fd5b600080fd5b60007fffffffff0000000000000000000000000000000000000000000000000000000082169050919050565b610ece81610e99565b8114610ed957600080fd5b50565b600081359050610eeb81610ec5565b92915050565b600060208284031215610f0757610f06610e8f565b5b6000610f1584828501610edc565b91505092915050565b60008115159050919050565b610f3381610f1e565b82525050565b6000602082019050610f4e6000830184610f2a565b92915050565b6000819050919050565b610f6781610f54565b8114610f7257600080fd5b50565b600081359050610f8481610f5e565b92915050565b600080fd5b600080fd5b6000601f19601f8301169050919050565b7f4e487b7100000000000000000000000000000000000000000000000000000000600052604160045260246000fd5b610fdd82610f94565b810181811067ffffffffffffffff82111715610ffc57610ffb610fa5565b5b80604052505050565b600061100f610e85565b905061101b8282610fd4565b919050565b600067ffffffffffffffff82111561103b5761103a610fa5565b5b61104482610f94565b9050602081019050919050565b82818337600083830152505050565b600061107361106e84611020565b611005565b90508281526020810184848401111561108f5761108e610f8f565b5b61109a848285611051565b509392505050565b600082601f8301126110b7576110b6610f8a565b5b81356110c7848260208601611060565b91505092915050565b600080604083850312156110e7576110e6610e8f565b5b60006110f585828601610f75565b925050602083013567ffffffffffffffff81111561111657611115610e94565b5b611122858286016110a2565b9150509250929050565b600073ffffffffffffffffffffffffffffffffffffffff82169050919050565b60006111578261112c565b9050919050565b6111678161114c565b811461117257600080fd5b50565b6000813590506111848161115e565b92915050565b60006111958261112c565b9050919050565b60006111a78261118a565b9050919050565b6111b78161119c565b81146111c257600080fd5b50565b6000813590506111d4816111ae565b92915050565b600080600080608085870312156111f4576111f3610e8f565b5b600061120287828801611175565b945050602061121387828801610f75565b935050604061122487828801610f75565b9250506060611235878288016111c5565b91505092959194509250565b61124a8161118a565b811461125557600080fd5b50565b60008135905061126781611241565b92915050565b6000806040838503121561128457611283610e8f565b5b600061129285828601610f75565b92505060206112a385828601611258565b9150509250929050565b600081519050919050565b600082825260208201905092915050565b60005b838110156112e75780820151818401526020810190506112cc565b838111156112f6576000848401525b50505050565b6000611307826112ad565b61131181856112b8565b93506113218185602086016112c9565b61132a81610f94565b840191505092915050565b6000602082019050818103600083015261134f81846112fc565b905092915050565b600067ffffffffffffffff82111561137257611371610fa5565b5b602082029050602081019050919050565b600080fd5b600061139b61139684611357565b611005565b905080838252602082019050602084028301858111156113be576113bd611383565b5b835b818110156113e757806113d38882611258565b8452602084019350506020810190506113c0565b5050509392505050565b600082601f83011261140657611405610f8a565b5b8135611416848260208601611388565b91505092915050565b6000806040838503121561143657611435610e8f565b5b600061144485828601610f75565b925050602083013567ffffffffffffffff81111561146557611464610e94565b5b611471858286016113f1565b9150509250929050565b6000806000806080858703121561149557611494610e8f565b5b60006114a387828801611258565b94505060206114b487828801610f75565b93505060406114c587828801610f75565b92505060606114d6878288016111c5565b91505092959194509250565b6114eb8161118a565b82525050565b600060208201905061150660008301846114e2565b92915050565b600067ffffffffffffffff82111561152757611526610fa5565b5b602082029050602081019050919050565b600061154b6115468461150c565b611005565b9050808382526020820190506020840283018581111561156e5761156d611383565b5b835b8181101561159757806115838882610f75565b845260208401935050602081019050611570565b5050509392505050565b600082601f8301126115b6576115b5610f8a565b5b81356115c6848260208601611538565b91505092915050565b600067ffffffffffffffff8211156115ea576115e9610fa5565b5b6115f382610f94565b9050602081019050919050565b600061161361160e846115cf565b611005565b90508281526020810184848401111561162f5761162e610f8f565b5b61163a848285611051565b509392505050565b600082601f83011261165757611656610f8a565b5b8135611667848260208601611600565b91505092915050565b600080600080600060a0868803121561168c5761168b610e8f565b5b600061169a88828901611258565b95505060206116ab88828901611258565b945050604086013567ffffffffffffffff8111156116cc576116cb610e94565b5b6116d8888289016115a1565b935050606086013567ffffffffffffffff8111156116f9576116f8610e94565b5b611705888289016115a1565b925050608086013567ffffffffffffffff81111561172657611725610e94565b5b61173288828901611642565b9150509295509295909350565b61174881610e99565b82525050565b6000602082019050611763600083018461173f565b92915050565b600080604083850312156117805761177f610e8f565b5b600061178e85828601610f75565b925050602061179f85828601610f75565b9150509250929050565b600080604083850312156117c0576117bf610e8f565b5b60006117ce85828601611258565b92505060206117df85828601610f75565b9150509250929050565b6117f281610f54565b82525050565b600060208201905061180d60008301846117e9565b92915050565b600080600080600060a0868803121561182f5761182e610e8f565b5b600061183d88828901611258565b955050602061184e88828901611258565b945050604061185f88828901610f75565b935050606061187088828901610f75565b925050608086013567ffffffffffffffff81111561189157611890610e94565b5b61189d88828901611642565b9150509295509295909350565b6000602082840312156118c0576118bf610e8f565b5b60006118ce84828501611258565b91505092915050565b6118e08161114c565b82525050565b60006020820190506118fb60008301846118d7565b92915050565b7f4e487b7100000000000000000000000000000000000000000000000000000000600052603260045260246000fd5b7f4e487b7100000000000000000000000000000000000000000000000000000000600052601160045260246000fd5b600061196a82610f54565b91507fffffffffffffffffffffffffffffffffffffffffffffffffffffffffffffffff82141561199d5761199c611930565b5b600182019050919050565b7f4f6e6c7920696e7465726d65646961726965732063616e20757064617465207460008201527f686520746f6b656e207374617475730000000000000000000000000000000000602082015250565b6000611a04602f836112b8565b9150611a0f826119a8565b604082019050919050565b60006020820190508181036000830152611a33816119f7565b9050919050565b7f496e73756666696369656e742066756e64730000000000000000000000000000600082015250565b6000611a706012836112b8565b9150611a7b82611a3a565b602082019050919050565b60006020820190508181036000830152611a9f81611a63565b9050919050565b6000819050919050565b6000611acb611ac6611ac18461112c565b611aa6565b61112c565b9050919050565b6000611add82611ab0565b9050919050565b6000611aef82611ad2565b9050919050565b611aff81611ae4565b82525050565b600082825260208201905092915050565b50565b6000611b26600083611b05565b9150611b3182611b16565b600082019050919050565b600060a082019050611b5160008301876114e2565b611b5e6020830186611af6565b611b6b60408301856117e9565b611b7860608301846117e9565b8181036080830152611b8981611b19565b905095945050505050565b7f4e487b7100000000000000000000000000000000000000000000000000000000600052602260045260246000fd5b60006002820490506001821680611bdb57607f821691505b60208210811415611bef57611bee611b94565b5b50919050565b600060a082019050611c0a60008301876114e2565b611c1760208301866114e2565b611c2460408301856117e9565b611c3160608301846117e9565b8181036080830152611c4281611b19565b905095945050505050565b7f4f776e61626c653a206e6577206f776e657220697320746865207a65726f206160008201527f6464726573730000000000000000000000000000000000000000000000000000602082015250565b6000611ca96026836112b8565b9150611cb482611c4d565b604082019050919050565b60006020820190508181036000830152611cd881611c9c565b9050919050565b7f4f776e61626c653a2063616c6c6572206973206e6f7420746865206f776e6572600082015250565b6000611d156020836112b8565b9150611d2082611cdf565b602082019050919050565b60006020820190508181036000830152611d4481611d08565b9050919050565b7f5265656e7472616e637947756172643a207265656e7472616e742063616c6c00600082015250565b6000611d81601f836112b8565b9150611d8c82611d4b565b602082019050919050565b60006020820190508181036000830152611db081611d74565b9050919050565b6000611dc282610f54565b9150611dcd83610f54565b925082821015611de057611ddf611930565b5b828203905092915050565b6000611df682610f54565b9150611e0183610f54565b9250827fffffffffffffffffffffffffffffffffffffffffffffffffffffffffffffffff03821115611e3657611e35611930565b5b82820190509291505056fea264697066735822122011272b63590a5172f740cde9ef7cf7b8ca03afcae61410d7862d58bd5764c72a64736f6c63430008090033",
  "linkReferences": {},
  "deployedLinkReferences": {}
}