{
  "_format": "hh-sol-artifact-1",
  "contractName": "SupplyChain",
  "sourceName": "contracts/SupplyChainContrackt.sol",
  "abi": [
    {
      "inputs": [],
      "stateMutability": "nonpayable",
      "type": "constructor"
    },
    {
      "anonymous": false,
      "inputs": [
        {
          "indexed": true,
          "internalType": "address",
          "name": "account",
          "type": "address"
        },
        {
          "indexed": true,
          "internalType": "address",
          "name": "operator",
          "type": "address"
        },
        {
          "indexed": false,
          "internalType": "bool",
          "name": "approved",
          "type": "bool"
        }
      ],
      "name": "ApprovalForAll",
      "type": "event"
    },
    {
      "anonymous": false,
      "inputs": [
        {
          "indexed": true,
          "internalType": "uint256",
          "name": "itemId",
          "type": "uint256"
        },
        {
          "indexed": true,
          "internalType": "address",
          "name": "seller",
          "type": "address"
        },
        {
          "indexed": false,
          "internalType": "uint256",
          "name": "price",
          "type": "uint256"
        }
      ],
      "name": "ItemListed",
      "type": "event"
    },
    {
      "anonymous": false,
      "inputs": [
        {
          "indexed": true,
          "internalType": "uint256",
          "name": "itemId",
          "type": "uint256"
        },
        {
          "indexed": true,
          "internalType": "address",
          "name": "buyer",
          "type": "address"
        },
        {
          "indexed": false,
          "internalType": "uint256",
          "name": "quantity",
          "type": "uint256"
        }
      ],
      "name": "ItemPurchased",
      "type": "event"
    },
    {
      "anonymous": false,
      "inputs": [
        {
          "indexed": true,
          "internalType": "address",
          "name": "previousOwner",
          "type": "address"
        },
        {
          "indexed": true,
          "internalType": "address",
          "name": "newOwner",
          "type": "address"
        }
      ],
      "name": "OwnershipTransferred",
      "type": "event"
    },
    {
      "anonymous": false,
      "inputs": [
        {
          "indexed": true,
          "internalType": "address",
          "name": "operator",
          "type": "address"
        },
        {
          "indexed": true,
          "internalType": "address",
          "name": "from",
          "type": "address"
        },
        {
          "indexed": true,
          "internalType": "address",
          "name": "to",
          "type": "address"
        },
        {
          "indexed": false,
          "internalType": "uint256[]",
          "name": "ids",
          "type": "uint256[]"
        },
        {
          "indexed": false,
          "internalType": "uint256[]",
          "name": "values",
          "type": "uint256[]"
        }
      ],
      "name": "TransferBatch",
      "type": "event"
    },
    {
      "anonymous": false,
      "inputs": [
        {
          "indexed": true,
          "internalType": "address",
          "name": "operator",
          "type": "address"
        },
        {
          "indexed": true,
          "internalType": "address",
          "name": "from",
          "type": "address"
        },
        {
          "indexed": true,
          "internalType": "address",
          "name": "to",
          "type": "address"
        },
        {
          "indexed": false,
          "internalType": "uint256",
          "name": "id",
          "type": "uint256"
        },
        {
          "indexed": false,
          "internalType": "uint256",
          "name": "value",
          "type": "uint256"
        }
      ],
      "name": "TransferSingle",
      "type": "event"
    },
    {
      "anonymous": false,
      "inputs": [
        {
          "indexed": false,
          "internalType": "string",
          "name": "value",
          "type": "string"
        },
        {
          "indexed": true,
          "internalType": "uint256",
          "name": "id",
          "type": "uint256"
        }
      ],
      "name": "URI",
      "type": "event"
    },
    {
      "inputs": [
        {
          "internalType": "address",
          "name": "account",
          "type": "address"
        },
        {
          "internalType": "uint256",
          "name": "id",
          "type": "uint256"
        }
      ],
      "name": "balanceOf",
      "outputs": [
        {
          "internalType": "uint256",
          "name": "",
          "type": "uint256"
        }
      ],
      "stateMutability": "view",
      "type": "function"
    },
    {
      "inputs": [
        {
          "internalType": "address[]",
          "name": "accounts",
          "type": "address[]"
        },
        {
          "internalType": "uint256[]",
          "name": "ids",
          "type": "uint256[]"
        }
      ],
      "name": "balanceOfBatch",
      "outputs": [
        {
          "internalType": "uint256[]",
          "name": "",
          "type": "uint256[]"
        }
      ],
      "stateMutability": "view",
      "type": "function"
    },
    {
      "inputs": [
        {
          "internalType": "uint256",
          "name": "itemId",
          "type": "uint256"
        },
        {
          "internalType": "uint256",
          "name": "quantity",
          "type": "uint256"
        }
      ],
      "name": "buyItem",
      "outputs": [],
      "stateMutability": "payable",
      "type": "function"
    },
    {
      "inputs": [
        {
          "internalType": "uint256",
          "name": "itemId",
          "type": "uint256"
        }
      ],
      "name": "cancelSale",
      "outputs": [],
      "stateMutability": "nonpayable",
      "type": "function"
    },
    {
      "inputs": [
        {
          "internalType": "address",
          "name": "account",
          "type": "address"
        },
        {
          "internalType": "address",
          "name": "operator",
          "type": "address"
        }
      ],
      "name": "isApprovedForAll",
      "outputs": [
        {
          "internalType": "bool",
          "name": "",
          "type": "bool"
        }
      ],
      "stateMutability": "view",
      "type": "function"
    },
    {
      "inputs": [],
      "name": "itemCount",
      "outputs": [
        {
          "internalType": "uint256",
          "name": "",
          "type": "uint256"
        }
      ],
      "stateMutability": "view",
      "type": "function"
    },
    {
      "inputs": [
        {
          "internalType": "uint256",
          "name": "",
          "type": "uint256"
        }
      ],
      "name": "items",
      "outputs": [
        {
          "internalType": "string",
          "name": "name",
          "type": "string"
        },
        {
          "internalType": "string",
          "name": "symbol",
          "type": "string"
        },
        {
          "internalType": "string",
          "name": "uri",
          "type": "string"
        },
        {
          "internalType": "uint256",
          "name": "price",
          "type": "uint256"
        },
        {
          "internalType": "address",
          "name": "owner",
          "type": "address"
        },
        {
          "internalType": "uint256",
          "name": "quantity",
          "type": "uint256"
        },
        {
          "internalType": "bool",
          "name": "forSale",
          "type": "bool"
        }
      ],
      "stateMutability": "view",
      "type": "function"
    },
    {
      "inputs": [
        {
          "internalType": "uint256",
          "name": "itemId",
          "type": "uint256"
        },
        {
          "internalType": "uint256",
          "name": "price",
          "type": "uint256"
        }
      ],
      "name": "listForSale",
      "outputs": [],
      "stateMutability": "nonpayable",
      "type": "function"
    },
    {
      "inputs": [
        {
          "internalType": "string[]",
          "name": "names",
          "type": "string[]"
        },
        {
          "internalType": "string[]",
          "name": "symbols",
          "type": "string[]"
        },
        {
          "internalType": "string[]",
          "name": "uris",
          "type": "string[]"
        },
        {
          "internalType": "uint256[]",
          "name": "prices",
          "type": "uint256[]"
        },
        {
          "internalType": "uint256[]",
          "name": "quantities",
          "type": "uint256[]"
        }
      ],
      "name": "listItems",
      "outputs": [],
      "stateMutability": "nonpayable",
      "type": "function"
    },
    {
      "inputs": [],
      "name": "owner",
      "outputs": [
        {
          "internalType": "address",
          "name": "",
          "type": "address"
        }
      ],
      "stateMutability": "view",
      "type": "function"
    },
    {
      "inputs": [],
      "name": "renounceOwnership",
      "outputs": [],
      "stateMutability": "nonpayable",
      "type": "function"
    },
    {
      "inputs": [
        {
          "internalType": "address",
          "name": "from",
          "type": "address"
        },
        {
          "internalType": "address",
          "name": "to",
          "type": "address"
        },
        {
          "internalType": "uint256[]",
          "name": "ids",
          "type": "uint256[]"
        },
        {
          "internalType": "uint256[]",
          "name": "amounts",
          "type": "uint256[]"
        },
        {
          "internalType": "bytes",
          "name": "data",
          "type": "bytes"
        }
      ],
      "name": "safeBatchTransferFrom",
      "outputs": [],
      "stateMutability": "nonpayable",
      "type": "function"
    },
    {
      "inputs": [
        {
          "internalType": "address",
          "name": "from",
          "type": "address"
        },
        {
          "internalType": "address",
          "name": "to",
          "type": "address"
        },
        {
          "internalType": "uint256",
          "name": "id",
          "type": "uint256"
        },
        {
          "internalType": "uint256",
          "name": "amount",
          "type": "uint256"
        },
        {
          "internalType": "bytes",
          "name": "data",
          "type": "bytes"
        }
      ],
      "name": "safeTransferFrom",
      "outputs": [],
      "stateMutability": "nonpayable",
      "type": "function"
    },
    {
      "inputs": [
        {
          "internalType": "address",
          "name": "operator",
          "type": "address"
        },
        {
          "internalType": "bool",
          "name": "approved",
          "type": "bool"
        }
      ],
      "name": "setApprovalForAll",
      "outputs": [],
      "stateMutability": "nonpayable",
      "type": "function"
    },
    {
      "inputs": [
        {
          "internalType": "bytes4",
          "name": "interfaceId",
          "type": "bytes4"
        }
      ],
      "name": "supportsInterface",
      "outputs": [
        {
          "internalType": "bool",
          "name": "",
          "type": "bool"
        }
      ],
      "stateMutability": "view",
      "type": "function"
    },
    {
      "inputs": [
        {
          "internalType": "address",
          "name": "newOwner",
          "type": "address"
        }
      ],
      "name": "transferOwnership",
      "outputs": [],
      "stateMutability": "nonpayable",
      "type": "function"
    },
    {
      "inputs": [
        {
          "internalType": "uint256",
          "name": "itemId",
          "type": "uint256"
        },
        {
          "internalType": "uint256",
          "name": "price",
          "type": "uint256"
        }
      ],
      "name": "updateItemPrice",
      "outputs": [],
      "stateMutability": "nonpayable",
      "type": "function"
    },
    {
      "inputs": [
        {
          "internalType": "uint256",
          "name": "tokenId",
          "type": "uint256"
        }
      ],
      "name": "uri",
      "outputs": [
        {
          "internalType": "string",
          "name": "",
          "type": "string"
        }
      ],
      "stateMutability": "view",
      "type": "function"
    },
    {
      "inputs": [],
      "name": "withdraw",
      "outputs": [],
      "stateMutability": "nonpayable",
      "type": "function"
    }
  ],
  "bytecode": "0x60806040523480156200001157600080fd5b506040518060200160405280600081525062000033816200005a60201b60201c565b5062000054620000486200007660201b60201c565b6200007e60201b60201c565b62000259565b80600290805190602001906200007292919062000144565b5050565b600033905090565b6000600360009054906101000a900473ffffffffffffffffffffffffffffffffffffffff16905081600360006101000a81548173ffffffffffffffffffffffffffffffffffffffff021916908373ffffffffffffffffffffffffffffffffffffffff1602179055508173ffffffffffffffffffffffffffffffffffffffff168173ffffffffffffffffffffffffffffffffffffffff167f8be0079c531659141344cd1fd0a4f28419497f9722a3daafe3b4186f6b6457e060405160405180910390a35050565b828054620001529062000223565b90600052602060002090601f016020900481019282620001765760008555620001c2565b82601f106200019157805160ff1916838001178555620001c2565b82800160010185558215620001c2579182015b82811115620001c1578251825591602001919060010190620001a4565b5b509050620001d19190620001d5565b5090565b5b80821115620001f0576000816000905550600101620001d6565b5090565b7f4e487b7100000000000000000000000000000000000000000000000000000000600052602260045260246000fd5b600060028204905060018216806200023c57607f821691505b60208210811415620002535762000252620001f4565b5b50919050565b613f7380620002696000396000f3fe6080604052600436106101135760003560e01c80638da5cb5b116100a0578063bfb231d211610064578063bfb231d214610379578063e80d7fec146103bc578063e985e9c5146103e5578063f242432a14610422578063f2fde38b1461044b57610113565b80638da5cb5b146102b75780639979c009146102e2578063a22cb465146102fe578063a8346a4614610327578063bd94b0051461035057610113565b80632eb2c2d6116100e75780632eb2c2d6146101f85780633ccfd60b146102215780634e1273f4146102385780636bfb0d0114610275578063715018a6146102a057610113565b8062fdd58e1461011857806301ffc9a7146101555780630e89341c146101925780632769b96b146101cf575b600080fd5b34801561012457600080fd5b5061013f600480360381019061013a9190612512565b610474565b60405161014c9190612561565b60405180910390f35b34801561016157600080fd5b5061017c600480360381019061017791906125d4565b61053d565b604051610189919061261c565b60405180910390f35b34801561019e57600080fd5b506101b960048036038101906101b49190612637565b61061f565b6040516101c691906126fd565b60405180910390f35b3480156101db57600080fd5b506101f660048036038101906101f1919061271f565b6106c7565b005b34801561020457600080fd5b5061021f600480360381019061021a919061295c565b610773565b005b34801561022d57600080fd5b50610236610814565b005b34801561024457600080fd5b5061025f600480360381019061025a9190612aee565b610865565b60405161026c9190612c24565b60405180910390f35b34801561028157600080fd5b5061028a61097e565b6040516102979190612561565b60405180910390f35b3480156102ac57600080fd5b506102b5610984565b005b3480156102c357600080fd5b506102cc610998565b6040516102d99190612c55565b60405180910390f35b6102fc60048036038101906102f7919061271f565b6109c2565b005b34801561030a57600080fd5b5061032560048036038101906103209190612c9c565b610bb5565b005b34801561033357600080fd5b5061034e60048036038101906103499190612e5e565b610bcb565b005b34801561035c57600080fd5b5061037760048036038101906103729190612637565b610e6c565b005b34801561038557600080fd5b506103a0600480360381019061039b9190612637565b610fd7565b6040516103b39796959493929190612f65565b60405180910390f35b3480156103c857600080fd5b506103e360048036038101906103de919061271f565b6111de565b005b3480156103f157600080fd5b5061040c60048036038101906104079190612fe9565b611301565b604051610419919061261c565b60405180910390f35b34801561042e57600080fd5b5061044960048036038101906104449190613029565b611395565b005b34801561045757600080fd5b50610472600480360381019061046d91906130c0565b611436565b005b60008073ffffffffffffffffffffffffffffffffffffffff168373ffffffffffffffffffffffffffffffffffffffff1614156104e5576040517f08c379a00000000000000000000000000000000000000000000000000000000081526004016104dc9061315f565b60405180910390fd5b60008083815260200190815260200160002060008473ffffffffffffffffffffffffffffffffffffffff1673ffffffffffffffffffffffffffffffffffffffff16815260200190815260200160002054905092915050565b60007fd9b67a26000000000000000000000000000000000000000000000000000000007bffffffffffffffffffffffffffffffffffffffffffffffffffffffff1916827bffffffffffffffffffffffffffffffffffffffffffffffffffffffff1916148061060857507f0e89341c000000000000000000000000000000000000000000000000000000007bffffffffffffffffffffffffffffffffffffffffffffffffffffffff1916827bffffffffffffffffffffffffffffffffffffffffffffffffffffffff1916145b806106185750610617826114ba565b5b9050919050565b6060600460008381526020019081526020016000206002018054610642906131ae565b80601f016020809104026020016040519081016040528092919081815260200182805461066e906131ae565b80156106bb5780601f10610690576101008083540402835291602001916106bb565b820191906000526020600020905b81548152906001019060200180831161069e57829003601f168201915b50505050509050919050565b6106cf611524565b8060046000848152602001908152602001600020600301819055506004600083815260200190815260200160002060040160009054906101000a900473ffffffffffffffffffffffffffffffffffffffff1673ffffffffffffffffffffffffffffffffffffffff16827fc93edc6ee14cd6c0c2842099adfa8953b237dbdad304ba28e96dce8a7f2a828c836040516107679190612561565b60405180910390a35050565b61077b6115a2565b73ffffffffffffffffffffffffffffffffffffffff168573ffffffffffffffffffffffffffffffffffffffff1614806107c157506107c0856107bb6115a2565b611301565b5b610800576040517f08c379a00000000000000000000000000000000000000000000000000000000081526004016107f790613252565b60405180910390fd5b61080d85858585856115aa565b5050505050565b61081c611524565b3373ffffffffffffffffffffffffffffffffffffffff166108fc479081150290604051600060405180830381858888f19350505050158015610862573d6000803e3d6000fd5b50565b606081518351146108ab576040517f08c379a00000000000000000000000000000000000000000000000000000000081526004016108a2906132e4565b60405180910390fd5b6000835167ffffffffffffffff8111156108c8576108c7612764565b5b6040519080825280602002602001820160405280156108f65781602001602082028036833780820191505090505b50905060005b84518110156109735761094385828151811061091b5761091a613304565b5b602002602001015185838151811061093657610935613304565b5b6020026020010151610474565b82828151811061095657610955613304565b5b6020026020010181815250508061096c90613362565b90506108fc565b508091505092915050565b60055481565b61098c611524565b61099660006118cc565b565b6000600360009054906101000a900473ffffffffffffffffffffffffffffffffffffffff16905090565b60006004600084815260200190815260200160002090508060060160009054906101000a900460ff16610a2a576040517f08c379a0000000000000000000000000000000000000000000000000000000008152600401610a21906133f7565b60405180910390fd5b818160030154610a3a9190613417565b341015610a7c576040517f08c379a0000000000000000000000000000000000000000000000000000000008152600401610a73906134bd565b60405180910390fd5b8181600501541015610ac3576040517f08c379a0000000000000000000000000000000000000000000000000000000008152600401610aba90613529565b60405180910390fd5b610b038160040160009054906101000a900473ffffffffffffffffffffffffffffffffffffffff1633858560405180602001604052806000815250611395565b338160040160006101000a81548173ffffffffffffffffffffffffffffffffffffffff021916908373ffffffffffffffffffffffffffffffffffffffff16021790555081816005016000828254610b5a9190613549565b925050819055503373ffffffffffffffffffffffffffffffffffffffff16837f78a0660bbda86d17037943644187f6f1f73f2f20a3240bf4cf4a56c2a96bcf8484604051610ba89190612561565b60405180910390a3505050565b610bc7610bc06115a2565b8383611992565b5050565b610bd3611524565b83518551148015610be5575082518551145b8015610bf2575081518551145b8015610bff575080518551145b610c3e576040517f08c379a0000000000000000000000000000000000000000000000000000000008152600401610c35906135c9565b60405180910390fd5b60005b8551811015610e645760056000815480929190610c5d90613362565b91905055506040518060e00160405280878381518110610c8057610c7f613304565b5b60200260200101518152602001868381518110610ca057610c9f613304565b5b60200260200101518152602001858381518110610cc057610cbf613304565b5b60200260200101518152602001848381518110610ce057610cdf613304565b5b602002602001015181526020013373ffffffffffffffffffffffffffffffffffffffff168152602001838381518110610d1c57610d1b613304565b5b60200260200101518152602001600015158152506004600060055481526020019081526020016000206000820151816000019080519060200190610d619291906123c7565b506020820151816001019080519060200190610d7e9291906123c7565b506040820151816002019080519060200190610d9b9291906123c7565b506060820151816003015560808201518160040160006101000a81548173ffffffffffffffffffffffffffffffffffffffff021916908373ffffffffffffffffffffffffffffffffffffffff16021790555060a0820151816005015560c08201518160060160006101000a81548160ff021916908315150217905550905050610e5133600554848481518110610e3457610e33613304565b5b602002602001015160405180602001604052806000815250611aff565b8080610e5c90613362565b915050610c41565b505050505050565b60006004600083815260200190815260200160002090508060060160009054906101000a900460ff16610ed4576040517f08c379a0000000000000000000000000000000000000000000000000000000008152600401610ecb906133f7565b60405180910390fd5b3373ffffffffffffffffffffffffffffffffffffffff168160040160009054906101000a900473ffffffffffffffffffffffffffffffffffffffff1673ffffffffffffffffffffffffffffffffffffffff1614610f66576040517f08c379a0000000000000000000000000000000000000000000000000000000008152600401610f5d9061365b565b60405180910390fd5b60008160060160006101000a81548160ff0219169083151502179055503373ffffffffffffffffffffffffffffffffffffffff16827fc93edc6ee14cd6c0c2842099adfa8953b237dbdad304ba28e96dce8a7f2a828c6000604051610fcb91906136c0565b60405180910390a35050565b6004602052806000526040600020600091509050806000018054610ffa906131ae565b80601f0160208091040260200160405190810160405280929190818152602001828054611026906131ae565b80156110735780601f1061104857610100808354040283529160200191611073565b820191906000526020600020905b81548152906001019060200180831161105657829003601f168201915b505050505090806001018054611088906131ae565b80601f01602080910402602001604051908101604052809291908181526020018280546110b4906131ae565b80156111015780601f106110d657610100808354040283529160200191611101565b820191906000526020600020905b8154815290600101906020018083116110e457829003601f168201915b505050505090806002018054611116906131ae565b80601f0160208091040260200160405190810160405280929190818152602001828054611142906131ae565b801561118f5780601f106111645761010080835404028352916020019161118f565b820191906000526020600020905b81548152906001019060200180831161117257829003601f168201915b5050505050908060030154908060040160009054906101000a900473ffffffffffffffffffffffffffffffffffffffff16908060050154908060060160009054906101000a900460ff16905087565b60006004600084815260200190815260200160002090503373ffffffffffffffffffffffffffffffffffffffff168160040160009054906101000a900473ffffffffffffffffffffffffffffffffffffffff1673ffffffffffffffffffffffffffffffffffffffff1614611287576040517f08c379a000000000000000000000000000000000000000000000000000000000815260040161127e9061374d565b60405180910390fd5b60018160060160006101000a81548160ff0219169083151502179055508181600301819055503373ffffffffffffffffffffffffffffffffffffffff16837fc93edc6ee14cd6c0c2842099adfa8953b237dbdad304ba28e96dce8a7f2a828c846040516112f49190612561565b60405180910390a3505050565b6000600160008473ffffffffffffffffffffffffffffffffffffffff1673ffffffffffffffffffffffffffffffffffffffff16815260200190815260200160002060008373ffffffffffffffffffffffffffffffffffffffff1673ffffffffffffffffffffffffffffffffffffffff16815260200190815260200160002060009054906101000a900460ff16905092915050565b61139d6115a2565b73ffffffffffffffffffffffffffffffffffffffff168573ffffffffffffffffffffffffffffffffffffffff1614806113e357506113e2856113dd6115a2565b611301565b5b611422576040517f08c379a000000000000000000000000000000000000000000000000000000000815260040161141990613252565b60405180910390fd5b61142f8585858585611cb0565b5050505050565b61143e611524565b600073ffffffffffffffffffffffffffffffffffffffff168173ffffffffffffffffffffffffffffffffffffffff1614156114ae576040517f08c379a00000000000000000000000000000000000000000000000000000000081526004016114a5906137df565b60405180910390fd5b6114b7816118cc565b50565b60007f01ffc9a7000000000000000000000000000000000000000000000000000000007bffffffffffffffffffffffffffffffffffffffffffffffffffffffff1916827bffffffffffffffffffffffffffffffffffffffffffffffffffffffff1916149050919050565b61152c6115a2565b73ffffffffffffffffffffffffffffffffffffffff1661154a610998565b73ffffffffffffffffffffffffffffffffffffffff16146115a0576040517f08c379a00000000000000000000000000000000000000000000000000000000081526004016115979061384b565b60405180910390fd5b565b600033905090565b81518351146115ee576040517f08c379a00000000000000000000000000000000000000000000000000000000081526004016115e5906138dd565b60405180910390fd5b600073ffffffffffffffffffffffffffffffffffffffff168473ffffffffffffffffffffffffffffffffffffffff16141561165e576040517f08c379a00000000000000000000000000000000000000000000000000000000081526004016116559061396f565b60405180910390fd5b60006116686115a2565b9050611678818787878787611f4c565b60005b845181101561182957600085828151811061169957611698613304565b5b6020026020010151905060008583815181106116b8576116b7613304565b5b60200260200101519050600080600084815260200190815260200160002060008b73ffffffffffffffffffffffffffffffffffffffff1673ffffffffffffffffffffffffffffffffffffffff16815260200190815260200160002054905081811015611759576040517f08c379a000000000000000000000000000000000000000000000000000000000815260040161175090613a01565b60405180910390fd5b81810360008085815260200190815260200160002060008c73ffffffffffffffffffffffffffffffffffffffff1673ffffffffffffffffffffffffffffffffffffffff168152602001908152602001600020819055508160008085815260200190815260200160002060008b73ffffffffffffffffffffffffffffffffffffffff1673ffffffffffffffffffffffffffffffffffffffff168152602001908152602001600020600082825461180e9190613a21565b925050819055505050508061182290613362565b905061167b565b508473ffffffffffffffffffffffffffffffffffffffff168673ffffffffffffffffffffffffffffffffffffffff168273ffffffffffffffffffffffffffffffffffffffff167f4a39dc06d4c0dbc64b70af90fd698a233a518aa5d07e595d983b8c0526c8f7fb87876040516118a0929190613a77565b60405180910390a46118b6818787878787611f54565b6118c4818787878787611f5c565b505050505050565b6000600360009054906101000a900473ffffffffffffffffffffffffffffffffffffffff16905081600360006101000a81548173ffffffffffffffffffffffffffffffffffffffff021916908373ffffffffffffffffffffffffffffffffffffffff1602179055508173ffffffffffffffffffffffffffffffffffffffff168173ffffffffffffffffffffffffffffffffffffffff167f8be0079c531659141344cd1fd0a4f28419497f9722a3daafe3b4186f6b6457e060405160405180910390a35050565b8173ffffffffffffffffffffffffffffffffffffffff168373ffffffffffffffffffffffffffffffffffffffff161415611a01576040517f08c379a00000000000000000000000000000000000000000000000000000000081526004016119f890613b20565b60405180910390fd5b80600160008573ffffffffffffffffffffffffffffffffffffffff1673ffffffffffffffffffffffffffffffffffffffff16815260200190815260200160002060008473ffffffffffffffffffffffffffffffffffffffff1673ffffffffffffffffffffffffffffffffffffffff16815260200190815260200160002060006101000a81548160ff0219169083151502179055508173ffffffffffffffffffffffffffffffffffffffff168373ffffffffffffffffffffffffffffffffffffffff167f17307eab39ab6107e8899845ad3d59bd9653f200f220920489ca2b5937696c3183604051611af2919061261c565b60405180910390a3505050565b600073ffffffffffffffffffffffffffffffffffffffff168473ffffffffffffffffffffffffffffffffffffffff161415611b6f576040517f08c379a0000000000000000000000000000000000000000000000000000000008152600401611b6690613bb2565b60405180910390fd5b6000611b796115a2565b90506000611b8685612143565b90506000611b9385612143565b9050611ba483600089858589611f4c565b8460008088815260200190815260200160002060008973ffffffffffffffffffffffffffffffffffffffff1673ffffffffffffffffffffffffffffffffffffffff1681526020019081526020016000206000828254611c039190613a21565b925050819055508673ffffffffffffffffffffffffffffffffffffffff16600073ffffffffffffffffffffffffffffffffffffffff168473ffffffffffffffffffffffffffffffffffffffff167fc3d58168c5ae7397731d063d5bbf3d657854427343f4c083240f7aacaa2d0f628989604051611c81929190613bd2565b60405180910390a4611c9883600089858589611f54565b611ca7836000898989896121bd565b50505050505050565b600073ffffffffffffffffffffffffffffffffffffffff168473ffffffffffffffffffffffffffffffffffffffff161415611d20576040517f08c379a0000000000000000000000000000000000000000000000000000000008152600401611d179061396f565b60405180910390fd5b6000611d2a6115a2565b90506000611d3785612143565b90506000611d4485612143565b9050611d54838989858589611f4c565b600080600088815260200190815260200160002060008a73ffffffffffffffffffffffffffffffffffffffff1673ffffffffffffffffffffffffffffffffffffffff16815260200190815260200160002054905085811015611deb576040517f08c379a0000000000000000000000000000000000000000000000000000000008152600401611de290613a01565b60405180910390fd5b85810360008089815260200190815260200160002060008b73ffffffffffffffffffffffffffffffffffffffff1673ffffffffffffffffffffffffffffffffffffffff168152602001908152602001600020819055508560008089815260200190815260200160002060008a73ffffffffffffffffffffffffffffffffffffffff1673ffffffffffffffffffffffffffffffffffffffff1681526020019081526020016000206000828254611ea09190613a21565b925050819055508773ffffffffffffffffffffffffffffffffffffffff168973ffffffffffffffffffffffffffffffffffffffff168573ffffffffffffffffffffffffffffffffffffffff167fc3d58168c5ae7397731d063d5bbf3d657854427343f4c083240f7aacaa2d0f628a8a604051611f1d929190613bd2565b60405180910390a4611f33848a8a86868a611f54565b611f41848a8a8a8a8a6121bd565b505050505050505050565b505050505050565b505050505050565b611f7b8473ffffffffffffffffffffffffffffffffffffffff166123a4565b1561213b578373ffffffffffffffffffffffffffffffffffffffff1663bc197c8187878686866040518663ffffffff1660e01b8152600401611fc1959493929190613c50565b602060405180830381600087803b158015611fdb57600080fd5b505af192505050801561200c57506040513d601f19601f820116820180604052508101906120099190613ccd565b60015b6120b257612018613d07565b806308c379a01415612075575061202d613d29565b806120385750612077565b806040517f08c379a000000000000000000000000000000000000000000000000000000000815260040161206c91906126fd565b60405180910390fd5b505b6040517f08c379a00000000000000000000000000000000000000000000000000000000081526004016120a990613e31565b60405180910390fd5b63bc197c8160e01b7bffffffffffffffffffffffffffffffffffffffffffffffffffffffff1916817bffffffffffffffffffffffffffffffffffffffffffffffffffffffff191614612139576040517f08c379a000000000000000000000000000000000000000000000000000000000815260040161213090613ec3565b60405180910390fd5b505b505050505050565b60606000600167ffffffffffffffff81111561216257612161612764565b5b6040519080825280602002602001820160405280156121905781602001602082028036833780820191505090505b50905082816000815181106121a8576121a7613304565b5b60200260200101818152505080915050919050565b6121dc8473ffffffffffffffffffffffffffffffffffffffff166123a4565b1561239c578373ffffffffffffffffffffffffffffffffffffffff1663f23a6e6187878686866040518663ffffffff1660e01b8152600401612222959493929190613ee3565b602060405180830381600087803b15801561223c57600080fd5b505af192505050801561226d57506040513d601f19601f8201168201806040525081019061226a9190613ccd565b60015b61231357612279613d07565b806308c379a014156122d6575061228e613d29565b8061229957506122d8565b806040517f08c379a00000000000000000000000000000000000000000000000000000000081526004016122cd91906126fd565b60405180910390fd5b505b6040517f08c379a000000000000000000000000000000000000000000000000000000000815260040161230a90613e31565b60405180910390fd5b63f23a6e6160e01b7bffffffffffffffffffffffffffffffffffffffffffffffffffffffff1916817bffffffffffffffffffffffffffffffffffffffffffffffffffffffff19161461239a576040517f08c379a000000000000000000000000000000000000000000000000000000000815260040161239190613ec3565b60405180910390fd5b505b505050505050565b6000808273ffffffffffffffffffffffffffffffffffffffff163b119050919050565b8280546123d3906131ae565b90600052602060002090601f0160209004810192826123f5576000855561243c565b82601f1061240e57805160ff191683800117855561243c565b8280016001018555821561243c579182015b8281111561243b578251825591602001919060010190612420565b5b509050612449919061244d565b5090565b5b8082111561246657600081600090555060010161244e565b5090565b6000604051905090565b600080fd5b600080fd5b600073ffffffffffffffffffffffffffffffffffffffff82169050919050565b60006124a98261247e565b9050919050565b6124b98161249e565b81146124c457600080fd5b50565b6000813590506124d6816124b0565b92915050565b6000819050919050565b6124ef816124dc565b81146124fa57600080fd5b50565b60008135905061250c816124e6565b92915050565b6000806040838503121561252957612528612474565b5b6000612537858286016124c7565b9250506020612548858286016124fd565b9150509250929050565b61255b816124dc565b82525050565b60006020820190506125766000830184612552565b92915050565b60007fffffffff0000000000000000000000000000000000000000000000000000000082169050919050565b6125b18161257c565b81146125bc57600080fd5b50565b6000813590506125ce816125a8565b92915050565b6000602082840312156125ea576125e9612474565b5b60006125f8848285016125bf565b91505092915050565b60008115159050919050565b61261681612601565b82525050565b6000602082019050612631600083018461260d565b92915050565b60006020828403121561264d5761264c612474565b5b600061265b848285016124fd565b91505092915050565b600081519050919050565b600082825260208201905092915050565b60005b8381101561269e578082015181840152602081019050612683565b838111156126ad576000848401525b50505050565b6000601f19601f8301169050919050565b60006126cf82612664565b6126d9818561266f565b93506126e9818560208601612680565b6126f2816126b3565b840191505092915050565b6000602082019050818103600083015261271781846126c4565b905092915050565b6000806040838503121561273657612735612474565b5b6000612744858286016124fd565b9250506020612755858286016124fd565b9150509250929050565b600080fd5b7f4e487b7100000000000000000000000000000000000000000000000000000000600052604160045260246000fd5b61279c826126b3565b810181811067ffffffffffffffff821117156127bb576127ba612764565b5b80604052505050565b60006127ce61246a565b90506127da8282612793565b919050565b600067ffffffffffffffff8211156127fa576127f9612764565b5b602082029050602081019050919050565b600080fd5b600061282361281e846127df565b6127c4565b905080838252602082019050602084028301858111156128465761284561280b565b5b835b8181101561286f578061285b88826124fd565b845260208401935050602081019050612848565b5050509392505050565b600082601f83011261288e5761288d61275f565b5b813561289e848260208601612810565b91505092915050565b600080fd5b600067ffffffffffffffff8211156128c7576128c6612764565b5b6128d0826126b3565b9050602081019050919050565b82818337600083830152505050565b60006128ff6128fa846128ac565b6127c4565b90508281526020810184848401111561291b5761291a6128a7565b5b6129268482856128dd565b509392505050565b600082601f8301126129435761294261275f565b5b81356129538482602086016128ec565b91505092915050565b600080600080600060a0868803121561297857612977612474565b5b6000612986888289016124c7565b9550506020612997888289016124c7565b945050604086013567ffffffffffffffff8111156129b8576129b7612479565b5b6129c488828901612879565b935050606086013567ffffffffffffffff8111156129e5576129e4612479565b5b6129f188828901612879565b925050608086013567ffffffffffffffff811115612a1257612a11612479565b5b612a1e8882890161292e565b9150509295509295909350565b600067ffffffffffffffff821115612a4657612a45612764565b5b602082029050602081019050919050565b6000612a6a612a6584612a2b565b6127c4565b90508083825260208201905060208402830185811115612a8d57612a8c61280b565b5b835b81811015612ab65780612aa288826124c7565b845260208401935050602081019050612a8f565b5050509392505050565b600082601f830112612ad557612ad461275f565b5b8135612ae5848260208601612a57565b91505092915050565b60008060408385031215612b0557612b04612474565b5b600083013567ffffffffffffffff811115612b2357612b22612479565b5b612b2f85828601612ac0565b925050602083013567ffffffffffffffff811115612b5057612b4f612479565b5b612b5c85828601612879565b9150509250929050565b600081519050919050565b600082825260208201905092915050565b6000819050602082019050919050565b612b9b816124dc565b82525050565b6000612bad8383612b92565b60208301905092915050565b6000602082019050919050565b6000612bd182612b66565b612bdb8185612b71565b9350612be683612b82565b8060005b83811015612c17578151612bfe8882612ba1565b9750612c0983612bb9565b925050600181019050612bea565b5085935050505092915050565b60006020820190508181036000830152612c3e8184612bc6565b905092915050565b612c4f8161249e565b82525050565b6000602082019050612c6a6000830184612c46565b92915050565b612c7981612601565b8114612c8457600080fd5b50565b600081359050612c9681612c70565b92915050565b60008060408385031215612cb357612cb2612474565b5b6000612cc1858286016124c7565b9250506020612cd285828601612c87565b9150509250929050565b600067ffffffffffffffff821115612cf757612cf6612764565b5b602082029050602081019050919050565b600067ffffffffffffffff821115612d2357612d22612764565b5b612d2c826126b3565b9050602081019050919050565b6000612d4c612d4784612d08565b6127c4565b905082815260208101848484011115612d6857612d676128a7565b5b612d738482856128dd565b509392505050565b600082601f830112612d9057612d8f61275f565b5b8135612da0848260208601612d39565b91505092915050565b6000612dbc612db784612cdc565b6127c4565b90508083825260208201905060208402830185811115612ddf57612dde61280b565b5b835b81811015612e2657803567ffffffffffffffff811115612e0457612e0361275f565b5b808601612e118982612d7b565b85526020850194505050602081019050612de1565b5050509392505050565b600082601f830112612e4557612e4461275f565b5b8135612e55848260208601612da9565b91505092915050565b600080600080600060a08688031215612e7a57612e79612474565b5b600086013567ffffffffffffffff811115612e9857612e97612479565b5b612ea488828901612e30565b955050602086013567ffffffffffffffff811115612ec557612ec4612479565b5b612ed188828901612e30565b945050604086013567ffffffffffffffff811115612ef257612ef1612479565b5b612efe88828901612e30565b935050606086013567ffffffffffffffff811115612f1f57612f1e612479565b5b612f2b88828901612879565b925050608086013567ffffffffffffffff811115612f4c57612f4b612479565b5b612f5888828901612879565b9150509295509295909350565b600060e0820190508181036000830152612f7f818a6126c4565b90508181036020830152612f9381896126c4565b90508181036040830152612fa781886126c4565b9050612fb66060830187612552565b612fc36080830186612c46565b612fd060a0830185612552565b612fdd60c083018461260d565b98975050505050505050565b6000806040838503121561300057612fff612474565b5b600061300e858286016124c7565b925050602061301f858286016124c7565b9150509250929050565b600080600080600060a0868803121561304557613044612474565b5b6000613053888289016124c7565b9550506020613064888289016124c7565b9450506040613075888289016124fd565b9350506060613086888289016124fd565b925050608086013567ffffffffffffffff8111156130a7576130a6612479565b5b6130b38882890161292e565b9150509295509295909350565b6000602082840312156130d6576130d5612474565b5b60006130e4848285016124c7565b91505092915050565b7f455243313135353a2061646472657373207a65726f206973206e6f742061207660008201527f616c6964206f776e657200000000000000000000000000000000000000000000602082015250565b6000613149602a8361266f565b9150613154826130ed565b604082019050919050565b600060208201905081810360008301526131788161313c565b9050919050565b7f4e487b7100000000000000000000000000000000000000000000000000000000600052602260045260246000fd5b600060028204905060018216806131c657607f821691505b602082108114156131da576131d961317f565b5b50919050565b7f455243313135353a2063616c6c6572206973206e6f7420746f6b656e206f776e60008201527f6572206f7220617070726f766564000000000000000000000000000000000000602082015250565b600061323c602e8361266f565b9150613247826131e0565b604082019050919050565b6000602082019050818103600083015261326b8161322f565b9050919050565b7f455243313135353a206163636f756e747320616e6420696473206c656e67746860008201527f206d69736d617463680000000000000000000000000000000000000000000000602082015250565b60006132ce60298361266f565b91506132d982613272565b604082019050919050565b600060208201905081810360008301526132fd816132c1565b9050919050565b7f4e487b7100000000000000000000000000000000000000000000000000000000600052603260045260246000fd5b7f4e487b7100000000000000000000000000000000000000000000000000000000600052601160045260246000fd5b600061336d826124dc565b91507fffffffffffffffffffffffffffffffffffffffffffffffffffffffffffffffff8214156133a05761339f613333565b5b600182019050919050565b7f4974656d206973206e6f7420666f722073616c652e0000000000000000000000600082015250565b60006133e160158361266f565b91506133ec826133ab565b602082019050919050565b60006020820190508181036000830152613410816133d4565b9050919050565b6000613422826124dc565b915061342d836124dc565b9250817fffffffffffffffffffffffffffffffffffffffffffffffffffffffffffffffff048311821515161561346657613465613333565b5b828202905092915050565b7f496e73756666696369656e74207061796d656e742e0000000000000000000000600082015250565b60006134a760158361266f565b91506134b282613471565b602082019050919050565b600060208201905081810360008301526134d68161349a565b9050919050565b7f496e73756666696369656e7420737570706c792e000000000000000000000000600082015250565b600061351360148361266f565b915061351e826134dd565b602082019050919050565b6000602082019050818103600083015261354281613506565b9050919050565b6000613554826124dc565b915061355f836124dc565b92508282101561357257613571613333565b5b828203905092915050565b7f417272617973206d757374206265207468652073616d65206c656e6774682e00600082015250565b60006135b3601f8361266f565b91506135be8261357d565b602082019050919050565b600060208201905081810360008301526135e2816135a6565b9050919050565b7f4f6e6c7920746865206f776e65722063616e2063616e63656c2074686520736160008201527f6c652e0000000000000000000000000000000000000000000000000000000000602082015250565b600061364560238361266f565b9150613650826135e9565b604082019050919050565b6000602082019050818103600083015261367481613638565b9050919050565b6000819050919050565b6000819050919050565b60006136aa6136a56136a08461367b565b613685565b6124dc565b9050919050565b6136ba8161368f565b82525050565b60006020820190506136d560008301846136b1565b92915050565b7f4f6e6c7920746865206f776e65722063616e206c69737420746865206974656d60008201527f20666f722073616c652e00000000000000000000000000000000000000000000602082015250565b6000613737602a8361266f565b9150613742826136db565b604082019050919050565b600060208201905081810360008301526137668161372a565b9050919050565b7f4f776e61626c653a206e6577206f776e657220697320746865207a65726f206160008201527f6464726573730000000000000000000000000000000000000000000000000000602082015250565b60006137c960268361266f565b91506137d48261376d565b604082019050919050565b600060208201905081810360008301526137f8816137bc565b9050919050565b7f4f776e61626c653a2063616c6c6572206973206e6f7420746865206f776e6572600082015250565b600061383560208361266f565b9150613840826137ff565b602082019050919050565b6000602082019050818103600083015261386481613828565b9050919050565b7f455243313135353a2069647320616e6420616d6f756e7473206c656e6774682060008201527f6d69736d61746368000000000000000000000000000000000000000000000000602082015250565b60006138c760288361266f565b91506138d28261386b565b604082019050919050565b600060208201905081810360008301526138f6816138ba565b9050919050565b7f455243313135353a207472616e7366657220746f20746865207a65726f20616460008201527f6472657373000000000000000000000000000000000000000000000000000000602082015250565b600061395960258361266f565b9150613964826138fd565b604082019050919050565b600060208201905081810360008301526139888161394c565b9050919050565b7f455243313135353a20696e73756666696369656e742062616c616e636520666f60008201527f72207472616e7366657200000000000000000000000000000000000000000000602082015250565b60006139eb602a8361266f565b91506139f68261398f565b604082019050919050565b60006020820190508181036000830152613a1a816139de565b9050919050565b6000613a2c826124dc565b9150613a37836124dc565b9250827fffffffffffffffffffffffffffffffffffffffffffffffffffffffffffffffff03821115613a6c57613a6b613333565b5b828201905092915050565b60006040820190508181036000830152613a918185612bc6565b90508181036020830152613aa58184612bc6565b90509392505050565b7f455243313135353a2073657474696e6720617070726f76616c2073746174757360008201527f20666f722073656c660000000000000000000000000000000000000000000000602082015250565b6000613b0a60298361266f565b9150613b1582613aae565b604082019050919050565b60006020820190508181036000830152613b3981613afd565b9050919050565b7f455243313135353a206d696e7420746f20746865207a65726f2061646472657360008201527f7300000000000000000000000000000000000000000000000000000000000000602082015250565b6000613b9c60218361266f565b9150613ba782613b40565b604082019050919050565b60006020820190508181036000830152613bcb81613b8f565b9050919050565b6000604082019050613be76000830185612552565b613bf46020830184612552565b9392505050565b600081519050919050565b600082825260208201905092915050565b6000613c2282613bfb565b613c2c8185613c06565b9350613c3c818560208601612680565b613c45816126b3565b840191505092915050565b600060a082019050613c656000830188612c46565b613c726020830187612c46565b8181036040830152613c848186612bc6565b90508181036060830152613c988185612bc6565b90508181036080830152613cac8184613c17565b90509695505050505050565b600081519050613cc7816125a8565b92915050565b600060208284031215613ce357613ce2612474565b5b6000613cf184828501613cb8565b91505092915050565b60008160e01c9050919050565b600060033d1115613d265760046000803e613d23600051613cfa565b90505b90565b600060443d1015613d3957613dbc565b613d4161246a565b60043d036004823e80513d602482011167ffffffffffffffff82111715613d69575050613dbc565b808201805167ffffffffffffffff811115613d875750505050613dbc565b80602083010160043d038501811115613da4575050505050613dbc565b613db382602001850186612793565b82955050505050505b90565b7f455243313135353a207472616e7366657220746f206e6f6e2d4552433131353560008201527f526563656976657220696d706c656d656e746572000000000000000000000000602082015250565b6000613e1b60348361266f565b9150613e2682613dbf565b604082019050919050565b60006020820190508181036000830152613e4a81613e0e565b9050919050565b7f455243313135353a204552433131353552656365697665722072656a6563746560008201527f6420746f6b656e73000000000000000000000000000000000000000000000000602082015250565b6000613ead60288361266f565b9150613eb882613e51565b604082019050919050565b60006020820190508181036000830152613edc81613ea0565b9050919050565b600060a082019050613ef86000830188612c46565b613f056020830187612c46565b613f126040830186612552565b613f1f6060830185612552565b8181036080830152613f318184613c17565b9050969550505050505056fea26469706673582212201139829c0f50e6feefc35ca621e64ad0259462a6f5f232cac6cec83320a78b3764736f6c63430008090033",
  "linkReferences": {},
  "deployedLinkReferences": {}
}