{
  "_format": "hh-sol-artifact-1",
  "contractName": "contracktV001",
  "sourceName": "contracts/contrackts.sol",
  "abi": [
    {
      "inputs": [],
      "stateMutability": "nonpayable",
      "type": "constructor"
    },
    {
      "anonymous": false,
      "inputs": [
        {
          "indexed": true,
          "internalType": "address",
          "name": "account",
          "type": "address"
        },
        {
          "indexed": true,
          "internalType": "address",
          "name": "operator",
          "type": "address"
        },
        {
          "indexed": false,
          "internalType": "bool",
          "name": "approved",
          "type": "bool"
        }
      ],
      "name": "ApprovalForAll",
      "type": "event"
    },
    {
      "anonymous": false,
      "inputs": [
        {
          "indexed": true,
          "internalType": "address",
          "name": "previousOwner",
          "type": "address"
        },
        {
          "indexed": true,
          "internalType": "address",
          "name": "newOwner",
          "type": "address"
        }
      ],
      "name": "OwnershipTransferred",
      "type": "event"
    },
    {
      "anonymous": false,
      "inputs": [
        {
          "indexed": true,
          "internalType": "address",
          "name": "operator",
          "type": "address"
        },
        {
          "indexed": true,
          "internalType": "address",
          "name": "from",
          "type": "address"
        },
        {
          "indexed": true,
          "internalType": "address",
          "name": "to",
          "type": "address"
        },
        {
          "indexed": false,
          "internalType": "uint256[]",
          "name": "ids",
          "type": "uint256[]"
        },
        {
          "indexed": false,
          "internalType": "uint256[]",
          "name": "values",
          "type": "uint256[]"
        }
      ],
      "name": "TransferBatch",
      "type": "event"
    },
    {
      "anonymous": false,
      "inputs": [
        {
          "indexed": true,
          "internalType": "address",
          "name": "operator",
          "type": "address"
        },
        {
          "indexed": true,
          "internalType": "address",
          "name": "from",
          "type": "address"
        },
        {
          "indexed": true,
          "internalType": "address",
          "name": "to",
          "type": "address"
        },
        {
          "indexed": false,
          "internalType": "uint256",
          "name": "id",
          "type": "uint256"
        },
        {
          "indexed": false,
          "internalType": "uint256",
          "name": "value",
          "type": "uint256"
        }
      ],
      "name": "TransferSingle",
      "type": "event"
    },
    {
      "anonymous": false,
      "inputs": [
        {
          "indexed": false,
          "internalType": "string",
          "name": "value",
          "type": "string"
        },
        {
          "indexed": true,
          "internalType": "uint256",
          "name": "id",
          "type": "uint256"
        }
      ],
      "name": "URI",
      "type": "event"
    },
    {
      "inputs": [
        {
          "internalType": "uint256",
          "name": "orderId",
          "type": "uint256"
        },
        {
          "internalType": "address",
          "name": "intermediary",
          "type": "address"
        }
      ],
      "name": "addIntermediary",
      "outputs": [],
      "stateMutability": "nonpayable",
      "type": "function"
    },
    {
      "inputs": [
        {
          "internalType": "address",
          "name": "account",
          "type": "address"
        },
        {
          "internalType": "uint256",
          "name": "id",
          "type": "uint256"
        }
      ],
      "name": "balanceOf",
      "outputs": [
        {
          "internalType": "uint256",
          "name": "",
          "type": "uint256"
        }
      ],
      "stateMutability": "view",
      "type": "function"
    },
    {
      "inputs": [
        {
          "internalType": "address[]",
          "name": "accounts",
          "type": "address[]"
        },
        {
          "internalType": "uint256[]",
          "name": "ids",
          "type": "uint256[]"
        }
      ],
      "name": "balanceOfBatch",
      "outputs": [
        {
          "internalType": "uint256[]",
          "name": "",
          "type": "uint256[]"
        }
      ],
      "stateMutability": "view",
      "type": "function"
    },
    {
      "inputs": [
        {
          "internalType": "uint256",
          "name": "saleItemId",
          "type": "uint256"
        },
        {
          "internalType": "uint256",
          "name": "quantity",
          "type": "uint256"
        }
      ],
      "name": "buyItem",
      "outputs": [],
      "stateMutability": "nonpayable",
      "type": "function"
    },
    {
      "inputs": [
        {
          "internalType": "uint256",
          "name": "orderId",
          "type": "uint256"
        }
      ],
      "name": "cancelItem",
      "outputs": [],
      "stateMutability": "nonpayable",
      "type": "function"
    },
    {
      "inputs": [
        {
          "internalType": "uint256",
          "name": "orderId",
          "type": "uint256"
        },
        {
          "internalType": "address",
          "name": "intermediary",
          "type": "address"
        },
        {
          "internalType": "bool",
          "name": "access",
          "type": "bool"
        }
      ],
      "name": "controllIntermediaryAccessHold",
      "outputs": [],
      "stateMutability": "nonpayable",
      "type": "function"
    },
    {
      "inputs": [
        {
          "internalType": "string",
          "name": "name",
          "type": "string"
        },
        {
          "internalType": "uint256",
          "name": "quantity",
          "type": "uint256"
        },
        {
          "internalType": "string",
          "name": "uri",
          "type": "string"
        }
      ],
      "name": "createItem",
      "outputs": [],
      "stateMutability": "nonpayable",
      "type": "function"
    },
    {
      "inputs": [
        {
          "internalType": "uint256",
          "name": "_orderId",
          "type": "uint256"
        }
      ],
      "name": "deliverItem",
      "outputs": [],
      "stateMutability": "nonpayable",
      "type": "function"
    },
    {
      "inputs": [
        {
          "internalType": "uint256",
          "name": "_orderId",
          "type": "uint256"
        }
      ],
      "name": "getIntermediariesAndStatus",
      "outputs": [
        {
          "internalType": "address[]",
          "name": "",
          "type": "address[]"
        },
        {
          "internalType": "string[][]",
          "name": "",
          "type": "string[][]"
        }
      ],
      "stateMutability": "view",
      "type": "function"
    },
    {
      "inputs": [
        {
          "internalType": "address",
          "name": "account",
          "type": "address"
        },
        {
          "internalType": "address",
          "name": "operator",
          "type": "address"
        }
      ],
      "name": "isApprovedForAll",
      "outputs": [
        {
          "internalType": "bool",
          "name": "",
          "type": "bool"
        }
      ],
      "stateMutability": "view",
      "type": "function"
    },
    {
      "inputs": [
        {
          "internalType": "uint256",
          "name": "orderId",
          "type": "uint256"
        },
        {
          "internalType": "address",
          "name": "intermediary",
          "type": "address"
        }
      ],
      "name": "isIntermediaryAccessActive",
      "outputs": [
        {
          "internalType": "bool",
          "name": "",
          "type": "bool"
        }
      ],
      "stateMutability": "view",
      "type": "function"
    },
    {
      "inputs": [
        {
          "internalType": "uint256",
          "name": "_orderId",
          "type": "uint256"
        },
        {
          "internalType": "address",
          "name": "_intermediary",
          "type": "address"
        }
      ],
      "name": "isIntermediaryOfOrder",
      "outputs": [
        {
          "internalType": "bool",
          "name": "",
          "type": "bool"
        }
      ],
      "stateMutability": "view",
      "type": "function"
    },
    {
      "inputs": [],
      "name": "itemCount",
      "outputs": [
        {
          "internalType": "uint256",
          "name": "",
          "type": "uint256"
        }
      ],
      "stateMutability": "view",
      "type": "function"
    },
    {
      "inputs": [
        {
          "internalType": "uint256",
          "name": "",
          "type": "uint256"
        }
      ],
      "name": "items",
      "outputs": [
        {
          "internalType": "uint256",
          "name": "itemId",
          "type": "uint256"
        },
        {
          "internalType": "uint256",
          "name": "quantity",
          "type": "uint256"
        },
        {
          "internalType": "string",
          "name": "name",
          "type": "string"
        },
        {
          "internalType": "string",
          "name": "uri",
          "type": "string"
        },
        {
          "internalType": "address",
          "name": "seller",
          "type": "address"
        }
      ],
      "stateMutability": "view",
      "type": "function"
    },
    {
      "inputs": [
        {
          "internalType": "uint256",
          "name": "itemId",
          "type": "uint256"
        },
        {
          "internalType": "uint256",
          "name": "quantity",
          "type": "uint256"
        },
        {
          "internalType": "uint256",
          "name": "price",
          "type": "uint256"
        }
      ],
      "name": "listItemForSale",
      "outputs": [],
      "stateMutability": "nonpayable",
      "type": "function"
    },
    {
      "inputs": [],
      "name": "manager",
      "outputs": [
        {
          "internalType": "address",
          "name": "",
          "type": "address"
        }
      ],
      "stateMutability": "view",
      "type": "function"
    },
    {
      "inputs": [],
      "name": "orderCount",
      "outputs": [
        {
          "internalType": "uint256",
          "name": "",
          "type": "uint256"
        }
      ],
      "stateMutability": "view",
      "type": "function"
    },
    {
      "inputs": [
        {
          "internalType": "uint256",
          "name": "",
          "type": "uint256"
        }
      ],
      "name": "orders",
      "outputs": [
        {
          "internalType": "uint256",
          "name": "orderId",
          "type": "uint256"
        },
        {
          "internalType": "uint256",
          "name": "saleItemId",
          "type": "uint256"
        },
        {
          "internalType": "uint256",
          "name": "quantity",
          "type": "uint256"
        },
        {
          "internalType": "address",
          "name": "seller",
          "type": "address"
        },
        {
          "internalType": "address",
          "name": "buyer",
          "type": "address"
        },
        {
          "internalType": "string",
          "name": "status",
          "type": "string"
        }
      ],
      "stateMutability": "view",
      "type": "function"
    },
    {
      "inputs": [],
      "name": "owner",
      "outputs": [
        {
          "internalType": "address",
          "name": "",
          "type": "address"
        }
      ],
      "stateMutability": "view",
      "type": "function"
    },
    {
      "inputs": [
        {
          "internalType": "uint256",
          "name": "orderId",
          "type": "uint256"
        }
      ],
      "name": "renounceIntermediary",
      "outputs": [],
      "stateMutability": "nonpayable",
      "type": "function"
    },
    {
      "inputs": [],
      "name": "renounceOwnership",
      "outputs": [],
      "stateMutability": "nonpayable",
      "type": "function"
    },
    {
      "inputs": [
        {
          "internalType": "address",
          "name": "from",
          "type": "address"
        },
        {
          "internalType": "address",
          "name": "to",
          "type": "address"
        },
        {
          "internalType": "uint256[]",
          "name": "ids",
          "type": "uint256[]"
        },
        {
          "internalType": "uint256[]",
          "name": "amounts",
          "type": "uint256[]"
        },
        {
          "internalType": "bytes",
          "name": "data",
          "type": "bytes"
        }
      ],
      "name": "safeBatchTransferFrom",
      "outputs": [],
      "stateMutability": "nonpayable",
      "type": "function"
    },
    {
      "inputs": [
        {
          "internalType": "address",
          "name": "from",
          "type": "address"
        },
        {
          "internalType": "address",
          "name": "to",
          "type": "address"
        },
        {
          "internalType": "uint256",
          "name": "id",
          "type": "uint256"
        },
        {
          "internalType": "uint256",
          "name": "amount",
          "type": "uint256"
        },
        {
          "internalType": "bytes",
          "name": "data",
          "type": "bytes"
        }
      ],
      "name": "safeTransferFrom",
      "outputs": [],
      "stateMutability": "nonpayable",
      "type": "function"
    },
    {
      "inputs": [],
      "name": "saleItemCount",
      "outputs": [
        {
          "internalType": "uint256",
          "name": "",
          "type": "uint256"
        }
      ],
      "stateMutability": "view",
      "type": "function"
    },
    {
      "inputs": [
        {
          "internalType": "uint256",
          "name": "",
          "type": "uint256"
        }
      ],
      "name": "saleItems",
      "outputs": [
        {
          "internalType": "uint256",
          "name": "itemId",
          "type": "uint256"
        },
        {
          "internalType": "uint256",
          "name": "quantity",
          "type": "uint256"
        },
        {
          "internalType": "uint256",
          "name": "price",
          "type": "uint256"
        },
        {
          "internalType": "string",
          "name": "uri",
          "type": "string"
        },
        {
          "internalType": "address",
          "name": "seller",
          "type": "address"
        }
      ],
      "stateMutability": "view",
      "type": "function"
    },
    {
      "inputs": [
        {
          "internalType": "address",
          "name": "operator",
          "type": "address"
        },
        {
          "internalType": "bool",
          "name": "approved",
          "type": "bool"
        }
      ],
      "name": "setApprovalForAll",
      "outputs": [],
      "stateMutability": "nonpayable",
      "type": "function"
    },
    {
      "inputs": [
        {
          "internalType": "address",
          "name": "_manager",
          "type": "address"
        }
      ],
      "name": "setManager",
      "outputs": [],
      "stateMutability": "nonpayable",
      "type": "function"
    },
    {
      "inputs": [
        {
          "internalType": "bytes4",
          "name": "interfaceId",
          "type": "bytes4"
        }
      ],
      "name": "supportsInterface",
      "outputs": [
        {
          "internalType": "bool",
          "name": "",
          "type": "bool"
        }
      ],
      "stateMutability": "view",
      "type": "function"
    },
    {
      "inputs": [
        {
          "internalType": "address",
          "name": "newOwner",
          "type": "address"
        }
      ],
      "name": "transferOwnership",
      "outputs": [],
      "stateMutability": "nonpayable",
      "type": "function"
    },
    {
      "inputs": [
        {
          "internalType": "uint256",
          "name": "orderId",
          "type": "uint256"
        },
        {
          "internalType": "string",
          "name": "status",
          "type": "string"
        }
      ],
      "name": "updateOrderStatus",
      "outputs": [],
      "stateMutability": "nonpayable",
      "type": "function"
    },
    {
      "inputs": [
        {
          "internalType": "uint256",
          "name": "",
          "type": "uint256"
        }
      ],
      "name": "uri",
      "outputs": [
        {
          "internalType": "string",
          "name": "",
          "type": "string"
        }
      ],
      "stateMutability": "view",
      "type": "function"
    }
  ],
  "bytecode": "0x60806040523480156200001157600080fd5b506040518060400160405280600481526020017f7b69647d000000000000000000000000000000000000000000000000000000008152506200005981620000c960201b60201c565b506200007a6200006e620000e560201b60201c565b620000ed60201b60201c565b600160048190555033600c60006101000a81548173ffffffffffffffffffffffffffffffffffffffff021916908373ffffffffffffffffffffffffffffffffffffffff160217905550620002c8565b8060029080519060200190620000e1929190620001b3565b5050565b600033905090565b6000600360009054906101000a900473ffffffffffffffffffffffffffffffffffffffff16905081600360006101000a81548173ffffffffffffffffffffffffffffffffffffffff021916908373ffffffffffffffffffffffffffffffffffffffff1602179055508173ffffffffffffffffffffffffffffffffffffffff168173ffffffffffffffffffffffffffffffffffffffff167f8be0079c531659141344cd1fd0a4f28419497f9722a3daafe3b4186f6b6457e060405160405180910390a35050565b828054620001c19062000292565b90600052602060002090601f016020900481019282620001e5576000855562000231565b82601f106200020057805160ff191683800117855562000231565b8280016001018555821562000231579182015b828111156200023057825182559160200191906001019062000213565b5b50905062000240919062000244565b5090565b5b808211156200025f57600081600090555060010162000245565b5090565b7f4e487b7100000000000000000000000000000000000000000000000000000000600052602260045260246000fd5b60006002820490506001821680620002ab57607f821691505b60208210811415620002c257620002c162000263565b5b50919050565b6158f180620002d86000396000f3fe608060405234801561001057600080fd5b50600436106101e45760003560e01c8063715018a61161010f578063bfb231d2116100a2578063e985e9c511610071578063e985e9c5146105ab578063edc07396146105db578063f242432a146105f7578063f2fde38b14610613576101e4565b8063bfb231d2146104fa578063c02a51811461052e578063c16cade51461055f578063d0ebdbe71461058f576101e4565b80639979c009116100de5780639979c00914610471578063a0a5af5f1461048d578063a22cb465146104a9578063a85c38ef146104c5576101e4565b8063715018a6146103f95780637d9208b7146104035780638abf20921461041f5780638da5cb5b14610453576101e4565b8063312fb302116101875780634e1273f4116101565780634e1273f41461037357806351563f8e146103a3578063532e1453146103bf5780636bfb0d01146103db576101e4565b8063312fb302146102eb5780633457770d14610309578063481c6a75146103255780634d4886b714610343576101e4565b80631f686083116101c35780631f68608314610279578063205fdde6146102955780632453ffa8146102b15780632eb2c2d6146102cf576101e4565b8062fdd58e146101e957806301ffc9a7146102195780630e89341c14610249575b600080fd5b61020360048036038101906101fe9190613a4f565b61062f565b6040516102109190613a9e565b60405180910390f35b610233600480360381019061022e9190613b11565b6106f8565b6040516102409190613b59565b60405180910390f35b610263600480360381019061025e9190613b74565b6107da565b6040516102709190613c3a565b60405180910390f35b610293600480360381019061028e9190613b74565b61086e565b005b6102af60048036038101906102aa9190613d91565b610a0c565b005b6102b9610c7b565b6040516102c69190613a9e565b60405180910390f35b6102e960048036038101906102e49190613f56565b610c81565b005b6102f3610d22565b6040516103009190613a9e565b60405180910390f35b610323600480360381019061031e9190614025565b610d28565b005b61032d610e3d565b60405161033a91906140bf565b60405180910390f35b61035d600480360381019061035891906140da565b610e63565b60405161036a9190613b59565b60405180910390f35b61038d600480360381019061038891906141dd565b610f76565b60405161039a9190614313565b60405180910390f35b6103bd60048036038101906103b89190613b74565b61108f565b005b6103d960048036038101906103d49190614361565b6112b7565b005b6103e36113d2565b6040516103f09190613a9e565b60405180910390f35b6104016113d8565b005b61041d600480360381019061041891906143b4565b6113ec565b005b61043960048036038101906104349190613b74565b611642565b60405161044a959493929190614407565b60405180910390f35b61045b611720565b60405161046891906140bf565b60405180910390f35b61048b60048036038101906104869190614461565b61174a565b005b6104a760048036038101906104a29190613b74565b611bfd565b005b6104c360048036038101906104be91906144a1565b611d98565b005b6104df60048036038101906104da9190613b74565b611dae565b6040516104f1969594939291906144e1565b60405180910390f35b610514600480360381019061050f9190613b74565b611eb2565b604051610525959493929190614549565b60405180910390f35b61054860048036038101906105439190613b74565b612018565b604051610556929190614836565b60405180910390f35b610579600480360381019061057491906140da565b612425565b6040516105869190613b59565b60405180910390f35b6105a960048036038101906105a4919061486d565b6124ee565b005b6105c560048036038101906105c0919061489a565b61253a565b6040516105d29190613b59565b60405180910390f35b6105f560048036038101906105f091906140da565b6125ce565b005b610611600480360381019061060c91906148da565b61281c565b005b61062d6004803603810190610628919061486d565b6128bd565b005b60008073ffffffffffffffffffffffffffffffffffffffff168373ffffffffffffffffffffffffffffffffffffffff1614156106a0576040517f08c379a0000000000000000000000000000000000000000000000000000000008152600401610697906149e3565b60405180910390fd5b60008083815260200190815260200160002060008473ffffffffffffffffffffffffffffffffffffffff1673ffffffffffffffffffffffffffffffffffffffff16815260200190815260200160002054905092915050565b60007fd9b67a26000000000000000000000000000000000000000000000000000000007bffffffffffffffffffffffffffffffffffffffffffffffffffffffff1916827bffffffffffffffffffffffffffffffffffffffffffffffffffffffff191614806107c357507f0e89341c000000000000000000000000000000000000000000000000000000007bffffffffffffffffffffffffffffffffffffffffffffffffffffffff1916827bffffffffffffffffffffffffffffffffffffffffffffffffffffffff1916145b806107d357506107d282612941565b5b9050919050565b6060600280546107e990614a32565b80601f016020809104026020016040519081016040528092919081815260200182805461081590614a32565b80156108625780601f1061083757610100808354040283529160200191610862565b820191906000526020600020905b81548152906001019060200180831161084557829003601f168201915b50505050509050919050565b6108766129ab565b600073ffffffffffffffffffffffffffffffffffffffff166006600083815260200190815260200160002060040160009054906101000a900473ffffffffffffffffffffffffffffffffffffffff1673ffffffffffffffffffffffffffffffffffffffff16141561091c576040517f08c379a000000000000000000000000000000000000000000000000000000000815260040161091390614ab0565b60405180910390fd5b600060066000838152602001908152602001600020905060005b8160060180549050811015610a0757600082600601828154811061095d5761095c614ad0565b5b9060005260206000200160009054906101000a900473ffffffffffffffffffffffffffffffffffffffff1690506000600960008373ffffffffffffffffffffffffffffffffffffffff1673ffffffffffffffffffffffffffffffffffffffff168152602001908152602001600020600086815260200190815260200160002060006101000a81548160ff0219169083151502179055505080806109ff90614b2e565b915050610936565b505050565b600073ffffffffffffffffffffffffffffffffffffffff166006600084815260200190815260200160002060040160009054906101000a900473ffffffffffffffffffffffffffffffffffffffff1673ffffffffffffffffffffffffffffffffffffffff161415610ab2576040517f08c379a0000000000000000000000000000000000000000000000000000000008152600401610aa990614ab0565b60405180910390fd5b610abc8233612425565b610afb576040517f08c379a0000000000000000000000000000000000000000000000000000000008152600401610af290614bc3565b60405180910390fd5b610b058233610e63565b610b44576040517f08c379a0000000000000000000000000000000000000000000000000000000008152600401610b3b90614c2f565b60405180910390fd5b6040518060400160405280600981526020017f44656c69766572656400000000000000000000000000000000000000000000008152508051906020012060066000848152602001908152602001600020600501604051610ba49190614cee565b60405180910390201415610bed576040517f08c379a0000000000000000000000000000000000000000000000000000000008152600401610be490614d51565b60405180910390fd5b6008600083815260200190815260200160002060003373ffffffffffffffffffffffffffffffffffffffff1673ffffffffffffffffffffffffffffffffffffffff16815260200190815260200160002081908060018154018082558091505060019003906000526020600020016000909190919091509080519060200190610c7692919061387a565b505050565b600b5481565b610c89612a29565b73ffffffffffffffffffffffffffffffffffffffff168573ffffffffffffffffffffffffffffffffffffffff161480610ccf5750610cce85610cc9612a29565b61253a565b5b610d0e576040517f08c379a0000000000000000000000000000000000000000000000000000000008152600401610d0590614de3565b60405180910390fd5b610d1b8585858585612a31565b5050505050565b600d5481565b610d306129ab565b6040518060a00160405280600a5481526020018381526020018481526020018281526020013373ffffffffffffffffffffffffffffffffffffffff1681525060056000600a54815260200190815260200160002060008201518160000155602082015181600101556040820151816002019080519060200190610db492919061387a565b506060820151816003019080519060200190610dd192919061387a565b5060808201518160040160006101000a81548173ffffffffffffffffffffffffffffffffffffffff021916908373ffffffffffffffffffffffffffffffffffffffff160217905550905050610e326001600a54612d5390919063ffffffff16565b600a81905550505050565b600c60009054906101000a900473ffffffffffffffffffffffffffffffffffffffff1681565b60008073ffffffffffffffffffffffffffffffffffffffff166006600085815260200190815260200160002060040160009054906101000a900473ffffffffffffffffffffffffffffffffffffffff1673ffffffffffffffffffffffffffffffffffffffff161415610f0a576040517f08c379a0000000000000000000000000000000000000000000000000000000008152600401610f0190614ab0565b60405180910390fd5b6000600960008473ffffffffffffffffffffffffffffffffffffffff1673ffffffffffffffffffffffffffffffffffffffff168152602001908152602001600020600085815260200190815260200160002060009054906101000a900460ff1690508091505092915050565b60608151835114610fbc576040517f08c379a0000000000000000000000000000000000000000000000000000000008152600401610fb390614e75565b60405180910390fd5b6000835167ffffffffffffffff811115610fd957610fd8613c66565b5b6040519080825280602002602001820160405280156110075781602001602082028036833780820191505090505b50905060005b84518110156110845761105485828151811061102c5761102b614ad0565b5b602002602001015185838151811061104757611046614ad0565b5b602002602001015161062f565b82828151811061106757611066614ad0565b5b6020026020010181815250508061107d90614b2e565b905061100d565b508091505092915050565b600073ffffffffffffffffffffffffffffffffffffffff166006600083815260200190815260200160002060040160009054906101000a900473ffffffffffffffffffffffffffffffffffffffff1673ffffffffffffffffffffffffffffffffffffffff161415611135576040517f08c379a000000000000000000000000000000000000000000000000000000000815260040161112c90614ab0565b60405180910390fd5b6006600082815260200190815260200160002060040160009054906101000a900473ffffffffffffffffffffffffffffffffffffffff1673ffffffffffffffffffffffffffffffffffffffff163373ffffffffffffffffffffffffffffffffffffffff16146111d9576040517f08c379a00000000000000000000000000000000000000000000000000000000081526004016111d090614f07565b60405180910390fd5b6000600660008381526020019081526020016000206001015490506000600660008481526020019081526020016000206002015490506040518060400160405280601281526020017f43616e63656c6c6564206279204275796572000000000000000000000000000081525060066000858152602001908152602001600020600501908051906020019061126e92919061387a565b50611298816007600085815260200190815260200160002060010154612d5390919063ffffffff16565b6007600084815260200190815260200160002060010181905550505050565b6112bf6129ab565b600073ffffffffffffffffffffffffffffffffffffffff166006600085815260200190815260200160002060040160009054906101000a900473ffffffffffffffffffffffffffffffffffffffff1673ffffffffffffffffffffffffffffffffffffffff161415611365576040517f08c379a000000000000000000000000000000000000000000000000000000000815260040161135c90614ab0565b60405180910390fd5b80600960008473ffffffffffffffffffffffffffffffffffffffff1673ffffffffffffffffffffffffffffffffffffffff168152602001908152602001600020600085815260200190815260200160002060006101000a81548160ff021916908315150217905550505050565b600a5481565b6113e06129ab565b6113ea6000612d69565b565b6113f46129ab565b60006005600085815260200190815260200160002060010154101561144e576040517f08c379a000000000000000000000000000000000000000000000000000000000815260040161144590614f99565b60405180910390fd5b611477826005600086815260200190815260200160002060010154612e2f90919063ffffffff16565b60056000858152602001908152602001600020600101819055506040518060a001604052808481526020018381526020018281526020016005600086815260200190815260200160002060030180546114cf90614a32565b80601f01602080910402602001604051908101604052809291908181526020018280546114fb90614a32565b80156115485780601f1061151d57610100808354040283529160200191611548565b820191906000526020600020905b81548152906001019060200180831161152b57829003601f168201915b505050505081526020013373ffffffffffffffffffffffffffffffffffffffff1681525060076000600d54815260200190815260200160002060008201518160000155602082015181600101556040820151816002015560608201518160030190805190602001906115bb92919061387a565b5060808201518160040160006101000a81548173ffffffffffffffffffffffffffffffffffffffff021916908373ffffffffffffffffffffffffffffffffffffffff16021790555090505061162133848460405180602001604052806000815250612e45565b6116376001600d54612d5390919063ffffffff16565b600d81905550505050565b600760205280600052604060002060009150905080600001549080600101549080600201549080600301805461167790614a32565b80601f01602080910402602001604051908101604052809291908181526020018280546116a390614a32565b80156116f05780601f106116c5576101008083540402835291602001916116f0565b820191906000526020600020905b8154815290600101906020018083116116d357829003601f168201915b5050505050908060040160009054906101000a900473ffffffffffffffffffffffffffffffffffffffff16905085565b6000600360009054906101000a900473ffffffffffffffffffffffffffffffffffffffff16905090565b80600760008481526020019081526020016000206001015410156117a3576040517f08c379a000000000000000000000000000000000000000000000000000000000815260040161179a9061502b565b60405180910390fd5b6000600167ffffffffffffffff8111156117c0576117bf613c66565b5b6040519080825280602002602001820160405280156117ee5781602001602082028036833780820191505090505b509050600c60009054906101000a900473ffffffffffffffffffffffffffffffffffffffff168160008151811061182857611827614ad0565b5b602002602001019073ffffffffffffffffffffffffffffffffffffffff16908173ffffffffffffffffffffffffffffffffffffffff16815250506040518060e00160405280600b5481526020018481526020018381526020016007600086815260200190815260200160002060040160009054906101000a900473ffffffffffffffffffffffffffffffffffffffff1673ffffffffffffffffffffffffffffffffffffffff1681526020013373ffffffffffffffffffffffffffffffffffffffff1681526020016040518060400160405280600781526020017f50656e64696e670000000000000000000000000000000000000000000000000081525081526020018281525060066000600b54815260200190815260200160002060008201518160000155602082015181600101556040820151816002015560608201518160030160006101000a81548173ffffffffffffffffffffffffffffffffffffffff021916908373ffffffffffffffffffffffffffffffffffffffff16021790555060808201518160040160006101000a81548173ffffffffffffffffffffffffffffffffffffffff021916908373ffffffffffffffffffffffffffffffffffffffff16021790555060a0820151816005019080519060200190611a0b92919061387a565b5060c0820151816006019080519060200190611a28929190613900565b5090505060086000600b5481526020019081526020016000206000600c60009054906101000a900473ffffffffffffffffffffffffffffffffffffffff1673ffffffffffffffffffffffffffffffffffffffff1673ffffffffffffffffffffffffffffffffffffffff16815260200190815260200160002080600181540180825580915050600190039060005260206000200160006040518060400160405280600681526020017f426f6f6b6564000000000000000000000000000000000000000000000000000081525090919091509080519060200190611b0b92919061387a565b50600160096000600c60009054906101000a900473ffffffffffffffffffffffffffffffffffffffff1673ffffffffffffffffffffffffffffffffffffffff1673ffffffffffffffffffffffffffffffffffffffff1681526020019081526020016000206000600b54815260200190815260200160002060006101000a81548160ff021916908315150217905550611bc2826007600086815260200190815260200160002060010154612e2f90919063ffffffff16565b6007600085815260200190815260200160002060010181905550611bf26001600b54612d5390919063ffffffff16565b600b81905550505050565b611c056129ab565b600073ffffffffffffffffffffffffffffffffffffffff166006600083815260200190815260200160002060040160009054906101000a900473ffffffffffffffffffffffffffffffffffffffff1673ffffffffffffffffffffffffffffffffffffffff161415611cab576040517f08c379a0000000000000000000000000000000000000000000000000000000008152600401611ca290615097565b60405180910390fd5b600060066000838152602001908152602001600020600101549050600060066000848152602001908152602001600020600201549050611d33336006600086815260200190815260200160002060040160009054906101000a900473ffffffffffffffffffffffffffffffffffffffff1684846040518060200160405280600081525061281c565b6040518060400160405280600981526020017f44656c6976657265640000000000000000000000000000000000000000000000815250600660008581526020019081526020016000206005019080519060200190611d9292919061387a565b50505050565b611daa611da3612a29565b8383612ff6565b5050565b60066020528060005260406000206000915090508060000154908060010154908060020154908060030160009054906101000a900473ffffffffffffffffffffffffffffffffffffffff16908060040160009054906101000a900473ffffffffffffffffffffffffffffffffffffffff1690806005018054611e2f90614a32565b80601f0160208091040260200160405190810160405280929190818152602001828054611e5b90614a32565b8015611ea85780601f10611e7d57610100808354040283529160200191611ea8565b820191906000526020600020905b815481529060010190602001808311611e8b57829003601f168201915b5050505050905086565b6005602052806000526040600020600091509050806000015490806001015490806002018054611ee190614a32565b80601f0160208091040260200160405190810160405280929190818152602001828054611f0d90614a32565b8015611f5a5780601f10611f2f57610100808354040283529160200191611f5a565b820191906000526020600020905b815481529060010190602001808311611f3d57829003601f168201915b505050505090806003018054611f6f90614a32565b80601f0160208091040260200160405190810160405280929190818152602001828054611f9b90614a32565b8015611fe85780601f10611fbd57610100808354040283529160200191611fe8565b820191906000526020600020905b815481529060010190602001808311611fcb57829003601f168201915b5050505050908060040160009054906101000a900473ffffffffffffffffffffffffffffffffffffffff16905085565b606080600073ffffffffffffffffffffffffffffffffffffffff166006600085815260200190815260200160002060040160009054906101000a900473ffffffffffffffffffffffffffffffffffffffff1673ffffffffffffffffffffffffffffffffffffffff1614156120c1576040517f08c379a00000000000000000000000000000000000000000000000000000000081526004016120b890615097565b60405180910390fd5b60006006600085815260200190815260200160002060060180548060200260200160405190810160405280929190818152602001828054801561215957602002820191906000526020600020905b8160009054906101000a900473ffffffffffffffffffffffffffffffffffffffff1673ffffffffffffffffffffffffffffffffffffffff168152602001906001019080831161210f575b505050505090506000815167ffffffffffffffff81111561217d5761217c613c66565b5b6040519080825280602002602001820160405280156121b057816020015b606081526020019060019003908161219b5790505b50905060005b82518110156124175760006008600088815260200190815260200160002060008584815181106121e9576121e8614ad0565b5b602002602001015173ffffffffffffffffffffffffffffffffffffffff1673ffffffffffffffffffffffffffffffffffffffff1681526020019081526020016000208054905090508067ffffffffffffffff81111561224b5761224a613c66565b5b60405190808252806020026020018201604052801561227e57816020015b60608152602001906001900390816122695790505b5083838151811061229257612291614ad0565b5b602002602001018190525060005b81811015612402576008600089815260200190815260200160002060008685815181106122d0576122cf614ad0565b5b602002602001015173ffffffffffffffffffffffffffffffffffffffff1673ffffffffffffffffffffffffffffffffffffffff168152602001908152602001600020818154811061232457612323614ad0565b5b90600052602060002001805461233990614a32565b80601f016020809104026020016040519081016040528092919081815260200182805461236590614a32565b80156123b25780601f10612387576101008083540402835291602001916123b2565b820191906000526020600020905b81548152906001019060200180831161239557829003601f168201915b50505050508484815181106123ca576123c9614ad0565b5b602002602001015182815181106123e4576123e3614ad0565b5b602002602001018190525080806123fa90614b2e565b9150506122a0565b5050808061240f90614b2e565b9150506121b6565b508181935093505050915091565b60008060066000858152602001908152602001600020905060005b81600601805490508110156124e1578373ffffffffffffffffffffffffffffffffffffffff1682600601828154811061247c5761247b614ad0565b5b9060005260206000200160009054906101000a900473ffffffffffffffffffffffffffffffffffffffff1673ffffffffffffffffffffffffffffffffffffffff1614156124ce576001925050506124e8565b80806124d990614b2e565b915050612440565b5060009150505b92915050565b6124f66129ab565b80600c60006101000a81548173ffffffffffffffffffffffffffffffffffffffff021916908373ffffffffffffffffffffffffffffffffffffffff16021790555050565b6000600160008473ffffffffffffffffffffffffffffffffffffffff1673ffffffffffffffffffffffffffffffffffffffff16815260200190815260200160002060008373ffffffffffffffffffffffffffffffffffffffff1673ffffffffffffffffffffffffffffffffffffffff16815260200190815260200160002060009054906101000a900460ff16905092915050565b6125d66129ab565b600073ffffffffffffffffffffffffffffffffffffffff166006600084815260200190815260200160002060040160009054906101000a900473ffffffffffffffffffffffffffffffffffffffff1673ffffffffffffffffffffffffffffffffffffffff16141561267c576040517f08c379a000000000000000000000000000000000000000000000000000000000815260040161267390614ab0565b60405180910390fd5b60066000838152602001908152602001600020600601819080600181540180825580915050600190039060005260206000200160009091909190916101000a81548173ffffffffffffffffffffffffffffffffffffffff021916908373ffffffffffffffffffffffffffffffffffffffff1602179055506001600960008373ffffffffffffffffffffffffffffffffffffffff1673ffffffffffffffffffffffffffffffffffffffff168152602001908152602001600020600084815260200190815260200160002060006101000a81548160ff0219169083151502179055506008600083815260200190815260200160002060008273ffffffffffffffffffffffffffffffffffffffff1673ffffffffffffffffffffffffffffffffffffffff16815260200190815260200160002080600181540180825580915050600190039060005260206000200160006040518060400160405280600781526020017f50656e64696e67000000000000000000000000000000000000000000000000008152509091909150908051906020019061281792919061387a565b505050565b612824612a29565b73ffffffffffffffffffffffffffffffffffffffff168573ffffffffffffffffffffffffffffffffffffffff16148061286a575061286985612864612a29565b61253a565b5b6128a9576040517f08c379a00000000000000000000000000000000000000000000000000000000081526004016128a090614de3565b60405180910390fd5b6128b68585858585613163565b5050505050565b6128c56129ab565b600073ffffffffffffffffffffffffffffffffffffffff168173ffffffffffffffffffffffffffffffffffffffff161415612935576040517f08c379a000000000000000000000000000000000000000000000000000000000815260040161292c90615129565b60405180910390fd5b61293e81612d69565b50565b60007f01ffc9a7000000000000000000000000000000000000000000000000000000007bffffffffffffffffffffffffffffffffffffffffffffffffffffffff1916827bffffffffffffffffffffffffffffffffffffffffffffffffffffffff1916149050919050565b6129b3612a29565b73ffffffffffffffffffffffffffffffffffffffff166129d1611720565b73ffffffffffffffffffffffffffffffffffffffff1614612a27576040517f08c379a0000000000000000000000000000000000000000000000000000000008152600401612a1e90615195565b60405180910390fd5b565b600033905090565b8151835114612a75576040517f08c379a0000000000000000000000000000000000000000000000000000000008152600401612a6c90615227565b60405180910390fd5b600073ffffffffffffffffffffffffffffffffffffffff168473ffffffffffffffffffffffffffffffffffffffff161415612ae5576040517f08c379a0000000000000000000000000000000000000000000000000000000008152600401612adc906152b9565b60405180910390fd5b6000612aef612a29565b9050612aff8187878787876133ff565b60005b8451811015612cb0576000858281518110612b2057612b1f614ad0565b5b602002602001015190506000858381518110612b3f57612b3e614ad0565b5b60200260200101519050600080600084815260200190815260200160002060008b73ffffffffffffffffffffffffffffffffffffffff1673ffffffffffffffffffffffffffffffffffffffff16815260200190815260200160002054905081811015612be0576040517f08c379a0000000000000000000000000000000000000000000000000000000008152600401612bd79061534b565b60405180910390fd5b81810360008085815260200190815260200160002060008c73ffffffffffffffffffffffffffffffffffffffff1673ffffffffffffffffffffffffffffffffffffffff168152602001908152602001600020819055508160008085815260200190815260200160002060008b73ffffffffffffffffffffffffffffffffffffffff1673ffffffffffffffffffffffffffffffffffffffff1681526020019081526020016000206000828254612c95919061536b565b9250508190555050505080612ca990614b2e565b9050612b02565b508473ffffffffffffffffffffffffffffffffffffffff168673ffffffffffffffffffffffffffffffffffffffff168273ffffffffffffffffffffffffffffffffffffffff167f4a39dc06d4c0dbc64b70af90fd698a233a518aa5d07e595d983b8c0526c8f7fb8787604051612d279291906153c1565b60405180910390a4612d3d818787878787613407565b612d4b81878787878761340f565b505050505050565b60008183612d61919061536b565b905092915050565b6000600360009054906101000a900473ffffffffffffffffffffffffffffffffffffffff16905081600360006101000a81548173ffffffffffffffffffffffffffffffffffffffff021916908373ffffffffffffffffffffffffffffffffffffffff1602179055508173ffffffffffffffffffffffffffffffffffffffff168173ffffffffffffffffffffffffffffffffffffffff167f8be0079c531659141344cd1fd0a4f28419497f9722a3daafe3b4186f6b6457e060405160405180910390a35050565b60008183612e3d91906153f8565b905092915050565b600073ffffffffffffffffffffffffffffffffffffffff168473ffffffffffffffffffffffffffffffffffffffff161415612eb5576040517f08c379a0000000000000000000000000000000000000000000000000000000008152600401612eac9061549e565b60405180910390fd5b6000612ebf612a29565b90506000612ecc856135f6565b90506000612ed9856135f6565b9050612eea836000898585896133ff565b8460008088815260200190815260200160002060008973ffffffffffffffffffffffffffffffffffffffff1673ffffffffffffffffffffffffffffffffffffffff1681526020019081526020016000206000828254612f49919061536b565b925050819055508673ffffffffffffffffffffffffffffffffffffffff16600073ffffffffffffffffffffffffffffffffffffffff168473ffffffffffffffffffffffffffffffffffffffff167fc3d58168c5ae7397731d063d5bbf3d657854427343f4c083240f7aacaa2d0f628989604051612fc79291906154be565b60405180910390a4612fde83600089858589613407565b612fed83600089898989613670565b50505050505050565b8173ffffffffffffffffffffffffffffffffffffffff168373ffffffffffffffffffffffffffffffffffffffff161415613065576040517f08c379a000000000000000000000000000000000000000000000000000000000815260040161305c90615559565b60405180910390fd5b80600160008573ffffffffffffffffffffffffffffffffffffffff1673ffffffffffffffffffffffffffffffffffffffff16815260200190815260200160002060008473ffffffffffffffffffffffffffffffffffffffff1673ffffffffffffffffffffffffffffffffffffffff16815260200190815260200160002060006101000a81548160ff0219169083151502179055508173ffffffffffffffffffffffffffffffffffffffff168373ffffffffffffffffffffffffffffffffffffffff167f17307eab39ab6107e8899845ad3d59bd9653f200f220920489ca2b5937696c31836040516131569190613b59565b60405180910390a3505050565b600073ffffffffffffffffffffffffffffffffffffffff168473ffffffffffffffffffffffffffffffffffffffff1614156131d3576040517f08c379a00000000000000000000000000000000000000000000000000000000081526004016131ca906152b9565b60405180910390fd5b60006131dd612a29565b905060006131ea856135f6565b905060006131f7856135f6565b90506132078389898585896133ff565b600080600088815260200190815260200160002060008a73ffffffffffffffffffffffffffffffffffffffff1673ffffffffffffffffffffffffffffffffffffffff1681526020019081526020016000205490508581101561329e576040517f08c379a00000000000000000000000000000000000000000000000000000000081526004016132959061534b565b60405180910390fd5b85810360008089815260200190815260200160002060008b73ffffffffffffffffffffffffffffffffffffffff1673ffffffffffffffffffffffffffffffffffffffff168152602001908152602001600020819055508560008089815260200190815260200160002060008a73ffffffffffffffffffffffffffffffffffffffff1673ffffffffffffffffffffffffffffffffffffffff1681526020019081526020016000206000828254613353919061536b565b925050819055508773ffffffffffffffffffffffffffffffffffffffff168973ffffffffffffffffffffffffffffffffffffffff168573ffffffffffffffffffffffffffffffffffffffff167fc3d58168c5ae7397731d063d5bbf3d657854427343f4c083240f7aacaa2d0f628a8a6040516133d09291906154be565b60405180910390a46133e6848a8a86868a613407565b6133f4848a8a8a8a8a613670565b505050505050505050565b505050505050565b505050505050565b61342e8473ffffffffffffffffffffffffffffffffffffffff16613857565b156135ee578373ffffffffffffffffffffffffffffffffffffffff1663bc197c8187878686866040518663ffffffff1660e01b81526004016134749594939291906155ce565b602060405180830381600087803b15801561348e57600080fd5b505af19250505080156134bf57506040513d601f19601f820116820180604052508101906134bc919061564b565b60015b613565576134cb615685565b806308c379a0141561352857506134e06156a7565b806134eb575061352a565b806040517f08c379a000000000000000000000000000000000000000000000000000000000815260040161351f9190613c3a565b60405180910390fd5b505b6040517f08c379a000000000000000000000000000000000000000000000000000000000815260040161355c906157af565b60405180910390fd5b63bc197c8160e01b7bffffffffffffffffffffffffffffffffffffffffffffffffffffffff1916817bffffffffffffffffffffffffffffffffffffffffffffffffffffffff1916146135ec576040517f08c379a00000000000000000000000000000000000000000000000000000000081526004016135e390615841565b60405180910390fd5b505b505050505050565b60606000600167ffffffffffffffff81111561361557613614613c66565b5b6040519080825280602002602001820160405280156136435781602001602082028036833780820191505090505b509050828160008151811061365b5761365a614ad0565b5b60200260200101818152505080915050919050565b61368f8473ffffffffffffffffffffffffffffffffffffffff16613857565b1561384f578373ffffffffffffffffffffffffffffffffffffffff1663f23a6e6187878686866040518663ffffffff1660e01b81526004016136d5959493929190615861565b602060405180830381600087803b1580156136ef57600080fd5b505af192505050801561372057506040513d601f19601f8201168201806040525081019061371d919061564b565b60015b6137c65761372c615685565b806308c379a0141561378957506137416156a7565b8061374c575061378b565b806040517f08c379a00000000000000000000000000000000000000000000000000000000081526004016137809190613c3a565b60405180910390fd5b505b6040517f08c379a00000000000000000000000000000000000000000000000000000000081526004016137bd906157af565b60405180910390fd5b63f23a6e6160e01b7bffffffffffffffffffffffffffffffffffffffffffffffffffffffff1916817bffffffffffffffffffffffffffffffffffffffffffffffffffffffff19161461384d576040517f08c379a000000000000000000000000000000000000000000000000000000000815260040161384490615841565b60405180910390fd5b505b505050505050565b6000808273ffffffffffffffffffffffffffffffffffffffff163b119050919050565b82805461388690614a32565b90600052602060002090601f0160209004810192826138a857600085556138ef565b82601f106138c157805160ff19168380011785556138ef565b828001600101855582156138ef579182015b828111156138ee5782518255916020019190600101906138d3565b5b5090506138fc919061398a565b5090565b828054828255906000526020600020908101928215613979579160200282015b828111156139785782518260006101000a81548173ffffffffffffffffffffffffffffffffffffffff021916908373ffffffffffffffffffffffffffffffffffffffff16021790555091602001919060010190613920565b5b509050613986919061398a565b5090565b5b808211156139a357600081600090555060010161398b565b5090565b6000604051905090565b600080fd5b600080fd5b600073ffffffffffffffffffffffffffffffffffffffff82169050919050565b60006139e6826139bb565b9050919050565b6139f6816139db565b8114613a0157600080fd5b50565b600081359050613a13816139ed565b92915050565b6000819050919050565b613a2c81613a19565b8114613a3757600080fd5b50565b600081359050613a4981613a23565b92915050565b60008060408385031215613a6657613a656139b1565b5b6000613a7485828601613a04565b9250506020613a8585828601613a3a565b9150509250929050565b613a9881613a19565b82525050565b6000602082019050613ab36000830184613a8f565b92915050565b60007fffffffff0000000000000000000000000000000000000000000000000000000082169050919050565b613aee81613ab9565b8114613af957600080fd5b50565b600081359050613b0b81613ae5565b92915050565b600060208284031215613b2757613b266139b1565b5b6000613b3584828501613afc565b91505092915050565b60008115159050919050565b613b5381613b3e565b82525050565b6000602082019050613b6e6000830184613b4a565b92915050565b600060208284031215613b8a57613b896139b1565b5b6000613b9884828501613a3a565b91505092915050565b600081519050919050565b600082825260208201905092915050565b60005b83811015613bdb578082015181840152602081019050613bc0565b83811115613bea576000848401525b50505050565b6000601f19601f8301169050919050565b6000613c0c82613ba1565b613c168185613bac565b9350613c26818560208601613bbd565b613c2f81613bf0565b840191505092915050565b60006020820190508181036000830152613c548184613c01565b905092915050565b600080fd5b600080fd5b7f4e487b7100000000000000000000000000000000000000000000000000000000600052604160045260246000fd5b613c9e82613bf0565b810181811067ffffffffffffffff82111715613cbd57613cbc613c66565b5b80604052505050565b6000613cd06139a7565b9050613cdc8282613c95565b919050565b600067ffffffffffffffff821115613cfc57613cfb613c66565b5b613d0582613bf0565b9050602081019050919050565b82818337600083830152505050565b6000613d34613d2f84613ce1565b613cc6565b905082815260208101848484011115613d5057613d4f613c61565b5b613d5b848285613d12565b509392505050565b600082601f830112613d7857613d77613c5c565b5b8135613d88848260208601613d21565b91505092915050565b60008060408385031215613da857613da76139b1565b5b6000613db685828601613a3a565b925050602083013567ffffffffffffffff811115613dd757613dd66139b6565b5b613de385828601613d63565b9150509250929050565b600067ffffffffffffffff821115613e0857613e07613c66565b5b602082029050602081019050919050565b600080fd5b6000613e31613e2c84613ded565b613cc6565b90508083825260208201905060208402830185811115613e5457613e53613e19565b5b835b81811015613e7d5780613e698882613a3a565b845260208401935050602081019050613e56565b5050509392505050565b600082601f830112613e9c57613e9b613c5c565b5b8135613eac848260208601613e1e565b91505092915050565b600067ffffffffffffffff821115613ed057613ecf613c66565b5b613ed982613bf0565b9050602081019050919050565b6000613ef9613ef484613eb5565b613cc6565b905082815260208101848484011115613f1557613f14613c61565b5b613f20848285613d12565b509392505050565b600082601f830112613f3d57613f3c613c5c565b5b8135613f4d848260208601613ee6565b91505092915050565b600080600080600060a08688031215613f7257613f716139b1565b5b6000613f8088828901613a04565b9550506020613f9188828901613a04565b945050604086013567ffffffffffffffff811115613fb257613fb16139b6565b5b613fbe88828901613e87565b935050606086013567ffffffffffffffff811115613fdf57613fde6139b6565b5b613feb88828901613e87565b925050608086013567ffffffffffffffff81111561400c5761400b6139b6565b5b61401888828901613f28565b9150509295509295909350565b60008060006060848603121561403e5761403d6139b1565b5b600084013567ffffffffffffffff81111561405c5761405b6139b6565b5b61406886828701613d63565b935050602061407986828701613a3a565b925050604084013567ffffffffffffffff81111561409a576140996139b6565b5b6140a686828701613d63565b9150509250925092565b6140b9816139db565b82525050565b60006020820190506140d460008301846140b0565b92915050565b600080604083850312156140f1576140f06139b1565b5b60006140ff85828601613a3a565b925050602061411085828601613a04565b9150509250929050565b600067ffffffffffffffff82111561413557614134613c66565b5b602082029050602081019050919050565b60006141596141548461411a565b613cc6565b9050808382526020820190506020840283018581111561417c5761417b613e19565b5b835b818110156141a557806141918882613a04565b84526020840193505060208101905061417e565b5050509392505050565b600082601f8301126141c4576141c3613c5c565b5b81356141d4848260208601614146565b91505092915050565b600080604083850312156141f4576141f36139b1565b5b600083013567ffffffffffffffff811115614212576142116139b6565b5b61421e858286016141af565b925050602083013567ffffffffffffffff81111561423f5761423e6139b6565b5b61424b85828601613e87565b9150509250929050565b600081519050919050565b600082825260208201905092915050565b6000819050602082019050919050565b61428a81613a19565b82525050565b600061429c8383614281565b60208301905092915050565b6000602082019050919050565b60006142c082614255565b6142ca8185614260565b93506142d583614271565b8060005b838110156143065781516142ed8882614290565b97506142f8836142a8565b9250506001810190506142d9565b5085935050505092915050565b6000602082019050818103600083015261432d81846142b5565b905092915050565b61433e81613b3e565b811461434957600080fd5b50565b60008135905061435b81614335565b92915050565b60008060006060848603121561437a576143796139b1565b5b600061438886828701613a3a565b935050602061439986828701613a04565b92505060406143aa8682870161434c565b9150509250925092565b6000806000606084860312156143cd576143cc6139b1565b5b60006143db86828701613a3a565b93505060206143ec86828701613a3a565b92505060406143fd86828701613a3a565b9150509250925092565b600060a08201905061441c6000830188613a8f565b6144296020830187613a8f565b6144366040830186613a8f565b81810360608301526144488185613c01565b905061445760808301846140b0565b9695505050505050565b60008060408385031215614478576144776139b1565b5b600061448685828601613a3a565b925050602061449785828601613a3a565b9150509250929050565b600080604083850312156144b8576144b76139b1565b5b60006144c685828601613a04565b92505060206144d78582860161434c565b9150509250929050565b600060c0820190506144f66000830189613a8f565b6145036020830188613a8f565b6145106040830187613a8f565b61451d60608301866140b0565b61452a60808301856140b0565b81810360a083015261453c8184613c01565b9050979650505050505050565b600060a08201905061455e6000830188613a8f565b61456b6020830187613a8f565b818103604083015261457d8186613c01565b905081810360608301526145918185613c01565b90506145a060808301846140b0565b9695505050505050565b600081519050919050565b600082825260208201905092915050565b6000819050602082019050919050565b6145df816139db565b82525050565b60006145f183836145d6565b60208301905092915050565b6000602082019050919050565b6000614615826145aa565b61461f81856145b5565b935061462a836145c6565b8060005b8381101561465b57815161464288826145e5565b975061464d836145fd565b92505060018101905061462e565b5085935050505092915050565b600081519050919050565b600082825260208201905092915050565b6000819050602082019050919050565b600081519050919050565b600082825260208201905092915050565b6000819050602082019050919050565b600082825260208201905092915050565b60006146dc82613ba1565b6146e681856146c0565b93506146f6818560208601613bbd565b6146ff81613bf0565b840191505092915050565b600061471683836146d1565b905092915050565b6000602082019050919050565b600061473682614694565b614740818561469f565b935083602082028501614752856146b0565b8060005b8581101561478e578484038952815161476f858261470a565b945061477a8361471e565b925060208a01995050600181019050614756565b50829750879550505050505092915050565b60006147ac838361472b565b905092915050565b6000602082019050919050565b60006147cc82614668565b6147d68185614673565b9350836020820285016147e885614684565b8060005b85811015614824578484038952815161480585826147a0565b9450614810836147b4565b925060208a019950506001810190506147ec565b50829750879550505050505092915050565b60006040820190508181036000830152614850818561460a565b9050818103602083015261486481846147c1565b90509392505050565b600060208284031215614883576148826139b1565b5b600061489184828501613a04565b91505092915050565b600080604083850312156148b1576148b06139b1565b5b60006148bf85828601613a04565b92505060206148d085828601613a04565b9150509250929050565b600080600080600060a086880312156148f6576148f56139b1565b5b600061490488828901613a04565b955050602061491588828901613a04565b945050604061492688828901613a3a565b935050606061493788828901613a3a565b925050608086013567ffffffffffffffff811115614958576149576139b6565b5b61496488828901613f28565b9150509295509295909350565b7f455243313135353a2061646472657373207a65726f206973206e6f742061207660008201527f616c6964206f776e657200000000000000000000000000000000000000000000602082015250565b60006149cd602a83613bac565b91506149d882614971565b604082019050919050565b600060208201905081810360008301526149fc816149c0565b9050919050565b7f4e487b7100000000000000000000000000000000000000000000000000000000600052602260045260246000fd5b60006002820490506001821680614a4a57607f821691505b60208210811415614a5e57614a5d614a03565b5b50919050565b7f4f7264657220646f6573206e6f74206578697374000000000000000000000000600082015250565b6000614a9a601483613bac565b9150614aa582614a64565b602082019050919050565b60006020820190508181036000830152614ac981614a8d565b9050919050565b7f4e487b7100000000000000000000000000000000000000000000000000000000600052603260045260246000fd5b7f4e487b7100000000000000000000000000000000000000000000000000000000600052601160045260246000fd5b6000614b3982613a19565b91507fffffffffffffffffffffffffffffffffffffffffffffffffffffffffffffffff821415614b6c57614b6b614aff565b5b600182019050919050565b7f4e6f7420616e2061737369676e656420696e7465726d65646961727900000000600082015250565b6000614bad601c83613bac565b9150614bb882614b77565b602082019050919050565b60006020820190508181036000830152614bdc81614ba0565b9050919050565b7f496e7465726d65646961727920616363657373206e6f74206163746976650000600082015250565b6000614c19601e83613bac565b9150614c2482614be3565b602082019050919050565b60006020820190508181036000830152614c4881614c0c565b9050919050565b600081905092915050565b60008190508160005260206000209050919050565b60008154614c7c81614a32565b614c868186614c4f565b94506001821660008114614ca15760018114614cb257614ce5565b60ff19831686528186019350614ce5565b614cbb85614c5a565b60005b83811015614cdd57815481890152600182019150602081019050614cbe565b838801955050505b50505092915050565b6000614cfa8284614c6f565b915081905092915050565b7f4f726465722044656c6976657265640000000000000000000000000000000000600082015250565b6000614d3b600f83613bac565b9150614d4682614d05565b602082019050919050565b60006020820190508181036000830152614d6a81614d2e565b9050919050565b7f455243313135353a2063616c6c6572206973206e6f7420746f6b656e206f776e60008201527f6572206f7220617070726f766564000000000000000000000000000000000000602082015250565b6000614dcd602e83613bac565b9150614dd882614d71565b604082019050919050565b60006020820190508181036000830152614dfc81614dc0565b9050919050565b7f455243313135353a206163636f756e747320616e6420696473206c656e67746860008201527f206d69736d617463680000000000000000000000000000000000000000000000602082015250565b6000614e5f602983613bac565b9150614e6a82614e03565b604082019050919050565b60006020820190508181036000830152614e8e81614e52565b9050919050565b7f4f6e6c79207468652062757965722063616e2063616e63656c2074686520697460008201527f656d000000000000000000000000000000000000000000000000000000000000602082015250565b6000614ef1602283613bac565b9150614efc82614e95565b604082019050919050565b60006020820190508181036000830152614f2081614ee4565b9050919050565b7f496e73756666696369656e74207175616e7469747920696e207468652069746560008201527f6d00000000000000000000000000000000000000000000000000000000000000602082015250565b6000614f83602183613bac565b9150614f8e82614f27565b604082019050919050565b60006020820190508181036000830152614fb281614f76565b9050919050565b7f4974656d206973206e6f74206c697374656420666f722073616c65206f72206960008201527f6e73756666696369656e74207175616e74697479000000000000000000000000602082015250565b6000615015603483613bac565b915061502082614fb9565b604082019050919050565b6000602082019050818103600083015261504481615008565b9050919050565b7f4f7264657220494420646f6573206e6f74206578697374000000000000000000600082015250565b6000615081601783613bac565b915061508c8261504b565b602082019050919050565b600060208201905081810360008301526150b081615074565b9050919050565b7f4f776e61626c653a206e6577206f776e657220697320746865207a65726f206160008201527f6464726573730000000000000000000000000000000000000000000000000000602082015250565b6000615113602683613bac565b915061511e826150b7565b604082019050919050565b6000602082019050818103600083015261514281615106565b9050919050565b7f4f776e61626c653a2063616c6c6572206973206e6f7420746865206f776e6572600082015250565b600061517f602083613bac565b915061518a82615149565b602082019050919050565b600060208201905081810360008301526151ae81615172565b9050919050565b7f455243313135353a2069647320616e6420616d6f756e7473206c656e6774682060008201527f6d69736d61746368000000000000000000000000000000000000000000000000602082015250565b6000615211602883613bac565b915061521c826151b5565b604082019050919050565b6000602082019050818103600083015261524081615204565b9050919050565b7f455243313135353a207472616e7366657220746f20746865207a65726f20616460008201527f6472657373000000000000000000000000000000000000000000000000000000602082015250565b60006152a3602583613bac565b91506152ae82615247565b604082019050919050565b600060208201905081810360008301526152d281615296565b9050919050565b7f455243313135353a20696e73756666696369656e742062616c616e636520666f60008201527f72207472616e7366657200000000000000000000000000000000000000000000602082015250565b6000615335602a83613bac565b9150615340826152d9565b604082019050919050565b6000602082019050818103600083015261536481615328565b9050919050565b600061537682613a19565b915061538183613a19565b9250827fffffffffffffffffffffffffffffffffffffffffffffffffffffffffffffffff038211156153b6576153b5614aff565b5b828201905092915050565b600060408201905081810360008301526153db81856142b5565b905081810360208301526153ef81846142b5565b90509392505050565b600061540382613a19565b915061540e83613a19565b92508282101561542157615420614aff565b5b828203905092915050565b7f455243313135353a206d696e7420746f20746865207a65726f2061646472657360008201527f7300000000000000000000000000000000000000000000000000000000000000602082015250565b6000615488602183613bac565b91506154938261542c565b604082019050919050565b600060208201905081810360008301526154b78161547b565b9050919050565b60006040820190506154d36000830185613a8f565b6154e06020830184613a8f565b9392505050565b7f455243313135353a2073657474696e6720617070726f76616c2073746174757360008201527f20666f722073656c660000000000000000000000000000000000000000000000602082015250565b6000615543602983613bac565b915061554e826154e7565b604082019050919050565b6000602082019050818103600083015261557281615536565b9050919050565b600081519050919050565b600082825260208201905092915050565b60006155a082615579565b6155aa8185615584565b93506155ba818560208601613bbd565b6155c381613bf0565b840191505092915050565b600060a0820190506155e360008301886140b0565b6155f060208301876140b0565b818103604083015261560281866142b5565b9050818103606083015261561681856142b5565b9050818103608083015261562a8184615595565b90509695505050505050565b60008151905061564581613ae5565b92915050565b600060208284031215615661576156606139b1565b5b600061566f84828501615636565b91505092915050565b60008160e01c9050919050565b600060033d11156156a45760046000803e6156a1600051615678565b90505b90565b600060443d10156156b75761573a565b6156bf6139a7565b60043d036004823e80513d602482011167ffffffffffffffff821117156156e757505061573a565b808201805167ffffffffffffffff811115615705575050505061573a565b80602083010160043d03850181111561572257505050505061573a565b61573182602001850186613c95565b82955050505050505b90565b7f455243313135353a207472616e7366657220746f206e6f6e2d4552433131353560008201527f526563656976657220696d706c656d656e746572000000000000000000000000602082015250565b6000615799603483613bac565b91506157a48261573d565b604082019050919050565b600060208201905081810360008301526157c88161578c565b9050919050565b7f455243313135353a204552433131353552656365697665722072656a6563746560008201527f6420746f6b656e73000000000000000000000000000000000000000000000000602082015250565b600061582b602883613bac565b9150615836826157cf565b604082019050919050565b6000602082019050818103600083015261585a8161581e565b9050919050565b600060a08201905061587660008301886140b0565b61588360208301876140b0565b6158906040830186613a8f565b61589d6060830185613a8f565b81810360808301526158af8184615595565b9050969550505050505056fea2646970667358221220e15d9fbe962d513581ad2d70a5ee84cf8f9698aa8893dab27e65d087f1a44c1364736f6c63430008090033",
  "linkReferences": {},
  "deployedLinkReferences": {}
}